{
  "contractName": "Bank",
  "abi": [
    {
      "inputs": [],
      "payable": false,
      "stateMutability": "nonpayable",
      "type": "constructor"
    },
    {
      "constant": true,
      "inputs": [],
      "name": "getBalance",
      "outputs": [
        {
          "name": "",
          "type": "uint256"
        }
      ],
      "payable": false,
      "stateMutability": "view",
      "type": "function"
    },
    {
      "constant": true,
      "inputs": [
        {
          "name": "_userWallet",
          "type": "address"
        }
      ],
      "name": "getBankAccountAddress",
      "outputs": [
        {
          "name": "",
          "type": "address"
        }
      ],
      "payable": false,
      "stateMutability": "view",
      "type": "function"
    },
    {
      "constant": true,
      "inputs": [
        {
          "name": "_groupNumber",
          "type": "uint256"
        }
      ],
      "name": "getTrustGroupDetails",
      "outputs": [
        {
          "name": "",
          "type": "address[]"
        }
      ],
      "payable": false,
      "stateMutability": "view",
      "type": "function"
    },
    {
      "constant": true,
      "inputs": [
        {
          "name": "_groupNumber",
          "type": "uint256"
        }
      ],
      "name": "getTrustAccountAddress",
      "outputs": [
        {
          "name": "",
          "type": "address"
        }
      ],
      "payable": false,
      "stateMutability": "view",
      "type": "function"
    },
    {
      "constant": false,
      "inputs": [
        {
          "name": "_toLock",
          "type": "address"
        }
      ],
      "name": "lockAddress",
      "outputs": [],
      "payable": false,
      "stateMutability": "nonpayable",
      "type": "function"
    },
    {
      "constant": false,
      "inputs": [
        {
          "name": "_toUnlock",
          "type": "address"
        }
      ],
      "name": "unlockAddress",
      "outputs": [],
      "payable": false,
      "stateMutability": "nonpayable",
      "type": "function"
    },
    {
      "constant": false,
      "inputs": [],
      "name": "createAccessAccount",
      "outputs": [
        {
          "name": "",
          "type": "address"
        }
      ],
      "payable": false,
      "stateMutability": "nonpayable",
      "type": "function"
    },
    {
      "constant": false,
      "inputs": [],
      "name": "creatingDelayAccount",
      "outputs": [
        {
          "name": "",
          "type": "address"
        }
      ],
      "payable": false,
      "stateMutability": "nonpayable",
      "type": "function"
    },
    {
      "constant": false,
      "inputs": [
        {
          "name": "_owners",
          "type": "address[]"
        }
      ],
      "name": "creatingTrustAccount",
      "outputs": [
        {
          "name": "",
          "type": "address"
        }
      ],
      "payable": false,
      "stateMutability": "nonpayable",
      "type": "function"
    },
    {
      "constant": false,
      "inputs": [
        {
          "name": "_owner",
          "type": "address"
        }
      ],
      "name": "lockAccount",
      "outputs": [],
      "payable": false,
      "stateMutability": "nonpayable",
      "type": "function"
    },
    {
      "constant": false,
      "inputs": [
        {
          "name": "_owner",
          "type": "address"
        }
      ],
      "name": "unlockAccount",
      "outputs": [],
      "payable": false,
      "stateMutability": "nonpayable",
      "type": "function"
    },
    {
      "constant": false,
      "inputs": [
        {
          "name": "_trustGroupNumber",
          "type": "uint256"
        }
      ],
      "name": "lockTrustAccount",
      "outputs": [],
      "payable": false,
      "stateMutability": "nonpayable",
      "type": "function"
    },
    {
      "constant": false,
      "inputs": [
        {
          "name": "_trustGroupNumber",
          "type": "uint256"
        }
      ],
      "name": "unlockTrustAccount",
      "outputs": [],
      "payable": false,
      "stateMutability": "nonpayable",
      "type": "function"
    },
    {
      "constant": false,
      "inputs": [
        {
          "name": "_oldAddress",
          "type": "address"
        },
        {
          "name": "_newAddress",
          "type": "address"
        }
      ],
      "name": "changeOwnership",
      "outputs": [],
      "payable": false,
      "stateMutability": "nonpayable",
      "type": "function"
    },
    {
      "constant": false,
      "inputs": [
        {
          "name": "_oldAddress",
          "type": "address"
        },
        {
          "name": "_newAddress",
          "type": "address"
        },
        {
          "name": "_groupNumber",
          "type": "uint256"
        }
      ],
      "name": "changeOwnershipTrustGroup",
      "outputs": [],
      "payable": false,
      "stateMutability": "nonpayable",
      "type": "function"
    },
    {
      "constant": false,
      "inputs": [
        {
          "name": "_newLimit",
          "type": "uint256"
        }
      ],
      "name": "newAccountLimitModifier",
      "outputs": [],
      "payable": false,
      "stateMutability": "nonpayable",
      "type": "function"
    },
    {
      "constant": false,
      "inputs": [
        {
          "name": "_account",
          "type": "address"
        },
        {
          "name": "_newLimit",
          "type": "uint256"
        }
      ],
      "name": "accountLimitModifier",
      "outputs": [],
      "payable": false,
      "stateMutability": "nonpayable",
      "type": "function"
    },
    {
      "constant": false,
      "inputs": [
        {
          "name": "_account",
          "type": "address"
        }
      ],
      "name": "dissolveAccount",
      "outputs": [],
      "payable": false,
      "stateMutability": "nonpayable",
      "type": "function"
    }
  ],
  "bytecode": "0x60806040526000600155619c4060025534801561001b57600080fd5b5060008054600160a060020a03191633179055615b0a8061003d6000396000f3006080604052600436106200010e5763ffffffff7c010000000000000000000000000000000000000000000000000000000060003504166312065fe0811462000113578063321d2529146200013d5780633491b681146200016657806334a90d0214620001a657806347a64f4414620001a65780635c46be6914620001ca5780637e7afba61462000237578063905295e314620002525780639a17f1d31462000276578063a633f12314620002a3578063a85320d314620002bb578063b7eb5e0a1462000252578063bad1a14b14620002d6578063bf93a8be14620002f1578063c1cd1d8b146200031b578063d87c638d1462000333578063df8a9aff146200034e578063e2a5ae3a14620003a6575b600080fd5b3480156200012057600080fd5b506200012b620003ca565b60408051918252519081900360200190f35b3480156200014a57600080fd5b5062000164600160a060020a03600435166024356200042a565b005b3480156200017357600080fd5b506200018a600160a060020a03600435166200059f565b60408051600160a060020a039092168252519081900360200190f35b348015620001b357600080fd5b5062000164600160a060020a03600435166200061a565b348015620001d757600080fd5b50620001e560043562000704565b60408051602080825283518183015283519192839290830191858101910280838360005b838110156200022357818101518382015260200162000209565b505050509050019250505060405180910390f35b3480156200024457600080fd5b506200018a600435620007cb565b3480156200025f57600080fd5b5062000164600160a060020a036004351662000843565b3480156200028357600080fd5b5062000164600160a060020a03600435811690602435166044356200090f565b348015620002b057600080fd5b506200018a62000aa2565b348015620002c857600080fd5b506200016460043562000bce565b348015620002e357600080fd5b506200016460043562000c9a565b348015620002fe57600080fd5b5062000164600160a060020a036004358116906024351662000cf7565b3480156200032857600080fd5b506200018a62000ef5565b3480156200034057600080fd5b506200016460043562000f62565b3480156200035b57600080fd5b50604080516020600480358082013583810280860185019096528085526200018a953695939460249493850192918291850190849080828437509497506200102e9650505050505050565b348015620003b357600080fd5b5062000164600160a060020a036004351662001137565b60008054600160a060020a0316331462000423576040805160008051602062005a9f8339815191528152602060048201819052602482015260008051602062005abf833981519152604482015290519081900360640190fd5b5030315b90565b600080548190600160a060020a0316331462000485576040805160008051602062005a9f8339815191528152602060048201819052602482015260008051602062005abf833981519152604482015290519081900360640190fd5b83915081600160a060020a03166312065fe06040518163ffffffff167c0100000000000000000000000000000000000000000000000000000000028152600401602060405180830381600087803b158015620004e057600080fd5b505af1158015620004f5573d6000803e3d6000fd5b505050506040513d60208110156200050c57600080fd5b505190508281106200051d57600080fd5b81600160a060020a03166327ea6f2b846040518263ffffffff167c010000000000000000000000000000000000000000000000000000000002815260040180828152602001915050600060405180830381600087803b1580156200058057600080fd5b505af115801562000595573d6000803e3d6000fd5b5050505050505050565b60008054600160a060020a03163314620005f8576040805160008051602062005a9f8339815191528152602060048201819052602482015260008051602062005abf833981519152604482015290519081900360640190fd5b50600160a060020a039081166000908152600360205260409020600101541690565b600080548190600160a060020a0316331462000675576040805160008051602062005a9f8339815191528152602060048201819052602482015260008051602062005abf833981519152604482015290519081900360640190fd5b5050600160a060020a038082166000908152600360205260408082206001015481517f62a5af3b0000000000000000000000000000000000000000000000000000000081529151931692839283926362a5af3b926004808301939282900301818387803b158015620006e657600080fd5b505af1158015620006fb573d6000803e3d6000fd5b50505050505050565b600054606090600160a060020a031633146200075f576040805160008051602062005a9f8339815191528152602060048201819052602482015260008051602062005abf833981519152604482015290519081900360640190fd5b60008281526004602090815260409182902080548351818402810184019094528084529091830182828015620007bf57602002820191906000526020600020905b8154600160a060020a03168152600190910190602001808311620007a0575b50505050509050919050565b60008054600160a060020a0316331462000824576040805160008051602062005a9f8339815191528152602060048201819052602482015260008051602062005abf833981519152604482015290519081900360640190fd5b50600090815260046020526040902060010154600160a060020a031690565b600080548190600160a060020a031633146200089e576040805160008051602062005a9f8339815191528152602060048201819052602482015260008051602062005abf833981519152604482015290519081900360640190fd5b5050600160a060020a038082166000908152600360205260408082206001015481517ff21cdf6f00000000000000000000000000000000000000000000000000000000815291519316928392839263f21cdf6f926004808301939282900301818387803b158015620006e657600080fd5b600080548190606090600160a060020a031633146200096d576040805160008051602062005a9f8339815191528152602060048201819052602482015260008051602062005abf833981519152604482015290519081900360640190fd5b60008481526004602081905260408083206001015481517ff00d4b5d000000000000000000000000000000000000000000000000000000008152600160a060020a038b8116948201949094528984166024820152915192169550859450849263f00d4b5d9260448084019382900301818387803b158015620009ee57600080fd5b505af115801562000a03573d6000803e3d6000fd5b505050506040513d6000823e601f3d908101601f19168201604052602081101562000a2d57600080fd5b81019080805164010000000081111562000a4657600080fd5b8201602081018481111562000a5a57600080fd5b815185602082028301116401000000008211171562000a7857600080fd5b505060008881526004602090815260409091208251929650620006fb955093508501915062001208565b60008033600060025462000ab56200127b565b600160a060020a03841681526020810183600281111562000ad257fe5b60ff1681526020018281526020019350505050604051809103906000f08015801562000b02573d6000803e3d6000fd5b5060408051606081018252338152600160a060020a0383166020820152919250810160005b9052336000908152600360209081526040918290208351815473ffffffffffffffffffffffffffffffffffffffff19908116600160a060020a039283161783559285015160018301805490941691161780835592840151909290919074ff000000000000000000000000000000000000000019167401000000000000000000000000000000000000000083600281111562000bbe57fe5b02179055509050508091505b5090565b600080548190600160a060020a0316331462000c29576040805160008051602062005a9f8339815191528152602060048201819052602482015260008051602062005abf833981519152604482015290519081900360640190fd5b505060008181526004602081905260408083206001015481517ff21cdf6f0000000000000000000000000000000000000000000000000000000081529151600160a060020a03909116938493849363f21cdf6f938183019392909182900301818387803b158015620006e657600080fd5b600054600160a060020a0316331462000cf2576040805160008051602062005a9f8339815191528152602060048201819052602482015260008051602062005abf833981519152604482015290519081900360640190fd5b600255565b600080548190600160a060020a0316331462000d52576040805160008051602062005a9f8339815191528152602060048201819052602482015260008051602062005abf833981519152604482015290519081900360640190fd5b600160a060020a038085166000818152600360205260409020549091161462000d7a57600080fd5b5050600160a060020a038083166000908152600360205260408082206001015481517fa6f9dae1000000000000000000000000000000000000000000000000000000008152858516600482015291519316928392839263a6f9dae1926024808301939282900301818387803b15801562000df357600080fd5b505af115801562000e08573d6000803e3d6000fd5b505050600160a060020a03808516600081815260036020526040808220805473ffffffffffffffffffffffffffffffffffffffff1990811685178255600191820180548a8816921691909117808255958b16845291832001549290915260ff74010000000000000000000000000000000000000000928390041693509174ff000000000000000000000000000000000000000019169083600281111562000eab57fe5b0217905550505050600160a060020a03166000908152600360205260409020805473ffffffffffffffffffffffffffffffffffffffff199081168255600190910180549091169055565b6000803360025462000f066200128c565b600160a060020a0390921682526020820152604080519182900301906000f08015801562000f38573d6000803e3d6000fd5b5060408051606081018252338152600160a060020a03831660208201529192508101600162000b27565b600080548190600160a060020a0316331462000fbd576040805160008051602062005a9f8339815191528152602060048201819052602482015260008051602062005abf833981519152604482015290519081900360640190fd5b505060008181526004602081905260408083206001015481517f62a5af3b0000000000000000000000000000000000000000000000000000000081529151600160a060020a0390911693849384936362a5af3b938183019392909182900301818387803b158015620006e657600080fd5b600080826002546200103f6200129d565b60208082018390526040808352845190830152835182916060830191868201910280838360005b838110156200108057818101518382015260200162001066565b505050509050019350505050604051809103906000f080158015620010a9573d6000803e3d6000fd5b50604080518082018252858152600160a060020a038316602080830191909152600154600090815260048252929092208151805194955091939092620010f492849291019062001208565b50602091909101516001918201805473ffffffffffffffffffffffffffffffffffffffff1916600160a060020a0390921691909117905580548101905592915050565b60008054600160a060020a0316331462001190576040805160008051602062005a9f8339815191528152602060048201819052602482015260008051602062005abf833981519152604482015290519081900360640190fd5b81905080600160a060020a0316633bef8a3a6040518163ffffffff167c0100000000000000000000000000000000000000000000000000000000028152600401600060405180830381600087803b158015620011eb57600080fd5b505af115801562001200573d6000803e3d6000fd5b505050505050565b8280548282559060005260206000209081019282156200126d579160200282015b828111156200126d578251825473ffffffffffffffffffffffffffffffffffffffff1916600160a060020a0390911617825560209092019160019091019062001229565b5062000bca929150620012ae565b604051610eec80620012e383390190565b604051610fef80620021cf83390190565b6040516128e180620031be83390190565b6200042791905b8082111562000bca57805473ffffffffffffffffffffffffffffffffffffffff19168155600101620012b55600608060405234801561001057600080fd5b50604051606080610eec83398101604090815281516020830151919092015160018054600160a060020a038516600160a060020a03199182161790915560008054909116331790556004805483919061ff00191661010083600281111561007357fe5b021790555060038190556004805460ff1916905560408051600160a060020a038516815233602082018190527f4f1a20e20b0b2f3cdc1fcd1d7631e4cb35cadb8c1b8ea065a71a94167adf1e0f928692869181018260028111156100d357fe5b60ff168152602001935050505060405180910390a1505050610df2806100fa6000396000f3006080604052600436106100ae5763ffffffff7c010000000000000000000000000000000000000000000000000000000060003504166312065fe081146100b357806327ea6f2b146100da5780632e1a7d4d146100f45780633bef8a3a1461010c57806362a5af3b146101215780637495b35314610136578063893d20e81461015f578063a6f9dae114610190578063b295a00e146101b1578063d0e30db0146101c6578063f21cdf6f146101ce575b600080fd5b3480156100bf57600080fd5b506100c86101e3565b60408051918252519081900360200190f35b3480156100e657600080fd5b506100f26004356101e9565b005b34801561010057600080fd5b506100f2600435610250565b34801561011857600080fd5b506100f26106a6565b34801561012d57600080fd5b506100f2610783565b34801561014257600080fd5b5061014b61088c565b604080519115158252519081900360200190f35b34801561016b57600080fd5b50610174610895565b60408051600160a060020a039092168252519081900360200190f35b34801561019c57600080fd5b506100f2600160a060020a0360043516610945565b3480156101bd57600080fd5b506100c8610ace565b6100f2610b75565b3480156101da57600080fd5b506100f2610cbc565b60025490565b600054600160a060020a0316331461024b576040805160e560020a62461bcd02815260206004820152601c60248201527f46756e6374696f6e206f6e6c7920757361626c652062792062616e6b00000000604482015290519081900360640190fd5b600355565b600054600160a060020a03163314806102735750600154600160a060020a031633145b15156102ef576040805160e560020a62461bcd02815260206004820152602160248201527f46756e6374696f6e206f6e6c792061636365737369626c65206279206f776e6560448201527f7200000000000000000000000000000000000000000000000000000000000000606482015290519081900360840190fd5b60045460ff161561034a576040805160e560020a62461bcd02815260206004820152601160248201527f4163636f756e742069732066726f7a656e000000000000000000000000000000604482015290519081900360640190fd5b610352610783565b6040805160208082526024908201527f28696e2077697468647261772920616674657220667265657a696e6720616363818301527f6f756e7400000000000000000000000000000000000000000000000000000000606082015290517fb981afc16bc609765b6005bd910c0e9ef3424f3c61a05afcbbf88d11f414669d9181900360800190a16000600454610100900460ff1660028111156103f057fe5b1461046b576040805160e560020a62461bcd02815260206004820152602e60248201527f506c65617365207573652077697468647261772066756e6374696f6e20696e2060448201527f6368696c6420636f6e7472616374000000000000000000000000000000000000606482015290519081900360840190fd5b604080516020808252602b908201527f28616674657220312072657175697265292061667465722074727573742f6465818301527f6c61792072657175697265000000000000000000000000000000000000000000606082015290517fb981afc16bc609765b6005bd910c0e9ef3424f3c61a05afcbbf88d11f414669d9181900360800190a1600254811115610571576040805160e560020a62461bcd02815260206004820152602960248201527f43616e6e6f74207769746864726177206d6f72652066756e6473207468616e2060448201527f617661696c61626c650000000000000000000000000000000000000000000000606482015290519081900360840190fd5b604080516020808252603b908201527f286166746572203220726571756972652920616674657220616d6f756e742067818301527f65747320636865636b656420616761696e73742062616c616e63650000000000606082015290517fb981afc16bc609765b6005bd910c0e9ef3424f3c61a05afcbbf88d11f414669d9181900360800190a1600280548290039055600154604051600160a060020a039091169082156108fc029083906000818181858888f1935050505015801561063a573d6000803e3d6000fd5b50604080516020808252601b908201527f2829206166746572207472616e73666572696e6720616d6f756e7400000000008183015290517fb981afc16bc609765b6005bd910c0e9ef3424f3c61a05afcbbf88d11f414669d9181900360600190a16106a3610cbc565b50565b600054600160a060020a03163314610708576040805160e560020a62461bcd02815260206004820152601c60248201527f46756e6374696f6e206f6e6c7920757361626c652062792062616e6b00000000604482015290519081900360640190fd5b6004805460ff191660011790556040805160208082526010908201527f2861636365737329206469736f6c7665000000000000000000000000000000008183015290517f6a42c50d3ee00b78df9f99768064c629066807b2ab738674e00b018c696be3789181900360600190a1600154600160a060020a0316ff5b600054600160a060020a03163314806107a65750600154600160a060020a031633145b1515610822576040805160e560020a62461bcd02815260206004820152602160248201527f46756e6374696f6e206f6e6c792061636365737369626c65206279206f776e6560448201527f7200000000000000000000000000000000000000000000000000000000000000606482015290519081900360840190fd5b60045460ff161561087d576040805160e560020a62461bcd02815260206004820152601160248201527f4163636f756e742069732066726f7a656e000000000000000000000000000000604482015290519081900360640190fd5b6004805460ff19166001179055565b60045460ff1690565b60008054600160a060020a03163314806108b95750600154600160a060020a031633145b1515610935576040805160e560020a62461bcd02815260206004820152602160248201527f46756e6374696f6e206f6e6c792061636365737369626c65206279206f776e6560448201527f7200000000000000000000000000000000000000000000000000000000000000606482015290519081900360840190fd5b50600154600160a060020a031690565b600054600160a060020a031633146109a7576040805160e560020a62461bcd02815260206004820152601c60248201527f46756e6374696f6e206f6e6c7920757361626c652062792062616e6b00000000604482015290519081900360640190fd5b60045460ff1615610a02576040805160e560020a62461bcd02815260206004820152601160248201527f4163636f756e742069732066726f7a656e000000000000000000000000000000604482015290519081900360640190fd5b610a0a610783565b6002600454610100900460ff166002811115610a2257fe5b1415610a9e576040805160e560020a62461bcd02815260206004820152603160248201527f506c6561736520757365206368616e67654f776e65722066756e6374696f6e2060448201527f696e20747275737420636f6e7472616374000000000000000000000000000000606482015290519081900360840190fd5b6001805473ffffffffffffffffffffffffffffffffffffffff1916600160a060020a0383161790556106a3610cbc565b60008054600160a060020a0316331480610af25750600154600160a060020a031633145b1515610b6e576040805160e560020a62461bcd02815260206004820152602160248201527f46756e6374696f6e206f6e6c792061636365737369626c65206279206f776e6560448201527f7200000000000000000000000000000000000000000000000000000000000000606482015290519081900360840190fd5b5060035490565b60045460ff1615610bd0576040805160e560020a62461bcd02815260206004820152601160248201527f4163636f756e742069732066726f7a656e000000000000000000000000000000604482015290519081900360640190fd5b60003460025401111515610c54576040805160e560020a62461bcd02815260206004820152602260248201527f56616c75652063616e6e6f74206d616b652062616c616e6365206e656761746960448201527f7665000000000000000000000000000000000000000000000000000000000000606482015290519081900360840190fd5b60035460025434011115610cb2576040805160e560020a62461bcd02815260206004820181905260248201527f4465706f7369742074616b6573206163636f756e74206f766572206c696d6974604482015290519081900360640190fd5b6002805434019055565b600054600160a060020a0316331480610cdf5750600154600160a060020a031633145b1515610d5b576040805160e560020a62461bcd02815260206004820152602160248201527f46756e6374696f6e206f6e6c792061636365737369626c65206279206f776e6560448201527f7200000000000000000000000000000000000000000000000000000000000000606482015290519081900360840190fd5b60045460ff161515600114610dba576040805160e560020a62461bcd02815260206004820152601860248201527f4163636f756e7420616c726561647920756e66726f7a656e0000000000000000604482015290519081900360640190fd5b6004805460ff191690555600a165627a7a72305820d6c5c12e0f208dfd6a76075d896591b901b0f7b80bbdcf0ce87ff37d5db9ce4200296080604052600160055534801561001557600080fd5b50604051604080610fef833981016040818152825160209384015160018054600160a060020a0319908116600160a060020a0385169081178355600080543393168317905560048054600386905560ff1961010061ff00199092169190911716905586529585019590955282840185905291519093919284929184917f4f1a20e20b0b2f3cdc1fcd1d7631e4cb35cadb8c1b8ea065a71a94167adf1e0f919081900360600190a1505060018054600160a060020a038516600160a060020a0319918216811783556000805490921633908117909255600385905560408051918252602082019290925280820192909252517fba30745a905aaced99b2fceb5b3ee14d5a7bbba87b3dfc68846c48c6a534966492509081900360600190a15050610eac806101436000396000f3006080604052600436106100b95763ffffffff7c010000000000000000000000000000000000000000000000000000000060003504166312065fe081146100be57806327ea6f2b146100e55780632e1a7d4d146100ff5780633bef8a3a1461011757806362a5af3b1461012c5780637495b35314610141578063893d20e81461016a578063a6f9dae11461019b578063b295a00e146101bc578063ccc143b8146101d1578063d0e30db0146101f5578063f21cdf6f146101fd575b600080fd5b3480156100ca57600080fd5b506100d3610212565b60408051918252519081900360200190f35b3480156100f157600080fd5b506100fd600435610218565b005b34801561010b57600080fd5b506100fd60043561027f565b34801561012357600080fd5b506100fd610561565b34801561013857600080fd5b506100fd61063e565b34801561014d57600080fd5b50610156610747565b604080519115158252519081900360200190f35b34801561017657600080fd5b5061017f610750565b60408051600160a060020a039092168252519081900360200190f35b3480156101a757600080fd5b506100fd600160a060020a0360043516610800565b3480156101c857600080fd5b506100d361098c565b3480156101dd57600080fd5b506100d3600435600160a060020a0360243516610a33565b6100fd610c2f565b34801561020957600080fd5b506100fd610d76565b60025490565b600054600160a060020a0316331461027a576040805160e560020a62461bcd02815260206004820152601c60248201527f46756e6374696f6e206f6e6c7920757361626c652062792062616e6b00000000604482015290519081900360640190fd5b600355565b600080548190600160a060020a03163314806102a55750600154600160a060020a031633145b1515610321576040805160e560020a62461bcd02815260206004820152602160248201527f46756e6374696f6e206f6e6c792061636365737369626c65206279206f776e6560448201527f7200000000000000000000000000000000000000000000000000000000000000606482015290519081900360840190fd5b60045460ff161561037c576040805160e560020a62461bcd02815260206004820152601160248201527f4163636f756e742069732066726f7a656e000000000000000000000000000000604482015290519081900360640190fd5b61038461063e565b6005548311156103de576040805160e560020a62461bcd02815260206004820152601660248201527f4e6f207375636820726571756573742065786973747300000000000000000000604482015290519081900360640190fd5b60008381526006602052604090205491504262278d0083011061044b576040805160e560020a62461bcd02815260206004820152601760248201527f333020646179732068617665206e6f7420706173736564000000000000000000604482015290519081900360640190fd5b60008381526006602052604090206002015474010000000000000000000000000000000000000000900460ff16156104cd576040805160e560020a62461bcd02815260206004820152601d60248201527f416d6f756e7420616c7265616479206265656e2077697468647261776e000000604482015290519081900360640190fd5b5060008281526006602052604080822060028101805474ff00000000000000000000000000000000000000001916740100000000000000000000000000000000000000001790819055600191909101549151600160a060020a0390911692839280156108fc02929091818181858888f19350505050158015610553573d6000803e3d6000fd5b5061055c610d76565b505050565b600054600160a060020a031633146105c3576040805160e560020a62461bcd02815260206004820152601c60248201527f46756e6374696f6e206f6e6c7920757361626c652062792062616e6b00000000604482015290519081900360640190fd5b6004805460ff191660011790556040805160208082526010908201527f2861636365737329206469736f6c7665000000000000000000000000000000008183015290517f6a42c50d3ee00b78df9f99768064c629066807b2ab738674e00b018c696be3789181900360600190a1600154600160a060020a0316ff5b600054600160a060020a03163314806106615750600154600160a060020a031633145b15156106dd576040805160e560020a62461bcd02815260206004820152602160248201527f46756e6374696f6e206f6e6c792061636365737369626c65206279206f776e6560448201527f7200000000000000000000000000000000000000000000000000000000000000606482015290519081900360840190fd5b60045460ff1615610738576040805160e560020a62461bcd02815260206004820152601160248201527f4163636f756e742069732066726f7a656e000000000000000000000000000000604482015290519081900360640190fd5b6004805460ff19166001179055565b60045460ff1690565b60008054600160a060020a03163314806107745750600154600160a060020a031633145b15156107f0576040805160e560020a62461bcd02815260206004820152602160248201527f46756e6374696f6e206f6e6c792061636365737369626c65206279206f776e6560448201527f7200000000000000000000000000000000000000000000000000000000000000606482015290519081900360840190fd5b50600154600160a060020a031690565b600054600160a060020a03163314610862576040805160e560020a62461bcd02815260206004820152601c60248201527f46756e6374696f6e206f6e6c7920757361626c652062792062616e6b00000000604482015290519081900360640190fd5b60045460ff16156108bd576040805160e560020a62461bcd02815260206004820152601160248201527f4163636f756e742069732066726f7a656e000000000000000000000000000000604482015290519081900360640190fd5b6108c561063e565b6002600454610100900460ff1660028111156108dd57fe5b1415610959576040805160e560020a62461bcd02815260206004820152603160248201527f506c6561736520757365206368616e67654f776e65722066756e6374696f6e2060448201527f696e20747275737420636f6e7472616374000000000000000000000000000000606482015290519081900360840190fd5b6001805473ffffffffffffffffffffffffffffffffffffffff1916600160a060020a038316179055610989610d76565b50565b60008054600160a060020a03163314806109b05750600154600160a060020a031633145b1515610a2c576040805160e560020a62461bcd02815260206004820152602160248201527f46756e6374696f6e206f6e6c792061636365737369626c65206279206f776e6560448201527f7200000000000000000000000000000000000000000000000000000000000000606482015290519081900360840190fd5b5060035490565b600080548190600160a060020a0316331480610a595750600154600160a060020a031633145b1515610ad5576040805160e560020a62461bcd02815260206004820152602160248201527f46756e6374696f6e206f6e6c792061636365737369626c65206279206f776e6560448201527f7200000000000000000000000000000000000000000000000000000000000000606482015290519081900360840190fd5b610add61063e565b600254841115610b5d576040805160e560020a62461bcd02815260206004820152602160248201527f43616e6e6f74207769746864726177206d6f7265207468616e2062616c616e6360448201527f6500000000000000000000000000000000000000000000000000000000000000606482015290519081900360840190fd5b506005805460018082018355604080516080810182524281526020808201898152600160a060020a03808a168486019081526000606086018181528982526006909552959095209351845590519483019490945591516002918201805493511515740100000000000000000000000000000000000000000274ff0000000000000000000000000000000000000000199290951673ffffffffffffffffffffffffffffffffffffffff199094169390931716929092179055918190558154859003909155610c28610d76565b9392505050565b60045460ff1615610c8a576040805160e560020a62461bcd02815260206004820152601160248201527f4163636f756e742069732066726f7a656e000000000000000000000000000000604482015290519081900360640190fd5b60003460025401111515610d0e576040805160e560020a62461bcd02815260206004820152602260248201527f56616c75652063616e6e6f74206d616b652062616c616e6365206e656761746960448201527f7665000000000000000000000000000000000000000000000000000000000000606482015290519081900360840190fd5b60035460025434011115610d6c576040805160e560020a62461bcd02815260206004820181905260248201527f4465706f7369742074616b6573206163636f756e74206f766572206c696d6974604482015290519081900360640190fd5b6002805434019055565b600054600160a060020a0316331480610d995750600154600160a060020a031633145b1515610e15576040805160e560020a62461bcd02815260206004820152602160248201527f46756e6374696f6e206f6e6c792061636365737369626c65206279206f776e6560448201527f7200000000000000000000000000000000000000000000000000000000000000606482015290519081900360840190fd5b60045460ff161515600114610e74576040805160e560020a62461bcd02815260206004820152601860248201527f4163636f756e7420616c726561647920756e66726f7a656e0000000000000000604482015290519081900360640190fd5b6004805460ff191690555600a165627a7a72305820285c90b54e8bfad14e753b104d7769bdfb08bf35780ffb31b9f1523601c6e7ca00296080604052600060065560006007553480156200001b57600080fd5b50604051620028e1380380620028e183398101604081815282516020808501516001805433600160a060020a03199182168117909255600080549091168217815560048054600385905561ff0019166102001760ff191690558187529286018190526002858701819052945193909601959094919384939192909186917f4f1a20e20b0b2f3cdc1fcd1d7631e4cb35cadb8c1b8ea065a71a94167adf1e0f916060918190039190910190a150506001805433600160a060020a031991821681179092556000805490911690911781556003859055855193509150505b81811015620001cc5780600b600086848151811015156200011457fe5b90602001906020020151600160a060020a0316600160a060020a0316815260200190815260200160002081905550604080519081016040528060011515815260200185838151811015156200016557fe5b6020908102909101810151600160a060020a039081169092526000848152600a8252604090208351815494909201519092166101000261010060a860020a031991151560ff19909416939093171691909117905560068054600190810190915501620000f7565b7f3a650401d4f28871cc7011cf20e98637ced898f0c304280307332b3bfc947f67843385604051808060200184600160a060020a0316600160a060020a03168152602001838152602001828103825285818151815260200191508051906020019060200280838360005b838110156200025057818101518382015260200162000236565b5050505090500194505050505060405180910390a15050505061266880620002796000396000f30060806040526004361061011c5763ffffffff7c010000000000000000000000000000000000000000000000000000000060003504166312065fe081146101265780631ccfb02f1461014d57806323f001ae1461017657806327ea6f2b1461018e5780632e1a7d4d146101a6578063397a1b28146101be5780633a253cee146101e25780633bef8a3a1461020357806350791c641461021857806362a5af3b146102395780636b9194881461024e5780637495b35314610266578063893d20e81461028f578063a6f9dae1146102c0578063b295a00e146102e1578063bdb5fd99146102f6578063d0e30db014610313578063d5356ffa1461031b578063f00d4b5d14610333578063f21cdf6f146103aa578063f9d5ee75146103bf575b6002805434019055005b34801561013257600080fd5b5061013b610428565b60408051918252519081900360200190f35b34801561015957600080fd5b50610174600160a060020a036004358116906024351661042e565b005b34801561018257600080fd5b5061017460043561060c565b34801561019a57600080fd5b5061017460043561081b565b3480156101b257600080fd5b50610174600435610882565b3480156101ca57600080fd5b5061013b600160a060020a0360043516602435610ab7565b3480156101ee57600080fd5b50610174600160a060020a0360043516610c73565b34801561020f57600080fd5b50610174610e4c565b34801561022457600080fd5b50610174600160a060020a0360043516610f91565b34801561024557600080fd5b506101746110e4565b34801561025a57600080fd5b50610174600435611230565b34801561027257600080fd5b5061027b6113fe565b604080519115158252519081900360200190f35b34801561029b57600080fd5b506102a4611407565b60408051600160a060020a039092168252519081900360200190f35b3480156102cc57600080fd5b50610174600160a060020a036004351661150d565b3480156102ed57600080fd5b5061013b611687565b34801561030257600080fd5b506101746004356024351515611784565b610174611983565b34801561032757600080fd5b50610174600435611ab8565b34801561033f57600080fd5b5061035a600160a060020a0360043581169060243516611cf8565b60408051602080825283518183015283519192839290830191858101910280838360005b8381101561039657818101518382015260200161037e565b505050509050019250505060405180910390f35b3480156103b657600080fd5b50610174611fea565b3480156103cb57600080fd5b506103d7600435612149565b604051808760038111156103e757fe5b60ff168152602081019690965250604080860194909452600160a060020a03928316606086015291166080840152151560a0830152519081900360c0019150f35b60025490565b60008054600160a060020a031633141561044757610521565b50336000818152600b6020908152604080832054808452600a909252909120549091610100909104600160a060020a0316146104bb576040805160e560020a62461bcd02815260206004820152601b60248201526000805160206125fd833981519152604482015290519081900360640190fd5b6000818152600a602052604090205460ff161515600114610521576040805160e560020a62461bcd028152602060048201526021602482015260008051602061261d833981519152604482015260f960020a603902606482015290519081900360840190fd5b60045460ff161561056a576040805160e560020a62461bcd02815260206004820152601160248201526000805160206125dd833981519152604482015290519081900360640190fd5b6105726110e4565b600160a060020a0383166000908152600b60209081526040808320548352600a90915290205460ff1615156105f1576040805160e560020a62461bcd02815260206004820152601e60248201527f43757272656e742061646472657373206e6f74207265636f676e697365640000604482015290519081900360640190fd5b6105ff600284846000612195565b610607611fea565b505050565b60008054600160a060020a0316331415610625576106ff565b50336000818152600b6020908152604080832054808452600a909252909120549091610100909104600160a060020a031614610699576040805160e560020a62461bcd02815260206004820152601b60248201526000805160206125fd833981519152604482015290519081900360640190fd5b6000818152600a602052604090205460ff1615156001146106ff576040805160e560020a62461bcd028152602060048201526021602482015260008051602061261d833981519152604482015260f960020a603902606482015290519081900360840190fd5b60045460ff1615610748576040805160e560020a62461bcd02815260206004820152601160248201526000805160206125dd833981519152604482015290519081900360640190fd5b6107506110e4565b600082815260086020908152604080832060040154600160a060020a03168352600b8252808320548352600a90915290205460ff16151561079057600080fd5b61079982612422565b15156107a457600080fd5b6000828152600860209081526040808320600781018054600160ff1991821617909155600482018054600160a060020a039081168752600b808752858820548852600a87528588208054909416909355905481168652935281842054600590910154909216835290912055610817611fea565b5050565b600054600160a060020a0316331461087d576040805160e560020a62461bcd02815260206004820152601c60248201527f46756e6374696f6e206f6e6c7920757361626c652062792062616e6b00000000604482015290519081900360640190fd5b600355565b60008054600160a060020a031633141561089b57610975565b50336000818152600b6020908152604080832054808452600a909252909120549091610100909104600160a060020a03161461090f576040805160e560020a62461bcd02815260206004820152601b60248201526000805160206125fd833981519152604482015290519081900360640190fd5b6000818152600a602052604090205460ff161515600114610975576040805160e560020a62461bcd028152602060048201526021602482015260008051602061261d833981519152604482015260f960020a603902606482015290519081900360840190fd5b60045460ff16156109be576040805160e560020a62461bcd02815260206004820152601160248201526000805160206125dd833981519152604482015290519081900360640190fd5b6109c66110e4565b60025460008381526008602052604090206006015410610a30576040805160e560020a62461bcd02815260206004820152601160248201527f496e737566666963656e742066756e6473000000000000000000000000000000604482015290519081900360640190fd5b610a3982612422565b1515610a4457600080fd5b60008281526008602052604080822060078101805460ff191660011790556006810180546002805491909103905560049091015490549151600160a060020a039091169282156108fc02929190818181858888f19350505050158015610aae573d6000803e3d6000fd5b50610817611fea565b600080548190600160a060020a0316331415610ad257610bac565b50336000818152600b6020908152604080832054808452600a909252909120549091610100909104600160a060020a031614610b46576040805160e560020a62461bcd02815260206004820152601b60248201526000805160206125fd833981519152604482015290519081900360640190fd5b6000818152600a602052604090205460ff161515600114610bac576040805160e560020a62461bcd028152602060048201526021602482015260008051602061261d833981519152604482015260f960020a603902606482015290519081900360840190fd5b60045460ff1615610bf5576040805160e560020a62461bcd02815260206004820152601160248201526000805160206125dd833981519152604482015290519081900360640190fd5b610bfd6110e4565b6002548310610c56576040805160e560020a62461bcd02815260206004820152601f60248201527f43616e6e6f74207769746864726177206d6f7265207468616e206f776e656400604482015290519081900360640190fd5b610c64600385600086612195565b610c6c611fea565b5092915050565b60008054600160a060020a0316331415610c8c57610d66565b50336000818152600b6020908152604080832054808452600a909252909120549091610100909104600160a060020a031614610d00576040805160e560020a62461bcd02815260206004820152601b60248201526000805160206125fd833981519152604482015290519081900360640190fd5b6000818152600a602052604090205460ff161515600114610d66576040805160e560020a62461bcd028152602060048201526021602482015260008051602061261d833981519152604482015260f960020a603902606482015290519081900360840190fd5b60045460ff1615610daf576040805160e560020a62461bcd02815260206004820152601160248201526000805160206125dd833981519152604482015290519081900360640190fd5b610db76110e4565b600160a060020a0382166000908152600b60209081526040808320548352600a90915290205460ff161515610e36576040805160e560020a62461bcd02815260206004820152601e60248201527f4f776e65722068617320616c7265616479206265656e2072656d6f7665640000604482015290519081900360640190fd5b610e44600183600080612195565b610817611fea565b60008054819081908190600160a060020a03163314610eb5576040805160e560020a62461bcd02815260206004820152601c60248201527f46756e6374696f6e206f6e6c7920757361626c652062792062616e6b00000000604482015290519081900360640190fd5b6004805460ff19166001179055600093508392505b6006548311610efc576000838152600a602052604090205460ff1615610ef1576001909301925b600190920191610eca565b83600254811515610f0957fe5b049150600090505b6006548311610f83576000838152600a602052604090205460ff1615610f7b576000838152600a6020526040808220549051610100909104600160a060020a0316916108fc851502918591818181858888f19350505050158015610f79573d6000803e3d6000fd5b505b600101610f11565b600054600160a060020a0316ff5b60008054600160a060020a0316331415610faa57611084565b50336000818152600b6020908152604080832054808452600a909252909120549091610100909104600160a060020a03161461101e576040805160e560020a62461bcd02815260206004820152601b60248201526000805160206125fd833981519152604482015290519081900360640190fd5b6000818152600a602052604090205460ff161515600114611084576040805160e560020a62461bcd028152602060048201526021602482015260008051602061261d833981519152604482015260f960020a603902606482015290519081900360840190fd5b60045460ff16156110cd576040805160e560020a62461bcd02815260206004820152601160248201526000805160206125dd833981519152604482015290519081900360640190fd5b6110d56110e4565b610e4460016000846000612195565b60008054600160a060020a03163314156110fd576111d7565b50336000818152600b6020908152604080832054808452600a909252909120549091610100909104600160a060020a031614611171576040805160e560020a62461bcd02815260206004820152601b60248201526000805160206125fd833981519152604482015290519081900360640190fd5b6000818152600a602052604090205460ff1615156001146111d7576040805160e560020a62461bcd028152602060048201526021602482015260008051602061261d833981519152604482015260f960020a603902606482015290519081900360840190fd5b60045460ff1615611220576040805160e560020a62461bcd02815260206004820152601160248201526000805160206125dd833981519152604482015290519081900360640190fd5b506004805460ff19166001179055565b60008054600160a060020a031633141561124957611323565b50336000818152600b6020908152604080832054808452600a909252909120549091610100909104600160a060020a0316146112bd576040805160e560020a62461bcd02815260206004820152601b60248201526000805160206125fd833981519152604482015290519081900360640190fd5b6000818152600a602052604090205460ff161515600114611323576040805160e560020a62461bcd028152602060048201526021602482015260008051602061261d833981519152604482015260f960020a603902606482015290519081900360840190fd5b60045460ff161561136c576040805160e560020a62461bcd02815260206004820152601160248201526000805160206125dd833981519152604482015290519081900360640190fd5b6113746110e4565b61137d82612422565b151561138857600080fd5b60008281526008602090815260408083206004018054600160a060020a039081168552600b808552838620548652600a808652848720805460ff191690559254909116855283528184205484529091529020805474ffffffffffffffffffffffffffffffffffffffff0019169055610817611fea565b60045460ff1690565b600080548190600160a060020a0316331415611422576114fc565b50336000818152600b6020908152604080832054808452600a909252909120549091610100909104600160a060020a031614611496576040805160e560020a62461bcd02815260206004820152601b60248201526000805160206125fd833981519152604482015290519081900360640190fd5b6000818152600a602052604090205460ff1615156001146114fc576040805160e560020a62461bcd028152602060048201526021602482015260008051602061261d833981519152604482015260f960020a603902606482015290519081900360840190fd5b5050600154600160a060020a031690565b600054600160a060020a0316331461156f576040805160e560020a62461bcd02815260206004820152601c60248201527f46756e6374696f6e206f6e6c7920757361626c652062792062616e6b00000000604482015290519081900360640190fd5b60045460ff16156115b8576040805160e560020a62461bcd02815260206004820152601160248201526000805160206125dd833981519152604482015290519081900360640190fd5b6115c06110e4565b6002600454610100900460ff1660028111156115d857fe5b1415611654576040805160e560020a62461bcd02815260206004820152603160248201527f506c6561736520757365206368616e67654f776e65722066756e6374696f6e2060448201527f696e20747275737420636f6e7472616374000000000000000000000000000000606482015290519081900360840190fd5b6001805473ffffffffffffffffffffffffffffffffffffffff1916600160a060020a038316179055611684611fea565b50565b600080548190600160a060020a03163314156116a25761177c565b50336000818152600b6020908152604080832054808452600a909252909120549091610100909104600160a060020a031614611716576040805160e560020a62461bcd02815260206004820152601b60248201526000805160206125fd833981519152604482015290519081900360640190fd5b6000818152600a602052604090205460ff16151560011461177c576040805160e560020a62461bcd028152602060048201526021602482015260008051602061261d833981519152604482015260f960020a603902606482015290519081900360840190fd5b505060035490565b60008054600160a060020a031633141561179d57611877565b50336000818152600b6020908152604080832054808452600a909252909120549091610100909104600160a060020a031614611811576040805160e560020a62461bcd02815260206004820152601b60248201526000805160206125fd833981519152604482015290519081900360640190fd5b6000818152600a602052604090205460ff161515600114611877576040805160e560020a62461bcd028152602060048201526021602482015260008051602061261d833981519152604482015260f960020a603902606482015290519081900360840190fd5b6000838152600860205260408120600201541161189357600080fd5b60008381526008602052604090206002015442108015906118c4575060008381526008602052604090206003015442105b15156118cf57600080fd5b50600082815260096020908152604080832081516060810183523381529415158584019081529185019586528054600181810183559185529290932093516002909202909301805493511515740100000000000000000000000000000000000000000274ff000000000000000000000000000000000000000019600160a060020a039390931673ffffffffffffffffffffffffffffffffffffffff1990951694909417919091169290921782559151910155565b60045460ff16156119cc576040805160e560020a62461bcd02815260206004820152601160248201526000805160206125dd833981519152604482015290519081900360640190fd5b60003460025401111515611a50576040805160e560020a62461bcd02815260206004820152602260248201527f56616c75652063616e6e6f74206d616b652062616c616e6365206e656761746960448201527f7665000000000000000000000000000000000000000000000000000000000000606482015290519081900360840190fd5b60035460025434011115611aae576040805160e560020a62461bcd02815260206004820181905260248201527f4465706f7369742074616b6573206163636f756e74206f766572206c696d6974604482015290519081900360640190fd5b6002805434019055565b60008054600160a060020a0316331415611ad157611bab565b50336000818152600b6020908152604080832054808452600a909252909120549091610100909104600160a060020a031614611b45576040805160e560020a62461bcd02815260206004820152601b60248201526000805160206125fd833981519152604482015290519081900360640190fd5b6000818152600a602052604090205460ff161515600114611bab576040805160e560020a62461bcd028152602060048201526021602482015260008051602061261d833981519152604482015260f960020a603902606482015290519081900360840190fd5b60045460ff1615611bf4576040805160e560020a62461bcd02815260206004820152601160248201526000805160206125dd833981519152604482015290519081900360640190fd5b611bfc6110e4565b600082815260086020908152604080832060040154600160a060020a03168352600b8252808320548352600a90915290205460ff161515611c3c57600080fd5b611c4582612422565b1515611c5057600080fd5b600082815260086020908152604080832060078101805460ff1990811660019081179092556006805483019081905560059093018054600160a060020a039081168852600b87528588208590558551808701875293845290548116838701908152938752600a909552929094209351845491519093166101000274ffffffffffffffffffffffffffffffffffffffff0019931515919092161791909116179055610817611fea565b60008054606091908190600160a060020a03163314611d61576040805160e560020a62461bcd02815260206004820152601c60248201527f46756e6374696f6e206f6e6c7920757361626c652062792062616e6b00000000604482015290519081900360640190fd5b60045460ff1615611daa576040805160e560020a62461bcd02815260206004820152601160248201526000805160206125dd833981519152604482015290519081900360640190fd5b611db26110e4565b60065491505b6000821115611ebd576000828152600a6020526040902054600160a060020a03868116610100909204161415611eb1576000828152600a602052604090205460ff161515600114611e53576040805160e560020a62461bcd02815260206004820152601360248201527f4f776e6572206973206e6f742061637469766500000000000000000000000000604482015290519081900360640190fd5b6000821015611eac576040805160e560020a62461bcd02815260206004820152601d60248201527f46756e6374696f6e206f6e6c7920757361626c65206279206f776e6572000000604482015290519081900360640190fd5b611ebd565b60001990910190611db8565b506006545b6000811115611f7d576000818152600a6020526040902054600160a060020a03868116610100909204161415611f74576000818152600a602052604090208054600174ffffffffffffffffffffffffffffffffffffffff0019909116610100600160a060020a038816021760ff19161790556005805485919083908110611f4557fe5b9060005260206000200160006101000a815481600160a060020a030219169083600160a060020a031602179055505b60001901611ec2565b611f85611fea565b6005805480602002602001604051908101604052809291908181526020018280548015611fdb57602002820191906000526020600020905b8154600160a060020a03168152600190910190602001808311611fbd575b50505050509250505092915050565b60008054600160a060020a0316331415612003576120dd565b50336000818152600b6020908152604080832054808452600a909252909120549091610100909104600160a060020a031614612077576040805160e560020a62461bcd02815260206004820152601b60248201526000805160206125fd833981519152604482015290519081900360640190fd5b6000818152600a602052604090205460ff1615156001146120dd576040805160e560020a62461bcd028152602060048201526021602482015260008051602061261d833981519152604482015260f960020a603902606482015290519081900360840190fd5b60045460ff16151560011461213c576040805160e560020a62461bcd02815260206004820152601860248201527f4163636f756e7420616c726561647920756e66726f7a656e0000000000000000604482015290519081900360640190fd5b506004805460ff19169055565b60009081526008602052604090206001810154600282015460038301546004840154600585015460079095015460ff9485169693959294600160a060020a039283169492909316921690565b60008460038111156121a357fe5b14806121ba575060018460038111156121b857fe5b145b806121d0575060028460038111156121ce57fe5b145b156122fb576101006040519081016040528060075481526020018560038111156121f657fe5b81524260208083018290526203f480909101604080840191909152600160a060020a03808816606085015286166080840152600060a0840181905260c0909301839052600754835260088252909120825181559082015160018281018054909160ff199091169083600381111561226957fe5b021790555060408201516002820155606082015160038201556080820151600482018054600160a060020a0392831673ffffffffffffffffffffffffffffffffffffffff199182161790915560a084015160058401805491909316911617905560c0820151600682015560e0909101516007918201805491151560ff199092169190911790558054600101905561241c565b61010060405190810160405280600754815260200185600381111561231c57fe5b81524260208083018290526203f480909101604080840191909152600160a060020a038716606084015260006080840181905260a0840186905260c0909301839052600754835260088252909120825181559082015160018281018054909160ff199091169083600381111561238e57fe5b021790555060408201516002820155606082015160038201556080820151600482018054600160a060020a0392831673ffffffffffffffffffffffffffffffffffffffff199182161790915560a084015160058401805491909316911617905560c0820151600682015560e0909101516007918201805491151560ff19909216919091179055805460010190555b50505050565b60008181526008602052604081206003015481908190819042116124b6576040805160e560020a62461bcd02815260206004820152603160248201527f566f74696e672074696d6520686173206e6f7420656e6465642e20506c65617360448201527f652074727920616761696e206c61746572000000000000000000000000000000606482015290519081900360840190fd5b60008581526008602052604090206007015460ff1615612520576040805160e560020a62461bcd02815260206004820181905260248201527f57697468647261772068617320616c72656164792074616b656e20706c616365604482015290519081900360640190fd5b6000858152600960205260408120541161253957600080fd5b5060009150819050805b6000858152600960205260409020548110156125be57600085815260096020526040902080548290811061257357fe5b600091825260209091206002909102015474010000000000000000000000000000000000000000900460ff16156125af576001909201916125b6565b6001909101905b600101612543565b818311156125cf57600193506125d4565b600093505b50505091905056004163636f756e742069732066726f7a656e00000000000000000000000000000041646472657373206973206e6f74206f776e6572206f66204b6579000000000046756e6374696f6e206f6e6c792061636365737369626c65206279206f776e65a165627a7a723058200be40d72ece566a21fb8b654b884005edec8f465776556467efff2f22bd13075002908c379a00000000000000000000000000000000000000000000000000000000046756e6374696f6e206f6e6c7920616363657369626c79206279206f776e6572a165627a7a723058202d0831f5c70ec39c25042798696144c153ba819b84956a14424f2a5be02554b60029",
  "source": "pragma solidity ^0.4.24;\r\n\r\nimport \"./AccessAccount.sol\";\r\nimport \"./DelayAccount.sol\";\r\nimport \"./TrustAccount.sol\";\r\n\r\ncontract Bank {\r\n    address owner;\r\n    //the counter for trust groups\r\n    uint trustGroupNumbers = 0;\r\n    //the limit for all accounts\r\n    uint limit = 40000;\r\n    //the data stored for access and delay accounts\r\n    struct AccountDetails {\r\n        address owner;\r\n        address bankAccount;\r\n        AccessAccount.AccountType typeOfAccount;\r\n    }\r\n    //the data stored for trust accounts\r\n    struct TrustGroupDetails {\r\n        address[] owners;\r\n        address bankAccount;\r\n    }\r\n    //user wallets to their account details \r\n    mapping(address => AccountDetails) userWallets;\r\n    //trust group numbers to their information\r\n    mapping(uint => TrustGroupDetails) trustGroups; \r\n\r\n    /**\r\n        @param userWallet : the address of the new users wallet.\r\n        @dev Checks the account is not curently busy with a transaction. \r\n            This lock is seporate from locks placed on voting (trust accounts). \r\n    */\r\n    modifier isLocked(address userWallet) {\r\n        address usersAccountAddress = userWallets[userWallet].bankAccount;\r\n        AccessAccount usersAccount = AccessAccount(usersAccountAddress);\r\n        require(usersAccount.getFrozen() == false);\r\n        _;\r\n    }\r\n\r\n    /** \r\n      * @dev checks the address is the bank owner.\r\n      */\r\n    modifier isOwner(){\r\n        require(msg.sender == owner, \"Function only accesibly by owner\");\r\n        _;\r\n    }\r\n\r\n    constructor()\r\n        public\r\n    {\r\n        owner = msg.sender;\r\n    }\r\n\r\n    function getBalance()\r\n        public\r\n        view\r\n        isOwner()\r\n        returns(uint)\r\n    {\r\n        return address(this).balance;\r\n    }\r\n\r\n    /**\r\n     * @param _userWallet : the address of the users account \r\n     * @return address : the address of the users bank account\r\n     * @dev : needs tinkering \r\n     */\r\n    function getBankAccountAddress(address _userWallet)\r\n        public\r\n        view\r\n        isOwner()\r\n        returns(address)\r\n    {\r\n        return userWallets[_userWallet].bankAccount;\r\n    }\r\n\r\n    function getTrustGroupDetails(uint _groupNumber)\r\n        public\r\n        view\r\n        isOwner()\r\n        returns(address[])\r\n    {\r\n        return trustGroups[_groupNumber].owners;\r\n    }\r\n\r\n    function getTrustAccountAddress(uint _groupNumber)\r\n        public\r\n        view\r\n        isOwner()\r\n        returns(address)\r\n    {\r\n        return trustGroups[_groupNumber].bankAccount;\r\n    }\r\n\r\n    /**\r\n        @param _toLock : The address of the user to lock.\r\n        @dev Allows the bank to lock a user durning a transaction. \r\n    */\r\n    function lockAddress(address _toLock)\r\n        public\r\n        isOwner()\r\n    {\r\n        address usersAccountAddress = userWallets[_toLock].bankAccount;\r\n        AccessAccount usersAccount = AccessAccount(usersAccountAddress);\r\n        usersAccount.freeze();\r\n    }\r\n\r\n    function unlockAddress(address _toUnlock)\r\n        public\r\n        isOwner()\r\n    {\r\n        address usersAccountAddress = userWallets[_toUnlock].bankAccount;\r\n        AccessAccount usersAccount = AccessAccount(usersAccountAddress);\r\n        usersAccount.defrost();\r\n    }\r\n\r\n    /**\r\n      * @dev the user can only have one account on the system at a time, but in a future version \r\n      *     the userWallet[] could be linked to an array of accounts instead of a single account. \r\n      *     E.G: mapping(address => AccountDetails[]) userWallets;\r\n      */\r\n    function createAccessAccount()\r\n        public\r\n        returns(address)\r\n    {   \r\n        address newAccountAddress = new AccessAccount(msg.sender, AccessAccount.AccountType.access, limit);\r\n        \r\n        userWallets[msg.sender] = AccountDetails({\r\n            owner: msg.sender,\r\n            bankAccount: newAccountAddress,\r\n            typeOfAccount: AccessAccount.AccountType.access\r\n        });\r\n\r\n        return newAccountAddress;\r\n    }\r\n\r\n    /**\r\n      * @dev if a user already has an account then the new account will override their \r\n      *     current account and it will be lost. This is for a proof of consept and\r\n      *     not an alpha, and therfore this functionality was left out. \r\n      */\r\n    function creatingDelayAccount()\r\n        public\r\n        returns(address)\r\n    {\r\n        address newDelayAccountAddress = new DelayAccount(msg.sender, limit);\r\n        userWallets[msg.sender] = AccountDetails({\r\n            owner: msg.sender,\r\n            bankAccount: newDelayAccountAddress,\r\n            typeOfAccount: AccessAccount.AccountType.delay\r\n        });\r\n\r\n        return newDelayAccountAddress;\r\n    }\r\n\r\n    /**\r\n      * @param _owners : the owners of the trust account\r\n      * @dev \r\n      */\r\n    function creatingTrustAccount(address[] _owners)\r\n        public\r\n        returns(address)\r\n    {\r\n        address newTrustAccountAddress = new TrustAccount(_owners, limit);\r\n        trustGroups[trustGroupNumbers] = TrustGroupDetails({\r\n            owners: _owners,\r\n            bankAccount: newTrustAccountAddress\r\n        });\r\n        trustGroupNumbers++;\r\n        return newTrustAccountAddress;\r\n    }\r\n\r\n    function lockAccount(address _owner)\r\n        public\r\n        isOwner()\r\n    {\r\n        address accountAddress = userWallets[_owner].bankAccount;\r\n        AccessAccount account = AccessAccount(accountAddress);\r\n        account.freeze();\r\n    }\r\n\r\n    function unlockAccount(address _owner)\r\n        public\r\n        isOwner()\r\n    {\r\n        address accountAddress = userWallets[_owner].bankAccount;\r\n        AccessAccount account = AccessAccount(accountAddress);\r\n        account.defrost();\r\n    }\r\n\r\n    function lockTrustAccount(uint _trustGroupNumber)\r\n        public\r\n        isOwner()\r\n    {\r\n        address accountAddress = trustGroups[_trustGroupNumber].bankAccount;\r\n        TrustAccount account = TrustAccount(accountAddress);\r\n        account.freeze();\r\n    }\r\n\r\n    function unlockTrustAccount(uint _trustGroupNumber)\r\n        public\r\n        isOwner()\r\n    {\r\n        address accountAddress = trustGroups[_trustGroupNumber].bankAccount;\r\n        TrustAccount account = TrustAccount(accountAddress);\r\n        account.defrost();\r\n    }\r\n\r\n    /**\r\n      * @param _oldAddress : the old user wallet address\r\n      * @param _newAddress : the address of the new user wallet\r\n      * @dev changes the ownership of access and delay accounts \r\n      */\r\n    function changeOwnership(address _oldAddress, address _newAddress)\r\n        public\r\n        isOwner()\r\n    {\r\n        require(userWallets[_oldAddress].owner == _oldAddress);\r\n\r\n        address accountAddress = userWallets[_oldAddress].bankAccount;\r\n        AccessAccount accountContract = AccessAccount(accountAddress);\r\n        accountContract.changeOwner(_newAddress);\r\n        userWallets[_newAddress].owner = _newAddress;\r\n        userWallets[_newAddress].bankAccount = accountAddress;\r\n        userWallets[_newAddress].typeOfAccount = userWallets[_oldAddress].typeOfAccount;\r\n        userWallets[_oldAddress].owner = 0x0;\r\n        userWallets[_oldAddress].bankAccount = 0x0;\r\n        userWallets[_oldAddress].typeOfAccount;\r\n    }\r\n\r\n    /**\r\n    struct AccountDetails {\r\n        address owner;\r\n        address bankAccount;\r\n        AccessAccount.AccountType typeOfAccount;\r\n    }\r\n    //the data stored for trust accounts\r\n    struct TrustGroupDetails {\r\n        address[] owners;\r\n        address bankAccount;\r\n    }\r\n     */\r\n\r\n    /**\r\n      * @param _oldAddress : the old user wallet address\r\n      * @param _newAddress : the new user wallet address\r\n      * @param _groupNumber : the trust grup number \r\n      * @dev \r\n      */\r\n    function changeOwnershipTrustGroup(address _oldAddress, address _newAddress, uint _groupNumber)\r\n        public\r\n        isOwner()\r\n    {\r\n        address accountAddress = trustGroups[_groupNumber].bankAccount;\r\n        TrustAccount accountContract = TrustAccount(accountAddress);\r\n        address[] memory newOwners = accountContract.changeOwner(_oldAddress, _newAddress);\r\n        trustGroups[_groupNumber].owners = newOwners;\r\n    }\r\n\r\n    function newAccountLimitModifier(uint _newLimit)\r\n        public \r\n        isOwner()\r\n    {\r\n        limit = _newLimit;\r\n    }\r\n\r\n    function accountLimitModifier(address _account, uint _newLimit)\r\n        public\r\n        isOwner()\r\n    {\r\n        AccessAccount account = AccessAccount(_account);\r\n        uint balance = account.getBalance();\r\n        require(balance < _newLimit);\r\n        account.setLimit(_newLimit);\r\n    }\r\n     \r\n    function dissolveAccount(address _account)\r\n        public\r\n        isOwner()\r\n    {\r\n        AccessAccount account = AccessAccount(_account);\r\n        account.dissolve();\r\n    }\r\n}",
  "sourcePath": "C:\\Users\\Veronica Coutts\\Desktop\\Desktop\\Work\\LinumLabs\\PoCBank\\pocbank\\contracts\\Bank.sol",
  "compiler": {
    "name": "solc",
    "version": "0.4.24+commit.e67f0147.Emscripten.clang"
  },
  "schemaVersion": "2.0.1",
  "updatedAt": "2018-10-04T07:53:41.273Z"
}