{
  "contractName": "TrustAccount",
  "abi": [
    {
      "constant": true,
      "inputs": [],
      "name": "getBalance",
      "outputs": [
        {
          "name": "",
          "type": "uint256"
        }
      ],
      "payable": false,
      "stateMutability": "view",
      "type": "function"
    },
    {
      "constant": false,
      "inputs": [
        {
          "name": "_newLimit",
          "type": "uint256"
        }
      ],
      "name": "setLimit",
      "outputs": [],
      "payable": false,
      "stateMutability": "nonpayable",
      "type": "function"
    },
    {
      "constant": false,
      "inputs": [],
      "name": "freeze",
      "outputs": [],
      "payable": false,
      "stateMutability": "nonpayable",
      "type": "function"
    },
    {
      "constant": true,
      "inputs": [],
      "name": "getFrozen",
      "outputs": [
        {
          "name": "",
          "type": "bool"
        }
      ],
      "payable": false,
      "stateMutability": "view",
      "type": "function"
    },
    {
      "constant": true,
      "inputs": [],
      "name": "getOwner",
      "outputs": [
        {
          "name": "",
          "type": "address"
        }
      ],
      "payable": false,
      "stateMutability": "view",
      "type": "function"
    },
    {
      "constant": true,
      "inputs": [],
      "name": "getLimit",
      "outputs": [
        {
          "name": "",
          "type": "uint256"
        }
      ],
      "payable": false,
      "stateMutability": "view",
      "type": "function"
    },
    {
      "constant": false,
      "inputs": [],
      "name": "deposit",
      "outputs": [],
      "payable": true,
      "stateMutability": "payable",
      "type": "function"
    },
    {
      "constant": false,
      "inputs": [],
      "name": "defrost",
      "outputs": [],
      "payable": false,
      "stateMutability": "nonpayable",
      "type": "function"
    },
    {
      "inputs": [
        {
          "name": "_owners",
          "type": "address[]"
        },
        {
          "name": "_limit",
          "type": "uint256"
        }
      ],
      "payable": false,
      "stateMutability": "nonpayable",
      "type": "constructor"
    },
    {
      "payable": true,
      "stateMutability": "payable",
      "type": "fallback"
    },
    {
      "anonymous": false,
      "inputs": [
        {
          "indexed": false,
          "name": "owners",
          "type": "address[]"
        },
        {
          "indexed": false,
          "name": "_bank",
          "type": "address"
        },
        {
          "indexed": false,
          "name": "_limit",
          "type": "uint256"
        }
      ],
      "name": "LogCreatedTrustAccount",
      "type": "event"
    },
    {
      "anonymous": false,
      "inputs": [
        {
          "indexed": false,
          "name": "_owner",
          "type": "address"
        },
        {
          "indexed": false,
          "name": "_bank",
          "type": "address"
        },
        {
          "indexed": false,
          "name": "_accountType",
          "type": "uint8"
        }
      ],
      "name": "LogCreatedAccessAcount",
      "type": "event"
    },
    {
      "anonymous": false,
      "inputs": [
        {
          "indexed": false,
          "name": "_where",
          "type": "string"
        }
      ],
      "name": "LogUnexpectedRevert",
      "type": "event"
    },
    {
      "anonymous": false,
      "inputs": [
        {
          "indexed": false,
          "name": "_desc",
          "type": "string"
        }
      ],
      "name": "LogProgress",
      "type": "event"
    },
    {
      "constant": true,
      "inputs": [
        {
          "name": "_ballotID",
          "type": "uint256"
        }
      ],
      "name": "getBallot",
      "outputs": [
        {
          "name": "typeOfVote",
          "type": "uint8"
        },
        {
          "name": "startTime",
          "type": "uint256"
        },
        {
          "name": "endTime",
          "type": "uint256"
        },
        {
          "name": "currentAddress",
          "type": "address"
        },
        {
          "name": "newAddress",
          "type": "address"
        },
        {
          "name": "actedOn",
          "type": "bool"
        }
      ],
      "payable": false,
      "stateMutability": "view",
      "type": "function"
    },
    {
      "constant": false,
      "inputs": [
        {
          "name": "_ballotID",
          "type": "uint256"
        },
        {
          "name": "_vote",
          "type": "bool"
        }
      ],
      "name": "voteFor",
      "outputs": [],
      "payable": false,
      "stateMutability": "nonpayable",
      "type": "function"
    },
    {
      "constant": false,
      "inputs": [
        {
          "name": "_oldOwnerAddress",
          "type": "address"
        },
        {
          "name": "_newOwnerAddress",
          "type": "address"
        }
      ],
      "name": "changeOwner",
      "outputs": [
        {
          "name": "",
          "type": "address[]"
        }
      ],
      "payable": false,
      "stateMutability": "nonpayable",
      "type": "function"
    },
    {
      "constant": false,
      "inputs": [
        {
          "name": "_newOwnerAddress",
          "type": "address"
        }
      ],
      "name": "changeOwner",
      "outputs": [],
      "payable": false,
      "stateMutability": "nonpayable",
      "type": "function"
    },
    {
      "constant": false,
      "inputs": [
        {
          "name": "_to",
          "type": "address"
        },
        {
          "name": "_amount",
          "type": "uint256"
        }
      ],
      "name": "requestWithdraw",
      "outputs": [
        {
          "name": "",
          "type": "uint256"
        }
      ],
      "payable": false,
      "stateMutability": "nonpayable",
      "type": "function"
    },
    {
      "constant": false,
      "inputs": [
        {
          "name": "_current",
          "type": "address"
        },
        {
          "name": "_new",
          "type": "address"
        }
      ],
      "name": "requestChangeOwnerAddress",
      "outputs": [],
      "payable": false,
      "stateMutability": "nonpayable",
      "type": "function"
    },
    {
      "constant": false,
      "inputs": [
        {
          "name": "_new",
          "type": "address"
        }
      ],
      "name": "addOwnerRequest",
      "outputs": [],
      "payable": false,
      "stateMutability": "nonpayable",
      "type": "function"
    },
    {
      "constant": false,
      "inputs": [
        {
          "name": "_toRemove",
          "type": "address"
        }
      ],
      "name": "removeOwnerRequest",
      "outputs": [],
      "payable": false,
      "stateMutability": "nonpayable",
      "type": "function"
    },
    {
      "constant": false,
      "inputs": [
        {
          "name": "_ballotID",
          "type": "uint256"
        }
      ],
      "name": "withdraw",
      "outputs": [],
      "payable": false,
      "stateMutability": "nonpayable",
      "type": "function"
    },
    {
      "constant": false,
      "inputs": [
        {
          "name": "_ballotID",
          "type": "uint256"
        }
      ],
      "name": "changeOwnerAddress",
      "outputs": [],
      "payable": false,
      "stateMutability": "nonpayable",
      "type": "function"
    },
    {
      "constant": false,
      "inputs": [
        {
          "name": "_ballotID",
          "type": "uint256"
        }
      ],
      "name": "addOwner",
      "outputs": [],
      "payable": false,
      "stateMutability": "nonpayable",
      "type": "function"
    },
    {
      "constant": false,
      "inputs": [
        {
          "name": "_ballotID",
          "type": "uint256"
        }
      ],
      "name": "removeOwner",
      "outputs": [],
      "payable": false,
      "stateMutability": "nonpayable",
      "type": "function"
    },
    {
      "constant": false,
      "inputs": [],
      "name": "dissolve",
      "outputs": [],
      "payable": false,
      "stateMutability": "nonpayable",
      "type": "function"
    }
  ],
  "bytecode": "0x6080604052600060065560006007553480156200001b57600080fd5b50604051620028e1380380620028e183398101604081815282516020808501516001805433600160a060020a03199182168117909255600080549091168217815560048054600385905561ff0019166102001760ff191690558187529286018190526002858701819052945193909601959094919384939192909186917f4f1a20e20b0b2f3cdc1fcd1d7631e4cb35cadb8c1b8ea065a71a94167adf1e0f916060918190039190910190a150506001805433600160a060020a031991821681179092556000805490911690911781556003859055855193509150505b81811015620001cc5780600b600086848151811015156200011457fe5b90602001906020020151600160a060020a0316600160a060020a0316815260200190815260200160002081905550604080519081016040528060011515815260200185838151811015156200016557fe5b6020908102909101810151600160a060020a039081169092526000848152600a8252604090208351815494909201519092166101000261010060a860020a031991151560ff19909416939093171691909117905560068054600190810190915501620000f7565b7f3a650401d4f28871cc7011cf20e98637ced898f0c304280307332b3bfc947f67843385604051808060200184600160a060020a0316600160a060020a03168152602001838152602001828103825285818151815260200191508051906020019060200280838360005b838110156200025057818101518382015260200162000236565b5050505090500194505050505060405180910390a15050505061266880620002796000396000f30060806040526004361061011c5763ffffffff7c010000000000000000000000000000000000000000000000000000000060003504166312065fe081146101265780631ccfb02f1461014d57806323f001ae1461017657806327ea6f2b1461018e5780632e1a7d4d146101a6578063397a1b28146101be5780633a253cee146101e25780633bef8a3a1461020357806350791c641461021857806362a5af3b146102395780636b9194881461024e5780637495b35314610266578063893d20e81461028f578063a6f9dae1146102c0578063b295a00e146102e1578063bdb5fd99146102f6578063d0e30db014610313578063d5356ffa1461031b578063f00d4b5d14610333578063f21cdf6f146103aa578063f9d5ee75146103bf575b6002805434019055005b34801561013257600080fd5b5061013b610428565b60408051918252519081900360200190f35b34801561015957600080fd5b50610174600160a060020a036004358116906024351661042e565b005b34801561018257600080fd5b5061017460043561060c565b34801561019a57600080fd5b5061017460043561081b565b3480156101b257600080fd5b50610174600435610882565b3480156101ca57600080fd5b5061013b600160a060020a0360043516602435610ab7565b3480156101ee57600080fd5b50610174600160a060020a0360043516610c73565b34801561020f57600080fd5b50610174610e4c565b34801561022457600080fd5b50610174600160a060020a0360043516610f91565b34801561024557600080fd5b506101746110e4565b34801561025a57600080fd5b50610174600435611230565b34801561027257600080fd5b5061027b6113fe565b604080519115158252519081900360200190f35b34801561029b57600080fd5b506102a4611407565b60408051600160a060020a039092168252519081900360200190f35b3480156102cc57600080fd5b50610174600160a060020a036004351661150d565b3480156102ed57600080fd5b5061013b611687565b34801561030257600080fd5b506101746004356024351515611784565b610174611983565b34801561032757600080fd5b50610174600435611ab8565b34801561033f57600080fd5b5061035a600160a060020a0360043581169060243516611cf8565b60408051602080825283518183015283519192839290830191858101910280838360005b8381101561039657818101518382015260200161037e565b505050509050019250505060405180910390f35b3480156103b657600080fd5b50610174611fea565b3480156103cb57600080fd5b506103d7600435612149565b604051808760038111156103e757fe5b60ff168152602081019690965250604080860194909452600160a060020a03928316606086015291166080840152151560a0830152519081900360c0019150f35b60025490565b60008054600160a060020a031633141561044757610521565b50336000818152600b6020908152604080832054808452600a909252909120549091610100909104600160a060020a0316146104bb576040805160e560020a62461bcd02815260206004820152601b60248201526000805160206125fd833981519152604482015290519081900360640190fd5b6000818152600a602052604090205460ff161515600114610521576040805160e560020a62461bcd028152602060048201526021602482015260008051602061261d833981519152604482015260f960020a603902606482015290519081900360840190fd5b60045460ff161561056a576040805160e560020a62461bcd02815260206004820152601160248201526000805160206125dd833981519152604482015290519081900360640190fd5b6105726110e4565b600160a060020a0383166000908152600b60209081526040808320548352600a90915290205460ff1615156105f1576040805160e560020a62461bcd02815260206004820152601e60248201527f43757272656e742061646472657373206e6f74207265636f676e697365640000604482015290519081900360640190fd5b6105ff600284846000612195565b610607611fea565b505050565b60008054600160a060020a0316331415610625576106ff565b50336000818152600b6020908152604080832054808452600a909252909120549091610100909104600160a060020a031614610699576040805160e560020a62461bcd02815260206004820152601b60248201526000805160206125fd833981519152604482015290519081900360640190fd5b6000818152600a602052604090205460ff1615156001146106ff576040805160e560020a62461bcd028152602060048201526021602482015260008051602061261d833981519152604482015260f960020a603902606482015290519081900360840190fd5b60045460ff1615610748576040805160e560020a62461bcd02815260206004820152601160248201526000805160206125dd833981519152604482015290519081900360640190fd5b6107506110e4565b600082815260086020908152604080832060040154600160a060020a03168352600b8252808320548352600a90915290205460ff16151561079057600080fd5b61079982612422565b15156107a457600080fd5b6000828152600860209081526040808320600781018054600160ff1991821617909155600482018054600160a060020a039081168752600b808752858820548852600a87528588208054909416909355905481168652935281842054600590910154909216835290912055610817611fea565b5050565b600054600160a060020a0316331461087d576040805160e560020a62461bcd02815260206004820152601c60248201527f46756e6374696f6e206f6e6c7920757361626c652062792062616e6b00000000604482015290519081900360640190fd5b600355565b60008054600160a060020a031633141561089b57610975565b50336000818152600b6020908152604080832054808452600a909252909120549091610100909104600160a060020a03161461090f576040805160e560020a62461bcd02815260206004820152601b60248201526000805160206125fd833981519152604482015290519081900360640190fd5b6000818152600a602052604090205460ff161515600114610975576040805160e560020a62461bcd028152602060048201526021602482015260008051602061261d833981519152604482015260f960020a603902606482015290519081900360840190fd5b60045460ff16156109be576040805160e560020a62461bcd02815260206004820152601160248201526000805160206125dd833981519152604482015290519081900360640190fd5b6109c66110e4565b60025460008381526008602052604090206006015410610a30576040805160e560020a62461bcd02815260206004820152601160248201527f496e737566666963656e742066756e6473000000000000000000000000000000604482015290519081900360640190fd5b610a3982612422565b1515610a4457600080fd5b60008281526008602052604080822060078101805460ff191660011790556006810180546002805491909103905560049091015490549151600160a060020a039091169282156108fc02929190818181858888f19350505050158015610aae573d6000803e3d6000fd5b50610817611fea565b600080548190600160a060020a0316331415610ad257610bac565b50336000818152600b6020908152604080832054808452600a909252909120549091610100909104600160a060020a031614610b46576040805160e560020a62461bcd02815260206004820152601b60248201526000805160206125fd833981519152604482015290519081900360640190fd5b6000818152600a602052604090205460ff161515600114610bac576040805160e560020a62461bcd028152602060048201526021602482015260008051602061261d833981519152604482015260f960020a603902606482015290519081900360840190fd5b60045460ff1615610bf5576040805160e560020a62461bcd02815260206004820152601160248201526000805160206125dd833981519152604482015290519081900360640190fd5b610bfd6110e4565b6002548310610c56576040805160e560020a62461bcd02815260206004820152601f60248201527f43616e6e6f74207769746864726177206d6f7265207468616e206f776e656400604482015290519081900360640190fd5b610c64600385600086612195565b610c6c611fea565b5092915050565b60008054600160a060020a0316331415610c8c57610d66565b50336000818152600b6020908152604080832054808452600a909252909120549091610100909104600160a060020a031614610d00576040805160e560020a62461bcd02815260206004820152601b60248201526000805160206125fd833981519152604482015290519081900360640190fd5b6000818152600a602052604090205460ff161515600114610d66576040805160e560020a62461bcd028152602060048201526021602482015260008051602061261d833981519152604482015260f960020a603902606482015290519081900360840190fd5b60045460ff1615610daf576040805160e560020a62461bcd02815260206004820152601160248201526000805160206125dd833981519152604482015290519081900360640190fd5b610db76110e4565b600160a060020a0382166000908152600b60209081526040808320548352600a90915290205460ff161515610e36576040805160e560020a62461bcd02815260206004820152601e60248201527f4f776e65722068617320616c7265616479206265656e2072656d6f7665640000604482015290519081900360640190fd5b610e44600183600080612195565b610817611fea565b60008054819081908190600160a060020a03163314610eb5576040805160e560020a62461bcd02815260206004820152601c60248201527f46756e6374696f6e206f6e6c7920757361626c652062792062616e6b00000000604482015290519081900360640190fd5b6004805460ff19166001179055600093508392505b6006548311610efc576000838152600a602052604090205460ff1615610ef1576001909301925b600190920191610eca565b83600254811515610f0957fe5b049150600090505b6006548311610f83576000838152600a602052604090205460ff1615610f7b576000838152600a6020526040808220549051610100909104600160a060020a0316916108fc851502918591818181858888f19350505050158015610f79573d6000803e3d6000fd5b505b600101610f11565b600054600160a060020a0316ff5b60008054600160a060020a0316331415610faa57611084565b50336000818152600b6020908152604080832054808452600a909252909120549091610100909104600160a060020a03161461101e576040805160e560020a62461bcd02815260206004820152601b60248201526000805160206125fd833981519152604482015290519081900360640190fd5b6000818152600a602052604090205460ff161515600114611084576040805160e560020a62461bcd028152602060048201526021602482015260008051602061261d833981519152604482015260f960020a603902606482015290519081900360840190fd5b60045460ff16156110cd576040805160e560020a62461bcd02815260206004820152601160248201526000805160206125dd833981519152604482015290519081900360640190fd5b6110d56110e4565b610e4460016000846000612195565b60008054600160a060020a03163314156110fd576111d7565b50336000818152600b6020908152604080832054808452600a909252909120549091610100909104600160a060020a031614611171576040805160e560020a62461bcd02815260206004820152601b60248201526000805160206125fd833981519152604482015290519081900360640190fd5b6000818152600a602052604090205460ff1615156001146111d7576040805160e560020a62461bcd028152602060048201526021602482015260008051602061261d833981519152604482015260f960020a603902606482015290519081900360840190fd5b60045460ff1615611220576040805160e560020a62461bcd02815260206004820152601160248201526000805160206125dd833981519152604482015290519081900360640190fd5b506004805460ff19166001179055565b60008054600160a060020a031633141561124957611323565b50336000818152600b6020908152604080832054808452600a909252909120549091610100909104600160a060020a0316146112bd576040805160e560020a62461bcd02815260206004820152601b60248201526000805160206125fd833981519152604482015290519081900360640190fd5b6000818152600a602052604090205460ff161515600114611323576040805160e560020a62461bcd028152602060048201526021602482015260008051602061261d833981519152604482015260f960020a603902606482015290519081900360840190fd5b60045460ff161561136c576040805160e560020a62461bcd02815260206004820152601160248201526000805160206125dd833981519152604482015290519081900360640190fd5b6113746110e4565b61137d82612422565b151561138857600080fd5b60008281526008602090815260408083206004018054600160a060020a039081168552600b808552838620548652600a808652848720805460ff191690559254909116855283528184205484529091529020805474ffffffffffffffffffffffffffffffffffffffff0019169055610817611fea565b60045460ff1690565b600080548190600160a060020a0316331415611422576114fc565b50336000818152600b6020908152604080832054808452600a909252909120549091610100909104600160a060020a031614611496576040805160e560020a62461bcd02815260206004820152601b60248201526000805160206125fd833981519152604482015290519081900360640190fd5b6000818152600a602052604090205460ff1615156001146114fc576040805160e560020a62461bcd028152602060048201526021602482015260008051602061261d833981519152604482015260f960020a603902606482015290519081900360840190fd5b5050600154600160a060020a031690565b600054600160a060020a0316331461156f576040805160e560020a62461bcd02815260206004820152601c60248201527f46756e6374696f6e206f6e6c7920757361626c652062792062616e6b00000000604482015290519081900360640190fd5b60045460ff16156115b8576040805160e560020a62461bcd02815260206004820152601160248201526000805160206125dd833981519152604482015290519081900360640190fd5b6115c06110e4565b6002600454610100900460ff1660028111156115d857fe5b1415611654576040805160e560020a62461bcd02815260206004820152603160248201527f506c6561736520757365206368616e67654f776e65722066756e6374696f6e2060448201527f696e20747275737420636f6e7472616374000000000000000000000000000000606482015290519081900360840190fd5b6001805473ffffffffffffffffffffffffffffffffffffffff1916600160a060020a038316179055611684611fea565b50565b600080548190600160a060020a03163314156116a25761177c565b50336000818152600b6020908152604080832054808452600a909252909120549091610100909104600160a060020a031614611716576040805160e560020a62461bcd02815260206004820152601b60248201526000805160206125fd833981519152604482015290519081900360640190fd5b6000818152600a602052604090205460ff16151560011461177c576040805160e560020a62461bcd028152602060048201526021602482015260008051602061261d833981519152604482015260f960020a603902606482015290519081900360840190fd5b505060035490565b60008054600160a060020a031633141561179d57611877565b50336000818152600b6020908152604080832054808452600a909252909120549091610100909104600160a060020a031614611811576040805160e560020a62461bcd02815260206004820152601b60248201526000805160206125fd833981519152604482015290519081900360640190fd5b6000818152600a602052604090205460ff161515600114611877576040805160e560020a62461bcd028152602060048201526021602482015260008051602061261d833981519152604482015260f960020a603902606482015290519081900360840190fd5b6000838152600860205260408120600201541161189357600080fd5b60008381526008602052604090206002015442108015906118c4575060008381526008602052604090206003015442105b15156118cf57600080fd5b50600082815260096020908152604080832081516060810183523381529415158584019081529185019586528054600181810183559185529290932093516002909202909301805493511515740100000000000000000000000000000000000000000274ff000000000000000000000000000000000000000019600160a060020a039390931673ffffffffffffffffffffffffffffffffffffffff1990951694909417919091169290921782559151910155565b60045460ff16156119cc576040805160e560020a62461bcd02815260206004820152601160248201526000805160206125dd833981519152604482015290519081900360640190fd5b60003460025401111515611a50576040805160e560020a62461bcd02815260206004820152602260248201527f56616c75652063616e6e6f74206d616b652062616c616e6365206e656761746960448201527f7665000000000000000000000000000000000000000000000000000000000000606482015290519081900360840190fd5b60035460025434011115611aae576040805160e560020a62461bcd02815260206004820181905260248201527f4465706f7369742074616b6573206163636f756e74206f766572206c696d6974604482015290519081900360640190fd5b6002805434019055565b60008054600160a060020a0316331415611ad157611bab565b50336000818152600b6020908152604080832054808452600a909252909120549091610100909104600160a060020a031614611b45576040805160e560020a62461bcd02815260206004820152601b60248201526000805160206125fd833981519152604482015290519081900360640190fd5b6000818152600a602052604090205460ff161515600114611bab576040805160e560020a62461bcd028152602060048201526021602482015260008051602061261d833981519152604482015260f960020a603902606482015290519081900360840190fd5b60045460ff1615611bf4576040805160e560020a62461bcd02815260206004820152601160248201526000805160206125dd833981519152604482015290519081900360640190fd5b611bfc6110e4565b600082815260086020908152604080832060040154600160a060020a03168352600b8252808320548352600a90915290205460ff161515611c3c57600080fd5b611c4582612422565b1515611c5057600080fd5b600082815260086020908152604080832060078101805460ff1990811660019081179092556006805483019081905560059093018054600160a060020a039081168852600b87528588208590558551808701875293845290548116838701908152938752600a909552929094209351845491519093166101000274ffffffffffffffffffffffffffffffffffffffff0019931515919092161791909116179055610817611fea565b60008054606091908190600160a060020a03163314611d61576040805160e560020a62461bcd02815260206004820152601c60248201527f46756e6374696f6e206f6e6c7920757361626c652062792062616e6b00000000604482015290519081900360640190fd5b60045460ff1615611daa576040805160e560020a62461bcd02815260206004820152601160248201526000805160206125dd833981519152604482015290519081900360640190fd5b611db26110e4565b60065491505b6000821115611ebd576000828152600a6020526040902054600160a060020a03868116610100909204161415611eb1576000828152600a602052604090205460ff161515600114611e53576040805160e560020a62461bcd02815260206004820152601360248201527f4f776e6572206973206e6f742061637469766500000000000000000000000000604482015290519081900360640190fd5b6000821015611eac576040805160e560020a62461bcd02815260206004820152601d60248201527f46756e6374696f6e206f6e6c7920757361626c65206279206f776e6572000000604482015290519081900360640190fd5b611ebd565b60001990910190611db8565b506006545b6000811115611f7d576000818152600a6020526040902054600160a060020a03868116610100909204161415611f74576000818152600a602052604090208054600174ffffffffffffffffffffffffffffffffffffffff0019909116610100600160a060020a038816021760ff19161790556005805485919083908110611f4557fe5b9060005260206000200160006101000a815481600160a060020a030219169083600160a060020a031602179055505b60001901611ec2565b611f85611fea565b6005805480602002602001604051908101604052809291908181526020018280548015611fdb57602002820191906000526020600020905b8154600160a060020a03168152600190910190602001808311611fbd575b50505050509250505092915050565b60008054600160a060020a0316331415612003576120dd565b50336000818152600b6020908152604080832054808452600a909252909120549091610100909104600160a060020a031614612077576040805160e560020a62461bcd02815260206004820152601b60248201526000805160206125fd833981519152604482015290519081900360640190fd5b6000818152600a602052604090205460ff1615156001146120dd576040805160e560020a62461bcd028152602060048201526021602482015260008051602061261d833981519152604482015260f960020a603902606482015290519081900360840190fd5b60045460ff16151560011461213c576040805160e560020a62461bcd02815260206004820152601860248201527f4163636f756e7420616c726561647920756e66726f7a656e0000000000000000604482015290519081900360640190fd5b506004805460ff19169055565b60009081526008602052604090206001810154600282015460038301546004840154600585015460079095015460ff9485169693959294600160a060020a039283169492909316921690565b60008460038111156121a357fe5b14806121ba575060018460038111156121b857fe5b145b806121d0575060028460038111156121ce57fe5b145b156122fb576101006040519081016040528060075481526020018560038111156121f657fe5b81524260208083018290526203f480909101604080840191909152600160a060020a03808816606085015286166080840152600060a0840181905260c0909301839052600754835260088252909120825181559082015160018281018054909160ff199091169083600381111561226957fe5b021790555060408201516002820155606082015160038201556080820151600482018054600160a060020a0392831673ffffffffffffffffffffffffffffffffffffffff199182161790915560a084015160058401805491909316911617905560c0820151600682015560e0909101516007918201805491151560ff199092169190911790558054600101905561241c565b61010060405190810160405280600754815260200185600381111561231c57fe5b81524260208083018290526203f480909101604080840191909152600160a060020a038716606084015260006080840181905260a0840186905260c0909301839052600754835260088252909120825181559082015160018281018054909160ff199091169083600381111561238e57fe5b021790555060408201516002820155606082015160038201556080820151600482018054600160a060020a0392831673ffffffffffffffffffffffffffffffffffffffff199182161790915560a084015160058401805491909316911617905560c0820151600682015560e0909101516007918201805491151560ff19909216919091179055805460010190555b50505050565b60008181526008602052604081206003015481908190819042116124b6576040805160e560020a62461bcd02815260206004820152603160248201527f566f74696e672074696d6520686173206e6f7420656e6465642e20506c65617360448201527f652074727920616761696e206c61746572000000000000000000000000000000606482015290519081900360840190fd5b60008581526008602052604090206007015460ff1615612520576040805160e560020a62461bcd02815260206004820181905260248201527f57697468647261772068617320616c72656164792074616b656e20706c616365604482015290519081900360640190fd5b6000858152600960205260408120541161253957600080fd5b5060009150819050805b6000858152600960205260409020548110156125be57600085815260096020526040902080548290811061257357fe5b600091825260209091206002909102015474010000000000000000000000000000000000000000900460ff16156125af576001909201916125b6565b6001909101905b600101612543565b818311156125cf57600193506125d4565b600093505b50505091905056004163636f756e742069732066726f7a656e00000000000000000000000000000041646472657373206973206e6f74206f776e6572206f66204b6579000000000046756e6374696f6e206f6e6c792061636365737369626c65206279206f776e65a165627a7a723058200be40d72ece566a21fb8b654b884005edec8f465776556467efff2f22bd130750029",
  "source": "pragma solidity ^0.4.24;\r\n\r\nimport \"./AccessAccount.sol\";\r\n\r\ncontract TrustAccount is AccessAccount {\r\n    //array of all the owner addresses\r\n    address[] owners;\r\n    //counter of all owners\r\n    uint noOfOwners = 0;\r\n    //ballot counter\r\n    uint ballotIDs = 0;\r\n    //the different types of votes\r\n    enum VoteType {removeOwner, addOwner, changeOwner, withdrawRequest}\r\n    //votes, containingthe voter, their vote and the ballot ID\r\n    struct Vote {\r\n        address voter;\r\n        bool vote;\r\n        uint ballotID;\r\n    }\r\n    //the owners, containing if they are active and all their votes\r\n    struct OwnerDetails {\r\n        bool isOwner;\r\n        address ownerWallet;\r\n        // Votes[] allVotes;\r\n    }\r\n    //the ballots, containing the votes specific details and an ID\r\n    struct Ballot {\r\n        uint ballotID;\r\n        VoteType typeOfVote;\r\n        uint startTime;\r\n        uint endTime;\r\n        address currentAddress;\r\n        address newAddress;\r\n        uint amount;\r\n        bool actedOn;\r\n    }\r\n    //ballots to their ids\r\n    //change to array\r\n    mapping(uint => Ballot) allBallots;\r\n    //all votes for the ballot\r\n    mapping(uint => Vote[]) allVotesForBallot;\r\n    //user keys to their details\r\n    mapping(uint => OwnerDetails) allOwners;\r\n    //user addresses to keys\r\n    mapping(address => uint) ownersKeys;\r\n\r\n    event LogCreatedTrustAccount(address[] owners, address _bank, uint _limit);\r\n\r\n    /** \r\n      * @dev modifier checks that only the owner may call the function\r\n      */\r\n    modifier isOwner() {\r\n        if(msg.sender == bankAddress){\r\n\r\n        } else {\r\n            uint key = ownersKeys[msg.sender];\r\n            require(allOwners[key].ownerWallet == msg.sender, \"Address is not owner of Key\");\r\n            require(allOwners[key].isOwner == true, \"Function only accessible by owner\");\r\n        }\r\n        _;\r\n    }\r\n\r\n    /**\r\n      * @dev the constructor sets the owner in the access account to the bank as \r\n      *     all the owners need equal status and replacability. \r\n      */\r\n    constructor(address[] _owners, uint _limit)\r\n        AccessAccount(msg.sender, AccessAccount.AccountType.trust, _limit)\r\n        public\r\n    {\r\n        AccessAccount.onwerAddress = msg.sender;\r\n        bankAddress = msg.sender;\r\n        AccessAccount.accountLimit = _limit;\r\n        uint noOfOwnersInArray = _owners.length;\r\n        for(uint i = 0; i < noOfOwnersInArray; i++){\r\n            ownersKeys[_owners[i]] = i;\r\n            allOwners[i] = OwnerDetails({\r\n                isOwner: true,\r\n                ownerWallet: _owners[i]\r\n            });\r\n            noOfOwners++;\r\n        }\r\n        emit LogCreatedTrustAccount(_owners, msg.sender, _limit);\r\n    }\r\n\r\n    /**\r\n      * @param _voteType : the type of vote it is\r\n      * @param _current : if it is removing / changing / adding an owner:\r\n      *     if removing, this is the address of the owner to remove.\r\n      *     if changing, _current is their current address.\r\n      *     if adding an owner, current will be blank \r\n      *     if withdraw requset, this is the address the funds will be sent to\r\n      * @param _new :if changing / adding an owner: \r\n      *     if changing, this will be their new address\r\n      *     if adding, contains the new address\r\n      *     if withdraw request then this is blank\r\n      * @dev if the vote type is rejecting a withdraw requset then both addresses are empty\r\n      */\r\n    function createBallot(VoteType _voteType, address _current, address _new, uint _amount)\r\n        private\r\n    {\r\n        if(\r\n            _voteType == VoteType.removeOwner || \r\n            _voteType == VoteType.addOwner || \r\n            _voteType == VoteType.changeOwner\r\n        ){\r\n            //vote is owners modification\r\n            allBallots[ballotIDs] = Ballot({\r\n                ballotID: ballotIDs,\r\n                typeOfVote: _voteType,\r\n                startTime: now,\r\n                //3 (days) x 24 (hours) x 60 (minutes) x 60 (secounds) = 259 200\r\n                endTime: now + 259200,\r\n                currentAddress: _current,\r\n                newAddress: _new,\r\n                amount: 0,\r\n                actedOn: false\r\n            });\r\n            ballotIDs++;\r\n        } else {\r\n            //vote is rejecting withdraw.\r\n            allBallots[ballotIDs] = Ballot({\r\n                ballotID: ballotIDs,\r\n                typeOfVote: _voteType,\r\n                startTime: now,\r\n                endTime: now + 259200,\r\n                currentAddress: _current,\r\n                newAddress: 0x0,\r\n                amount: _amount,\r\n                actedOn: false\r\n            });\r\n            ballotIDs++;\r\n        }\r\n    }\r\n\r\n    /**\r\n      * @param _ballotID : the ballots ID\r\n      * @dev returns the details fo a single ballot\r\n      */\r\n    function getBallot(uint _ballotID)\r\n        public\r\n        view\r\n        returns(\r\n            VoteType typeOfVote, \r\n            uint startTime, \r\n            uint endTime, \r\n            address currentAddress, \r\n            address newAddress,\r\n            bool actedOn\r\n        )\r\n    {\r\n        typeOfVote = allBallots[_ballotID].typeOfVote;\r\n        startTime = allBallots[_ballotID].startTime;\r\n        endTime = allBallots[_ballotID].endTime;\r\n        currentAddress = allBallots[_ballotID].currentAddress;\r\n        newAddress = allBallots[_ballotID].newAddress;\r\n        actedOn = allBallots[_ballotID].actedOn;\r\n    }\r\n\r\n    /**\r\n      * @param _ballotID : the ballot ID\r\n      * @param _vote : their vote for the ballot\r\n      */\r\n    function voteFor(uint _ballotID, bool _vote)\r\n        public\r\n        isOwner()\r\n    {\r\n        require(allBallots[_ballotID].startTime > 0);\r\n        require(allBallots[_ballotID].startTime <= now && allBallots[_ballotID].endTime > now);\r\n        allVotesForBallot[_ballotID].push(Vote ({\r\n            voter: msg.sender,\r\n            vote: _vote,\r\n            ballotID: _ballotID\r\n        }));\r\n    }\r\n\r\n    /**\r\n      * @param _newOwnerAddress : the address of the new owner.\r\n      * @dev allows the user to change the wallet assosiated with the account. \r\n      *     The require ensures that this function cannot be called on the trust account\r\n      *     from the parent function (this function).\r\n      */\r\n    function changeOwner(address _oldOwnerAddress, address _newOwnerAddress)\r\n        public\r\n        isBank()\r\n        isFrozen()\r\n        returns(address[])\r\n    {\r\n        AccessAccount.freeze();\r\n\r\n        for(uint i = noOfOwners; i > 0; i--){\r\n            if(allOwners[i].ownerWallet == _oldOwnerAddress){\r\n                require(allOwners[i].isOwner == true, \"Owner is not active\");\r\n                require(i >= 0, \"Function only usable by owner\");\r\n                break;\r\n            }\r\n        }\r\n        for(uint b = noOfOwners; b > 0; b--){\r\n            if(allOwners[b].ownerWallet == _oldOwnerAddress){\r\n                allOwners[b].ownerWallet = _newOwnerAddress;\r\n                allOwners[b].isOwner = true;\r\n                owners[b] = _newOwnerAddress;\r\n            }\r\n        }\r\n\r\n        AccessAccount.defrost();\r\n        return owners;\r\n    }\r\n\r\n    //TODO: make create ballot private \r\n        //define interfaces\r\n\r\n    function requestWithdraw(address _to, uint _amount)\r\n        public\r\n        isOwner()\r\n        isFrozen()\r\n        returns(uint)\r\n    {\r\n        AccessAccount.freeze();\r\n\r\n        require(_amount < balance, \"Cannot withdraw more than owned\");\r\n        createBallot(VoteType.withdrawRequest, _to, 0x0, _amount);\r\n\r\n        AccessAccount.defrost();\r\n    }\r\n\r\n    function requestChangeOwnerAddress(address _current, address _new)\r\n        public\r\n        isOwner()\r\n        isFrozen()\r\n    {\r\n        AccessAccount.freeze();\r\n\r\n        require(allOwners[ownersKeys[_current]].isOwner, \"Current address not recognised\");\r\n        createBallot(VoteType.changeOwner, _current, _new, 0);\r\n\r\n        AccessAccount.defrost();\r\n    }\r\n\r\n    function addOwnerRequest(address _new)\r\n        public\r\n        isOwner()\r\n        isFrozen()\r\n    {\r\n        AccessAccount.freeze();\r\n\r\n        createBallot(VoteType.addOwner, 0x0, _new, 0);\r\n\r\n        AccessAccount.defrost();\r\n    }\r\n\r\n    function removeOwnerRequest(address _toRemove)\r\n        public\r\n        isOwner()\r\n        isFrozen()\r\n    {\r\n        AccessAccount.freeze();\r\n\r\n        require(allOwners[ownersKeys[_toRemove]].isOwner, \"Owner has already been removed\");\r\n        createBallot(VoteType.addOwner, _toRemove, 0x0, 0);\r\n\r\n        AccessAccount.defrost();\r\n    }\r\n\r\n    /**\r\n      * @param _ballotID : the number of the ballot ID to check\r\n      * @dev this function checks that the vote has passed, (2/3 majority)\r\n      *     and that the ballot end time has passed\r\n      */\r\n    function votePassed(uint _ballotID)\r\n        private \r\n        view\r\n        returns(bool)\r\n    {\r\n        require(allBallots[_ballotID].endTime < now, \"Voting time has not ended. Please try again later\");\r\n        require(allBallots[_ballotID].actedOn == false, \"Withdraw has already taken place\");\r\n        require(allVotesForBallot[_ballotID].length > 0);\r\n\r\n        uint trueVotes = 0; \r\n        uint falseVotes = 0;\r\n        for(uint i = 0; i < allVotesForBallot[_ballotID].length; i++){\r\n            if(allVotesForBallot[_ballotID][i].vote)\r\n                trueVotes++;\r\n            else \r\n                falseVotes++;\r\n        }\r\n        //if it ties it fails\r\n        if(trueVotes > falseVotes)\r\n            return true;\r\n        else\r\n            return false;\r\n    }\r\n\r\n    /**\r\n      * @param _ballotID : the ballots ID that the owner whishes to act on\r\n      * @dev allows an owner to act on a withdraw request\r\n      */\r\n    function withdraw(uint _ballotID)\r\n        public\r\n        isOwner()\r\n        isFrozen()\r\n    {\r\n        AccessAccount.freeze();\r\n\r\n        require(allBallots[_ballotID].amount < AccessAccount.balance, \"Insufficent funds\");\r\n        require(votePassed(_ballotID));\r\n\r\n        allBallots[_ballotID].actedOn = true;\r\n        AccessAccount.balance -= allBallots[_ballotID].amount;\r\n        allBallots[_ballotID].currentAddress.transfer(allBallots[_ballotID].amount);\r\n\r\n        AccessAccount.defrost();\r\n    }\r\n\r\n    function changeOwnerAddress(uint _ballotID)\r\n        public\r\n        isOwner()\r\n        isFrozen()\r\n    {\r\n        AccessAccount.freeze();\r\n\r\n        require(allOwners[ownersKeys[allBallots[_ballotID].currentAddress]].isOwner);\r\n        require(votePassed(_ballotID));\r\n\r\n        allBallots[_ballotID].actedOn = true;\r\n        allOwners[ownersKeys[allBallots[_ballotID].currentAddress]].isOwner = false;\r\n        ownersKeys[allBallots[_ballotID].newAddress] = ownersKeys[allBallots[_ballotID].currentAddress];\r\n        // uint key = ownersKeys[allBallots[_ballotID].currentAddress];\r\n        // owners[key] = allBallots[_ballotID].newAddress;\r\n\r\n        AccessAccount.defrost();\r\n    }\r\n\r\n    function addOwner(uint _ballotID)\r\n        public\r\n        isOwner()\r\n        isFrozen()\r\n    {\r\n        AccessAccount.freeze();\r\n\r\n        require(allOwners[ownersKeys[allBallots[_ballotID].currentAddress]].isOwner);\r\n        require(votePassed(_ballotID));\r\n\r\n        allBallots[_ballotID].actedOn = true;\r\n        noOfOwners++;\r\n        ownersKeys[allBallots[_ballotID].newAddress] = noOfOwners;\r\n        allOwners[noOfOwners] = OwnerDetails({\r\n            isOwner: true,\r\n            ownerWallet: allBallots[_ballotID].newAddress\r\n        });\r\n        // owners[noOfOwners] = allBallots[_ballotID].newAddress;\r\n\r\n        AccessAccount.defrost();\r\n    }\r\n\r\n    function removeOwner(uint _ballotID)\r\n        public\r\n        isOwner()\r\n        isFrozen()\r\n    {\r\n        AccessAccount.freeze();\r\n\r\n        require(votePassed(_ballotID));\r\n        allOwners[ownersKeys[allBallots[_ballotID].currentAddress]].isOwner = false;\r\n        allOwners[ownersKeys[allBallots[_ballotID].currentAddress]].ownerWallet = 0x0;\r\n\r\n        AccessAccount.defrost();\r\n    }\r\n\r\n    /**\r\n      * @dev Allows the bank to dissolve the account. \r\n      * @notice the balance of the contract gets split between all the \r\n      *     currently active owners. \r\n      */\r\n    function dissolve()\r\n        public\r\n        isBank()\r\n    {\r\n        frozen =  true;\r\n        uint valuePerOwnerCounter = 0;\r\n\r\n        for(uint i = 0; i <= noOfOwners ; i++){\r\n            if(allOwners[i].isOwner)\r\n                valuePerOwnerCounter++;\r\n        }\r\n        uint valuePerOwner = balance / valuePerOwnerCounter;\r\n        for(uint a = 0; i <= noOfOwners ; a++){\r\n            if(allOwners[i].isOwner)\r\n                allOwners[i].ownerWallet.transfer(valuePerOwner);\r\n        }\r\n        selfdestruct(bankAddress);\r\n    }\r\n\r\n    function ()\r\n        public\r\n        payable\r\n    {\r\n        balance+= msg.value;\r\n    }\r\n\r\n}",
  "sourcePath": "C:\\Users\\Veronica Coutts\\Desktop\\Desktop\\Work\\LinumLabs\\PoCBank\\pocbank\\contracts\\TrustAccount.sol",
  "compiler": {
    "name": "solc",
    "version": "0.4.24+commit.e67f0147.Emscripten.clang"
  },
  "schemaVersion": "2.0.1",
  "updatedAt": "2018-10-04T07:53:41.307Z"
}