{
  "contractName": "AccessAccount",
  "abi": [
    {
      "inputs": [
        {
          "name": "_owner",
          "type": "address"
        },
        {
          "name": "_chosenType",
          "type": "uint8"
        },
        {
          "name": "_limit",
          "type": "uint256"
        }
      ],
      "payable": false,
      "stateMutability": "nonpayable",
      "type": "constructor"
    },
    {
      "anonymous": false,
      "inputs": [
        {
          "indexed": false,
          "name": "_owner",
          "type": "address"
        },
        {
          "indexed": false,
          "name": "_bank",
          "type": "address"
        }
      ],
      "name": "LogCreatedAccessAcount",
      "type": "event"
    },
    {
      "anonymous": false,
      "inputs": [
        {
          "indexed": false,
          "name": "_where",
          "type": "string"
        }
      ],
      "name": "LogUnexpectedRevert",
      "type": "event"
    },
    {
      "constant": true,
      "inputs": [],
      "name": "getFrozen",
      "outputs": [
        {
          "name": "",
          "type": "bool"
        }
      ],
      "payable": false,
      "stateMutability": "view",
      "type": "function"
    },
    {
      "constant": true,
      "inputs": [],
      "name": "getBalance",
      "outputs": [
        {
          "name": "",
          "type": "uint256"
        }
      ],
      "payable": false,
      "stateMutability": "view",
      "type": "function"
    },
    {
      "constant": false,
      "inputs": [],
      "name": "freeze",
      "outputs": [],
      "payable": false,
      "stateMutability": "nonpayable",
      "type": "function"
    },
    {
      "constant": false,
      "inputs": [],
      "name": "defrost",
      "outputs": [],
      "payable": false,
      "stateMutability": "nonpayable",
      "type": "function"
    },
    {
      "constant": false,
      "inputs": [],
      "name": "dissolve",
      "outputs": [],
      "payable": false,
      "stateMutability": "nonpayable",
      "type": "function"
    },
    {
      "constant": false,
      "inputs": [
        {
          "name": "_newOwnerAddress",
          "type": "address"
        }
      ],
      "name": "changeOwner",
      "outputs": [],
      "payable": false,
      "stateMutability": "nonpayable",
      "type": "function"
    },
    {
      "constant": false,
      "inputs": [],
      "name": "deposit",
      "outputs": [],
      "payable": true,
      "stateMutability": "payable",
      "type": "function"
    },
    {
      "constant": false,
      "inputs": [
        {
          "name": "_amount",
          "type": "uint256"
        }
      ],
      "name": "withdraw",
      "outputs": [],
      "payable": false,
      "stateMutability": "nonpayable",
      "type": "function"
    }
  ],
  "bytecode": "0x608060405234801561001057600080fd5b5060405160608061146c83398101806040528101908080519060200190929190805190602001909291908051906020019092919050505082600160006101000a81548173ffffffffffffffffffffffffffffffffffffffff021916908373ffffffffffffffffffffffffffffffffffffffff160217905550336000806101000a81548173ffffffffffffffffffffffffffffffffffffffff021916908373ffffffffffffffffffffffffffffffffffffffff16021790555081600460026101000a81548160ff021916908360028111156100e657fe5b0217905550806003819055506000600460006101000a81548160ff0219169083151502179055506000600460016101000a81548160ff0219169083151502179055507f73b879a2222e34c9d4c25fc1d12763a471d760e232aeb8e8b3e3150f0a202cc48333604051808373ffffffffffffffffffffffffffffffffffffffff1673ffffffffffffffffffffffffffffffffffffffff1681526020018273ffffffffffffffffffffffffffffffffffffffff1673ffffffffffffffffffffffffffffffffffffffff1681526020019250505060405180910390a150505061129b806101d16000396000f30060806040526004361061008e576000357c0100000000000000000000000000000000000000000000000000000000900463ffffffff16806312065fe0146100935780632e1a7d4d146100be5780633bef8a3a146100eb57806362a5af3b146101025780637495b35314610119578063a6f9dae114610148578063d0e30db01461018b578063f21cdf6f14610195575b600080fd5b34801561009f57600080fd5b506100a86101ac565b6040518082815260200191505060405180910390f35b3480156100ca57600080fd5b506100e9600480360381019080803590602001909291905050506101b6565b005b3480156100f757600080fd5b5061010061082b565b005b34801561010e57600080fd5b50610117610960565b005b34801561012557600080fd5b5061012e610b82565b604051808215151515815260200191505060405180910390f35b34801561015457600080fd5b50610189600480360381019080803573ffffffffffffffffffffffffffffffffffffffff169060200190929190505050610b99565b005b610193610e18565b005b3480156101a157600080fd5b506101aa611066565b005b6000600254905090565b6000809054906101000a900473ffffffffffffffffffffffffffffffffffffffff1673ffffffffffffffffffffffffffffffffffffffff163373ffffffffffffffffffffffffffffffffffffffff16148061025e5750600160009054906101000a900473ffffffffffffffffffffffffffffffffffffffff1673ffffffffffffffffffffffffffffffffffffffff163373ffffffffffffffffffffffffffffffffffffffff16145b15156102f8576040517f08c379a00000000000000000000000000000000000000000000000000000000081526004018080602001828103825260218152602001807f46756e6374696f6e206f6e6c792061636365737369626c65206279206f776e6581526020017f720000000000000000000000000000000000000000000000000000000000000081525060400191505060405180910390fd5b60001515600460009054906101000a900460ff161515141515610383576040517f08c379a00000000000000000000000000000000000000000000000000000000081526004018080602001828103825260118152602001807f4163636f756e742069732066726f7a656e00000000000000000000000000000081525060200191505060405180910390fd5b600460019054906101000a900460ff1615151561039c57fe5b6103a4610960565b7fb981afc16bc609765b6005bd910c0e9ef3424f3c61a05afcbbf88d11f414669d6040518080602001828103825260248152602001807f28696e2077697468647261772920616674657220667265657a696e672061636381526020017f6f756e740000000000000000000000000000000000000000000000000000000081525060400191505060405180910390a160028081111561043e57fe5b600460029054906101000a900460ff16600281111561045957fe5b141515156104f5576040517f08c379a000000000000000000000000000000000000000000000000000000000815260040180806020018281038252602e8152602001807f506c65617365207573652077697468647261772066756e6374696f6e20696e2081526020017f747275737420636f6e747261637400000000000000000000000000000000000081525060400191505060405180910390fd5b7fb981afc16bc609765b6005bd910c0e9ef3424f3c61a05afcbbf88d11f414669d6040518080602001828103825260258152602001807f286166746572203120726571756972652920616674657220747275737420726581526020017f717569726500000000000000000000000000000000000000000000000000000081525060400191505060405180910390a17fb981afc16bc609765b6005bd910c0e9ef3424f3c61a05afcbbf88d11f414669d6040518080602001828103825260258152602001807f28616674657220322072657175697265292061667465722064656c617920726581526020017f717569726500000000000000000000000000000000000000000000000000000081525060400191505060405180910390a160025481111515156106b1576040517f08c379a00000000000000000000000000000000000000000000000000000000081526004018080602001828103825260298152602001807f43616e6e6f74207769746864726177206d6f72652066756e6473207468616e2081526020017f617661696c61626c65000000000000000000000000000000000000000000000081525060400191505060405180910390fd5b7fb981afc16bc609765b6005bd910c0e9ef3424f3c61a05afcbbf88d11f414669d60405180806020018281038252603b8152602001807f286166746572203320726571756972652920616674657220616d6f756e74206781526020017f65747320636865636b656420616761696e73742062616c616e6365000000000081525060400191505060405180910390a180600260008282540392505081905550600160009054906101000a900473ffffffffffffffffffffffffffffffffffffffff1673ffffffffffffffffffffffffffffffffffffffff166108fc829081150290604051600060405180830381858888f193505050501580156107b7573d6000803e3d6000fd5b507fb981afc16bc609765b6005bd910c0e9ef3424f3c61a05afcbbf88d11f414669d60405180806020018281038252601b8152602001807f2829206166746572207472616e73666572696e6720616d6f756e74000000000081525060200191505060405180910390a1610828611066565b50565b6000809054906101000a900473ffffffffffffffffffffffffffffffffffffffff1673ffffffffffffffffffffffffffffffffffffffff163373ffffffffffffffffffffffffffffffffffffffff161415156108ef576040517f08c379a000000000000000000000000000000000000000000000000000000000815260040180806020018281038252601c8152602001807f46756e6374696f6e206f6e6c7920757361626c652062792062616e6b0000000081525060200191505060405180910390fd5b6001600460016101000a81548160ff0219169083151502179055506001600460006101000a81548160ff021916908315150217905550600160009054906101000a900473ffffffffffffffffffffffffffffffffffffffff1673ffffffffffffffffffffffffffffffffffffffff16ff5b6000809054906101000a900473ffffffffffffffffffffffffffffffffffffffff1673ffffffffffffffffffffffffffffffffffffffff163373ffffffffffffffffffffffffffffffffffffffff161480610a085750600160009054906101000a900473ffffffffffffffffffffffffffffffffffffffff1673ffffffffffffffffffffffffffffffffffffffff163373ffffffffffffffffffffffffffffffffffffffff16145b1515610aa2576040517f08c379a00000000000000000000000000000000000000000000000000000000081526004018080602001828103825260218152602001807f46756e6374696f6e206f6e6c792061636365737369626c65206279206f776e6581526020017f720000000000000000000000000000000000000000000000000000000000000081525060400191505060405180910390fd5b60001515600460009054906101000a900460ff161515141515610b2d576040517f08c379a00000000000000000000000000000000000000000000000000000000081526004018080602001828103825260118152602001807f4163636f756e742069732066726f7a656e00000000000000000000000000000081525060200191505060405180910390fd5b600460019054906101000a900460ff16151515610b4657fe5b60001515600460019054906101000a900460ff161515141515610b6557fe5b6001600460006101000a81548160ff021916908315150217905550565b6000600460009054906101000a900460ff16905090565b6000809054906101000a900473ffffffffffffffffffffffffffffffffffffffff1673ffffffffffffffffffffffffffffffffffffffff163373ffffffffffffffffffffffffffffffffffffffff16141515610c5d576040517f08c379a000000000000000000000000000000000000000000000000000000000815260040180806020018281038252601c8152602001807f46756e6374696f6e206f6e6c7920757361626c652062792062616e6b0000000081525060200191505060405180910390fd5b60001515600460009054906101000a900460ff161515141515610ce8576040517f08c379a00000000000000000000000000000000000000000000000000000000081526004018080602001828103825260118152602001807f4163636f756e742069732066726f7a656e00000000000000000000000000000081525060200191505060405180910390fd5b600460019054906101000a900460ff16151515610d0157fe5b610d09610960565b600280811115610d1557fe5b600460029054906101000a900460ff166002811115610d3057fe5b14151515610dcc576040517f08c379a00000000000000000000000000000000000000000000000000000000081526004018080602001828103825260318152602001807f506c6561736520757365206368616e67654f776e65722066756e6374696f6e2081526020017f696e20747275737420636f6e747261637400000000000000000000000000000081525060400191505060405180910390fd5b80600160006101000a81548173ffffffffffffffffffffffffffffffffffffffff021916908373ffffffffffffffffffffffffffffffffffffffff160217905550610e15611066565b50565b60001515600460009054906101000a900460ff161515141515610ea3576040517f08c379a00000000000000000000000000000000000000000000000000000000081526004018080602001828103825260118152602001807f4163636f756e742069732066726f7a656e00000000000000000000000000000081525060200191505060405180910390fd5b600460019054906101000a900460ff16151515610ebc57fe5b600034111515610f34576040517f08c379a00000000000000000000000000000000000000000000000000000000081526004018080602001828103825260188152602001807f56616c75652063616e6e6f74206265206e65676174697665000000000000000081525060200191505060405180910390fd5b60003460025401111515610fd6576040517f08c379a00000000000000000000000000000000000000000000000000000000081526004018080602001828103825260228152602001807f56616c75652063616e6e6f74206d616b652062616c616e6365206e656761746981526020017f766500000000000000000000000000000000000000000000000000000000000081525060400191505060405180910390fd5b600354346002540111151515611054576040517f08c379a00000000000000000000000000000000000000000000000000000000081526004018080602001828103825260208152602001807f4465706f7369742074616b6573206163636f756e74206f766572206c696d697481525060200191505060405180910390fd5b34600260008282540192505081905550565b6000809054906101000a900473ffffffffffffffffffffffffffffffffffffffff1673ffffffffffffffffffffffffffffffffffffffff163373ffffffffffffffffffffffffffffffffffffffff16148061110e5750600160009054906101000a900473ffffffffffffffffffffffffffffffffffffffff1673ffffffffffffffffffffffffffffffffffffffff163373ffffffffffffffffffffffffffffffffffffffff16145b15156111a8576040517f08c379a00000000000000000000000000000000000000000000000000000000081526004018080602001828103825260218152602001807f46756e6374696f6e206f6e6c792061636365737369626c65206279206f776e6581526020017f720000000000000000000000000000000000000000000000000000000000000081525060400191505060405180910390fd5b60001515600460019054906101000a900460ff1615151415156111c757fe5b60011515600460009054906101000a900460ff161515141515611252576040517f08c379a00000000000000000000000000000000000000000000000000000000081526004018080602001828103825260188152602001807f4163636f756e7420616c726561647920756e66726f7a656e000000000000000081525060200191505060405180910390fd5b6000600460006101000a81548160ff0219169083151502179055505600a165627a7a7230582046334dcfa52f58a366e73821fb6ada08435b9704615db31f0ce53a556933d16f0029",
  "source": "pragma solidity ^0.4.24;\r\n\r\ncontract AccessAccount{\r\n    address bankAddress;\r\n    address onwerAddress;\r\n    uint balance;\r\n    uint accountLimit;\r\n    bool frozen;\r\n    bool dissolved;\r\n    enum AccountType {access, delay, trust}\r\n    AccountType thisAccountType;\r\n\r\n    event LogCreatedAccessAcount(address _owner, address _bank);\r\n    event LogUnexpectedRevert(string _where);\r\n\r\n    /**\r\n      * @dev checks that the msg.sender is an owner of the contract\r\n      */\r\n    modifier isOwner() {\r\n        require(msg.sender == bankAddress || msg.sender == onwerAddress, \"Function only accessible by owner\");\r\n        _;\r\n    }\r\n\r\n    /**\r\n      * @dev checks that the bank is the only address able of using the function\r\n      */\r\n    modifier isBank() {\r\n        require(msg.sender == bankAddress, \"Function only usable by bank\");\r\n        _;\r\n    }\r\n\r\n    /** \r\n      * @dev checks the account is not frozen, and that the account is not dissolved \r\n      */\r\n    modifier isFrozen() {\r\n        require(frozen == false, \"Account is frozen\");\r\n        assert(!dissolved);\r\n        _;\r\n    }\r\n\r\n    /**\r\n      * @param _owner : the address of the user creating the account\r\n      * @param _chosenType : the type of account this instance is (as this is the parent contract)\r\n      * @dev creates a new access acount, logs creation\r\n      */\r\n    constructor(address _owner, AccountType _chosenType, uint _limit)\r\n        public\r\n    {\r\n        onwerAddress = _owner;\r\n        bankAddress = msg.sender;\r\n        thisAccountType = _chosenType;\r\n        accountLimit = _limit;\r\n        frozen = false;\r\n        dissolved = false;\r\n        emit LogCreatedAccessAcount(_owner, msg.sender);\r\n    }\r\n\r\n    /**\r\n      * @dev returns if the account is frozen (true) or (false) if not\r\n      */\r\n    function getFrozen() \r\n        public\r\n        view\r\n        returns(bool)\r\n    {\r\n        return frozen;\r\n    }\r\n\r\n    /**\r\n      * @dev allows for anyone to check the balance of an account\r\n      */\r\n    function getBalance()\r\n        public\r\n        view\r\n        returns(uint)\r\n    {\r\n        return balance;\r\n    }\r\n\r\n    /**\r\n      * @dev freezed the account. The isFrozen() is used to ensure an already\r\n      *     frozen account cannot be frozen again.\r\n      */\r\n    function freeze()\r\n        public\r\n        isOwner()\r\n        isFrozen()\r\n    {\r\n        assert(dissolved == false);\r\n        frozen = true;\r\n    }\r\n\r\n    /**\r\n      * @dev unfreezes account. Manually checks the account is not dissolved. \r\n      */\r\n    function defrost()\r\n        public \r\n        isOwner()\r\n    {\r\n        assert(dissolved == false);\r\n        require(frozen == true, \"Account already unfrozen\");\r\n        frozen = false;\r\n    }\r\n\r\n    /**\r\n      * @dev lets the bank dissolve account, sending all funds to the owner\r\n      */\r\n    function dissolve()\r\n        public\r\n        isBank()\r\n    {\r\n        dissolved = true;\r\n        frozen =  true;\r\n        selfdestruct(onwerAddress);\r\n    }\r\n\r\n    /**\r\n      * @param _newOwnerAddress : the address of the new owner.\r\n      * @dev allows the user to change the wallet assosiated with the account. \r\n      *     The require ensures that this function cannot be called on the trust account\r\n      *     from the parent function (this function).\r\n      */\r\n    function changeOwner(address _newOwnerAddress)\r\n        public\r\n        isBank()\r\n        isFrozen()\r\n    {\r\n        freeze();\r\n\r\n        require(thisAccountType != AccountType.trust, \"Please use changeOwner function in trust contract\");\r\n        onwerAddress = _newOwnerAddress;\r\n\r\n        defrost();\r\n    }\r\n\r\n    /**\r\n      * @dev allows anyone to deposit into the account, as depositing can be \r\n      *     done by any wallet. Requires the amount to be greater than 0 and also\r\n      *     ensures that the balance will not overflow from deposit. \r\n      */\r\n    function deposit()\r\n        public\r\n        payable\r\n        isFrozen()\r\n    {\r\n        require(msg.value > 0, \"Value cannot be negative\");\r\n        require(balance + msg.value > 0, \"Value cannot make balance negative\");\r\n        require(balance + msg.value <= accountLimit, \"Deposit takes account over limit\");\r\n        balance += msg.value;\r\n    }\r\n\r\n    \r\n\r\n    /**\r\n      * @param _amount : the amount to be withdrawn \r\n      * @dev only allows the owner(s) to withdraw. Dose not allow use if account is frozen \r\n      *     (or dissolved). Ensures the usage of witdraw in the child contracts for both delay\r\n      *     contracts and trust contracts. \r\n      */\r\n    function withdraw(uint _amount)\r\n        public\r\n        isOwner()\r\n        isFrozen()\r\n    {\r\n        freeze();\r\n\r\n        emit LogUnexpectedRevert(\"(in withdraw) after freezing account\");\r\n\r\n        require(thisAccountType != AccountType.trust, \"Please use withdraw function in trust contract\");\r\n\r\n        emit LogUnexpectedRevert(\"(after 1 require) after trust require\");\r\n\r\n        // require(thisAccountType != AccountType.delay, \"Please use withdraw function in delay contract\");\r\n\r\n        emit LogUnexpectedRevert(\"(after 2 require) after delay require\");\r\n\r\n        require(_amount <= balance, \"Cannot withdraw more funds than available\");\r\n\r\n        emit LogUnexpectedRevert(\"(after 3 require) after amount gets checked against balance\");\r\n\r\n        balance -= _amount;\r\n        onwerAddress.transfer(_amount);\r\n\r\n        emit LogUnexpectedRevert(\"() after transfering amount\");\r\n        defrost();\r\n    }\r\n}",
  "sourcePath": "C:\\Users\\Veronica Coutts\\Desktop\\Desktop\\Work\\LinumLabs\\PoCBank\\pocbank\\contracts\\AccessAccount.sol",
  "compiler": {
    "name": "solc",
    "version": "0.4.24+commit.e67f0147.Emscripten.clang"
  },
  "schemaVersion": "2.0.1",
  "updatedAt": "2018-09-30T17:54:55.248Z"
}