{
  "contractName": "AccessAccount",
  "abi": [
    {
      "inputs": [
        {
          "name": "_bank",
          "type": "address"
        },
        {
          "name": "_owner",
          "type": "address"
        }
      ],
      "payable": false,
      "stateMutability": "nonpayable",
      "type": "constructor"
    },
    {
      "anonymous": false,
      "inputs": [
        {
          "indexed": false,
          "name": "_this",
          "type": "address"
        },
        {
          "indexed": false,
          "name": "_owner",
          "type": "address"
        }
      ],
      "name": "LogCreatedAccessAccountContract",
      "type": "event"
    },
    {
      "anonymous": false,
      "inputs": [
        {
          "indexed": false,
          "name": "_description",
          "type": "string"
        },
        {
          "indexed": false,
          "name": "_choice",
          "type": "uint256"
        },
        {
          "indexed": false,
          "name": "_thisAddress",
          "type": "address"
        }
      ],
      "name": "LogEvent",
      "type": "event"
    },
    {
      "constant": true,
      "inputs": [],
      "name": "isLocked",
      "outputs": [
        {
          "name": "",
          "type": "bool"
        }
      ],
      "payable": false,
      "stateMutability": "view",
      "type": "function"
    },
    {
      "constant": false,
      "inputs": [],
      "name": "freezeAccount",
      "outputs": [
        {
          "name": "",
          "type": "bool"
        }
      ],
      "payable": false,
      "stateMutability": "nonpayable",
      "type": "function"
    },
    {
      "constant": false,
      "inputs": [],
      "name": "unfreezeAccount",
      "outputs": [
        {
          "name": "",
          "type": "bool"
        }
      ],
      "payable": false,
      "stateMutability": "nonpayable",
      "type": "function"
    },
    {
      "constant": false,
      "inputs": [
        {
          "name": "_amount",
          "type": "uint256"
        }
      ],
      "name": "withdraw",
      "outputs": [
        {
          "name": "",
          "type": "uint256"
        }
      ],
      "payable": true,
      "stateMutability": "payable",
      "type": "function"
    },
    {
      "constant": false,
      "inputs": [
        {
          "name": "_to",
          "type": "address"
        }
      ],
      "name": "sendFunds",
      "outputs": [
        {
          "name": "",
          "type": "uint256"
        }
      ],
      "payable": true,
      "stateMutability": "payable",
      "type": "function"
    },
    {
      "constant": false,
      "inputs": [
        {
          "name": "_amount",
          "type": "uint256"
        }
      ],
      "name": "deposit",
      "outputs": [],
      "payable": true,
      "stateMutability": "payable",
      "type": "function"
    },
    {
      "constant": true,
      "inputs": [],
      "name": "viewBalance",
      "outputs": [
        {
          "name": "",
          "type": "uint256"
        }
      ],
      "payable": false,
      "stateMutability": "view",
      "type": "function"
    }
  ],
  "bytecode": "0x60806040526000600160146101000a81548160ff02191690831515021790555034801561002b57600080fd5b506040516040806114638339810180604052810190808051906020019092919080519060200190929190505050806000806101000a81548173ffffffffffffffffffffffffffffffffffffffff021916908373ffffffffffffffffffffffffffffffffffffffff16021790555081600160006101000a81548173ffffffffffffffffffffffffffffffffffffffff021916908373ffffffffffffffffffffffffffffffffffffffff1602179055507f12d42670bf9845801d75f133e7e8cafa2758ef35fc5473974decffe164c3c1593082604051808373ffffffffffffffffffffffffffffffffffffffff1673ffffffffffffffffffffffffffffffffffffffff1681526020018273ffffffffffffffffffffffffffffffffffffffff1673ffffffffffffffffffffffffffffffffffffffff1681526020019250505060405180910390a150506112e2806101816000396000f300608060405260043610610083576000357c0100000000000000000000000000000000000000000000000000000000900463ffffffff1680632e1a7d4d146100885780633ff1e05b146100bc5780637c5fc3fb146100e7578063a4e2d63414610116578063b6b55f2514610145578063c6d7a85814610165578063cfe52bdd14610194575b600080fd5b6100a6600480360381019080803590602001909291905050506101de565b6040518082815260200191505060405180910390f35b3480156100c857600080fd5b506100d16107f7565b6040518082815260200191505060405180910390f35b3480156100f357600080fd5b506100fc61091f565b604051808215151515815260200191505060405180910390f35b34801561012257600080fd5b5061012b610a87565b604051808215151515815260200191505060405180910390f35b61016360048036038101908080359060200190929190505050610a9e565b005b34801561017157600080fd5b5061017a610cc9565b604051808215151515815260200191505060405180910390f35b6101c8600480360381019080803573ffffffffffffffffffffffffffffffffffffffff169060200190929190505050610e30565b6040518082815260200191505060405180910390f35b6000336000809054906101000a900473ffffffffffffffffffffffffffffffffffffffff1673ffffffffffffffffffffffffffffffffffffffff168173ffffffffffffffffffffffffffffffffffffffff1614806102895750600160009054906101000a900473ffffffffffffffffffffffffffffffffffffffff1673ffffffffffffffffffffffffffffffffffffffff168173ffffffffffffffffffffffffffffffffffffffff16145b15156102fd576040517f08c379a000000000000000000000000000000000000000000000000000000000815260040180806020018281038252600d8152602001807f4d757374206265206f776e65720000000000000000000000000000000000000081525060200191505060405180910390fd5b6000801515600160149054906101000a900460ff1615151415156103af576040517f08c379a00000000000000000000000000000000000000000000000000000000081526004018080602001828103825260228152602001807f4163636f756e742069732066726f7a6f6e2e20506c6561736520756e6672656581526020017f7a6500000000000000000000000000000000000000000000000000000000000081525060400191505060405180910390fd5b600160009054906101000a900473ffffffffffffffffffffffffffffffffffffffff169050600015158173ffffffffffffffffffffffffffffffffffffffff16637c02a3296040518163ffffffff167c0100000000000000000000000000000000000000000000000000000000028152600401602060405180830381600087803b15801561043c57600080fd5b505af1158015610450573d6000803e3d6000fd5b505050506040513d602081101561046657600080fd5b81019080805190602001909291905050501515141515610514576040517f08c379a00000000000000000000000000000000000000000000000000000000081526004018080602001828103825260228152602001807f4163636f756e742069732066726f7a6f6e2e20506c6561736520756e6672656581526020017f7a6500000000000000000000000000000000000000000000000000000000000081525060400191505060405180910390fd5b61051c610cc9565b15156105b6576040517f08c379a00000000000000000000000000000000000000000000000000000000081526004018080602001828103825260348152602001807f4163636f756e74206d75737420667265657a65207375636365737366756c6c7981526020017f20647572696e67207472616e73616374696f6e7300000000000000000000000081525060400191505060405180910390fd5b60025484101515610655576040517f08c379a00000000000000000000000000000000000000000000000000000000081526004018080602001828103825260218152602001807f43616e6e6f74207769746864726177206d6f7265207468616e2062616c616e6381526020017f650000000000000000000000000000000000000000000000000000000000000081525060400191505060405180910390fd5b600084600254031115156106d1576040517f08c379a000000000000000000000000000000000000000000000000000000000815260040180806020018281038252601c8152602001807f43616e6e6f74206d616b652062616c616e6365206e656761746976650000000081525060200191505060405180910390fd5b836002600082825403925050819055506000809054906101000a900473ffffffffffffffffffffffffffffffffffffffff1673ffffffffffffffffffffffffffffffffffffffff166108fc859081150290604051600060405180830381858888f19350505050158015610748573d6000803e3d6000fd5b5061075161091f565b15156107eb576040517f08c379a00000000000000000000000000000000000000000000000000000000081526004018080602001828103825260348152602001807f4163636f756e74206d75737420667265657a65207375636365737366756c6c7981526020017f20647572696e67207472616e73616374696f6e7300000000000000000000000081525060400191505060405180910390fd5b60025492505050919050565b6000336000809054906101000a900473ffffffffffffffffffffffffffffffffffffffff1673ffffffffffffffffffffffffffffffffffffffff168173ffffffffffffffffffffffffffffffffffffffff1614806108a25750600160009054906101000a900473ffffffffffffffffffffffffffffffffffffffff1673ffffffffffffffffffffffffffffffffffffffff168173ffffffffffffffffffffffffffffffffffffffff16145b1515610916576040517f08c379a000000000000000000000000000000000000000000000000000000000815260040180806020018281038252600d8152602001807f4d757374206265206f776e65720000000000000000000000000000000000000081525060200191505060405180910390fd5b60025491505090565b6000336000809054906101000a900473ffffffffffffffffffffffffffffffffffffffff1673ffffffffffffffffffffffffffffffffffffffff168173ffffffffffffffffffffffffffffffffffffffff1614806109ca5750600160009054906101000a900473ffffffffffffffffffffffffffffffffffffffff1673ffffffffffffffffffffffffffffffffffffffff168173ffffffffffffffffffffffffffffffffffffffff16145b1515610a3e576040517f08c379a000000000000000000000000000000000000000000000000000000000815260040180806020018281038252600d8152602001807f4d757374206265206f776e65720000000000000000000000000000000000000081525060200191505060405180910390fd5b60001515600160149054906101000a900460ff1615151415610a635760009150610a83565b6000600160146101000a81548160ff021916908315150217905550600191505b5090565b6000600160149054906101000a900460ff16905090565b6000801515600160149054906101000a900460ff161515141515610b50576040517f08c379a00000000000000000000000000000000000000000000000000000000081526004018080602001828103825260228152602001807f4163636f756e742069732066726f7a6f6e2e20506c6561736520756e6672656581526020017f7a6500000000000000000000000000000000000000000000000000000000000081525060400191505060405180910390fd5b600160009054906101000a900473ffffffffffffffffffffffffffffffffffffffff169050600015158173ffffffffffffffffffffffffffffffffffffffff16637c02a3296040518163ffffffff167c0100000000000000000000000000000000000000000000000000000000028152600401602060405180830381600087803b158015610bdd57600080fd5b505af1158015610bf1573d6000803e3d6000fd5b505050506040513d6020811015610c0757600080fd5b81019080805190602001909291905050501515141515610cb5576040517f08c379a00000000000000000000000000000000000000000000000000000000081526004018080602001828103825260228152602001807f4163636f756e742069732066726f7a6f6e2e20506c6561736520756e6672656581526020017f7a6500000000000000000000000000000000000000000000000000000000000081525060400191505060405180910390fd5b346002600082825401925050819055505050565b6000336000809054906101000a900473ffffffffffffffffffffffffffffffffffffffff1673ffffffffffffffffffffffffffffffffffffffff168173ffffffffffffffffffffffffffffffffffffffff161480610d745750600160009054906101000a900473ffffffffffffffffffffffffffffffffffffffff1673ffffffffffffffffffffffffffffffffffffffff168173ffffffffffffffffffffffffffffffffffffffff16145b1515610de8576040517f08c379a000000000000000000000000000000000000000000000000000000000815260040180806020018281038252600d8152602001807f4d757374206265206f776e65720000000000000000000000000000000000000081525060200191505060405180910390fd5b60011515600160149054906101000a900460ff1615151415610e0d5760009150610e2c565b60018060146101000a81548160ff021916908315150217905550600191505b5090565b6000336000809054906101000a900473ffffffffffffffffffffffffffffffffffffffff1673ffffffffffffffffffffffffffffffffffffffff168173ffffffffffffffffffffffffffffffffffffffff161480610edb5750600160009054906101000a900473ffffffffffffffffffffffffffffffffffffffff1673ffffffffffffffffffffffffffffffffffffffff168173ffffffffffffffffffffffffffffffffffffffff16145b1515610f4f576040517f08c379a000000000000000000000000000000000000000000000000000000000815260040180806020018281038252600d8152602001807f4d757374206265206f776e65720000000000000000000000000000000000000081525060200191505060405180910390fd5b6000801515600160149054906101000a900460ff161515141515611001576040517f08c379a00000000000000000000000000000000000000000000000000000000081526004018080602001828103825260228152602001807f4163636f756e742069732066726f7a6f6e2e20506c6561736520756e6672656581526020017f7a6500000000000000000000000000000000000000000000000000000000000081525060400191505060405180910390fd5b600160009054906101000a900473ffffffffffffffffffffffffffffffffffffffff169050600015158173ffffffffffffffffffffffffffffffffffffffff16637c02a3296040518163ffffffff167c0100000000000000000000000000000000000000000000000000000000028152600401602060405180830381600087803b15801561108e57600080fd5b505af11580156110a2573d6000803e3d6000fd5b505050506040513d60208110156110b857600080fd5b81019080805190602001909291905050501515141515611166576040517f08c379a00000000000000000000000000000000000000000000000000000000081526004018080602001828103825260228152602001807f4163636f756e742069732066726f7a6f6e2e20506c6561736520756e6672656581526020017f7a6500000000000000000000000000000000000000000000000000000000000081525060400191505060405180910390fd5b61116e610cc9565b1515611208576040517f08c379a00000000000000000000000000000000000000000000000000000000081526004018080602001828103825260348152602001807f4163636f756e74206d75737420667265657a65207375636365737366756c6c7981526020017f20647572696e67207472616e73616374696f6e7300000000000000000000000081525060400191505060405180910390fd5b61121061091f565b15156112aa576040517f08c379a00000000000000000000000000000000000000000000000000000000081526004018080602001828103825260348152602001807f4163636f756e74206d75737420667265657a65207375636365737366756c6c7981526020017f20647572696e67207472616e73616374696f6e7300000000000000000000000081525060400191505060405180910390fd5b600254925050509190505600a165627a7a72305820eaaee2b3571bc13df677ee9198cac9e0541ae4f17011ae53b49a9652216d24940029",
  "source": "pragma solidity ^0.4.24;\r\n\r\nimport \"./Bank.sol\";\r\n\r\ncontract AccessAccount {\r\n    address owner;\r\n    address bank;\r\n    bool frozen = false;\r\n    uint balance;\r\n\r\n    event LogCreatedAccessAccountContract(address _this, address _owner);\r\n    \r\n    event LogEvent(string _description, uint _choice, address _thisAddress);\r\n        \r\n    modifier onlyOwner(address isOwner){\r\n        require(isOwner == owner || isOwner == bank, \"Must be owner\");\r\n        _;\r\n    }\r\n    \r\n    modifier frozonCheck() {\r\n        require(frozen == false, \"Account is frozon. Please unfreeze\");\r\n        Bank bankOb = Bank(bank);\r\n        require(bankOb.isAccountFrozen() == false, \"Account is frozon. Please unfreeze\");\r\n        _;\r\n    }\r\n        \r\n    /**\r\n      * @param _bank : The address of the bank that created the account\r\n      * @param _owner : The owner of the account\r\n      * @dev Logs creation, sets the owner and the bank.\r\n      */\r\n    constructor(address _bank, address _owner) {\r\n        owner = _owner;\r\n        bank = _bank;\r\n        emit LogCreatedAccessAccountContract(this, _owner);\r\n    }\r\n    \r\n    function isLocked() \r\n        public\r\n        view\r\n        returns(bool)\r\n    {\r\n        return frozen;\r\n    }\r\n    \r\n    function freezeAccount()\r\n        public\r\n        onlyOwner(msg.sender)\r\n        returns(bool)\r\n    {\r\n        if(frozen == true){\r\n            return false;\r\n        }\r\n        frozen = true;\r\n        return true;\r\n    }\r\n    \r\n    function unfreezeAccount()\r\n        public\r\n        onlyOwner(msg.sender)\r\n        returns(bool)\r\n    {\r\n        if(frozen == false){\r\n            return false;\r\n        }\r\n        frozen = false;\r\n        return true;\r\n    }\r\n    \r\n    function withdraw(uint _amount)\r\n        public\r\n        payable\r\n        onlyOwner(msg.sender)\r\n        frozonCheck()\r\n        returns(uint)\r\n    {\r\n        require(freezeAccount(), \"Account must freeze successfully during transactions\");\r\n\r\n        require(_amount < balance, \"Cannot withdraw more than balance\");\r\n        require(balance - _amount > 0, \"Cannot make balance negative\");\r\n\r\n        balance -= _amount;\r\n        owner.transfer(_amount);\r\n        \r\n        require(unfreezeAccount(), \"Account must freeze successfully during transactions\");\r\n\r\n        return balance;\r\n    }\r\n    \r\n    function sendFunds(address _to)\r\n        public\r\n        payable\r\n        onlyOwner(msg.sender)\r\n        frozonCheck()\r\n        returns(uint)\r\n    {\r\n        require(freezeAccount(), \"Account must freeze successfully during transactions\");\r\n\r\n\r\n\r\n        require(unfreezeAccount(), \"Account must freeze successfully during transactions\");\r\n        return balance;\r\n    }\r\n    \r\n    function deposit(uint _amount)\r\n        public \r\n        payable\r\n        frozonCheck()\r\n        //TODO: lockAccount\r\n    {\r\n        balance += msg.value;\r\n        //TODO: lockAccount();\r\n        //TODO: unlockAccount();\r\n    }\r\n    \r\n    function viewBalance()\r\n        public\r\n        view\r\n        onlyOwner(msg.sender)\r\n        returns(uint)\r\n    {\r\n        return balance;\r\n    }\r\n    \r\n}",
  "sourcePath": "C:\\Users\\Veronica Coutts\\Desktop\\Desktop\\Work\\LinumLabs\\PoCBank\\pocbank\\contracts\\AccessAccount.sol",
  "compiler": {
    "name": "solc",
    "version": "0.4.24+commit.e67f0147.Emscripten.clang"
  },
  "schemaVersion": "2.0.1",
  "updatedAt": "2018-09-29T13:05:00.940Z"
}