{
  "contractName": "AccessAccount",
  "abi": [
    {
      "inputs": [
        {
          "name": "_owner",
          "type": "address"
        },
        {
          "name": "_chosenType",
          "type": "uint8"
        },
        {
          "name": "_limit",
          "type": "uint256"
        }
      ],
      "payable": false,
      "stateMutability": "nonpayable",
      "type": "constructor"
    },
    {
      "anonymous": false,
      "inputs": [
        {
          "indexed": false,
          "name": "_owner",
          "type": "address"
        },
        {
          "indexed": false,
          "name": "_bank",
          "type": "address"
        }
      ],
      "name": "LogCreatedAccessAcount",
      "type": "event"
    },
    {
      "constant": true,
      "inputs": [],
      "name": "getFrozen",
      "outputs": [
        {
          "name": "",
          "type": "bool"
        }
      ],
      "payable": false,
      "stateMutability": "view",
      "type": "function"
    },
    {
      "constant": true,
      "inputs": [],
      "name": "getBalance",
      "outputs": [
        {
          "name": "",
          "type": "uint256"
        }
      ],
      "payable": false,
      "stateMutability": "view",
      "type": "function"
    },
    {
      "constant": false,
      "inputs": [],
      "name": "freeze",
      "outputs": [],
      "payable": false,
      "stateMutability": "nonpayable",
      "type": "function"
    },
    {
      "constant": false,
      "inputs": [],
      "name": "unfreeze",
      "outputs": [],
      "payable": false,
      "stateMutability": "nonpayable",
      "type": "function"
    },
    {
      "constant": false,
      "inputs": [],
      "name": "dissolve",
      "outputs": [],
      "payable": false,
      "stateMutability": "nonpayable",
      "type": "function"
    },
    {
      "constant": false,
      "inputs": [
        {
          "name": "_newOwnerAddress",
          "type": "address"
        }
      ],
      "name": "changeOwner",
      "outputs": [],
      "payable": false,
      "stateMutability": "nonpayable",
      "type": "function"
    },
    {
      "constant": false,
      "inputs": [],
      "name": "deposit",
      "outputs": [],
      "payable": true,
      "stateMutability": "payable",
      "type": "function"
    },
    {
      "constant": false,
      "inputs": [
        {
          "name": "_amount",
          "type": "uint256"
        }
      ],
      "name": "withdraw",
      "outputs": [],
      "payable": false,
      "stateMutability": "nonpayable",
      "type": "function"
    }
  ],
  "bytecode": "0x608060405234801561001057600080fd5b506040516060806113bd83398101806040528101908080519060200190929190805190602001909291908051906020019092919050505082600160006101000a81548173ffffffffffffffffffffffffffffffffffffffff021916908373ffffffffffffffffffffffffffffffffffffffff160217905550336000806101000a81548173ffffffffffffffffffffffffffffffffffffffff021916908373ffffffffffffffffffffffffffffffffffffffff16021790555081600460026101000a81548160ff021916908360028111156100e657fe5b0217905550806003819055506000600460006101000a81548160ff0219169083151502179055506000600460016101000a81548160ff0219169083151502179055507f73b879a2222e34c9d4c25fc1d12763a471d760e232aeb8e8b3e3150f0a202cc48333604051808373ffffffffffffffffffffffffffffffffffffffff1673ffffffffffffffffffffffffffffffffffffffff1681526020018273ffffffffffffffffffffffffffffffffffffffff1673ffffffffffffffffffffffffffffffffffffffff1681526020019250505060405180910390a15050506111ec806101d16000396000f30060806040526004361061008e576000357c0100000000000000000000000000000000000000000000000000000000900463ffffffff16806312065fe0146100935780632e1a7d4d146100be5780633bef8a3a146100eb57806362a5af3b146101025780636a28f000146101195780637495b35314610130578063a6f9dae11461015f578063d0e30db0146101a2575b600080fd5b34801561009f57600080fd5b506100a86101ac565b6040518082815260200191505060405180910390f35b3480156100ca57600080fd5b506100e9600480360381019080803590602001909291905050506101b6565b005b3480156100f757600080fd5b5061010061064e565b005b34801561010e57600080fd5b50610117610833565b005b34801561012557600080fd5b5061012e610a55565b005b34801561013c57600080fd5b50610145610c5e565b604051808215151515815260200191505060405180910390f35b34801561016b57600080fd5b506101a0600480360381019080803573ffffffffffffffffffffffffffffffffffffffff169060200190929190505050610c75565b005b6101aa610f72565b005b6000600254905090565b6000809054906101000a900473ffffffffffffffffffffffffffffffffffffffff1673ffffffffffffffffffffffffffffffffffffffff163373ffffffffffffffffffffffffffffffffffffffff16148061025e5750600160009054906101000a900473ffffffffffffffffffffffffffffffffffffffff1673ffffffffffffffffffffffffffffffffffffffff163373ffffffffffffffffffffffffffffffffffffffff16145b15156102f8576040517f08c379a00000000000000000000000000000000000000000000000000000000081526004018080602001828103825260218152602001807f46756e6374696f6e206f6e6c792061636365737369626c65206279206f776e6581526020017f720000000000000000000000000000000000000000000000000000000000000081525060400191505060405180910390fd5b60001515600460009054906101000a900460ff161515141515610383576040517f08c379a00000000000000000000000000000000000000000000000000000000081526004018080602001828103825260118152602001807f4163636f756e742069732066726f7a656e00000000000000000000000000000081525060200191505060405180910390fd5b600460019054906101000a900460ff1615151561039c57fe5b6103a4610833565b6002808111156103b057fe5b600460029054906101000a900460ff1660028111156103cb57fe5b14151515610467576040517f08c379a000000000000000000000000000000000000000000000000000000000815260040180806020018281038252602e8152602001807f506c65617365207573652077697468647261772066756e6374696f6e20696e2081526020017f747275737420636f6e747261637400000000000000000000000000000000000081525060400191505060405180910390fd5b6001600281111561047457fe5b600460029054906101000a900460ff16600281111561048f57fe5b1415151561052b576040517f08c379a000000000000000000000000000000000000000000000000000000000815260040180806020018281038252602e8152602001807f506c65617365207573652077697468647261772066756e6374696f6e20696e2081526020017f64656c617920636f6e747261637400000000000000000000000000000000000081525060400191505060405180910390fd5b600254811015156105ca576040517f08c379a00000000000000000000000000000000000000000000000000000000081526004018080602001828103825260298152602001807f43616e6e6f74207769746864726177206d6f72652066756e6473207468616e2081526020017f617661696c61626c65000000000000000000000000000000000000000000000081525060400191505060405180910390fd5b80600260008282540392505081905550600160009054906101000a900473ffffffffffffffffffffffffffffffffffffffff1673ffffffffffffffffffffffffffffffffffffffff166108fc829081150290604051600060405180830381858888f19350505050158015610642573d6000803e3d6000fd5b5061064b610a55565b50565b6000809054906101000a900473ffffffffffffffffffffffffffffffffffffffff1673ffffffffffffffffffffffffffffffffffffffff163373ffffffffffffffffffffffffffffffffffffffff1614806106f65750600160009054906101000a900473ffffffffffffffffffffffffffffffffffffffff1673ffffffffffffffffffffffffffffffffffffffff163373ffffffffffffffffffffffffffffffffffffffff16145b1515610790576040517f08c379a00000000000000000000000000000000000000000000000000000000081526004018080602001828103825260218152602001807f46756e6374696f6e206f6e6c792061636365737369626c65206279206f776e6581526020017f720000000000000000000000000000000000000000000000000000000000000081525060400191505060405180910390fd5b6001600460016101000a81548160ff021916908315150217905550600160009054906101000a900473ffffffffffffffffffffffffffffffffffffffff1673ffffffffffffffffffffffffffffffffffffffff166108fc6002549081150290604051600060405180830381858888f19350505050158015610815573d6000803e3d6000fd5b506001600460006101000a81548160ff021916908315150217905550565b6000809054906101000a900473ffffffffffffffffffffffffffffffffffffffff1673ffffffffffffffffffffffffffffffffffffffff163373ffffffffffffffffffffffffffffffffffffffff1614806108db5750600160009054906101000a900473ffffffffffffffffffffffffffffffffffffffff1673ffffffffffffffffffffffffffffffffffffffff163373ffffffffffffffffffffffffffffffffffffffff16145b1515610975576040517f08c379a00000000000000000000000000000000000000000000000000000000081526004018080602001828103825260218152602001807f46756e6374696f6e206f6e6c792061636365737369626c65206279206f776e6581526020017f720000000000000000000000000000000000000000000000000000000000000081525060400191505060405180910390fd5b60001515600460009054906101000a900460ff161515141515610a00576040517f08c379a00000000000000000000000000000000000000000000000000000000081526004018080602001828103825260118152602001807f4163636f756e742069732066726f7a656e00000000000000000000000000000081525060200191505060405180910390fd5b600460019054906101000a900460ff16151515610a1957fe5b60001515600460019054906101000a900460ff161515141515610a3857fe5b6001600460006101000a81548160ff021916908315150217905550565b6000809054906101000a900473ffffffffffffffffffffffffffffffffffffffff1673ffffffffffffffffffffffffffffffffffffffff163373ffffffffffffffffffffffffffffffffffffffff161480610afd5750600160009054906101000a900473ffffffffffffffffffffffffffffffffffffffff1673ffffffffffffffffffffffffffffffffffffffff163373ffffffffffffffffffffffffffffffffffffffff16145b1515610b97576040517f08c379a00000000000000000000000000000000000000000000000000000000081526004018080602001828103825260218152602001807f46756e6374696f6e206f6e6c792061636365737369626c65206279206f776e6581526020017f720000000000000000000000000000000000000000000000000000000000000081525060400191505060405180910390fd5b60001515600460019054906101000a900460ff161515141515610bb657fe5b60011515600460009054906101000a900460ff161515141515610c41576040517f08c379a00000000000000000000000000000000000000000000000000000000081526004018080602001828103825260188152602001807f4163636f756e7420616c726561647920756e66726f7a656e000000000000000081525060200191505060405180910390fd5b6000600460006101000a81548160ff021916908315150217905550565b6000600460009054906101000a900460ff16905090565b6000809054906101000a900473ffffffffffffffffffffffffffffffffffffffff1673ffffffffffffffffffffffffffffffffffffffff163373ffffffffffffffffffffffffffffffffffffffff161480610d1d5750600160009054906101000a900473ffffffffffffffffffffffffffffffffffffffff1673ffffffffffffffffffffffffffffffffffffffff163373ffffffffffffffffffffffffffffffffffffffff16145b1515610db7576040517f08c379a00000000000000000000000000000000000000000000000000000000081526004018080602001828103825260218152602001807f46756e6374696f6e206f6e6c792061636365737369626c65206279206f776e6581526020017f720000000000000000000000000000000000000000000000000000000000000081525060400191505060405180910390fd5b60001515600460009054906101000a900460ff161515141515610e42576040517f08c379a00000000000000000000000000000000000000000000000000000000081526004018080602001828103825260118152602001807f4163636f756e742069732066726f7a656e00000000000000000000000000000081525060200191505060405180910390fd5b600460019054906101000a900460ff16151515610e5b57fe5b610e63610833565b600280811115610e6f57fe5b600460029054906101000a900460ff166002811115610e8a57fe5b14151515610f26576040517f08c379a00000000000000000000000000000000000000000000000000000000081526004018080602001828103825260318152602001807f506c6561736520757365206368616e67654f776e65722066756e6374696f6e2081526020017f696e20747275737420636f6e747261637400000000000000000000000000000081525060400191505060405180910390fd5b80600160006101000a81548173ffffffffffffffffffffffffffffffffffffffff021916908373ffffffffffffffffffffffffffffffffffffffff160217905550610f6f610a55565b50565b60001515600460009054906101000a900460ff161515141515610ffd576040517f08c379a00000000000000000000000000000000000000000000000000000000081526004018080602001828103825260118152602001807f4163636f756e742069732066726f7a656e00000000000000000000000000000081525060200191505060405180910390fd5b600460019054906101000a900460ff1615151561101657fe5b60003411151561108e576040517f08c379a00000000000000000000000000000000000000000000000000000000081526004018080602001828103825260188152602001807f56616c75652063616e6e6f74206265206e65676174697665000000000000000081525060200191505060405180910390fd5b60003460025401111515611130576040517f08c379a00000000000000000000000000000000000000000000000000000000081526004018080602001828103825260228152602001807f56616c75652063616e6e6f74206d616b652062616c616e6365206e656761746981526020017f766500000000000000000000000000000000000000000000000000000000000081525060400191505060405180910390fd5b6003543460025401111515156111ae576040517f08c379a00000000000000000000000000000000000000000000000000000000081526004018080602001828103825260208152602001807f4465706f7369742074616b6573206163636f756e74206f766572206c696d697481525060200191505060405180910390fd5b346002600082825401925050819055505600a165627a7a723058203d7f3c23e5f8196d387cbf64d61c1161782c4c4f1b09f22d5d10dd7d28d49b6d0029",
  "source": "pragma solidity ^0.4.24;\r\n\r\ncontract AccessAccount{\r\n    address bankAddress;\r\n    address onwerAddress;\r\n    uint balance;\r\n    uint accountLimit;\r\n    bool frozen;\r\n    bool dissolved;\r\n    enum AccountType {access, delay, trust}\r\n    AccountType thisAccountType;\r\n\r\n    event LogCreatedAccessAcount(address _owner, address _bank);\r\n\r\n    /**\r\n      * @dev checks that the msg.sender is an owner of the contract\r\n      */\r\n    modifier isOwner() {\r\n        require(msg.sender == bankAddress || msg.sender == onwerAddress, \"Function only accessible by owner\");\r\n        _;\r\n    }\r\n\r\n    /** \r\n      * @dev checks the account is not frozen, and that the account is not dissolved \r\n      */\r\n    modifier isFrozen() {\r\n        require(frozen == false, \"Account is frozen\");\r\n        assert(!dissolved);\r\n        _;\r\n    }\r\n\r\n    /**\r\n      * @param _owner : the address of the user creating the account\r\n      * @param _chosenType : the type of account this instance is (as this is the parent contract)\r\n      * @dev creates a new access acount, logs creation\r\n      */\r\n    constructor(address _owner, AccountType _chosenType, uint _limit)\r\n        public\r\n    {\r\n        onwerAddress = _owner;\r\n        bankAddress = msg.sender;\r\n        thisAccountType = _chosenType;\r\n        accountLimit = _limit;\r\n        frozen = false;\r\n        dissolved = false;\r\n        emit LogCreatedAccessAcount(_owner, msg.sender);\r\n    }\r\n\r\n    /**\r\n      * @dev returns if the account is frozen (true) or (false) if not\r\n      */\r\n    function getFrozen() \r\n        public\r\n        view\r\n        returns(bool)\r\n    {\r\n        return frozen;\r\n    }\r\n\r\n    /**\r\n      * @dev allows for anyone to check the balance of an account\r\n      */\r\n    function getBalance()\r\n        public\r\n        view\r\n        returns(uint)\r\n    {\r\n        return balance;\r\n    }\r\n\r\n    /**\r\n      * @dev freezed the account. The isFrozen() is used to ensure an already\r\n      *     frozen account cannot be frozen again.\r\n      */\r\n    function freeze()\r\n        public\r\n        isOwner()\r\n        isFrozen()\r\n    {\r\n        assert(dissolved == false);\r\n        frozen = true;\r\n    }\r\n\r\n    /**\r\n      * @dev unfreezes account. Manually checks the account is not dissolved. \r\n      */\r\n    function unfreeze()\r\n        public \r\n        isOwner()\r\n    {\r\n        assert(dissolved == false);\r\n        require(frozen == true, \"Account already unfrozen\");\r\n        frozen = false;\r\n    }\r\n\r\n    /**\r\n      * @dev lets the owner dissolve account, sending all funds to the owner\r\n      */\r\n    function dissolve()\r\n        public\r\n        isOwner()\r\n    {\r\n        dissolved = true;\r\n        onwerAddress.transfer(balance);\r\n        frozen =  true;\r\n    }\r\n\r\n    /**\r\n      * @param _newOwnerAddress : the address of the new owner.\r\n      * @dev allows the user to change the wallet assosiated with the account. \r\n      *     The require ensures that this function cannot be called on the trust account\r\n      *     from the parent function (this function).\r\n      */\r\n    function changeOwner(address _newOwnerAddress)\r\n        public\r\n        isOwner()\r\n        isFrozen()\r\n    {\r\n        freeze();\r\n\r\n        require(thisAccountType != AccountType.trust, \"Please use changeOwner function in trust contract\");\r\n        onwerAddress = _newOwnerAddress;\r\n\r\n        unfreeze();\r\n    }\r\n\r\n    /**\r\n      * @dev allows anyone to deposit into the account, as depositing can be \r\n      *     done by any wallet. Requires the amount to be greater than 0 and also\r\n      *     ensures that the balance will not overflow from deposit. \r\n      */\r\n    function deposit()\r\n        public\r\n        payable\r\n        isFrozen()\r\n    {\r\n        require(msg.value > 0, \"Value cannot be negative\");\r\n        require(balance + msg.value > 0, \"Value cannot make balance negative\");\r\n        require(balance + msg.value <= accountLimit, \"Deposit takes account over limit\");\r\n        balance += msg.value;\r\n    }\r\n\r\n    /**\r\n      * @param _amount : the amount to be withdrawn \r\n      * @dev only allows the owner(s) to withdraw. Dose not allow use if account is frozen \r\n      *     (or dissolved). Ensures the usage of witdraw in the child contracts for both delay\r\n      *     contracts and trust contracts. \r\n      */\r\n    function withdraw(uint _amount)\r\n        public\r\n        isOwner()\r\n        isFrozen()\r\n    {\r\n        freeze();\r\n\r\n        require(thisAccountType != AccountType.trust, \"Please use withdraw function in trust contract\");\r\n        require(thisAccountType != AccountType.delay, \"Please use withdraw function in delay contract\");\r\n        require(_amount < balance, \"Cannot withdraw more funds than available\");\r\n        balance -= _amount;\r\n        onwerAddress.transfer(_amount);\r\n\r\n        unfreeze();\r\n    }\r\n}",
  "sourcePath": "C:\\Users\\Veronica Coutts\\Desktop\\Desktop\\Work\\LinumLabs\\PoCBank\\pocbank\\contracts\\AccessAccount.sol",
  "compiler": {
    "name": "solc",
    "version": "0.4.24+commit.e67f0147.Emscripten.clang"
  },
  "schemaVersion": "2.0.1",
  "updatedAt": "2018-09-30T13:37:53.749Z"
}