{
  "contractName": "AccessAccount",
  "abi": [
    {
      "inputs": [
        {
          "name": "_owner",
          "type": "address"
        },
        {
          "name": "_chosenType",
          "type": "uint8"
        },
        {
          "name": "_limit",
          "type": "uint256"
        }
      ],
      "payable": false,
      "stateMutability": "nonpayable",
      "type": "constructor"
    },
    {
      "anonymous": false,
      "inputs": [
        {
          "indexed": false,
          "name": "_owner",
          "type": "address"
        },
        {
          "indexed": false,
          "name": "_bank",
          "type": "address"
        },
        {
          "indexed": false,
          "name": "_accountType",
          "type": "uint8"
        }
      ],
      "name": "LogCreatedAccessAcount",
      "type": "event"
    },
    {
      "anonymous": false,
      "inputs": [
        {
          "indexed": false,
          "name": "_where",
          "type": "string"
        }
      ],
      "name": "LogUnexpectedRevert",
      "type": "event"
    },
    {
      "constant": true,
      "inputs": [],
      "name": "getFrozen",
      "outputs": [
        {
          "name": "",
          "type": "bool"
        }
      ],
      "payable": false,
      "stateMutability": "view",
      "type": "function"
    },
    {
      "constant": true,
      "inputs": [],
      "name": "getBalance",
      "outputs": [
        {
          "name": "",
          "type": "uint256"
        }
      ],
      "payable": false,
      "stateMutability": "view",
      "type": "function"
    },
    {
      "constant": true,
      "inputs": [],
      "name": "getOwner",
      "outputs": [
        {
          "name": "",
          "type": "address"
        }
      ],
      "payable": false,
      "stateMutability": "view",
      "type": "function"
    },
    {
      "constant": false,
      "inputs": [],
      "name": "freeze",
      "outputs": [],
      "payable": false,
      "stateMutability": "nonpayable",
      "type": "function"
    },
    {
      "constant": false,
      "inputs": [],
      "name": "defrost",
      "outputs": [],
      "payable": false,
      "stateMutability": "nonpayable",
      "type": "function"
    },
    {
      "constant": false,
      "inputs": [],
      "name": "dissolve",
      "outputs": [],
      "payable": false,
      "stateMutability": "nonpayable",
      "type": "function"
    },
    {
      "constant": false,
      "inputs": [
        {
          "name": "_newOwnerAddress",
          "type": "address"
        }
      ],
      "name": "changeOwner",
      "outputs": [],
      "payable": false,
      "stateMutability": "nonpayable",
      "type": "function"
    },
    {
      "constant": false,
      "inputs": [],
      "name": "deposit",
      "outputs": [],
      "payable": true,
      "stateMutability": "payable",
      "type": "function"
    },
    {
      "constant": false,
      "inputs": [
        {
          "name": "_amount",
          "type": "uint256"
        }
      ],
      "name": "withdraw",
      "outputs": [],
      "payable": false,
      "stateMutability": "nonpayable",
      "type": "function"
    }
  ],
  "bytecode": "0x608060405234801561001057600080fd5b50604051606080610cb883398101604090815281516020830151919092015160018054600160a060020a038516600160a060020a03199182161790915560008054909116331790556004805483919061ff00191661010083600281111561007357fe5b021790555060038190556004805460ff1916905560408051600160a060020a038516815233602082018190527f4f1a20e20b0b2f3cdc1fcd1d7631e4cb35cadb8c1b8ea065a71a94167adf1e0f928692869181018260028111156100d357fe5b60ff168152602001935050505060405180910390a1505050610bbe806100fa6000396000f3006080604052600436106100985763ffffffff7c010000000000000000000000000000000000000000000000000000000060003504166312065fe0811461009d5780632e1a7d4d146100c45780633bef8a3a146100de57806362a5af3b146100f35780637495b35314610108578063893d20e814610131578063a6f9dae114610162578063d0e30db014610183578063f21cdf6f1461018b575b600080fd5b3480156100a957600080fd5b506100b26101a0565b60408051918252519081900360200190f35b3480156100d057600080fd5b506100dc6004356101a6565b005b3480156100ea57600080fd5b506100dc610577565b3480156100ff57600080fd5b506100dc6105f5565b34801561011457600080fd5b5061011d6106c1565b604080519115158252519081900360200190f35b34801561013d57600080fd5b506101466106ca565b60408051600160a060020a039092168252519081900360200190f35b34801561016e57600080fd5b506100dc600160a060020a036004351661074f565b6100dc6108c6565b34801561019757600080fd5b506100dc610a53565b60025490565b600054600160a060020a03163314806101c95750600154600160a060020a031633145b151561021a576040805160e560020a62461bcd0281526020600482015260216024820152600080516020610b73833981519152604482015260f960020a603902606482015290519081900360840190fd5b60045460ff1615610263576040805160e560020a62461bcd0281526020600482015260116024820152600080516020610b53833981519152604482015290519081900360640190fd5b61026b6105f5565b6040805160208082526024908201527f28696e2077697468647261772920616674657220667265657a696e6720616363818301527f6f756e740000000000000000000000000000000000000000000000000000000060608201529051600080516020610b338339815191529181900360800190a16000600454610100900460ff1660028111156102f757fe5b14610372576040805160e560020a62461bcd02815260206004820152602e60248201527f506c65617365207573652077697468647261772066756e6374696f6e20696e2060448201527f6368696c6420636f6e7472616374000000000000000000000000000000000000606482015290519081900360840190fd5b604080516020808252602b908201527f28616674657220312072657175697265292061667465722074727573742f6465818301527f6c6179207265717569726500000000000000000000000000000000000000000060608201529051600080516020610b338339815191529181900360800190a1600254811115610466576040805160e560020a62461bcd02815260206004820152602960248201527f43616e6e6f74207769746864726177206d6f72652066756e6473207468616e2060448201527f617661696c61626c650000000000000000000000000000000000000000000000606482015290519081900360840190fd5b604080516020808252603b908201527f286166746572203220726571756972652920616674657220616d6f756e742067818301527f65747320636865636b656420616761696e73742062616c616e6365000000000060608201529051600080516020610b338339815191529181900360800190a1600280548290039055600154604051600160a060020a039091169082156108fc029083906000818181858888f1935050505015801561051d573d6000803e3d6000fd5b50604080516020808252601b908201527f2829206166746572207472616e73666572696e6720616d6f756e740000000000818301529051600080516020610b338339815191529181900360600190a1610574610a53565b50565b600054600160a060020a031633146105d9576040805160e560020a62461bcd02815260206004820152601c60248201527f46756e6374696f6e206f6e6c7920757361626c652062792062616e6b00000000604482015290519081900360640190fd5b6004805460ff1916600190811790915554600160a060020a0316ff5b600054600160a060020a03163314806106185750600154600160a060020a031633145b1515610669576040805160e560020a62461bcd0281526020600482015260216024820152600080516020610b73833981519152604482015260f960020a603902606482015290519081900360840190fd5b60045460ff16156106b2576040805160e560020a62461bcd0281526020600482015260116024820152600080516020610b53833981519152604482015290519081900360640190fd5b6004805460ff19166001179055565b60045460ff1690565b60008054600160a060020a03163314806106ee5750600154600160a060020a031633145b151561073f576040805160e560020a62461bcd0281526020600482015260216024820152600080516020610b73833981519152604482015260f960020a603902606482015290519081900360840190fd5b50600154600160a060020a031690565b600054600160a060020a031633146107b1576040805160e560020a62461bcd02815260206004820152601c60248201527f46756e6374696f6e206f6e6c7920757361626c652062792062616e6b00000000604482015290519081900360640190fd5b60045460ff16156107fa576040805160e560020a62461bcd0281526020600482015260116024820152600080516020610b53833981519152604482015290519081900360640190fd5b6108026105f5565b6002600454610100900460ff16600281111561081a57fe5b1415610896576040805160e560020a62461bcd02815260206004820152603160248201527f506c6561736520757365206368616e67654f776e65722066756e6374696f6e2060448201527f696e20747275737420636f6e7472616374000000000000000000000000000000606482015290519081900360840190fd5b6001805473ffffffffffffffffffffffffffffffffffffffff1916600160a060020a038316179055610574610a53565b60045460ff161561090f576040805160e560020a62461bcd0281526020600482015260116024820152600080516020610b53833981519152604482015290519081900360640190fd5b60003411610967576040805160e560020a62461bcd02815260206004820152601860248201527f56616c75652063616e6e6f74206265206e656761746976650000000000000000604482015290519081900360640190fd5b600034600254011115156109eb576040805160e560020a62461bcd02815260206004820152602260248201527f56616c75652063616e6e6f74206d616b652062616c616e6365206e656761746960448201527f7665000000000000000000000000000000000000000000000000000000000000606482015290519081900360840190fd5b60035460025434011115610a49576040805160e560020a62461bcd02815260206004820181905260248201527f4465706f7369742074616b6573206163636f756e74206f766572206c696d6974604482015290519081900360640190fd5b6002805434019055565b600054600160a060020a0316331480610a765750600154600160a060020a031633145b1515610ac7576040805160e560020a62461bcd0281526020600482015260216024820152600080516020610b73833981519152604482015260f960020a603902606482015290519081900360840190fd5b60045460ff161515600114610b26576040805160e560020a62461bcd02815260206004820152601860248201527f4163636f756e7420616c726561647920756e66726f7a656e0000000000000000604482015290519081900360640190fd5b6004805460ff191690555600b981afc16bc609765b6005bd910c0e9ef3424f3c61a05afcbbf88d11f414669d4163636f756e742069732066726f7a656e00000000000000000000000000000046756e6374696f6e206f6e6c792061636365737369626c65206279206f776e65a165627a7a72305820ff3c0be09e04d584a4b82b97777e1eb3e64b0798c9f8b4f7384742159986151d0029",
  "source": "pragma solidity ^0.4.24;\r\n\r\ncontract AccessAccount{\r\n    address bankAddress;\r\n    address onwerAddress;\r\n    uint balance;\r\n    uint accountLimit;\r\n    bool frozen;\r\n    enum AccountType {access, delay, trust}\r\n    AccountType thisAccountType;\r\n\r\n    event LogCreatedAccessAcount(address _owner, address _bank, AccountType _accountType);\r\n    event LogUnexpectedRevert(string _where);\r\n\r\n    /**\r\n      * @dev checks that the msg.sender is an owner of the contract\r\n      */\r\n    modifier isOwner() {\r\n        require(msg.sender == bankAddress || msg.sender == onwerAddress, \"Function only accessible by owner\");\r\n        _;\r\n    }\r\n\r\n    /**\r\n      * @dev checks that the bank is the only address able of using the function\r\n      */\r\n    modifier isBank() {\r\n        require(msg.sender == bankAddress, \"Function only usable by bank\");\r\n        _;\r\n    }\r\n\r\n    /** \r\n      * @dev checks the account is not frozen, and that the account is not dissolved \r\n      */\r\n    modifier isFrozen() {\r\n        require(frozen == false, \"Account is frozen\");\r\n        _;\r\n    }\r\n\r\n    /**\r\n      * @param _owner : the address of the user creating the account\r\n      * @param _chosenType : the type of account this instance is (as this is the parent contract)\r\n      * @dev creates a new access acount, logs creation\r\n      */\r\n    constructor(address _owner, AccountType _chosenType, uint _limit)\r\n        public\r\n    {\r\n        onwerAddress = _owner;\r\n        bankAddress = msg.sender;\r\n        thisAccountType = _chosenType;\r\n        accountLimit = _limit;\r\n        frozen = false;\r\n        emit LogCreatedAccessAcount(_owner, msg.sender, _chosenType);\r\n    }\r\n\r\n    /**\r\n      * @dev returns if the account is frozen (true) or (false) if not\r\n      */\r\n    function getFrozen() \r\n        public\r\n        view\r\n        returns(bool)\r\n    {\r\n        return frozen;\r\n    }\r\n\r\n    /**\r\n      * @dev allows for anyone to check the balance of an account\r\n      */\r\n    function getBalance()\r\n        public\r\n        view\r\n        returns(uint)\r\n    {\r\n        return balance;\r\n    }\r\n\r\n    function getOwner()\r\n        public\r\n        view\r\n        isOwner()\r\n        returns(address)\r\n    {\r\n        return onwerAddress;\r\n    }\r\n\r\n    /**\r\n      * @dev freezed the account. The isFrozen() is used to ensure an already\r\n      *     frozen account cannot be frozen again.\r\n      */\r\n    function freeze()\r\n        public\r\n        isOwner()\r\n        isFrozen()\r\n    {\r\n        frozen = true;\r\n    }\r\n\r\n    /**\r\n      * @dev unfreezes account. Manually checks the account is not dissolved. \r\n      */\r\n    function defrost()\r\n        public \r\n        isOwner()\r\n    {\r\n        require(frozen == true, \"Account already unfrozen\");\r\n        frozen = false;\r\n    }\r\n\r\n    /**\r\n      * @dev lets the bank dissolve account, sending all funds to the owner\r\n      */\r\n    function dissolve()\r\n        public\r\n        isBank()\r\n    {\r\n        frozen =  true;\r\n        selfdestruct(onwerAddress);\r\n    }\r\n\r\n    /**\r\n      * @param _newOwnerAddress : the address of the new owner.\r\n      * @dev allows the user to change the wallet assosiated with the account. \r\n      *     The require ensures that this function cannot be called on the trust account\r\n      *     from the parent function (this function).\r\n      */\r\n    function changeOwner(address _newOwnerAddress)\r\n        public\r\n        isBank()\r\n        isFrozen()\r\n    {\r\n        freeze();\r\n\r\n        require(thisAccountType != AccountType.trust, \"Please use changeOwner function in trust contract\");\r\n        onwerAddress = _newOwnerAddress;\r\n\r\n        defrost();\r\n    }\r\n\r\n    /**\r\n      * @dev allows anyone to deposit into the account, as depositing can be \r\n      *     done by any wallet. Requires the amount to be greater than 0 and also\r\n      *     ensures that the balance will not overflow from deposit. \r\n      */\r\n    function deposit()\r\n        public\r\n        payable\r\n        isFrozen()\r\n    {\r\n        require(msg.value > 0, \"Value cannot be negative\");\r\n        require(balance + msg.value > 0, \"Value cannot make balance negative\");\r\n        require(balance + msg.value <= accountLimit, \"Deposit takes account over limit\");\r\n        balance += msg.value;\r\n    }\r\n\r\n    \r\n\r\n    /**\r\n      * @param _amount : the amount to be withdrawn \r\n      * @dev only allows the owner(s) to withdraw. Dose not allow use if account is frozen \r\n      *     (or dissolved). Ensures the usage of witdraw in the child contracts for both delay\r\n      *     contracts and trust contracts. \r\n      */\r\n    function withdraw(uint _amount)\r\n        public\r\n        isOwner()\r\n        isFrozen()\r\n    {\r\n        freeze();\r\n\r\n        emit LogUnexpectedRevert(\"(in withdraw) after freezing account\");\r\n\r\n        require(thisAccountType == AccountType.access, \"Please use withdraw function in child contract\");\r\n\r\n        emit LogUnexpectedRevert(\"(after 1 require) after trust/delay require\");\r\n\r\n        require(_amount <= balance, \"Cannot withdraw more funds than available\");\r\n\r\n        emit LogUnexpectedRevert(\"(after 2 require) after amount gets checked against balance\");\r\n\r\n        balance -= _amount;\r\n        onwerAddress.transfer(_amount);\r\n\r\n        emit LogUnexpectedRevert(\"() after transfering amount\");\r\n        defrost();\r\n    }\r\n}",
  "sourcePath": "C:\\Users\\Veronica Coutts\\Desktop\\Desktop\\Work\\LinumLabs\\PoCBank\\pocbank\\contracts\\AccessAccount.sol",
  "compiler": {
    "name": "solc",
    "version": "0.4.24+commit.e67f0147.Emscripten.clang"
  },
  "schemaVersion": "2.0.1",
  "updatedAt": "2018-10-02T09:02:53.888Z"
}