{
  "contractName": "AccessAccount",
  "abi": [
    {
      "inputs": [
        {
          "name": "_owner",
          "type": "address"
        },
        {
          "name": "_chosenType",
          "type": "uint8"
        },
        {
          "name": "_limit",
          "type": "uint256"
        }
      ],
      "payable": false,
      "stateMutability": "nonpayable",
      "type": "constructor"
    },
    {
      "anonymous": false,
      "inputs": [
        {
          "indexed": false,
          "name": "_owner",
          "type": "address"
        },
        {
          "indexed": false,
          "name": "_bank",
          "type": "address"
        },
        {
          "indexed": false,
          "name": "_accountType",
          "type": "uint8"
        }
      ],
      "name": "LogCreatedAccessAcount",
      "type": "event"
    },
    {
      "anonymous": false,
      "inputs": [
        {
          "indexed": false,
          "name": "_where",
          "type": "string"
        }
      ],
      "name": "LogUnexpectedRevert",
      "type": "event"
    },
    {
      "constant": true,
      "inputs": [],
      "name": "getFrozen",
      "outputs": [
        {
          "name": "",
          "type": "bool"
        }
      ],
      "payable": false,
      "stateMutability": "view",
      "type": "function"
    },
    {
      "constant": true,
      "inputs": [],
      "name": "getBalance",
      "outputs": [
        {
          "name": "",
          "type": "uint256"
        }
      ],
      "payable": false,
      "stateMutability": "view",
      "type": "function"
    },
    {
      "constant": true,
      "inputs": [],
      "name": "getOwner",
      "outputs": [
        {
          "name": "",
          "type": "address"
        }
      ],
      "payable": false,
      "stateMutability": "view",
      "type": "function"
    },
    {
      "constant": false,
      "inputs": [],
      "name": "freeze",
      "outputs": [],
      "payable": false,
      "stateMutability": "nonpayable",
      "type": "function"
    },
    {
      "constant": false,
      "inputs": [],
      "name": "defrost",
      "outputs": [],
      "payable": false,
      "stateMutability": "nonpayable",
      "type": "function"
    },
    {
      "constant": false,
      "inputs": [],
      "name": "dissolve",
      "outputs": [],
      "payable": false,
      "stateMutability": "nonpayable",
      "type": "function"
    },
    {
      "constant": false,
      "inputs": [
        {
          "name": "_newOwnerAddress",
          "type": "address"
        }
      ],
      "name": "changeOwner",
      "outputs": [],
      "payable": false,
      "stateMutability": "nonpayable",
      "type": "function"
    },
    {
      "constant": false,
      "inputs": [],
      "name": "deposit",
      "outputs": [],
      "payable": true,
      "stateMutability": "payable",
      "type": "function"
    },
    {
      "constant": false,
      "inputs": [
        {
          "name": "_amount",
          "type": "uint256"
        }
      ],
      "name": "withdraw",
      "outputs": [],
      "payable": false,
      "stateMutability": "nonpayable",
      "type": "function"
    }
  ],
  "bytecode": "0x608060405234801561001057600080fd5b506040516060806115c283398101806040528101908080519060200190929190805190602001909291908051906020019092919050505082600160006101000a81548173ffffffffffffffffffffffffffffffffffffffff021916908373ffffffffffffffffffffffffffffffffffffffff160217905550336000806101000a81548173ffffffffffffffffffffffffffffffffffffffff021916908373ffffffffffffffffffffffffffffffffffffffff16021790555081600460026101000a81548160ff021916908360028111156100e657fe5b0217905550806003819055506000600460006101000a81548160ff0219169083151502179055506000600460016101000a81548160ff0219169083151502179055507f4f1a20e20b0b2f3cdc1fcd1d7631e4cb35cadb8c1b8ea065a71a94167adf1e0f833384604051808473ffffffffffffffffffffffffffffffffffffffff1673ffffffffffffffffffffffffffffffffffffffff1681526020018373ffffffffffffffffffffffffffffffffffffffff1673ffffffffffffffffffffffffffffffffffffffff1681526020018260028111156101c057fe5b60ff168152602001935050505060405180910390a15050506113db806101e76000396000f300608060405260043610610099576000357c0100000000000000000000000000000000000000000000000000000000900463ffffffff16806312065fe01461009e5780632e1a7d4d146100c95780633bef8a3a146100f657806362a5af3b1461010d5780637495b35314610124578063893d20e814610153578063a6f9dae1146101aa578063d0e30db0146101ed578063f21cdf6f146101f7575b600080fd5b3480156100aa57600080fd5b506100b361020e565b6040518082815260200191505060405180910390f35b3480156100d557600080fd5b506100f460048036038101908080359060200190929190505050610218565b005b34801561010257600080fd5b5061010b6107ff565b005b34801561011957600080fd5b50610122610934565b005b34801561013057600080fd5b50610139610b56565b604051808215151515815260200191505060405180910390f35b34801561015f57600080fd5b50610168610b6d565b604051808273ffffffffffffffffffffffffffffffffffffffff1673ffffffffffffffffffffffffffffffffffffffff16815260200191505060405180910390f35b3480156101b657600080fd5b506101eb600480360381019080803573ffffffffffffffffffffffffffffffffffffffff169060200190929190505050610cd9565b005b6101f5610f58565b005b34801561020357600080fd5b5061020c6111a6565b005b6000600254905090565b6000809054906101000a900473ffffffffffffffffffffffffffffffffffffffff1673ffffffffffffffffffffffffffffffffffffffff163373ffffffffffffffffffffffffffffffffffffffff1614806102c05750600160009054906101000a900473ffffffffffffffffffffffffffffffffffffffff1673ffffffffffffffffffffffffffffffffffffffff163373ffffffffffffffffffffffffffffffffffffffff16145b151561035a576040517f08c379a00000000000000000000000000000000000000000000000000000000081526004018080602001828103825260218152602001807f46756e6374696f6e206f6e6c792061636365737369626c65206279206f776e6581526020017f720000000000000000000000000000000000000000000000000000000000000081525060400191505060405180910390fd5b60001515600460009054906101000a900460ff1615151415156103e5576040517f08c379a00000000000000000000000000000000000000000000000000000000081526004018080602001828103825260118152602001807f4163636f756e742069732066726f7a656e00000000000000000000000000000081525060200191505060405180910390fd5b600460019054906101000a900460ff161515156103fe57fe5b610406610934565b7fb981afc16bc609765b6005bd910c0e9ef3424f3c61a05afcbbf88d11f414669d6040518080602001828103825260248152602001807f28696e2077697468647261772920616674657220667265657a696e672061636381526020017f6f756e740000000000000000000000000000000000000000000000000000000081525060400191505060405180910390a1600060028111156104a157fe5b600460029054906101000a900460ff1660028111156104bc57fe5b141515610557576040517f08c379a000000000000000000000000000000000000000000000000000000000815260040180806020018281038252602e8152602001807f506c65617365207573652077697468647261772066756e6374696f6e20696e2081526020017f6368696c6420636f6e747261637400000000000000000000000000000000000081525060400191505060405180910390fd5b7fb981afc16bc609765b6005bd910c0e9ef3424f3c61a05afcbbf88d11f414669d60405180806020018281038252602b8152602001807f28616674657220312072657175697265292061667465722074727573742f646581526020017f6c6179207265717569726500000000000000000000000000000000000000000081525060400191505060405180910390a16002548111151515610685576040517f08c379a00000000000000000000000000000000000000000000000000000000081526004018080602001828103825260298152602001807f43616e6e6f74207769746864726177206d6f72652066756e6473207468616e2081526020017f617661696c61626c65000000000000000000000000000000000000000000000081525060400191505060405180910390fd5b7fb981afc16bc609765b6005bd910c0e9ef3424f3c61a05afcbbf88d11f414669d60405180806020018281038252603b8152602001807f286166746572203220726571756972652920616674657220616d6f756e74206781526020017f65747320636865636b656420616761696e73742062616c616e6365000000000081525060400191505060405180910390a180600260008282540392505081905550600160009054906101000a900473ffffffffffffffffffffffffffffffffffffffff1673ffffffffffffffffffffffffffffffffffffffff166108fc829081150290604051600060405180830381858888f1935050505015801561078b573d6000803e3d6000fd5b507fb981afc16bc609765b6005bd910c0e9ef3424f3c61a05afcbbf88d11f414669d60405180806020018281038252601b8152602001807f2829206166746572207472616e73666572696e6720616d6f756e74000000000081525060200191505060405180910390a16107fc6111a6565b50565b6000809054906101000a900473ffffffffffffffffffffffffffffffffffffffff1673ffffffffffffffffffffffffffffffffffffffff163373ffffffffffffffffffffffffffffffffffffffff161415156108c3576040517f08c379a000000000000000000000000000000000000000000000000000000000815260040180806020018281038252601c8152602001807f46756e6374696f6e206f6e6c7920757361626c652062792062616e6b0000000081525060200191505060405180910390fd5b6001600460016101000a81548160ff0219169083151502179055506001600460006101000a81548160ff021916908315150217905550600160009054906101000a900473ffffffffffffffffffffffffffffffffffffffff1673ffffffffffffffffffffffffffffffffffffffff16ff5b6000809054906101000a900473ffffffffffffffffffffffffffffffffffffffff1673ffffffffffffffffffffffffffffffffffffffff163373ffffffffffffffffffffffffffffffffffffffff1614806109dc5750600160009054906101000a900473ffffffffffffffffffffffffffffffffffffffff1673ffffffffffffffffffffffffffffffffffffffff163373ffffffffffffffffffffffffffffffffffffffff16145b1515610a76576040517f08c379a00000000000000000000000000000000000000000000000000000000081526004018080602001828103825260218152602001807f46756e6374696f6e206f6e6c792061636365737369626c65206279206f776e6581526020017f720000000000000000000000000000000000000000000000000000000000000081525060400191505060405180910390fd5b60001515600460009054906101000a900460ff161515141515610b01576040517f08c379a00000000000000000000000000000000000000000000000000000000081526004018080602001828103825260118152602001807f4163636f756e742069732066726f7a656e00000000000000000000000000000081525060200191505060405180910390fd5b600460019054906101000a900460ff16151515610b1a57fe5b60001515600460019054906101000a900460ff161515141515610b3957fe5b6001600460006101000a81548160ff021916908315150217905550565b6000600460009054906101000a900460ff16905090565b60008060009054906101000a900473ffffffffffffffffffffffffffffffffffffffff1673ffffffffffffffffffffffffffffffffffffffff163373ffffffffffffffffffffffffffffffffffffffff161480610c175750600160009054906101000a900473ffffffffffffffffffffffffffffffffffffffff1673ffffffffffffffffffffffffffffffffffffffff163373ffffffffffffffffffffffffffffffffffffffff16145b1515610cb1576040517f08c379a00000000000000000000000000000000000000000000000000000000081526004018080602001828103825260218152602001807f46756e6374696f6e206f6e6c792061636365737369626c65206279206f776e6581526020017f720000000000000000000000000000000000000000000000000000000000000081525060400191505060405180910390fd5b600160009054906101000a900473ffffffffffffffffffffffffffffffffffffffff16905090565b6000809054906101000a900473ffffffffffffffffffffffffffffffffffffffff1673ffffffffffffffffffffffffffffffffffffffff163373ffffffffffffffffffffffffffffffffffffffff16141515610d9d576040517f08c379a000000000000000000000000000000000000000000000000000000000815260040180806020018281038252601c8152602001807f46756e6374696f6e206f6e6c7920757361626c652062792062616e6b0000000081525060200191505060405180910390fd5b60001515600460009054906101000a900460ff161515141515610e28576040517f08c379a00000000000000000000000000000000000000000000000000000000081526004018080602001828103825260118152602001807f4163636f756e742069732066726f7a656e00000000000000000000000000000081525060200191505060405180910390fd5b600460019054906101000a900460ff16151515610e4157fe5b610e49610934565b600280811115610e5557fe5b600460029054906101000a900460ff166002811115610e7057fe5b14151515610f0c576040517f08c379a00000000000000000000000000000000000000000000000000000000081526004018080602001828103825260318152602001807f506c6561736520757365206368616e67654f776e65722066756e6374696f6e2081526020017f696e20747275737420636f6e747261637400000000000000000000000000000081525060400191505060405180910390fd5b80600160006101000a81548173ffffffffffffffffffffffffffffffffffffffff021916908373ffffffffffffffffffffffffffffffffffffffff160217905550610f556111a6565b50565b60001515600460009054906101000a900460ff161515141515610fe3576040517f08c379a00000000000000000000000000000000000000000000000000000000081526004018080602001828103825260118152602001807f4163636f756e742069732066726f7a656e00000000000000000000000000000081525060200191505060405180910390fd5b600460019054906101000a900460ff16151515610ffc57fe5b600034111515611074576040517f08c379a00000000000000000000000000000000000000000000000000000000081526004018080602001828103825260188152602001807f56616c75652063616e6e6f74206265206e65676174697665000000000000000081525060200191505060405180910390fd5b60003460025401111515611116576040517f08c379a00000000000000000000000000000000000000000000000000000000081526004018080602001828103825260228152602001807f56616c75652063616e6e6f74206d616b652062616c616e6365206e656761746981526020017f766500000000000000000000000000000000000000000000000000000000000081525060400191505060405180910390fd5b600354346002540111151515611194576040517f08c379a00000000000000000000000000000000000000000000000000000000081526004018080602001828103825260208152602001807f4465706f7369742074616b6573206163636f756e74206f766572206c696d697481525060200191505060405180910390fd5b34600260008282540192505081905550565b6000809054906101000a900473ffffffffffffffffffffffffffffffffffffffff1673ffffffffffffffffffffffffffffffffffffffff163373ffffffffffffffffffffffffffffffffffffffff16148061124e5750600160009054906101000a900473ffffffffffffffffffffffffffffffffffffffff1673ffffffffffffffffffffffffffffffffffffffff163373ffffffffffffffffffffffffffffffffffffffff16145b15156112e8576040517f08c379a00000000000000000000000000000000000000000000000000000000081526004018080602001828103825260218152602001807f46756e6374696f6e206f6e6c792061636365737369626c65206279206f776e6581526020017f720000000000000000000000000000000000000000000000000000000000000081525060400191505060405180910390fd5b60001515600460019054906101000a900460ff16151514151561130757fe5b60011515600460009054906101000a900460ff161515141515611392576040517f08c379a00000000000000000000000000000000000000000000000000000000081526004018080602001828103825260188152602001807f4163636f756e7420616c726561647920756e66726f7a656e000000000000000081525060200191505060405180910390fd5b6000600460006101000a81548160ff0219169083151502179055505600a165627a7a72305820a48e9a26b4da9e88d3d20bb27e099316decbcd85a350f1b62039f41d7cad5ac60029",
  "source": "pragma solidity ^0.4.24;\r\n\r\ncontract AccessAccount{\r\n    address bankAddress;\r\n    address onwerAddress;\r\n    uint balance;\r\n    uint accountLimit;\r\n    bool frozen;\r\n    bool dissolved;\r\n    enum AccountType {access, delay, trust}\r\n    AccountType thisAccountType;\r\n\r\n    event LogCreatedAccessAcount(address _owner, address _bank, AccountType _accountType);\r\n    event LogUnexpectedRevert(string _where);\r\n\r\n    /**\r\n      * @dev checks that the msg.sender is an owner of the contract\r\n      */\r\n    modifier isOwner() {\r\n        require(msg.sender == bankAddress || msg.sender == onwerAddress, \"Function only accessible by owner\");\r\n        _;\r\n    }\r\n\r\n    /**\r\n      * @dev checks that the bank is the only address able of using the function\r\n      */\r\n    modifier isBank() {\r\n        require(msg.sender == bankAddress, \"Function only usable by bank\");\r\n        _;\r\n    }\r\n\r\n    /** \r\n      * @dev checks the account is not frozen, and that the account is not dissolved \r\n      */\r\n    modifier isFrozen() {\r\n        require(frozen == false, \"Account is frozen\");\r\n        assert(!dissolved);\r\n        _;\r\n    }\r\n\r\n    /**\r\n      * @param _owner : the address of the user creating the account\r\n      * @param _chosenType : the type of account this instance is (as this is the parent contract)\r\n      * @dev creates a new access acount, logs creation\r\n      */\r\n    constructor(address _owner, AccountType _chosenType, uint _limit)\r\n        public\r\n    {\r\n        onwerAddress = _owner;\r\n        bankAddress = msg.sender;\r\n        thisAccountType = _chosenType;\r\n        accountLimit = _limit;\r\n        frozen = false;\r\n        dissolved = false;\r\n        emit LogCreatedAccessAcount(_owner, msg.sender, _chosenType);\r\n    }\r\n\r\n    /**\r\n      * @dev returns if the account is frozen (true) or (false) if not\r\n      */\r\n    function getFrozen() \r\n        public\r\n        view\r\n        returns(bool)\r\n    {\r\n        return frozen;\r\n    }\r\n\r\n    /**\r\n      * @dev allows for anyone to check the balance of an account\r\n      */\r\n    function getBalance()\r\n        public\r\n        view\r\n        returns(uint)\r\n    {\r\n        return balance;\r\n    }\r\n\r\n    function getOwner()\r\n        public\r\n        view\r\n        isOwner()\r\n        returns(address)\r\n    {\r\n        return onwerAddress;\r\n    }\r\n\r\n    /**\r\n      * @dev freezed the account. The isFrozen() is used to ensure an already\r\n      *     frozen account cannot be frozen again.\r\n      */\r\n    function freeze()\r\n        public\r\n        isOwner()\r\n        isFrozen()\r\n    {\r\n        assert(dissolved == false);\r\n        frozen = true;\r\n    }\r\n\r\n    /**\r\n      * @dev unfreezes account. Manually checks the account is not dissolved. \r\n      */\r\n    function defrost()\r\n        public \r\n        isOwner()\r\n    {\r\n        assert(dissolved == false);\r\n        require(frozen == true, \"Account already unfrozen\");\r\n        frozen = false;\r\n    }\r\n\r\n    /**\r\n      * @dev lets the bank dissolve account, sending all funds to the owner\r\n      */\r\n    function dissolve()\r\n        public\r\n        isBank()\r\n    {\r\n        dissolved = true;\r\n        frozen =  true;\r\n        selfdestruct(onwerAddress);\r\n    }\r\n\r\n    /**\r\n      * @param _newOwnerAddress : the address of the new owner.\r\n      * @dev allows the user to change the wallet assosiated with the account. \r\n      *     The require ensures that this function cannot be called on the trust account\r\n      *     from the parent function (this function).\r\n      */\r\n    function changeOwner(address _newOwnerAddress)\r\n        public\r\n        isBank()\r\n        isFrozen()\r\n    {\r\n        freeze();\r\n\r\n        require(thisAccountType != AccountType.trust, \"Please use changeOwner function in trust contract\");\r\n        onwerAddress = _newOwnerAddress;\r\n\r\n        defrost();\r\n    }\r\n\r\n    /**\r\n      * @dev allows anyone to deposit into the account, as depositing can be \r\n      *     done by any wallet. Requires the amount to be greater than 0 and also\r\n      *     ensures that the balance will not overflow from deposit. \r\n      */\r\n    function deposit()\r\n        public\r\n        payable\r\n        isFrozen()\r\n    {\r\n        require(msg.value > 0, \"Value cannot be negative\");\r\n        require(balance + msg.value > 0, \"Value cannot make balance negative\");\r\n        require(balance + msg.value <= accountLimit, \"Deposit takes account over limit\");\r\n        balance += msg.value;\r\n    }\r\n\r\n    \r\n\r\n    /**\r\n      * @param _amount : the amount to be withdrawn \r\n      * @dev only allows the owner(s) to withdraw. Dose not allow use if account is frozen \r\n      *     (or dissolved). Ensures the usage of witdraw in the child contracts for both delay\r\n      *     contracts and trust contracts. \r\n      */\r\n    function withdraw(uint _amount)\r\n        public\r\n        isOwner()\r\n        isFrozen()\r\n    {\r\n        freeze();\r\n\r\n        emit LogUnexpectedRevert(\"(in withdraw) after freezing account\");\r\n\r\n        require(thisAccountType == AccountType.access, \"Please use withdraw function in child contract\");\r\n\r\n        emit LogUnexpectedRevert(\"(after 1 require) after trust/delay require\");\r\n\r\n        require(_amount <= balance, \"Cannot withdraw more funds than available\");\r\n\r\n        emit LogUnexpectedRevert(\"(after 2 require) after amount gets checked against balance\");\r\n\r\n        balance -= _amount;\r\n        onwerAddress.transfer(_amount);\r\n\r\n        emit LogUnexpectedRevert(\"() after transfering amount\");\r\n        defrost();\r\n    }\r\n}",
  "sourcePath": "C:\\Users\\Veronica Coutts\\Desktop\\Desktop\\Work\\LinumLabs\\PoCBank\\pocbank\\contracts\\AccessAccount.sol",
  "compiler": {
    "name": "solc",
    "version": "0.4.24+commit.e67f0147.Emscripten.clang"
  },
  "schemaVersion": "2.0.1",
  "updatedAt": "2018-10-01T08:41:48.880Z"
}