{
  "contractName": "AccessAccount",
  "abi": [
    {
      "inputs": [
        {
          "name": "_bank",
          "type": "address"
        },
        {
          "name": "_owner",
          "type": "address"
        }
      ],
      "payable": false,
      "stateMutability": "nonpayable",
      "type": "constructor"
    },
    {
      "anonymous": false,
      "inputs": [
        {
          "indexed": false,
          "name": "_description",
          "type": "string"
        },
        {
          "indexed": false,
          "name": "_choice",
          "type": "uint256"
        },
        {
          "indexed": false,
          "name": "_thisAddress",
          "type": "address"
        }
      ],
      "name": "LogEvent",
      "type": "event"
    },
    {
      "constant": true,
      "inputs": [],
      "name": "isLocked",
      "outputs": [
        {
          "name": "",
          "type": "bool"
        }
      ],
      "payable": false,
      "stateMutability": "view",
      "type": "function"
    },
    {
      "constant": false,
      "inputs": [
        {
          "name": "_amount",
          "type": "uint256"
        }
      ],
      "name": "withdraw",
      "outputs": [
        {
          "name": "",
          "type": "bool"
        }
      ],
      "payable": true,
      "stateMutability": "payable",
      "type": "function"
    },
    {
      "constant": false,
      "inputs": [
        {
          "name": "_to",
          "type": "address"
        }
      ],
      "name": "sendFunds",
      "outputs": [
        {
          "name": "",
          "type": "bool"
        }
      ],
      "payable": true,
      "stateMutability": "payable",
      "type": "function"
    },
    {
      "constant": false,
      "inputs": [
        {
          "name": "_amount",
          "type": "uint256"
        }
      ],
      "name": "deposit",
      "outputs": [],
      "payable": true,
      "stateMutability": "payable",
      "type": "function"
    },
    {
      "constant": true,
      "inputs": [],
      "name": "viewBalance",
      "outputs": [
        {
          "name": "",
          "type": "uint256"
        }
      ],
      "payable": false,
      "stateMutability": "view",
      "type": "function"
    }
  ],
  "bytecode": "0x60806040526000600160146101000a81548160ff02191690831515021790555034801561002b57600080fd5b506040516040806108ae83398101806040528101908080519060200190929190805190602001909291905050507f1c496c617e309952d64ad8cfc4ddc11c57213ad9137060bd7ad8494237eac3dc60013060405180806020018481526020018373ffffffffffffffffffffffffffffffffffffffff1673ffffffffffffffffffffffffffffffffffffffff168152602001828103825260148152602001807f437265617465642074686520636f6e7472616374000000000000000000000000815250602001935050505060405180910390a1806000806101000a81548173ffffffffffffffffffffffffffffffffffffffff021916908373ffffffffffffffffffffffffffffffffffffffff16021790555081600160006101000a81548173ffffffffffffffffffffffffffffffffffffffff021916908373ffffffffffffffffffffffffffffffffffffffff160217905550505061071f8061018f6000396000f30060806040526004361061006d576000357c0100000000000000000000000000000000000000000000000000000000900463ffffffff1680632e1a7d4d146100725780633ff1e05b146100aa578063a4e2d634146100d5578063b6b55f2514610104578063cfe52bdd14610124575b600080fd5b61009060048036038101908080359060200190929190505050610172565b604051808215151515815260200191505060405180910390f35b3480156100b657600080fd5b506100bf6103ad565b6040518082815260200191505060405180910390f35b3480156100e157600080fd5b506100ea610481565b604051808215151515815260200191505060405180910390f35b61012260048036038101908080359060200190929190505050610498565b005b610158600480360381019080803573ffffffffffffffffffffffffffffffffffffffff169060200190929190505050610560565b604051808215151515815260200191505060405180910390f35b60008060001515600160149054906101000a900460ff16151514151561019757600080fd5b600160009054906101000a900473ffffffffffffffffffffffffffffffffffffffff169050600015158173ffffffffffffffffffffffffffffffffffffffff16637c02a3296040518163ffffffff167c0100000000000000000000000000000000000000000000000000000000028152600401602060405180830381600087803b15801561022457600080fd5b505af1158015610238573d6000803e3d6000fd5b505050506040513d602081101561024e57600080fd5b8101908080519060200190929190505050151514151561026d57600080fd5b610275610661565b151561028057600080fd5b6002548310151561031f576040517f08c379a00000000000000000000000000000000000000000000000000000000081526004018080602001828103825260218152602001807f43616e6e6f74207769746864726177206d6f7265207468616e2062616c616e6381526020017f650000000000000000000000000000000000000000000000000000000000000081525060400191505060405180910390fd5b6000836002540311151561033257600080fd5b82600254036002819055506000809054906101000a900473ffffffffffffffffffffffffffffffffffffffff1673ffffffffffffffffffffffffffffffffffffffff166108fc849081150290604051600060405180830381858888f193505050505061039c6106aa565b15156103a757600080fd5b50919050565b6000336000809054906101000a900473ffffffffffffffffffffffffffffffffffffffff1673ffffffffffffffffffffffffffffffffffffffff168173ffffffffffffffffffffffffffffffffffffffff1614806104585750600160009054906101000a900473ffffffffffffffffffffffffffffffffffffffff1673ffffffffffffffffffffffffffffffffffffffff168173ffffffffffffffffffffffffffffffffffffffff16145b151561046357600080fd5b3073ffffffffffffffffffffffffffffffffffffffff163191505090565b6000600160149054906101000a900460ff16905090565b336000809054906101000a900473ffffffffffffffffffffffffffffffffffffffff1673ffffffffffffffffffffffffffffffffffffffff168173ffffffffffffffffffffffffffffffffffffffff1614806105415750600160009054906101000a900473ffffffffffffffffffffffffffffffffffffffff1673ffffffffffffffffffffffffffffffffffffffff168173ffffffffffffffffffffffffffffffffffffffff16145b151561054c57600080fd5b346002600082825401925050819055505050565b60008060001515600160149054906101000a900460ff16151514151561058557600080fd5b600160009054906101000a900473ffffffffffffffffffffffffffffffffffffffff169050600015158173ffffffffffffffffffffffffffffffffffffffff16637c02a3296040518163ffffffff167c0100000000000000000000000000000000000000000000000000000000028152600401602060405180830381600087803b15801561061257600080fd5b505af1158015610626573d6000803e3d6000fd5b505050506040513d602081101561063c57600080fd5b8101908080519060200190929190505050151514151561065b57600080fd5b50919050565b600060011515600160149054906101000a900460ff161515141561068857600090506106a7565b60018060146101000a81548160ff021916908315150217905550600190505b90565b6000801515600160149054906101000a900460ff16151514156106d057600090506106f0565b6000600160146101000a81548160ff021916908315150217905550600190505b905600a165627a7a72305820deebe029da77c48b72b405ab5bef134fea2983c05143172ba3138c5880d80c350029",
  "source": "pragma solidity ^0.4.24;\r\n\r\nimport \"./Bank.sol\";\r\n\r\ncontract AccessAccount {\r\n    address owner;\r\n    address bank;\r\n    bool frozen = false;\r\n    uint balance;\r\n    \r\n    event LogEvent(string _description, uint _choice, address _thisAddress);\r\n        \r\n    modifier onlyOwner(address isOwner){\r\n        require(isOwner == owner || isOwner == bank);\r\n        _;\r\n    }\r\n    \r\n    modifier frozonCheck() {\r\n        require(frozen == false);\r\n        Bank bankOb = Bank(bank);\r\n        require(bankOb.isAccountFrozen() == false);\r\n        _;\r\n    }\r\n        \r\n    constructor(address _bank, address _owner) {\r\n        LogEvent(\"Created the contract\", 1, this);\r\n        owner = _owner;\r\n        bank = _bank;\r\n    }\r\n    \r\n    function isLocked() \r\n        public\r\n        view\r\n        returns(bool)\r\n    {\r\n        return frozen;\r\n    }\r\n    \r\n    function freezeAccount()\r\n        internal\r\n        returns(bool)\r\n    {\r\n        if(frozen == true){\r\n            return false;\r\n        }\r\n        frozen = true;\r\n        return true;\r\n    }\r\n    \r\n    function unfreezeAccount()\r\n        internal\r\n        returns(bool)\r\n    {\r\n        if(frozen == false){\r\n            return false;\r\n        }\r\n        frozen = false;\r\n        return true;\r\n    }\r\n    \r\n    function withdraw(uint _amount)\r\n        public\r\n        payable\r\n        // onlyOwner(msg.sender)\r\n        frozonCheck()\r\n        returns(bool)\r\n    {\r\n        require(freezeAccount());\r\n        //TODO: checks the amount is not more than this.balance\r\n        //TODO: remove funds from account \r\n        //TODO: sends the corresponding number of eth\r\n        \r\n        require(_amount < balance, \"Cannot withdraw more than balance\");\r\n        require(balance - _amount > 0);\r\n        balance = balance - _amount;\r\n        owner.send(_amount);\r\n        \r\n        require(unfreezeAccount());\r\n    }\r\n    \r\n    function sendFunds(address _to)\r\n        public\r\n        payable\r\n        frozonCheck()\r\n        returns(bool)\r\n    {\r\n        \r\n    }\r\n    \r\n    function deposit(uint _amount)\r\n        public \r\n        payable\r\n        onlyOwner(msg.sender)\r\n        //TODO: lockAccount\r\n    {\r\n        balance += msg.value;\r\n        //TODO: lockAccount();\r\n        //TODO: unlockAccount();\r\n    }\r\n    \r\n    function viewBalance()\r\n        public\r\n        view\r\n        onlyOwner(msg.sender)\r\n        returns(uint)\r\n    {\r\n        return this.balance;\r\n    }\r\n    \r\n}",
  "sourcePath": "C:\\Users\\Veronica Coutts\\Desktop\\Desktop\\Work\\LinumLabs\\PoCBank\\pocbank\\contracts\\AccessAccount.sol",
  "compiler": {
    "name": "solc",
    "version": "0.4.24+commit.e67f0147.Emscripten.clang"
  },
  "schemaVersion": "2.0.1",
  "updatedAt": "2018-09-29T08:22:59.706Z"
}