{
  "contractName": "Bank",
  "abi": [
    {
      "inputs": [],
      "payable": false,
      "stateMutability": "nonpayable",
      "type": "constructor"
    },
    {
      "anonymous": false,
      "inputs": [
        {
          "indexed": false,
          "name": "_owner",
          "type": "address"
        },
        {
          "indexed": false,
          "name": "_accountType",
          "type": "uint8"
        },
        {
          "indexed": false,
          "name": "_initialBalance",
          "type": "uint256"
        }
      ],
      "name": "AccessAccountCreated",
      "type": "event"
    },
    {
      "anonymous": false,
      "inputs": [
        {
          "indexed": false,
          "name": "_owner",
          "type": "address"
        },
        {
          "indexed": false,
          "name": "_accountType",
          "type": "uint8"
        },
        {
          "indexed": false,
          "name": "_initialBalance",
          "type": "uint256"
        }
      ],
      "name": "DelayAccountCreated",
      "type": "event"
    },
    {
      "anonymous": false,
      "inputs": [
        {
          "indexed": false,
          "name": "_initailOwner",
          "type": "address"
        },
        {
          "indexed": false,
          "name": "_accountType",
          "type": "uint8"
        },
        {
          "indexed": false,
          "name": "_initialBalance",
          "type": "uint256"
        }
      ],
      "name": "TrustAccountCreated",
      "type": "event"
    },
    {
      "anonymous": false,
      "inputs": [
        {
          "indexed": false,
          "name": "_pointInCode",
          "type": "string"
        },
        {
          "indexed": false,
          "name": "_addressOFContract",
          "type": "address"
        }
      ],
      "name": "LogEvent",
      "type": "event"
    },
    {
      "constant": true,
      "inputs": [
        {
          "name": "_userWallet",
          "type": "address"
        }
      ],
      "name": "getBankAccountAddress",
      "outputs": [
        {
          "name": "",
          "type": "address"
        }
      ],
      "payable": false,
      "stateMutability": "view",
      "type": "function"
    },
    {
      "constant": false,
      "inputs": [
        {
          "name": "_chosenType",
          "type": "uint8"
        }
      ],
      "name": "createBankAccount",
      "outputs": [
        {
          "name": "",
          "type": "address"
        }
      ],
      "payable": true,
      "stateMutability": "payable",
      "type": "function"
    },
    {
      "constant": true,
      "inputs": [],
      "name": "isAccountFrozen",
      "outputs": [
        {
          "name": "",
          "type": "bool"
        }
      ],
      "payable": false,
      "stateMutability": "view",
      "type": "function"
    },
    {
      "constant": false,
      "inputs": [
        {
          "name": "_bankAccounts",
          "type": "address"
        }
      ],
      "name": "freezeAccount",
      "outputs": [
        {
          "name": "",
          "type": "bool"
        }
      ],
      "payable": false,
      "stateMutability": "nonpayable",
      "type": "function"
    },
    {
      "constant": false,
      "inputs": [
        {
          "name": "_bankAccount",
          "type": "address"
        }
      ],
      "name": "unfreezeAccount",
      "outputs": [
        {
          "name": "",
          "type": "bool"
        }
      ],
      "payable": false,
      "stateMutability": "nonpayable",
      "type": "function"
    },
    {
      "constant": false,
      "inputs": [
        {
          "name": "_newAddress",
          "type": "address"
        },
        {
          "name": "_oldAddress",
          "type": "address"
        }
      ],
      "name": "changeOwnership",
      "outputs": [
        {
          "name": "",
          "type": "bool"
        }
      ],
      "payable": false,
      "stateMutability": "nonpayable",
      "type": "function"
    },
    {
      "constant": false,
      "inputs": [
        {
          "name": "_fundsReciver",
          "type": "address"
        }
      ],
      "name": "dissolveAccount",
      "outputs": [
        {
          "name": "",
          "type": "bool"
        }
      ],
      "payable": false,
      "stateMutability": "nonpayable",
      "type": "function"
    }
  ],
  "bytecode": "0x608060405234801561001057600080fd5b50336000806101000a81548173ffffffffffffffffffffffffffffffffffffffff021916908373ffffffffffffffffffffffffffffffffffffffff1602179055506133b7806100606000396000f300608060405260043610610083576000357c0100000000000000000000000000000000000000000000000000000000900463ffffffff1680633491b6811461008857806338ad08131461010b578063788649ea1461016e5780637c02a329146101c9578063bf93a8be146101f8578063e2a5ae3a14610273578063f26c159f146102ce575b600080fd5b34801561009457600080fd5b506100c9600480360381019080803573ffffffffffffffffffffffffffffffffffffffff169060200190929190505050610329565b604051808273ffffffffffffffffffffffffffffffffffffffff1673ffffffffffffffffffffffffffffffffffffffff16815260200191505060405180910390f35b61012c600480360381019080803560ff1690602001909291905050506103f0565b604051808273ffffffffffffffffffffffffffffffffffffffff1673ffffffffffffffffffffffffffffffffffffffff16815260200191505060405180910390f35b34801561017a57600080fd5b506101af600480360381019080803573ffffffffffffffffffffffffffffffffffffffff169060200190929190505050610d0b565b604051808215151515815260200191505060405180910390f35b3480156101d557600080fd5b506101de610d16565b604051808215151515815260200191505060405180910390f35b34801561020457600080fd5b50610259600480360381019080803573ffffffffffffffffffffffffffffffffffffffff169060200190929190803573ffffffffffffffffffffffffffffffffffffffff169060200190929190505050610d6a565b604051808215151515815260200191505060405180910390f35b34801561027f57600080fd5b506102b4600480360381019080803573ffffffffffffffffffffffffffffffffffffffff169060200190929190505050610d76565b604051808215151515815260200191505060405180910390f35b3480156102da57600080fd5b5061030f600480360381019080803573ffffffffffffffffffffffffffffffffffffffff169060200190929190505050611103565b604051808215151515815260200191505060405180910390f35b60008060009054906101000a900473ffffffffffffffffffffffffffffffffffffffff1673ffffffffffffffffffffffffffffffffffffffff163373ffffffffffffffffffffffffffffffffffffffff1614151561038657600080fd5b600160008373ffffffffffffffffffffffffffffffffffffffff1673ffffffffffffffffffffffffffffffffffffffff16815260200190815260200160002060010160009054906101000a900473ffffffffffffffffffffffffffffffffffffffff169050919050565b60008060008060008060008034965060018960ff1614156106ff57303361041561135b565b808373ffffffffffffffffffffffffffffffffffffffff1673ffffffffffffffffffffffffffffffffffffffff1681526020018273ffffffffffffffffffffffffffffffffffffffff1673ffffffffffffffffffffffffffffffffffffffff16815260200192505050604051809103906000f08015801561049a573d6000803e3d6000fd5b5095508594508473ffffffffffffffffffffffffffffffffffffffff1663b6b55f2534896040518363ffffffff167c0100000000000000000000000000000000000000000000000000000000028152600401808281526020019150506000604051808303818588803b15801561050f57600080fd5b505af1158015610523573d6000803e3d6000fd5b50505050506060604051908101604052803373ffffffffffffffffffffffffffffffffffffffff1681526020018773ffffffffffffffffffffffffffffffffffffffff1681526020016000600281111561057957fe5b815250600160003373ffffffffffffffffffffffffffffffffffffffff1673ffffffffffffffffffffffffffffffffffffffff16815260200190815260200160002060008201518160000160006101000a81548173ffffffffffffffffffffffffffffffffffffffff021916908373ffffffffffffffffffffffffffffffffffffffff16021790555060208201518160010160006101000a81548173ffffffffffffffffffffffffffffffffffffffff021916908373ffffffffffffffffffffffffffffffffffffffff16021790555060408201518160010160146101000a81548160ff0219169083600281111561066d57fe5b02179055509050507fa31d73c89227345027b8f8726bbaedae2a571c8354ff56e012c92478a20da70533600089604051808473ffffffffffffffffffffffffffffffffffffffff1673ffffffffffffffffffffffffffffffffffffffff1681526020018360028111156106dc57fe5b60ff168152602001828152602001935050505060405180910390a1859750610cff565b60028960ff1614156109ff57303361071561136b565b808373ffffffffffffffffffffffffffffffffffffffff1673ffffffffffffffffffffffffffffffffffffffff1681526020018273ffffffffffffffffffffffffffffffffffffffff1673ffffffffffffffffffffffffffffffffffffffff16815260200192505050604051809103906000f08015801561079a573d6000803e3d6000fd5b5093508392508273ffffffffffffffffffffffffffffffffffffffff1663b6b55f2534896040518363ffffffff167c0100000000000000000000000000000000000000000000000000000000028152600401808281526020019150506000604051808303818588803b15801561080f57600080fd5b505af1158015610823573d6000803e3d6000fd5b50505050506060604051908101604052803373ffffffffffffffffffffffffffffffffffffffff1681526020018573ffffffffffffffffffffffffffffffffffffffff1681526020016001600281111561087957fe5b815250600160003373ffffffffffffffffffffffffffffffffffffffff1673ffffffffffffffffffffffffffffffffffffffff16815260200190815260200160002060008201518160000160006101000a81548173ffffffffffffffffffffffffffffffffffffffff021916908373ffffffffffffffffffffffffffffffffffffffff16021790555060208201518160010160006101000a81548173ffffffffffffffffffffffffffffffffffffffff021916908373ffffffffffffffffffffffffffffffffffffffff16021790555060408201518160010160146101000a81548160ff0219169083600281111561096d57fe5b02179055509050507fffbff9198c60c14b71766b3c82b65dee5c891ad53e945f2e274d2069994b9c3633600189604051808473ffffffffffffffffffffffffffffffffffffffff1673ffffffffffffffffffffffffffffffffffffffff1681526020018360028111156109dc57fe5b60ff168152602001828152602001935050505060405180910390a1839750610cff565b60038960ff161415610cfe573330610a1561137b565b808373ffffffffffffffffffffffffffffffffffffffff1673ffffffffffffffffffffffffffffffffffffffff1681526020018273ffffffffffffffffffffffffffffffffffffffff1673ffffffffffffffffffffffffffffffffffffffff16815260200192505050604051809103906000f080158015610a9a573d6000803e3d6000fd5b5091508190508073ffffffffffffffffffffffffffffffffffffffff1663b6b55f2534896040518363ffffffff167c0100000000000000000000000000000000000000000000000000000000028152600401808281526020019150506000604051808303818588803b158015610b0f57600080fd5b505af1158015610b23573d6000803e3d6000fd5b50505050506060604051908101604052803373ffffffffffffffffffffffffffffffffffffffff1681526020018373ffffffffffffffffffffffffffffffffffffffff168152602001600280811115610b7857fe5b815250600160003373ffffffffffffffffffffffffffffffffffffffff1673ffffffffffffffffffffffffffffffffffffffff16815260200190815260200160002060008201518160000160006101000a81548173ffffffffffffffffffffffffffffffffffffffff021916908373ffffffffffffffffffffffffffffffffffffffff16021790555060208201518160010160006101000a81548173ffffffffffffffffffffffffffffffffffffffff021916908373ffffffffffffffffffffffffffffffffffffffff16021790555060408201518160010160146101000a81548160ff02191690836002811115610c6c57fe5b02179055509050507f3c20e0946da89e2889987390c58251d5d344ce44e97f80ab2cc9f2aed5c8400833600289604051808473ffffffffffffffffffffffffffffffffffffffff1673ffffffffffffffffffffffffffffffffffffffff168152602001836002811115610cdb57fe5b60ff168152602001828152602001935050505060405180910390a1819750610cff565b5b50505050505050919050565b600060019050919050565b6000600260003373ffffffffffffffffffffffffffffffffffffffff1673ffffffffffffffffffffffffffffffffffffffff16815260200190815260200160002060009054906101000a900460ff16905090565b60006001905092915050565b600033600060011515600260008473ffffffffffffffffffffffffffffffffffffffff1673ffffffffffffffffffffffffffffffffffffffff16815260200190815260200160002060009054906101000a900460ff16151514151515610ddb57600080fd5b6000600160008473ffffffffffffffffffffffffffffffffffffffff1673ffffffffffffffffffffffffffffffffffffffff16815260200190815260200160002060010160009054906101000a900473ffffffffffffffffffffffffffffffffffffffff1673ffffffffffffffffffffffffffffffffffffffff161415156110d05760006002811115610e6a57fe5b600160008473ffffffffffffffffffffffffffffffffffffffff1673ffffffffffffffffffffffffffffffffffffffff16815260200190815260200160002060010160149054906101000a900460ff166002811115610ec557fe5b1415610fe757600160008373ffffffffffffffffffffffffffffffffffffffff1673ffffffffffffffffffffffffffffffffffffffff16815260200190815260200160002060010160009054906101000a900473ffffffffffffffffffffffffffffffffffffffff169050600115158173ffffffffffffffffffffffffffffffffffffffff1663a4e2d6346040518163ffffffff167c0100000000000000000000000000000000000000000000000000000000028152600401602060405180830381600087803b158015610f9857600080fd5b505af1158015610fac573d6000803e3d6000fd5b505050506040513d6020811015610fc257600080fd5b8101908080519060200190929190505050151514151515610fe257600080fd5b6110cf565b60016002811115610ff457fe5b600160008473ffffffffffffffffffffffffffffffffffffffff1673ffffffffffffffffffffffffffffffffffffffff16815260200190815260200160002060010160149054906101000a900460ff16600281111561104f57fe5b141561105a576110ce565b60028081111561106657fe5b600160008473ffffffffffffffffffffffffffffffffffffffff1673ffffffffffffffffffffffffffffffffffffffff16815260200190815260200160002060010160149054906101000a900460ff1660028111156110c157fe5b14156110cc576110cd565b5b5b5b5b6110d93361110e565b15156110e457600080fd5b6110ed33611238565b15156110f857600080fd5b600192505050919050565b600060019050919050565b6000801515600260008473ffffffffffffffffffffffffffffffffffffffff1673ffffffffffffffffffffffffffffffffffffffff16815260200190815260200160002060009054906101000a900460ff1615151415156111d7576040517f08c379a000000000000000000000000000000000000000000000000000000000815260040180806020018281038252601a8152602001807f557365722077616c6c657420616c7265616479206c6f636b656400000000000081525060200191505060405180910390fd5b6001600260008473ffffffffffffffffffffffffffffffffffffffff1673ffffffffffffffffffffffffffffffffffffffff16815260200190815260200160002060006101000a81548160ff02191690831515021790555060019050919050565b600060011515600260008473ffffffffffffffffffffffffffffffffffffffff1673ffffffffffffffffffffffffffffffffffffffff16815260200190815260200160002060009054906101000a900460ff161515141515611302576040517f08c379a000000000000000000000000000000000000000000000000000000000815260040180806020018281038252601b8152602001807f557365722077616c6c65742061726561647920756e6c6f636b6564000000000081525060200191505060405180910390fd5b60001515600260008473ffffffffffffffffffffffffffffffffffffffff1673ffffffffffffffffffffffffffffffffffffffff16815260200190815260200160002060009054906101000a9050505060019050919050565b6040516114638061138c83390190565b604051610723806127ef83390190565b60405161047a80612f1283390190560060806040526000600160146101000a81548160ff02191690831515021790555034801561002b57600080fd5b506040516040806114638339810180604052810190808051906020019092919080519060200190929190505050806000806101000a81548173ffffffffffffffffffffffffffffffffffffffff021916908373ffffffffffffffffffffffffffffffffffffffff16021790555081600160006101000a81548173ffffffffffffffffffffffffffffffffffffffff021916908373ffffffffffffffffffffffffffffffffffffffff1602179055507f12d42670bf9845801d75f133e7e8cafa2758ef35fc5473974decffe164c3c1593082604051808373ffffffffffffffffffffffffffffffffffffffff1673ffffffffffffffffffffffffffffffffffffffff1681526020018273ffffffffffffffffffffffffffffffffffffffff1673ffffffffffffffffffffffffffffffffffffffff1681526020019250505060405180910390a150506112e2806101816000396000f300608060405260043610610083576000357c0100000000000000000000000000000000000000000000000000000000900463ffffffff1680632e1a7d4d146100885780633ff1e05b146100bc5780637c5fc3fb146100e7578063a4e2d63414610116578063b6b55f2514610145578063c6d7a85814610165578063cfe52bdd14610194575b600080fd5b6100a6600480360381019080803590602001909291905050506101de565b6040518082815260200191505060405180910390f35b3480156100c857600080fd5b506100d16107f7565b6040518082815260200191505060405180910390f35b3480156100f357600080fd5b506100fc61091f565b604051808215151515815260200191505060405180910390f35b34801561012257600080fd5b5061012b610a87565b604051808215151515815260200191505060405180910390f35b61016360048036038101908080359060200190929190505050610a9e565b005b34801561017157600080fd5b5061017a610cc9565b604051808215151515815260200191505060405180910390f35b6101c8600480360381019080803573ffffffffffffffffffffffffffffffffffffffff169060200190929190505050610e30565b6040518082815260200191505060405180910390f35b6000336000809054906101000a900473ffffffffffffffffffffffffffffffffffffffff1673ffffffffffffffffffffffffffffffffffffffff168173ffffffffffffffffffffffffffffffffffffffff1614806102895750600160009054906101000a900473ffffffffffffffffffffffffffffffffffffffff1673ffffffffffffffffffffffffffffffffffffffff168173ffffffffffffffffffffffffffffffffffffffff16145b15156102fd576040517f08c379a000000000000000000000000000000000000000000000000000000000815260040180806020018281038252600d8152602001807f4d757374206265206f776e65720000000000000000000000000000000000000081525060200191505060405180910390fd5b6000801515600160149054906101000a900460ff1615151415156103af576040517f08c379a00000000000000000000000000000000000000000000000000000000081526004018080602001828103825260228152602001807f4163636f756e742069732066726f7a6f6e2e20506c6561736520756e6672656581526020017f7a6500000000000000000000000000000000000000000000000000000000000081525060400191505060405180910390fd5b600160009054906101000a900473ffffffffffffffffffffffffffffffffffffffff169050600015158173ffffffffffffffffffffffffffffffffffffffff16637c02a3296040518163ffffffff167c0100000000000000000000000000000000000000000000000000000000028152600401602060405180830381600087803b15801561043c57600080fd5b505af1158015610450573d6000803e3d6000fd5b505050506040513d602081101561046657600080fd5b81019080805190602001909291905050501515141515610514576040517f08c379a00000000000000000000000000000000000000000000000000000000081526004018080602001828103825260228152602001807f4163636f756e742069732066726f7a6f6e2e20506c6561736520756e6672656581526020017f7a6500000000000000000000000000000000000000000000000000000000000081525060400191505060405180910390fd5b61051c610cc9565b15156105b6576040517f08c379a00000000000000000000000000000000000000000000000000000000081526004018080602001828103825260348152602001807f4163636f756e74206d75737420667265657a65207375636365737366756c6c7981526020017f20647572696e67207472616e73616374696f6e7300000000000000000000000081525060400191505060405180910390fd5b60025484101515610655576040517f08c379a00000000000000000000000000000000000000000000000000000000081526004018080602001828103825260218152602001807f43616e6e6f74207769746864726177206d6f7265207468616e2062616c616e6381526020017f650000000000000000000000000000000000000000000000000000000000000081525060400191505060405180910390fd5b600084600254031115156106d1576040517f08c379a000000000000000000000000000000000000000000000000000000000815260040180806020018281038252601c8152602001807f43616e6e6f74206d616b652062616c616e6365206e656761746976650000000081525060200191505060405180910390fd5b836002600082825403925050819055506000809054906101000a900473ffffffffffffffffffffffffffffffffffffffff1673ffffffffffffffffffffffffffffffffffffffff166108fc859081150290604051600060405180830381858888f19350505050158015610748573d6000803e3d6000fd5b5061075161091f565b15156107eb576040517f08c379a00000000000000000000000000000000000000000000000000000000081526004018080602001828103825260348152602001807f4163636f756e74206d75737420667265657a65207375636365737366756c6c7981526020017f20647572696e67207472616e73616374696f6e7300000000000000000000000081525060400191505060405180910390fd5b60025492505050919050565b6000336000809054906101000a900473ffffffffffffffffffffffffffffffffffffffff1673ffffffffffffffffffffffffffffffffffffffff168173ffffffffffffffffffffffffffffffffffffffff1614806108a25750600160009054906101000a900473ffffffffffffffffffffffffffffffffffffffff1673ffffffffffffffffffffffffffffffffffffffff168173ffffffffffffffffffffffffffffffffffffffff16145b1515610916576040517f08c379a000000000000000000000000000000000000000000000000000000000815260040180806020018281038252600d8152602001807f4d757374206265206f776e65720000000000000000000000000000000000000081525060200191505060405180910390fd5b60025491505090565b6000336000809054906101000a900473ffffffffffffffffffffffffffffffffffffffff1673ffffffffffffffffffffffffffffffffffffffff168173ffffffffffffffffffffffffffffffffffffffff1614806109ca5750600160009054906101000a900473ffffffffffffffffffffffffffffffffffffffff1673ffffffffffffffffffffffffffffffffffffffff168173ffffffffffffffffffffffffffffffffffffffff16145b1515610a3e576040517f08c379a000000000000000000000000000000000000000000000000000000000815260040180806020018281038252600d8152602001807f4d757374206265206f776e65720000000000000000000000000000000000000081525060200191505060405180910390fd5b60001515600160149054906101000a900460ff1615151415610a635760009150610a83565b6000600160146101000a81548160ff021916908315150217905550600191505b5090565b6000600160149054906101000a900460ff16905090565b6000801515600160149054906101000a900460ff161515141515610b50576040517f08c379a00000000000000000000000000000000000000000000000000000000081526004018080602001828103825260228152602001807f4163636f756e742069732066726f7a6f6e2e20506c6561736520756e6672656581526020017f7a6500000000000000000000000000000000000000000000000000000000000081525060400191505060405180910390fd5b600160009054906101000a900473ffffffffffffffffffffffffffffffffffffffff169050600015158173ffffffffffffffffffffffffffffffffffffffff16637c02a3296040518163ffffffff167c0100000000000000000000000000000000000000000000000000000000028152600401602060405180830381600087803b158015610bdd57600080fd5b505af1158015610bf1573d6000803e3d6000fd5b505050506040513d6020811015610c0757600080fd5b81019080805190602001909291905050501515141515610cb5576040517f08c379a00000000000000000000000000000000000000000000000000000000081526004018080602001828103825260228152602001807f4163636f756e742069732066726f7a6f6e2e20506c6561736520756e6672656581526020017f7a6500000000000000000000000000000000000000000000000000000000000081525060400191505060405180910390fd5b346002600082825401925050819055505050565b6000336000809054906101000a900473ffffffffffffffffffffffffffffffffffffffff1673ffffffffffffffffffffffffffffffffffffffff168173ffffffffffffffffffffffffffffffffffffffff161480610d745750600160009054906101000a900473ffffffffffffffffffffffffffffffffffffffff1673ffffffffffffffffffffffffffffffffffffffff168173ffffffffffffffffffffffffffffffffffffffff16145b1515610de8576040517f08c379a000000000000000000000000000000000000000000000000000000000815260040180806020018281038252600d8152602001807f4d757374206265206f776e65720000000000000000000000000000000000000081525060200191505060405180910390fd5b60011515600160149054906101000a900460ff1615151415610e0d5760009150610e2c565b60018060146101000a81548160ff021916908315150217905550600191505b5090565b6000336000809054906101000a900473ffffffffffffffffffffffffffffffffffffffff1673ffffffffffffffffffffffffffffffffffffffff168173ffffffffffffffffffffffffffffffffffffffff161480610edb5750600160009054906101000a900473ffffffffffffffffffffffffffffffffffffffff1673ffffffffffffffffffffffffffffffffffffffff168173ffffffffffffffffffffffffffffffffffffffff16145b1515610f4f576040517f08c379a000000000000000000000000000000000000000000000000000000000815260040180806020018281038252600d8152602001807f4d757374206265206f776e65720000000000000000000000000000000000000081525060200191505060405180910390fd5b6000801515600160149054906101000a900460ff161515141515611001576040517f08c379a00000000000000000000000000000000000000000000000000000000081526004018080602001828103825260228152602001807f4163636f756e742069732066726f7a6f6e2e20506c6561736520756e6672656581526020017f7a6500000000000000000000000000000000000000000000000000000000000081525060400191505060405180910390fd5b600160009054906101000a900473ffffffffffffffffffffffffffffffffffffffff169050600015158173ffffffffffffffffffffffffffffffffffffffff16637c02a3296040518163ffffffff167c0100000000000000000000000000000000000000000000000000000000028152600401602060405180830381600087803b15801561108e57600080fd5b505af11580156110a2573d6000803e3d6000fd5b505050506040513d60208110156110b857600080fd5b81019080805190602001909291905050501515141515611166576040517f08c379a00000000000000000000000000000000000000000000000000000000081526004018080602001828103825260228152602001807f4163636f756e742069732066726f7a6f6e2e20506c6561736520756e6672656581526020017f7a6500000000000000000000000000000000000000000000000000000000000081525060400191505060405180910390fd5b61116e610cc9565b1515611208576040517f08c379a00000000000000000000000000000000000000000000000000000000081526004018080602001828103825260348152602001807f4163636f756e74206d75737420667265657a65207375636365737366756c6c7981526020017f20647572696e67207472616e73616374696f6e7300000000000000000000000081525060400191505060405180910390fd5b61121061091f565b15156112aa576040517f08c379a00000000000000000000000000000000000000000000000000000000081526004018080602001828103825260348152602001807f4163636f756e74206d75737420667265657a65207375636365737366756c6c7981526020017f20647572696e67207472616e73616374696f6e7300000000000000000000000081525060400191505060405180910390fd5b600254925050509190505600a165627a7a72305820eaaee2b3571bc13df677ee9198cac9e0541ae4f17011ae53b49a9652216d2494002960806040526000600360006101000a81548160ff02191690831515021790555034801561002b57600080fd5b506040516040806107238339810180604052810190808051906020019092919080519060200190929190505050816000806101000a81548173ffffffffffffffffffffffffffffffffffffffff021916908373ffffffffffffffffffffffffffffffffffffffff16021790555080600160006101000a81548173ffffffffffffffffffffffffffffffffffffffff021916908373ffffffffffffffffffffffffffffffffffffffff1602179055505050610639806100ea6000396000f30060806040526004361061006d576000357c0100000000000000000000000000000000000000000000000000000000900463ffffffff1680631dcaed52146100725780632e1a7d4d146100a15780633ff1e05b146100d5578063745400c914610100578063b6b55f2514610141575b600080fd5b34801561007e57600080fd5b50610087610161565b604051808215151515815260200191505060405180910390f35b6100bf60048036038101908080359060200190929190505050610288565b6040518082815260200191505060405180910390f35b3480156100e157600080fd5b506100ea6103ad565b6040518082815260200191505060405180910390f35b34801561010c57600080fd5b5061012b600480360381019080803590602001909291905050506104d5565b6040518082815260200191505060405180910390f35b61015f600480360381019080803590602001909291905050506105fa565b005b6000336000809054906101000a900473ffffffffffffffffffffffffffffffffffffffff1673ffffffffffffffffffffffffffffffffffffffff168173ffffffffffffffffffffffffffffffffffffffff16148061020c5750600160009054906101000a900473ffffffffffffffffffffffffffffffffffffffff1673ffffffffffffffffffffffffffffffffffffffff168173ffffffffffffffffffffffffffffffffffffffff16145b1515610280576040517f08c379a000000000000000000000000000000000000000000000000000000000815260040180806020018281038252600d8152602001807f4d757374206265206f776e65720000000000000000000000000000000000000081525060200191505060405180910390fd5b600191505090565b6000336000809054906101000a900473ffffffffffffffffffffffffffffffffffffffff1673ffffffffffffffffffffffffffffffffffffffff168173ffffffffffffffffffffffffffffffffffffffff1614806103335750600160009054906101000a900473ffffffffffffffffffffffffffffffffffffffff1673ffffffffffffffffffffffffffffffffffffffff168173ffffffffffffffffffffffffffffffffffffffff16145b15156103a7576040517f08c379a000000000000000000000000000000000000000000000000000000000815260040180806020018281038252600d8152602001807f4d757374206265206f776e65720000000000000000000000000000000000000081525060200191505060405180910390fd5b50919050565b6000336000809054906101000a900473ffffffffffffffffffffffffffffffffffffffff1673ffffffffffffffffffffffffffffffffffffffff168173ffffffffffffffffffffffffffffffffffffffff1614806104585750600160009054906101000a900473ffffffffffffffffffffffffffffffffffffffff1673ffffffffffffffffffffffffffffffffffffffff168173ffffffffffffffffffffffffffffffffffffffff16145b15156104cc576040517f08c379a000000000000000000000000000000000000000000000000000000000815260040180806020018281038252600d8152602001807f4d757374206265206f776e65720000000000000000000000000000000000000081525060200191505060405180910390fd5b60025491505090565b6000336000809054906101000a900473ffffffffffffffffffffffffffffffffffffffff1673ffffffffffffffffffffffffffffffffffffffff168173ffffffffffffffffffffffffffffffffffffffff1614806105805750600160009054906101000a900473ffffffffffffffffffffffffffffffffffffffff1673ffffffffffffffffffffffffffffffffffffffff168173ffffffffffffffffffffffffffffffffffffffff16145b15156105f4576040517f08c379a000000000000000000000000000000000000000000000000000000000815260040180806020018281038252600d8152602001807f4d757374206265206f776e65720000000000000000000000000000000000000081525060200191505060405180910390fd5b50919050565b34600260008282540192505081905550505600a165627a7a723058202b145491109f0a1e081cdd5c70b63964d470fa73d91c610160f72c6573eff1940029608060405234801561001057600080fd5b5060405160408061047a833981018060405281019080805190602001909291908051906020019092919050505060016000808473ffffffffffffffffffffffffffffffffffffffff1673ffffffffffffffffffffffffffffffffffffffff16815260200190815260200160002060006101000a81548160ff02191690831515021790555080600160006101000a81548173ffffffffffffffffffffffffffffffffffffffff021916908373ffffffffffffffffffffffffffffffffffffffff1602179055505050610394806100e66000396000f300608060405260043610610057576000357c0100000000000000000000000000000000000000000000000000000000900463ffffffff1680632808241e1461005c5780633ff1e05b146100b0578063b6b55f25146100db575b600080fd5b34801561006857600080fd5b50610096600480360381019080803560ff1690602001909291908035151590602001909291905050506100fb565b604051808215151515815260200191505060405180910390f35b3480156100bc57600080fd5b506100c561022a565b6040518082815260200191505060405180910390f35b6100f960048036038101908080359060200190929190505050610355565b005b600033600160009054906101000a900473ffffffffffffffffffffffffffffffffffffffff1673ffffffffffffffffffffffffffffffffffffffff168173ffffffffffffffffffffffffffffffffffffffff1614806101a95750600115156000808373ffffffffffffffffffffffffffffffffffffffff1673ffffffffffffffffffffffffffffffffffffffff16815260200190815260200160002060009054906101000a900460ff161515145b151561021d576040517f08c379a000000000000000000000000000000000000000000000000000000000815260040180806020018281038252600d8152602001807f4d757374206265206f776e65720000000000000000000000000000000000000081525060200191505060405180910390fd5b3360019250505092915050565b600033600160009054906101000a900473ffffffffffffffffffffffffffffffffffffffff1673ffffffffffffffffffffffffffffffffffffffff168173ffffffffffffffffffffffffffffffffffffffff1614806102d85750600115156000808373ffffffffffffffffffffffffffffffffffffffff1673ffffffffffffffffffffffffffffffffffffffff16815260200190815260200160002060009054906101000a900460ff161515145b151561034c576040517f08c379a000000000000000000000000000000000000000000000000000000000815260040180806020018281038252600d8152602001807f4d757374206265206f776e65720000000000000000000000000000000000000081525060200191505060405180910390fd5b60025491505090565b34600260008282540192505081905550505600a165627a7a7230582007f581a8d5b4d932167e74bef3df8ccd19cfc9c651fdbd2cc3296811aa87a8660029a165627a7a723058208f10d92073d787280df301c929808762498c40bc89d7212b2d354d4c978a88740029",
  "source": "pragma solidity ^0.4.24;\r\n\r\nimport \"./AccessAccount.sol\";\r\nimport \"./DelayAccount.sol\";\r\nimport \"./TrustAccount.sol\";\r\n\r\ncontract Bank {\r\n    \r\n    address owner;\r\n    enum AccountType {access, delay, trust}\r\n    //only for access and delay accounts\r\n    struct AccountDetails {\r\n        address owner;\r\n        address bankAccount;\r\n        AccountType typeOfAccount;\r\n    }\r\n    \r\n    mapping (address => AccountDetails) private userWallets;\r\n    mapping(address => bool) userWalletLocks;\r\n    \r\n    event AccessAccountCreated(address _owner, AccountType _accountType, uint _initialBalance);\r\n    event DelayAccountCreated(address _owner, AccountType _accountType, uint _initialBalance);\r\n    event TrustAccountCreated(address _initailOwner, AccountType _accountType, uint _initialBalance);\r\n    event LogEvent(string _pointInCode, address _addressOFContract);\r\n    \r\n    /**\r\n        @param userWallet : the address of the new users wallet.\r\n        @dev Checks the account is not curently busy with a transaction. \r\n            This lock is seporate from locks placed on voting (trust accounts). \r\n    */\r\n    modifier isLocked(address userWallet) {\r\n        require(userWalletLocks[userWallet] != true);\r\n        if(userWallets[userWallet].bankAccount != 0x0){\r\n            if(userWallets[userWallet].typeOfAccount == AccountType.access){\r\n                //access account \r\n                 AccessAccount isLockedAccount = AccessAccount(userWallets[userWallet].bankAccount);\r\n                 require(isLockedAccount.isLocked() != true);\r\n            } else if(userWallets[userWallet].typeOfAccount == AccountType.delay){\r\n                //delay, 30 days, account\r\n                \r\n            } else if(userWallets[userWallet].typeOfAccount == AccountType.trust){\r\n                //trust account\r\n                \r\n            } else {\r\n                //user accoutn not identified\r\n            }\r\n        }\r\n        _;\r\n    }\r\n    \r\n    constructor() \r\n        public\r\n    {\r\n        owner = msg.sender;\r\n    }\r\n    \r\n    /**\r\n     * @param _userWallet : the address of the users account \r\n     * @return address : the address of the users bank account\r\n     * @dev : needs tinkering \r\n     */\r\n    function getBankAccountAddress(address _userWallet)\r\n        public\r\n        view\r\n        returns(address)\r\n    {\r\n        require(msg.sender == owner);\r\n        return userWallets[_userWallet].bankAccount;\r\n    }\r\n    \r\n    /**\r\n        @param _toLock : The address of the user to lock.\r\n        @dev Allows the bank to lock a user durning a transaction. \r\n    */\r\n    function lockAddress(address _toLock)\r\n        internal\r\n        returns(bool)\r\n    {\r\n        require(userWalletLocks[_toLock] == false, \"User wallet already locked\");\r\n        userWalletLocks[_toLock] = true;\r\n        return true;\r\n    }\r\n    \r\n    function unlockUser(address _toUnlock)\r\n        internal\r\n        returns(bool)\r\n    {\r\n        require(userWalletLocks[_toUnlock] == true, \"User wallet aready unlocked\");\r\n        userWalletLocks[_toUnlock] == false;\r\n        //TODO: unlock the linked bank account if it exisits\r\n        return true;\r\n    }\r\n    \r\n    /**\r\n        @param _chosenType : The type of account. \r\n                1 : access account\r\n                2 : delay, or the 30 days withdrawls account\r\n                3 : the shared access trust account\r\n        @dev This function makes the contracts for the users, with \r\n            different data reqirements. \r\n    */\r\n    function createBankAccount(uint8 _chosenType) \r\n        public\r\n        payable\r\n        // isLocked(msg.sender)\r\n        returns(address)    \r\n    {\r\n        uint balance = msg.value;\r\n        if(_chosenType == 1){\r\n            // access account\r\n            address newAccountAddress = new AccessAccount(this, msg.sender);\r\n            AccessAccount accessAccount = AccessAccount(newAccountAddress);\r\n            accessAccount.deposit.value(msg.value)(balance);\r\n            userWallets[msg.sender] = AccountDetails({\r\n                owner: msg.sender,\r\n                bankAccount: newAccountAddress,\r\n                typeOfAccount: AccountType.access\r\n            });\r\n            emit AccessAccountCreated(msg.sender, AccountType.access, balance);\r\n            return newAccountAddress;\r\n            \r\n        } else if(_chosenType == 2){\r\n            //delay, 30 days, account \r\n            address newDelayAccountAddress = new DelayAccount(this, msg.sender);\r\n            DelayAccount delayAccount = DelayAccount(newDelayAccountAddress);\r\n            delayAccount.deposit.value(msg.value)(balance);\r\n            userWallets[msg.sender] = AccountDetails({\r\n                owner: msg.sender,\r\n                bankAccount: newDelayAccountAddress,\r\n                typeOfAccount: AccountType.delay\r\n            });\r\n            emit DelayAccountCreated(msg.sender, AccountType.delay, balance);\r\n            return newDelayAccountAddress;\r\n\r\n        } else if(_chosenType == 3){\r\n            //trust account\r\n            // mapping (address => bool) accountOwners;\r\n            // accountOwners[msg.sender] = true;\r\n            address newTrustAccountAddress = new TrustAccount(msg.sender, this);\r\n            TrustAccount trustAccount = TrustAccount(newTrustAccountAddress);\r\n            trustAccount.deposit.value(msg.value)(balance);\r\n            userWallets[msg.sender] = AccountDetails({\r\n                owner: msg.sender,\r\n                bankAccount: newTrustAccountAddress,\r\n                typeOfAccount: AccountType.trust\r\n            });\r\n            emit TrustAccountCreated(msg.sender, AccountType.trust, balance);\r\n            return newTrustAccountAddress;\r\n\r\n        } else {\r\n        //     //no account was identified\r\n            \r\n        }\r\n        // //TODO: lock users wallet in a function, and \r\n        // //TODO: create a user account with:\r\n        //     //TODO: owner == msg.sender;\r\n        //     //TODO: typeOfAccount == chosenType;\r\n        //     //TODO: add adress of contract to mapping of allBankAccounts;\r\n        //     require(unlockUser(msg.sender));\r\n        //     return 0x0;\r\n        //     LogEvent(\"Failed everthing\", 10, this);\r\n    }\r\n    \r\n    function isAccountFrozen()\r\n        public\r\n        view\r\n        returns(bool)\r\n    {\r\n        return userWalletLocks[msg.sender];\r\n    }\r\n    \r\n    function freezeAccount(address _bankAccounts)\r\n        public\r\n        returns(bool)\r\n    {\r\n        //TODO: require( _bankAccount is real);\r\n        //TODO: require( the msg.sender is an owner\r\n        //TODO: if there are multiple owners then check they have voted\r\n        //TODO: freeze the account\r\n        return true;\r\n    }\r\n    \r\n    function unfreezeAccount(address _bankAccount)\r\n        public\r\n        returns(bool)\r\n    {\r\n        //TODO: require( _bankAccount is real);\r\n        //TODO: require( the msg.sender is an owner\r\n        //TODO: unfreeze the account\r\n        return true;\r\n    }\r\n    \r\n    function changeOwnership(address _newAddress, address _oldAddress)\r\n        public\r\n        returns(bool)\r\n    {\r\n        //TODO: require( _bankAccount is real);\r\n        //TODO: require( the msg.sender is an owner\r\n        //TODO: replace the old user with the new one. \r\n        return true;\r\n    }\r\n    \r\n    //possibly here. Move to actual trust account \r\n    // function addOwner(address newOwner)\r\n    //     public \r\n    //     returns(bool)\r\n    // {\r\n    //     //TODO: if the account type is a multisig continue\r\n    //     //TODO: check the vote has been compleated (2/3 majority)\r\n    //     //TODO: add the new owner if vote majority true.\r\n    //     return true;\r\n    // }\r\n    \r\n    function dissolveAccount(address _fundsReciver) \r\n        public\r\n        isLocked(msg.sender)\r\n        returns(bool)\r\n    {\r\n        require(lockAddress(msg.sender));\r\n        //TODO: check the struct if it has multiple owners. if the number of \r\n        /**\r\n            owners is not more than 2. If it is then it requires multiple \r\n            signatures. Multiple signatues could be done by using a lock \r\n            within the vote preventing you from voting twice in the same vote,\r\n            in this case is wether or not to delete the account and send the \r\n            funds to the _fundsReciver.\r\n        */\r\n            \r\n        //TODO: save remaining funds as temporary variable and remove address \r\n            //from list\r\n        //TODO: delete account \r\n        //TODO: move remaning funds to the fundsReciver\r\n        require(unlockUser(msg.sender));\r\n        return true;\r\n    }\r\n    \r\n    //the bank calls this function if someone has frozen their account and \r\n    //wants to delete becuse the previous one depends on the msg.sender \r\n    function dissolveAccount(address _bankAccount, address _fundsReciver)\r\n            internal\r\n            isLocked(_bankAccount)\r\n            returns(bool)\r\n        {\r\n            require(lockAddress(_bankAccount));\r\n            //TODO: if there are multiple owners then \r\n                //TODO: check that the vote to delete the accout is successful\r\n            //TODO: if its just 2 then just contunue\r\n            //both must get proccessed as following:\r\n            //TODO: save funds as temp\r\n            //TODO: delete account \r\n            //TODO: send funds to address\r\n            return true;\r\n            //account gets locked forever after the account is deleted\r\n        }\r\n}",
  "sourcePath": "C:\\Users\\Veronica Coutts\\Desktop\\Desktop\\Work\\LinumLabs\\PoCBank\\pocbank\\contracts\\Bank.sol",
  "compiler": {
    "name": "solc",
    "version": "0.4.24+commit.e67f0147.Emscripten.clang"
  },
  "schemaVersion": "2.0.1",
  "updatedAt": "2018-09-29T13:05:00.970Z"
}