{
  "contractName": "Bank",
  "abi": [
    {
      "inputs": [],
      "payable": false,
      "stateMutability": "nonpayable",
      "type": "constructor"
    },
    {
      "constant": true,
      "inputs": [
        {
          "name": "_userWallet",
          "type": "address"
        }
      ],
      "name": "getBankAccountAddress",
      "outputs": [
        {
          "name": "",
          "type": "address"
        }
      ],
      "payable": false,
      "stateMutability": "view",
      "type": "function"
    },
    {
      "constant": true,
      "inputs": [
        {
          "name": "_groupNumber",
          "type": "uint256"
        }
      ],
      "name": "getTrustGroupDetails",
      "outputs": [
        {
          "name": "",
          "type": "address[]"
        }
      ],
      "payable": false,
      "stateMutability": "view",
      "type": "function"
    },
    {
      "constant": true,
      "inputs": [
        {
          "name": "_groupNumber",
          "type": "uint256"
        }
      ],
      "name": "getTrustAccountAddress",
      "outputs": [
        {
          "name": "",
          "type": "address"
        }
      ],
      "payable": false,
      "stateMutability": "view",
      "type": "function"
    },
    {
      "constant": false,
      "inputs": [
        {
          "name": "_toLock",
          "type": "address"
        }
      ],
      "name": "lockAddress",
      "outputs": [],
      "payable": false,
      "stateMutability": "nonpayable",
      "type": "function"
    },
    {
      "constant": false,
      "inputs": [
        {
          "name": "_toUnlock",
          "type": "address"
        }
      ],
      "name": "unlockAddress",
      "outputs": [],
      "payable": false,
      "stateMutability": "nonpayable",
      "type": "function"
    },
    {
      "constant": false,
      "inputs": [],
      "name": "createAccessAccount",
      "outputs": [
        {
          "name": "",
          "type": "address"
        }
      ],
      "payable": false,
      "stateMutability": "nonpayable",
      "type": "function"
    },
    {
      "constant": false,
      "inputs": [],
      "name": "creatingDelayAccount",
      "outputs": [
        {
          "name": "",
          "type": "address"
        }
      ],
      "payable": false,
      "stateMutability": "nonpayable",
      "type": "function"
    },
    {
      "constant": false,
      "inputs": [
        {
          "name": "_owners",
          "type": "address[]"
        }
      ],
      "name": "creatingTrustAccount",
      "outputs": [
        {
          "name": "",
          "type": "address"
        }
      ],
      "payable": false,
      "stateMutability": "nonpayable",
      "type": "function"
    },
    {
      "constant": false,
      "inputs": [
        {
          "name": "_owner",
          "type": "address"
        }
      ],
      "name": "lockAccount",
      "outputs": [],
      "payable": false,
      "stateMutability": "nonpayable",
      "type": "function"
    },
    {
      "constant": false,
      "inputs": [
        {
          "name": "_owner",
          "type": "address"
        }
      ],
      "name": "unlockAccount",
      "outputs": [],
      "payable": false,
      "stateMutability": "nonpayable",
      "type": "function"
    },
    {
      "constant": false,
      "inputs": [
        {
          "name": "_trustGroupNumber",
          "type": "uint256"
        }
      ],
      "name": "lockTrustAccount",
      "outputs": [],
      "payable": false,
      "stateMutability": "nonpayable",
      "type": "function"
    },
    {
      "constant": false,
      "inputs": [
        {
          "name": "_trustGroupNumber",
          "type": "uint256"
        }
      ],
      "name": "unlockTrustAccount",
      "outputs": [],
      "payable": false,
      "stateMutability": "nonpayable",
      "type": "function"
    },
    {
      "constant": false,
      "inputs": [
        {
          "name": "_oldAddress",
          "type": "address"
        },
        {
          "name": "_newAddress",
          "type": "address"
        }
      ],
      "name": "changeOwnership",
      "outputs": [],
      "payable": false,
      "stateMutability": "nonpayable",
      "type": "function"
    },
    {
      "constant": false,
      "inputs": [
        {
          "name": "_oldAddress",
          "type": "address"
        },
        {
          "name": "_newAddress",
          "type": "address"
        },
        {
          "name": "_groupNumber",
          "type": "uint256"
        }
      ],
      "name": "changeOwnershipTrustGroup",
      "outputs": [],
      "payable": false,
      "stateMutability": "nonpayable",
      "type": "function"
    },
    {
      "constant": false,
      "inputs": [
        {
          "name": "_newLimit",
          "type": "uint256"
        }
      ],
      "name": "newAccountLimitModifier",
      "outputs": [],
      "payable": false,
      "stateMutability": "nonpayable",
      "type": "function"
    },
    {
      "constant": false,
      "inputs": [
        {
          "name": "_account",
          "type": "address"
        },
        {
          "name": "_newLimit",
          "type": "uint256"
        }
      ],
      "name": "accountLimitModifier",
      "outputs": [],
      "payable": false,
      "stateMutability": "nonpayable",
      "type": "function"
    },
    {
      "constant": false,
      "inputs": [
        {
          "name": "_account",
          "type": "address"
        }
      ],
      "name": "dissolveAccount",
      "outputs": [],
      "payable": false,
      "stateMutability": "nonpayable",
      "type": "function"
    }
  ],
  "bytecode": "0x60806040526000600155619c4060025534801561001b57600080fd5b5060008054600160a060020a03191633179055614d068061003d6000396000f300608060405260043610620001025763ffffffff7c0100000000000000000000000000000000000000000000000000000000600035041663321d25298114620001075780633491b681146200013057806334a90d02146200017057806347a64f4414620001705780635c46be6914620001945780637e7afba61462000201578063905295e3146200021c5780639a17f1d31462000240578063a633f123146200026d578063a85320d31462000285578063b7eb5e0a146200021c578063bad1a14b14620002a0578063bf93a8be14620002bb578063c1cd1d8b14620002e5578063d87c638d14620002fd578063df8a9aff1462000318578063e2a5ae3a1462000370575b600080fd5b3480156200011457600080fd5b506200012e600160a060020a036004351660243562000394565b005b3480156200013d57600080fd5b5062000154600160a060020a036004351662000509565b60408051600160a060020a039092168252519081900360200190f35b3480156200017d57600080fd5b506200012e600160a060020a036004351662000584565b348015620001a157600080fd5b50620001af6004356200066e565b60408051602080825283518183015283519192839290830191858101910280838360005b83811015620001ed578181015183820152602001620001d3565b505050509050019250505060405180910390f35b3480156200020e57600080fd5b506200015460043562000735565b3480156200022957600080fd5b506200012e600160a060020a0360043516620007ad565b3480156200024d57600080fd5b506200012e600160a060020a036004358116906024351660443562000879565b3480156200027a57600080fd5b506200015462000a0c565b3480156200029257600080fd5b506200012e60043562000b38565b348015620002ad57600080fd5b506200012e60043562000c04565b348015620002c857600080fd5b506200012e600160a060020a036004358116906024351662000c61565b348015620002f257600080fd5b506200015462000e5f565b3480156200030a57600080fd5b506200012e60043562000ecc565b3480156200032557600080fd5b5060408051602060048035808201358381028086018501909652808552620001549536959394602494938501929182918501908490808284375094975062000f989650505050505050565b3480156200037d57600080fd5b506200012e600160a060020a0360043516620010a1565b600080548190600160a060020a03163314620003ef576040805160008051602062004c9b8339815191528152602060048201819052602482015260008051602062004cbb833981519152604482015290519081900360640190fd5b83915081600160a060020a03166312065fe06040518163ffffffff167c0100000000000000000000000000000000000000000000000000000000028152600401602060405180830381600087803b1580156200044a57600080fd5b505af11580156200045f573d6000803e3d6000fd5b505050506040513d60208110156200047657600080fd5b505190508281106200048757600080fd5b81600160a060020a03166327ea6f2b846040518263ffffffff167c010000000000000000000000000000000000000000000000000000000002815260040180828152602001915050600060405180830381600087803b158015620004ea57600080fd5b505af1158015620004ff573d6000803e3d6000fd5b5050505050505050565b60008054600160a060020a0316331462000562576040805160008051602062004c9b8339815191528152602060048201819052602482015260008051602062004cbb833981519152604482015290519081900360640190fd5b50600160a060020a039081166000908152600360205260409020600101541690565b600080548190600160a060020a03163314620005df576040805160008051602062004c9b8339815191528152602060048201819052602482015260008051602062004cbb833981519152604482015290519081900360640190fd5b5050600160a060020a038082166000908152600360205260408082206001015481517f62a5af3b0000000000000000000000000000000000000000000000000000000081529151931692839283926362a5af3b926004808301939282900301818387803b1580156200065057600080fd5b505af115801562000665573d6000803e3d6000fd5b50505050505050565b600054606090600160a060020a03163314620006c9576040805160008051602062004c9b8339815191528152602060048201819052602482015260008051602062004cbb833981519152604482015290519081900360640190fd5b600082815260046020908152604091829020805483518184028101840190945280845290918301828280156200072957602002820191906000526020600020905b8154600160a060020a031681526001909101906020018083116200070a575b50505050509050919050565b60008054600160a060020a031633146200078e576040805160008051602062004c9b8339815191528152602060048201819052602482015260008051602062004cbb833981519152604482015290519081900360640190fd5b50600090815260046020526040902060010154600160a060020a031690565b600080548190600160a060020a0316331462000808576040805160008051602062004c9b8339815191528152602060048201819052602482015260008051602062004cbb833981519152604482015290519081900360640190fd5b5050600160a060020a038082166000908152600360205260408082206001015481517ff21cdf6f00000000000000000000000000000000000000000000000000000000815291519316928392839263f21cdf6f926004808301939282900301818387803b1580156200065057600080fd5b600080548190606090600160a060020a03163314620008d7576040805160008051602062004c9b8339815191528152602060048201819052602482015260008051602062004cbb833981519152604482015290519081900360640190fd5b60008481526004602081905260408083206001015481517ff00d4b5d000000000000000000000000000000000000000000000000000000008152600160a060020a038b8116948201949094528984166024820152915192169550859450849263f00d4b5d9260448084019382900301818387803b1580156200095857600080fd5b505af11580156200096d573d6000803e3d6000fd5b505050506040513d6000823e601f3d908101601f1916820160405260208110156200099757600080fd5b810190808051640100000000811115620009b057600080fd5b82016020810184811115620009c457600080fd5b8151856020820283011164010000000082111715620009e257600080fd5b50506000888152600460209081526040909120825192965062000665955093508501915062001172565b60008033600060025462000a1f620011e5565b600160a060020a03841681526020810183600281111562000a3c57fe5b60ff1681526020018281526020019350505050604051809103906000f08015801562000a6c573d6000803e3d6000fd5b5060408051606081018252338152600160a060020a0383166020820152919250810160005b9052336000908152600360209081526040918290208351815473ffffffffffffffffffffffffffffffffffffffff19908116600160a060020a039283161783559285015160018301805490941691161780835592840151909290919074ff000000000000000000000000000000000000000019167401000000000000000000000000000000000000000083600281111562000b2857fe5b02179055509050508091505b5090565b600080548190600160a060020a0316331462000b93576040805160008051602062004c9b8339815191528152602060048201819052602482015260008051602062004cbb833981519152604482015290519081900360640190fd5b505060008181526004602081905260408083206001015481517ff21cdf6f0000000000000000000000000000000000000000000000000000000081529151600160a060020a03909116938493849363f21cdf6f938183019392909182900301818387803b1580156200065057600080fd5b600054600160a060020a0316331462000c5c576040805160008051602062004c9b8339815191528152602060048201819052602482015260008051602062004cbb833981519152604482015290519081900360640190fd5b600255565b600080548190600160a060020a0316331462000cbc576040805160008051602062004c9b8339815191528152602060048201819052602482015260008051602062004cbb833981519152604482015290519081900360640190fd5b600160a060020a038085166000818152600360205260409020549091161462000ce457600080fd5b5050600160a060020a038083166000908152600360205260408082206001015481517fa6f9dae1000000000000000000000000000000000000000000000000000000008152858516600482015291519316928392839263a6f9dae1926024808301939282900301818387803b15801562000d5d57600080fd5b505af115801562000d72573d6000803e3d6000fd5b505050600160a060020a03808516600081815260036020526040808220805473ffffffffffffffffffffffffffffffffffffffff1990811685178255600191820180548a8816921691909117808255958b16845291832001549290915260ff74010000000000000000000000000000000000000000928390041693509174ff000000000000000000000000000000000000000019169083600281111562000e1557fe5b0217905550505050600160a060020a03166000908152600360205260409020805473ffffffffffffffffffffffffffffffffffffffff199081168255600190910180549091169055565b6000803360025462000e70620011f6565b600160a060020a0390921682526020820152604080519182900301906000f08015801562000ea2573d6000803e3d6000fd5b5060408051606081018252338152600160a060020a03831660208201529192508101600162000a91565b600080548190600160a060020a0316331462000f27576040805160008051602062004c9b8339815191528152602060048201819052602482015260008051602062004cbb833981519152604482015290519081900360640190fd5b505060008181526004602081905260408083206001015481517f62a5af3b0000000000000000000000000000000000000000000000000000000081529151600160a060020a0390911693849384936362a5af3b938183019392909182900301818387803b1580156200065057600080fd5b6000808260025462000fa962001207565b60208082018390526040808352845190830152835182916060830191868201910280838360005b8381101562000fea57818101518382015260200162000fd0565b505050509050019350505050604051809103906000f08015801562001013573d6000803e3d6000fd5b50604080518082018252858152600160a060020a0383166020808301919091526001546000908152600482529290922081518051949550919390926200105e92849291019062001172565b50602091909101516001918201805473ffffffffffffffffffffffffffffffffffffffff1916600160a060020a0390921691909117905580548101905592915050565b60008054600160a060020a03163314620010fa576040805160008051602062004c9b8339815191528152602060048201819052602482015260008051602062004cbb833981519152604482015290519081900360640190fd5b81905080600160a060020a0316633bef8a3a6040518163ffffffff167c0100000000000000000000000000000000000000000000000000000000028152600401600060405180830381600087803b1580156200115557600080fd5b505af11580156200116a573d6000803e3d6000fd5b505050505050565b828054828255906000526020600020908101928215620011d7579160200282015b82811115620011d7578251825473ffffffffffffffffffffffffffffffffffffffff1916600160a060020a0390911617825560209092019160019091019062001193565b5062000b3492915062001218565b604051610eec806200125083390190565b604051610fef806200213c83390190565b604051611b70806200312b83390190565b6200124c91905b8082111562000b3457805473ffffffffffffffffffffffffffffffffffffffff191681556001016200121f565b905600608060405234801561001057600080fd5b50604051606080610eec83398101604090815281516020830151919092015160018054600160a060020a038516600160a060020a03199182161790915560008054909116331790556004805483919061ff00191661010083600281111561007357fe5b021790555060038190556004805460ff1916905560408051600160a060020a038516815233602082018190527f4f1a20e20b0b2f3cdc1fcd1d7631e4cb35cadb8c1b8ea065a71a94167adf1e0f928692869181018260028111156100d357fe5b60ff168152602001935050505060405180910390a1505050610df2806100fa6000396000f3006080604052600436106100ae5763ffffffff7c010000000000000000000000000000000000000000000000000000000060003504166312065fe081146100b357806327ea6f2b146100da5780632e1a7d4d146100f45780633bef8a3a1461010c57806362a5af3b146101215780637495b35314610136578063893d20e81461015f578063a6f9dae114610190578063b295a00e146101b1578063d0e30db0146101c6578063f21cdf6f146101ce575b600080fd5b3480156100bf57600080fd5b506100c86101e3565b60408051918252519081900360200190f35b3480156100e657600080fd5b506100f26004356101e9565b005b34801561010057600080fd5b506100f2600435610250565b34801561011857600080fd5b506100f26106a6565b34801561012d57600080fd5b506100f2610783565b34801561014257600080fd5b5061014b61088c565b604080519115158252519081900360200190f35b34801561016b57600080fd5b50610174610895565b60408051600160a060020a039092168252519081900360200190f35b34801561019c57600080fd5b506100f2600160a060020a0360043516610945565b3480156101bd57600080fd5b506100c8610ace565b6100f2610b75565b3480156101da57600080fd5b506100f2610cbc565b60025490565b600054600160a060020a0316331461024b576040805160e560020a62461bcd02815260206004820152601c60248201527f46756e6374696f6e206f6e6c7920757361626c652062792062616e6b00000000604482015290519081900360640190fd5b600355565b600054600160a060020a03163314806102735750600154600160a060020a031633145b15156102ef576040805160e560020a62461bcd02815260206004820152602160248201527f46756e6374696f6e206f6e6c792061636365737369626c65206279206f776e6560448201527f7200000000000000000000000000000000000000000000000000000000000000606482015290519081900360840190fd5b60045460ff161561034a576040805160e560020a62461bcd02815260206004820152601160248201527f4163636f756e742069732066726f7a656e000000000000000000000000000000604482015290519081900360640190fd5b610352610783565b6040805160208082526024908201527f28696e2077697468647261772920616674657220667265657a696e6720616363818301527f6f756e7400000000000000000000000000000000000000000000000000000000606082015290517fb981afc16bc609765b6005bd910c0e9ef3424f3c61a05afcbbf88d11f414669d9181900360800190a16000600454610100900460ff1660028111156103f057fe5b1461046b576040805160e560020a62461bcd02815260206004820152602e60248201527f506c65617365207573652077697468647261772066756e6374696f6e20696e2060448201527f6368696c6420636f6e7472616374000000000000000000000000000000000000606482015290519081900360840190fd5b604080516020808252602b908201527f28616674657220312072657175697265292061667465722074727573742f6465818301527f6c61792072657175697265000000000000000000000000000000000000000000606082015290517fb981afc16bc609765b6005bd910c0e9ef3424f3c61a05afcbbf88d11f414669d9181900360800190a1600254811115610571576040805160e560020a62461bcd02815260206004820152602960248201527f43616e6e6f74207769746864726177206d6f72652066756e6473207468616e2060448201527f617661696c61626c650000000000000000000000000000000000000000000000606482015290519081900360840190fd5b604080516020808252603b908201527f286166746572203220726571756972652920616674657220616d6f756e742067818301527f65747320636865636b656420616761696e73742062616c616e63650000000000606082015290517fb981afc16bc609765b6005bd910c0e9ef3424f3c61a05afcbbf88d11f414669d9181900360800190a1600280548290039055600154604051600160a060020a039091169082156108fc029083906000818181858888f1935050505015801561063a573d6000803e3d6000fd5b50604080516020808252601b908201527f2829206166746572207472616e73666572696e6720616d6f756e7400000000008183015290517fb981afc16bc609765b6005bd910c0e9ef3424f3c61a05afcbbf88d11f414669d9181900360600190a16106a3610cbc565b50565b600054600160a060020a03163314610708576040805160e560020a62461bcd02815260206004820152601c60248201527f46756e6374696f6e206f6e6c7920757361626c652062792062616e6b00000000604482015290519081900360640190fd5b6004805460ff191660011790556040805160208082526010908201527f2861636365737329206469736f6c7665000000000000000000000000000000008183015290517f6a42c50d3ee00b78df9f99768064c629066807b2ab738674e00b018c696be3789181900360600190a1600154600160a060020a0316ff5b600054600160a060020a03163314806107a65750600154600160a060020a031633145b1515610822576040805160e560020a62461bcd02815260206004820152602160248201527f46756e6374696f6e206f6e6c792061636365737369626c65206279206f776e6560448201527f7200000000000000000000000000000000000000000000000000000000000000606482015290519081900360840190fd5b60045460ff161561087d576040805160e560020a62461bcd02815260206004820152601160248201527f4163636f756e742069732066726f7a656e000000000000000000000000000000604482015290519081900360640190fd5b6004805460ff19166001179055565b60045460ff1690565b60008054600160a060020a03163314806108b95750600154600160a060020a031633145b1515610935576040805160e560020a62461bcd02815260206004820152602160248201527f46756e6374696f6e206f6e6c792061636365737369626c65206279206f776e6560448201527f7200000000000000000000000000000000000000000000000000000000000000606482015290519081900360840190fd5b50600154600160a060020a031690565b600054600160a060020a031633146109a7576040805160e560020a62461bcd02815260206004820152601c60248201527f46756e6374696f6e206f6e6c7920757361626c652062792062616e6b00000000604482015290519081900360640190fd5b60045460ff1615610a02576040805160e560020a62461bcd02815260206004820152601160248201527f4163636f756e742069732066726f7a656e000000000000000000000000000000604482015290519081900360640190fd5b610a0a610783565b6002600454610100900460ff166002811115610a2257fe5b1415610a9e576040805160e560020a62461bcd02815260206004820152603160248201527f506c6561736520757365206368616e67654f776e65722066756e6374696f6e2060448201527f696e20747275737420636f6e7472616374000000000000000000000000000000606482015290519081900360840190fd5b6001805473ffffffffffffffffffffffffffffffffffffffff1916600160a060020a0383161790556106a3610cbc565b60008054600160a060020a0316331480610af25750600154600160a060020a031633145b1515610b6e576040805160e560020a62461bcd02815260206004820152602160248201527f46756e6374696f6e206f6e6c792061636365737369626c65206279206f776e6560448201527f7200000000000000000000000000000000000000000000000000000000000000606482015290519081900360840190fd5b5060035490565b60045460ff1615610bd0576040805160e560020a62461bcd02815260206004820152601160248201527f4163636f756e742069732066726f7a656e000000000000000000000000000000604482015290519081900360640190fd5b60003460025401111515610c54576040805160e560020a62461bcd02815260206004820152602260248201527f56616c75652063616e6e6f74206d616b652062616c616e6365206e656761746960448201527f7665000000000000000000000000000000000000000000000000000000000000606482015290519081900360840190fd5b60035460025434011115610cb2576040805160e560020a62461bcd02815260206004820181905260248201527f4465706f7369742074616b6573206163636f756e74206f766572206c696d6974604482015290519081900360640190fd5b6002805434019055565b600054600160a060020a0316331480610cdf5750600154600160a060020a031633145b1515610d5b576040805160e560020a62461bcd02815260206004820152602160248201527f46756e6374696f6e206f6e6c792061636365737369626c65206279206f776e6560448201527f7200000000000000000000000000000000000000000000000000000000000000606482015290519081900360840190fd5b60045460ff161515600114610dba576040805160e560020a62461bcd02815260206004820152601860248201527f4163636f756e7420616c726561647920756e66726f7a656e0000000000000000604482015290519081900360640190fd5b6004805460ff191690555600a165627a7a72305820d6c5c12e0f208dfd6a76075d896591b901b0f7b80bbdcf0ce87ff37d5db9ce4200296080604052600160055534801561001557600080fd5b50604051604080610fef833981016040818152825160209384015160018054600160a060020a0319908116600160a060020a0385169081178355600080543393168317905560048054600386905560ff1961010061ff00199092169190911716905586529585019590955282840185905291519093919284929184917f4f1a20e20b0b2f3cdc1fcd1d7631e4cb35cadb8c1b8ea065a71a94167adf1e0f919081900360600190a1505060018054600160a060020a038516600160a060020a0319918216811783556000805490921633908117909255600385905560408051918252602082019290925280820192909252517fba30745a905aaced99b2fceb5b3ee14d5a7bbba87b3dfc68846c48c6a534966492509081900360600190a15050610eac806101436000396000f3006080604052600436106100b95763ffffffff7c010000000000000000000000000000000000000000000000000000000060003504166312065fe081146100be57806327ea6f2b146100e55780632e1a7d4d146100ff5780633bef8a3a1461011757806362a5af3b1461012c5780637495b35314610141578063893d20e81461016a578063a6f9dae11461019b578063b295a00e146101bc578063ccc143b8146101d1578063d0e30db0146101f5578063f21cdf6f146101fd575b600080fd5b3480156100ca57600080fd5b506100d3610212565b60408051918252519081900360200190f35b3480156100f157600080fd5b506100fd600435610218565b005b34801561010b57600080fd5b506100fd60043561027f565b34801561012357600080fd5b506100fd610561565b34801561013857600080fd5b506100fd61063e565b34801561014d57600080fd5b50610156610747565b604080519115158252519081900360200190f35b34801561017657600080fd5b5061017f610750565b60408051600160a060020a039092168252519081900360200190f35b3480156101a757600080fd5b506100fd600160a060020a0360043516610800565b3480156101c857600080fd5b506100d361098c565b3480156101dd57600080fd5b506100d3600435600160a060020a0360243516610a33565b6100fd610c2f565b34801561020957600080fd5b506100fd610d76565b60025490565b600054600160a060020a0316331461027a576040805160e560020a62461bcd02815260206004820152601c60248201527f46756e6374696f6e206f6e6c7920757361626c652062792062616e6b00000000604482015290519081900360640190fd5b600355565b600080548190600160a060020a03163314806102a55750600154600160a060020a031633145b1515610321576040805160e560020a62461bcd02815260206004820152602160248201527f46756e6374696f6e206f6e6c792061636365737369626c65206279206f776e6560448201527f7200000000000000000000000000000000000000000000000000000000000000606482015290519081900360840190fd5b60045460ff161561037c576040805160e560020a62461bcd02815260206004820152601160248201527f4163636f756e742069732066726f7a656e000000000000000000000000000000604482015290519081900360640190fd5b61038461063e565b6005548311156103de576040805160e560020a62461bcd02815260206004820152601660248201527f4e6f207375636820726571756573742065786973747300000000000000000000604482015290519081900360640190fd5b60008381526006602052604090205491504262278d0083011061044b576040805160e560020a62461bcd02815260206004820152601760248201527f333020646179732068617665206e6f7420706173736564000000000000000000604482015290519081900360640190fd5b60008381526006602052604090206002015474010000000000000000000000000000000000000000900460ff16156104cd576040805160e560020a62461bcd02815260206004820152601d60248201527f416d6f756e7420616c7265616479206265656e2077697468647261776e000000604482015290519081900360640190fd5b5060008281526006602052604080822060028101805474ff00000000000000000000000000000000000000001916740100000000000000000000000000000000000000001790819055600191909101549151600160a060020a0390911692839280156108fc02929091818181858888f19350505050158015610553573d6000803e3d6000fd5b5061055c610d76565b505050565b600054600160a060020a031633146105c3576040805160e560020a62461bcd02815260206004820152601c60248201527f46756e6374696f6e206f6e6c7920757361626c652062792062616e6b00000000604482015290519081900360640190fd5b6004805460ff191660011790556040805160208082526010908201527f2861636365737329206469736f6c7665000000000000000000000000000000008183015290517f6a42c50d3ee00b78df9f99768064c629066807b2ab738674e00b018c696be3789181900360600190a1600154600160a060020a0316ff5b600054600160a060020a03163314806106615750600154600160a060020a031633145b15156106dd576040805160e560020a62461bcd02815260206004820152602160248201527f46756e6374696f6e206f6e6c792061636365737369626c65206279206f776e6560448201527f7200000000000000000000000000000000000000000000000000000000000000606482015290519081900360840190fd5b60045460ff1615610738576040805160e560020a62461bcd02815260206004820152601160248201527f4163636f756e742069732066726f7a656e000000000000000000000000000000604482015290519081900360640190fd5b6004805460ff19166001179055565b60045460ff1690565b60008054600160a060020a03163314806107745750600154600160a060020a031633145b15156107f0576040805160e560020a62461bcd02815260206004820152602160248201527f46756e6374696f6e206f6e6c792061636365737369626c65206279206f776e6560448201527f7200000000000000000000000000000000000000000000000000000000000000606482015290519081900360840190fd5b50600154600160a060020a031690565b600054600160a060020a03163314610862576040805160e560020a62461bcd02815260206004820152601c60248201527f46756e6374696f6e206f6e6c7920757361626c652062792062616e6b00000000604482015290519081900360640190fd5b60045460ff16156108bd576040805160e560020a62461bcd02815260206004820152601160248201527f4163636f756e742069732066726f7a656e000000000000000000000000000000604482015290519081900360640190fd5b6108c561063e565b6002600454610100900460ff1660028111156108dd57fe5b1415610959576040805160e560020a62461bcd02815260206004820152603160248201527f506c6561736520757365206368616e67654f776e65722066756e6374696f6e2060448201527f696e20747275737420636f6e7472616374000000000000000000000000000000606482015290519081900360840190fd5b6001805473ffffffffffffffffffffffffffffffffffffffff1916600160a060020a038316179055610989610d76565b50565b60008054600160a060020a03163314806109b05750600154600160a060020a031633145b1515610a2c576040805160e560020a62461bcd02815260206004820152602160248201527f46756e6374696f6e206f6e6c792061636365737369626c65206279206f776e6560448201527f7200000000000000000000000000000000000000000000000000000000000000606482015290519081900360840190fd5b5060035490565b600080548190600160a060020a0316331480610a595750600154600160a060020a031633145b1515610ad5576040805160e560020a62461bcd02815260206004820152602160248201527f46756e6374696f6e206f6e6c792061636365737369626c65206279206f776e6560448201527f7200000000000000000000000000000000000000000000000000000000000000606482015290519081900360840190fd5b610add61063e565b600254841115610b5d576040805160e560020a62461bcd02815260206004820152602160248201527f43616e6e6f74207769746864726177206d6f7265207468616e2062616c616e6360448201527f6500000000000000000000000000000000000000000000000000000000000000606482015290519081900360840190fd5b506005805460018082018355604080516080810182524281526020808201898152600160a060020a03808a168486019081526000606086018181528982526006909552959095209351845590519483019490945591516002918201805493511515740100000000000000000000000000000000000000000274ff0000000000000000000000000000000000000000199290951673ffffffffffffffffffffffffffffffffffffffff199094169390931716929092179055918190558154859003909155610c28610d76565b9392505050565b60045460ff1615610c8a576040805160e560020a62461bcd02815260206004820152601160248201527f4163636f756e742069732066726f7a656e000000000000000000000000000000604482015290519081900360640190fd5b60003460025401111515610d0e576040805160e560020a62461bcd02815260206004820152602260248201527f56616c75652063616e6e6f74206d616b652062616c616e6365206e656761746960448201527f7665000000000000000000000000000000000000000000000000000000000000606482015290519081900360840190fd5b60035460025434011115610d6c576040805160e560020a62461bcd02815260206004820181905260248201527f4465706f7369742074616b6573206163636f756e74206f766572206c696d6974604482015290519081900360640190fd5b6002805434019055565b600054600160a060020a0316331480610d995750600154600160a060020a031633145b1515610e15576040805160e560020a62461bcd02815260206004820152602160248201527f46756e6374696f6e206f6e6c792061636365737369626c65206279206f776e6560448201527f7200000000000000000000000000000000000000000000000000000000000000606482015290519081900360840190fd5b60045460ff161515600114610e74576040805160e560020a62461bcd02815260206004820152601860248201527f4163636f756e7420616c726561647920756e66726f7a656e0000000000000000604482015290519081900360640190fd5b6004805460ff191690555600a165627a7a72305820285c90b54e8bfad14e753b104d7769bdfb08bf35780ffb31b9f1523601c6e7ca002960806040526000600655600060075534801561001a57600080fd5b50604051611b70380380611b7083398101604081815282516020808501516001805433600160a060020a03199182168117909255600080549091168217815560048054600385905561ff0019166102001760ff191690558187529286018190526002858701819052945193909601959094919384939192909186917f4f1a20e20b0b2f3cdc1fcd1d7631e4cb35cadb8c1b8ea065a71a94167adf1e0f916060918190039190910190a150506001805433600160a060020a031991821681179092556000805490911690911781556003859055855193509150505b818110156101c55780600b6000868481518110151561010f57fe5b90602001906020020151600160a060020a0316600160a060020a03168152602001908152602001600020819055506040805190810160405280600115158152602001858381518110151561015f57fe5b6020908102909101810151600160a060020a039081169092526000848152600a8252604090208351815494909201519092166101000261010060a860020a031991151560ff199094169390931716919091179055600680546001908101909155016100f4565b7f3a650401d4f28871cc7011cf20e98637ced898f0c304280307332b3bfc947f67843385604051808060200184600160a060020a0316600160a060020a03168152602001838152602001828103825285818151815260200191508051906020019060200280838360005b8381101561024757818101518382015260200161022f565b5050505090500194505050505060405180910390a1505050506119018061026f6000396000f3006080604052600436106101275763ffffffff7c01000000000000000000000000000000000000000000000000000000006000350416630f0b56d4811461012c57806312065fe0146101495780631ccfb02f146101705780631ce26ecd1461019757806323f001ae146101ac578063246f8b961461019757806327ea6f2b146101c45780632e1a7d4d146101dc578063397a1b28146101f45780633bef8a3a1461021857806362a5af3b1461022d5780637495b35314610242578063839d04d814610197578063893d20e81461026b578063a6f9dae11461029c578063b295a00e146102bd578063b3d8e1fc14610197578063bdb5fd99146102d2578063d0e30db0146102ef578063f00d4b5d146102f7578063f21cdf6f1461036e578063f9d5ee7514610383575b600080fd5b34801561013857600080fd5b5061014760ff600435166103ec565b005b34801561015557600080fd5b5061015e610408565b60408051918252519081900360200190f35b34801561017c57600080fd5b50610147600160a060020a036004358116906024351661040e565b3480156101a357600080fd5b50610147610529565b3480156101b857600080fd5b506101476004356105b2565b3480156101d057600080fd5b50610147600435610848565b3480156101e857600080fd5b506101476004356108af565b34801561020057600080fd5b5061015e600160a060020a0360043516602435610b19565b34801561022457600080fd5b50610147610c0f565b34801561023957600080fd5b50610147610dad565b34801561024e57600080fd5b50610257610e36565b604080519115158252519081900360200190f35b34801561027757600080fd5b50610280610e3f565b60408051600160a060020a039092168252519081900360200190f35b3480156102a857600080fd5b50610147600160a060020a0360043516610e7f565b3480156102c957600080fd5b5061015e610ff6565b3480156102de57600080fd5b50610147600435602435151561102d565b610147611111565b34801561030357600080fd5b5061031e600160a060020a0360043581169060243516611246565b60408051602080825283518183015283519192839290830191858101910280838360005b8381101561035a578181015183820152602001610342565b505050509050019250505060405180910390f35b34801561037a57600080fd5b50610147611509565b34801561038f57600080fd5b5061039b6004356115a5565b604051808760038111156103ab57fe5b60ff168152602081019690965250604080860194909452600160a060020a03928316606086015291166080840152151560a0830152519081900360c0019150f35b60038160038111156103fa57fe5b141561040557600080fd5b50565b60025490565b336000908152600b6020908152604080832054808452600a9092529091205460ff16151560011461043e57600080fd5b60045460ff1615610487576040805160e560020a62461bcd02815260206004820152601160248201526000805160206118b6833981519152604482015290519081900360640190fd5b61048f610dad565b600160a060020a0383166000908152600b60209081526040808320548352600a90915290205460ff16151561050e576040805160e560020a62461bcd02815260206004820152601e60248201527f43757272656e742061646472657373206e6f74207265636f676e697365640000604482015290519081900360640190fd5b61051c6002848460006115f1565b610524611509565b505050565b336000908152600b6020908152604080832054808452600a9092529091205460ff16151560011461055957600080fd5b60045460ff16156105a2576040805160e560020a62461bcd02815260206004820152601160248201526000805160206118b6833981519152604482015290519081900360640190fd5b6105aa610dad565b610405611509565b336000908152600b6020908152604080832054808452600a9092529091205460ff1615156001146105e257600080fd5b60045460ff161561062b576040805160e560020a62461bcd02815260206004820152601160248201526000805160206118b6833981519152604482015290519081900360640190fd5b610633610dad565b60008281526008602052604090206003015442116106c1576040805160e560020a62461bcd02815260206004820152603160248201527f566f74696e672074696d6520686173206e6f7420656e6465642e20506c65617360448201527f652074727920616761696e206c61746572000000000000000000000000000000606482015290519081900360840190fd5b60008281526008602052604090206007015460ff161561072b576040805160e560020a62461bcd02815260206004820181905260248201527f57697468647261772068617320616c72656164792074616b656e20706c616365604482015290519081900360640190fd5b600082815260086020908152604080832060040154600160a060020a03168352600b8252808320548352600a90915290205460ff16151561076b57600080fd5b610774826118af565b151561077f57600080fd5b600082815260086020908152604080832060040154600160a060020a03168352600b8252808320548352600a90915290205460ff1615156107bf57600080fd5b6000828152600860209081526040808320600781018054600160ff1991821617909155600482018054600160a060020a039081168752600b808752858820548852600a87528588208054909416909355815481168752919094528285205460059092015481168552828520919091559154909116825290206103e79055610844611509565b5050565b600054600160a060020a031633146108aa576040805160e560020a62461bcd02815260206004820152601c60248201527f46756e6374696f6e206f6e6c7920757361626c652062792062616e6b00000000604482015290519081900360640190fd5b600355565b336000908152600b6020908152604080832054808452600a9092529091205460ff1615156001146108df57600080fd5b60045460ff1615610928576040805160e560020a62461bcd02815260206004820152601160248201526000805160206118b6833981519152604482015290519081900360640190fd5b610930610dad565b60008281526008602052604090206003015442116109be576040805160e560020a62461bcd02815260206004820152603160248201527f566f74696e672074696d6520686173206e6f7420656e6465642e20506c65617360448201527f652074727920616761696e206c61746572000000000000000000000000000000606482015290519081900360840190fd5b60008281526008602052604090206007015460ff1615610a28576040805160e560020a62461bcd02815260206004820181905260248201527f57697468647261772068617320616c72656164792074616b656e20706c616365604482015290519081900360640190fd5b60025460008381526008602052604090206006015410610a92576040805160e560020a62461bcd02815260206004820152601160248201527f496e737566666963656e742066756e6473000000000000000000000000000000604482015290519081900360640190fd5b610a9b826118af565b1515610aa657600080fd5b60008281526008602052604080822060078101805460ff191660011790556006810180546002805491909103905560049091015490549151600160a060020a039091169282156108fc02929190818181858888f19350505050158015610b10573d6000803e3d6000fd5b50610844611509565b336000908152600b6020908152604080832054808452600a90925282205460ff161515600114610b4857600080fd5b60045460ff1615610b91576040805160e560020a62461bcd02815260206004820152601160248201526000805160206118b6833981519152604482015290519081900360640190fd5b610b99610dad565b6002548310610bf2576040805160e560020a62461bcd02815260206004820152601f60248201527f43616e6e6f74207769746864726177206d6f7265207468616e206f776e656400604482015290519081900360640190fd5b610c006003856000866115f1565b610c08611509565b5092915050565b600080548190600160a060020a03163314610c74576040805160e560020a62461bcd02815260206004820152601c60248201527f46756e6374696f6e206f6e6c7920757361626c652062792062616e6b00000000604482015290519081900360640190fd5b6040805160208082526012908201527f696e206469736f6c7665202874727573742900000000000000000000000000008183015290517f6a42c50d3ee00b78df9f99768064c629066807b2ab738674e00b018c696be3789181900360600190a16004805460ff19166001179055600554600254811515610cf057fe5b604080516020808252600f908201527f76616c756520706572206f776e657200000000000000000000000000000000008183015290519290910493507f6a42c50d3ee00b78df9f99768064c629066807b2ab738674e00b018c696be378919081900360600190a16040805183815290517ffcf771399d75a67a6d0e730ae98d34c40b6bfe6ebf8053b98ddf4da8c27062509181900360200190a15060005b6005548111610d9f57600101610d8e565b600054600160a060020a0316ff5b336000908152600b6020908152604080832054808452600a9092529091205460ff161515600114610ddd57600080fd5b60045460ff1615610e26576040805160e560020a62461bcd02815260206004820152601160248201526000805160206118b6833981519152604482015290519081900360640190fd5b506004805460ff19166001179055565b60045460ff1690565b336000908152600b6020908152604080832054808452600a90925282205460ff161515600114610e6e57600080fd5b5050600154600160a060020a031690565b600054600160a060020a03163314610ee1576040805160e560020a62461bcd02815260206004820152601c60248201527f46756e6374696f6e206f6e6c7920757361626c652062792062616e6b00000000604482015290519081900360640190fd5b60045460ff1615610f2a576040805160e560020a62461bcd02815260206004820152601160248201526000805160206118b6833981519152604482015290519081900360640190fd5b610f32610dad565b6002600454610100900460ff166002811115610f4a57fe5b1415610fc6576040805160e560020a62461bcd02815260206004820152603160248201527f506c6561736520757365206368616e67654f776e65722066756e6374696f6e2060448201527f696e20747275737420636f6e7472616374000000000000000000000000000000606482015290519081900360840190fd5b6001805473ffffffffffffffffffffffffffffffffffffffff1916600160a060020a038316179055610405611509565b336000908152600b6020908152604080832054808452600a90925282205460ff16151560011461102557600080fd5b505060035490565b336000908152600b6020908152604080832054808452600a9092529091205460ff16151560011461105d57600080fd5b50600082815260096020908152604080832081516060810183523381529415158584019081529185019586528054600181810183559185529290932093516002909202909301805493511515740100000000000000000000000000000000000000000274ff000000000000000000000000000000000000000019600160a060020a039390931673ffffffffffffffffffffffffffffffffffffffff1990951694909417919091169290921782559151910155565b60045460ff161561115a576040805160e560020a62461bcd02815260206004820152601160248201526000805160206118b6833981519152604482015290519081900360640190fd5b600034600254011115156111de576040805160e560020a62461bcd02815260206004820152602260248201527f56616c75652063616e6e6f74206d616b652062616c616e6365206e656761746960448201527f7665000000000000000000000000000000000000000000000000000000000000606482015290519081900360840190fd5b6003546002543401111561123c576040805160e560020a62461bcd02815260206004820181905260248201527f4465706f7369742074616b6573206163636f756e74206f766572206c696d6974604482015290519081900360640190fd5b6002805434019055565b336000908152600b6020908152604080832054808452600a90925282205460609291829160ff16151560011461127b57600080fd5b60045460ff16156112c4576040805160e560020a62461bcd02815260206004820152601160248201526000805160206118b6833981519152604482015290519081900360640190fd5b6112cc610dad565b60065492505b60008311156113d7576000838152600a6020526040902054600160a060020a038781166101009092041614156113cb576000838152600a602052604090205460ff16151560011461136d576040805160e560020a62461bcd02815260206004820152601360248201527f4f776e6572206973206e6f742061637469766500000000000000000000000000604482015290519081900360640190fd5b60008310156113c6576040805160e560020a62461bcd02815260206004820152601d60248201527f46756e6374696f6e206f6e6c7920757361626c65206279206f776e6572000000604482015290519081900360640190fd5b6113d7565b600019909201916112d2565b60065491505b600082111561149b576000828152600a6020526040902054600160a060020a0387811661010090920416141561148f576000828152600a602052604090208054600174ffffffffffffffffffffffffffffffffffffffff0019909116610100600160a060020a038916021760ff1916179055600580548691908490811061146057fe5b9060005260206000200160006101000a815481600160a060020a030219169083600160a060020a031602179055505b600019909101906113dd565b6114a3611509565b60058054806020026020016040519081016040528092919081815260200182805480156114f957602002820191906000526020600020905b8154600160a060020a031681526001909101906020018083116114db575b5050505050935050505092915050565b336000908152600b6020908152604080832054808452600a9092529091205460ff16151560011461153957600080fd5b60045460ff161515600114611598576040805160e560020a62461bcd02815260206004820152601860248201527f4163636f756e7420616c726561647920756e66726f7a656e0000000000000000604482015290519081900360640190fd5b506004805460ff19169055565b60009081526008602052604090206001810154600282015460038301546004840154600585015460079095015460ff9485169693959294600160a060020a039283169492909316921690565b336000908152600b6020908152604080832054808452600a9092529091205460ff16151560011461162157600080fd5b600085600381111561162f57fe5b14806116465750600185600381111561164457fe5b145b8061165c5750600285600381111561165a57fe5b145b156117875761010060405190810160405280600754815260200186600381111561168257fe5b81524260208083018290526203f480909101604080840191909152600160a060020a03808916606085015287166080840152600060a0840181905260c0909301839052600754835260088252909120825181559082015160018281018054909160ff19909116908360038111156116f557fe5b021790555060408201516002820155606082015160038201556080820151600482018054600160a060020a0392831673ffffffffffffffffffffffffffffffffffffffff199182161790915560a084015160058401805491909316911617905560c0820151600682015560e0909101516007918201805491151560ff19909216919091179055805460010190556118a8565b6101006040519081016040528060075481526020018660038111156117a857fe5b81524260208083018290526203f480909101604080840191909152600160a060020a038816606084015260006080840181905260a0840187905260c0909301839052600754835260088252909120825181559082015160018281018054909160ff199091169083600381111561181a57fe5b021790555060408201516002820155606082015160038201556080820151600482018054600160a060020a0392831673ffffffffffffffffffffffffffffffffffffffff199182161790915560a084015160058401805491909316911617905560c0820151600682015560e0909101516007918201805491151560ff19909216919091179055805460010190555b5050505050565b5060019056004163636f756e742069732066726f7a656e000000000000000000000000000000a165627a7a72305820a58953a3a9d57aaaa21bfa4e0d75a397d64e0808ab65e02393df3cf959823846002908c379a00000000000000000000000000000000000000000000000000000000046756e6374696f6e206f6e6c7920616363657369626c79206279206f776e6572a165627a7a723058201812fa114c6829b4a5d978ae9a6f94c4082a1d21071749d6fdf9381729edb7750029",
  "source": "pragma solidity ^0.4.24;\r\n\r\nimport \"./AccessAccount.sol\";\r\nimport \"./DelayAccount.sol\";\r\nimport \"./TrustAccount.sol\";\r\n\r\ncontract Bank {\r\n    address owner;\r\n    //the counter for trust groups\r\n    uint trustGroupNumbers = 0;\r\n    //the limit for all accounts\r\n    uint limit = 40000;\r\n    //the data stored for access and delay accounts\r\n    struct AccountDetails {\r\n        address owner;\r\n        address bankAccount;\r\n        AccessAccount.AccountType typeOfAccount;\r\n    }\r\n    //the data stored for trust accounts\r\n    struct TrustGroupDetails {\r\n        address[] owners;\r\n        address bankAccount;\r\n    }\r\n    //user wallets to their account details \r\n    mapping(address => AccountDetails) userWallets;\r\n    //trust group numbers to their information\r\n    mapping(uint => TrustGroupDetails) trustGroups; \r\n\r\n    /**\r\n        @param userWallet : the address of the new users wallet.\r\n        @dev Checks the account is not curently busy with a transaction. \r\n            This lock is seporate from locks placed on voting (trust accounts). \r\n    */\r\n    modifier isLocked(address userWallet) {\r\n        address usersAccountAddress = userWallets[userWallet].bankAccount;\r\n        AccessAccount usersAccount = AccessAccount(usersAccountAddress);\r\n        require(usersAccount.getFrozen() == false);\r\n        _;\r\n    }\r\n\r\n    /** \r\n      * @dev checks the address is the bank owner.\r\n      */\r\n    modifier isOwner(){\r\n        require(msg.sender == owner, \"Function only accesibly by owner\");\r\n        _;\r\n    }\r\n\r\n    constructor()\r\n        public\r\n    {\r\n        owner = msg.sender;\r\n    }\r\n\r\n    /**\r\n     * @param _userWallet : the address of the users account \r\n     * @return address : the address of the users bank account\r\n     * @dev : needs tinkering \r\n     */\r\n    function getBankAccountAddress(address _userWallet)\r\n        public\r\n        view\r\n        isOwner()\r\n        returns(address)\r\n    {\r\n        return userWallets[_userWallet].bankAccount;\r\n    }\r\n\r\n    function getTrustGroupDetails(uint _groupNumber)\r\n        public\r\n        view\r\n        isOwner()\r\n        returns(address[])\r\n    {\r\n        return trustGroups[_groupNumber].owners;\r\n    }\r\n\r\n    function getTrustAccountAddress(uint _groupNumber)\r\n        public\r\n        view\r\n        isOwner()\r\n        returns(address)\r\n    {\r\n        return trustGroups[_groupNumber].bankAccount;\r\n    }\r\n\r\n    /**\r\n        @param _toLock : The address of the user to lock.\r\n        @dev Allows the bank to lock a user durning a transaction. \r\n    */\r\n    function lockAddress(address _toLock)\r\n        public\r\n        isOwner()\r\n    {\r\n        address usersAccountAddress = userWallets[_toLock].bankAccount;\r\n        AccessAccount usersAccount = AccessAccount(usersAccountAddress);\r\n        usersAccount.freeze();\r\n    }\r\n\r\n    function unlockAddress(address _toUnlock)\r\n        public\r\n        isOwner()\r\n    {\r\n        address usersAccountAddress = userWallets[_toUnlock].bankAccount;\r\n        AccessAccount usersAccount = AccessAccount(usersAccountAddress);\r\n        usersAccount.defrost();\r\n    }\r\n\r\n    /**\r\n      * @dev the user can only have one account on the system at a time, but in a future version \r\n      *     the userWallet[] could be linked to an array of accounts instead of a single account. \r\n      *     E.G: mapping(address => AccountDetails[]) userWallets;\r\n      */\r\n    function createAccessAccount()\r\n        public\r\n        returns(address)\r\n    {   \r\n        address newAccountAddress = new AccessAccount(msg.sender, AccessAccount.AccountType.access, limit);\r\n        \r\n        userWallets[msg.sender] = AccountDetails({\r\n            owner: msg.sender,\r\n            bankAccount: newAccountAddress,\r\n            typeOfAccount: AccessAccount.AccountType.access\r\n        });\r\n\r\n        return newAccountAddress;\r\n    }\r\n\r\n    /**\r\n      * @dev if a user already has an account then the new account will override their \r\n      *     current account and it will be lost. This is for a proof of consept and\r\n      *     not an alpha, and therfore this functionality was left out. \r\n      */\r\n    function creatingDelayAccount()\r\n        public\r\n        returns(address)\r\n    {\r\n        address newDelayAccountAddress = new DelayAccount(msg.sender, limit);\r\n        userWallets[msg.sender] = AccountDetails({\r\n            owner: msg.sender,\r\n            bankAccount: newDelayAccountAddress,\r\n            typeOfAccount: AccessAccount.AccountType.delay\r\n        });\r\n\r\n        return newDelayAccountAddress;\r\n    }\r\n\r\n    /**\r\n      * @param _owners : the owners of the trust account\r\n      * @dev \r\n      */\r\n    function creatingTrustAccount(address[] _owners)\r\n        public\r\n        returns(address)\r\n    {\r\n        address newTrustAccountAddress = new TrustAccount(_owners, limit);\r\n        trustGroups[trustGroupNumbers] = TrustGroupDetails({\r\n            owners: _owners,\r\n            bankAccount: newTrustAccountAddress\r\n        });\r\n        trustGroupNumbers++;\r\n        return newTrustAccountAddress;\r\n    }\r\n\r\n    function lockAccount(address _owner)\r\n        public\r\n        isOwner()\r\n    {\r\n        address accountAddress = userWallets[_owner].bankAccount;\r\n        AccessAccount account = AccessAccount(accountAddress);\r\n        account.freeze();\r\n    }\r\n\r\n    function unlockAccount(address _owner)\r\n        public\r\n        isOwner()\r\n    {\r\n        address accountAddress = userWallets[_owner].bankAccount;\r\n        AccessAccount account = AccessAccount(accountAddress);\r\n        account.defrost();\r\n    }\r\n\r\n    function lockTrustAccount(uint _trustGroupNumber)\r\n        public\r\n        isOwner()\r\n    {\r\n        address accountAddress = trustGroups[_trustGroupNumber].bankAccount;\r\n        TrustAccount account = TrustAccount(accountAddress);\r\n        account.freeze();\r\n    }\r\n\r\n    function unlockTrustAccount(uint _trustGroupNumber)\r\n        public\r\n        isOwner()\r\n    {\r\n        address accountAddress = trustGroups[_trustGroupNumber].bankAccount;\r\n        TrustAccount account = TrustAccount(accountAddress);\r\n        account.defrost();\r\n    }\r\n\r\n    /**\r\n      * @param _oldAddress : the old user wallet address\r\n      * @param _newAddress : the address of the new user wallet\r\n      * @dev changes the ownership of access and delay accounts \r\n      */\r\n    function changeOwnership(address _oldAddress, address _newAddress)\r\n        public\r\n        isOwner()\r\n    {\r\n        require(userWallets[_oldAddress].owner == _oldAddress);\r\n\r\n        address accountAddress = userWallets[_oldAddress].bankAccount;\r\n        AccessAccount accountContract = AccessAccount(accountAddress);\r\n        accountContract.changeOwner(_newAddress);\r\n        userWallets[_newAddress].owner = _newAddress;\r\n        userWallets[_newAddress].bankAccount = accountAddress;\r\n        userWallets[_newAddress].typeOfAccount = userWallets[_oldAddress].typeOfAccount;\r\n        userWallets[_oldAddress].owner = 0x0;\r\n        userWallets[_oldAddress].bankAccount = 0x0;\r\n        userWallets[_oldAddress].typeOfAccount;\r\n    }\r\n\r\n    /**\r\n    struct AccountDetails {\r\n        address owner;\r\n        address bankAccount;\r\n        AccessAccount.AccountType typeOfAccount;\r\n    }\r\n    //the data stored for trust accounts\r\n    struct TrustGroupDetails {\r\n        address[] owners;\r\n        address bankAccount;\r\n    }\r\n     */\r\n\r\n    /**\r\n      * @param _oldAddress : the old user wallet address\r\n      * @param _newAddress : the new user wallet address\r\n      * @param _groupNumber : the trust grup number \r\n      * @dev \r\n      */\r\n    function changeOwnershipTrustGroup(address _oldAddress, address _newAddress, uint _groupNumber)\r\n        public\r\n        isOwner()\r\n    {\r\n        address accountAddress = trustGroups[_groupNumber].bankAccount;\r\n        TrustAccount accountContract = TrustAccount(accountAddress);\r\n        address[] memory newOwners = accountContract.changeOwner(_oldAddress, _newAddress);\r\n        trustGroups[_groupNumber].owners = newOwners;\r\n    }\r\n\r\n    function newAccountLimitModifier(uint _newLimit)\r\n        public \r\n        isOwner()\r\n    {\r\n        limit = _newLimit;\r\n    }\r\n\r\n    function accountLimitModifier(address _account, uint _newLimit)\r\n        public\r\n        isOwner()\r\n    {\r\n        AccessAccount account = AccessAccount(_account);\r\n        uint balance = account.getBalance();\r\n        require(balance < _newLimit);\r\n        account.setLimit(_newLimit);\r\n    }\r\n     \r\n    function dissolveAccount(address _account)\r\n        public\r\n        isOwner()\r\n    {\r\n        AccessAccount account = AccessAccount(_account);\r\n        account.dissolve();\r\n    }\r\n}",
  "sourcePath": "C:\\Users\\Veronica Coutts\\Desktop\\Desktop\\Work\\LinumLabs\\PoCBank\\pocbank\\contracts\\Bank.sol",
  "compiler": {
    "name": "solc",
    "version": "0.4.24+commit.e67f0147.Emscripten.clang"
  },
  "schemaVersion": "2.0.1",
  "updatedAt": "2018-10-03T18:12:05.724Z"
}