{
  "contractName": "Bank",
  "abi": [
    {
      "inputs": [],
      "payable": false,
      "stateMutability": "nonpayable",
      "type": "constructor"
    },
    {
      "constant": true,
      "inputs": [
        {
          "name": "_userWallet",
          "type": "address"
        }
      ],
      "name": "getBankAccountAddress",
      "outputs": [
        {
          "name": "",
          "type": "address"
        }
      ],
      "payable": false,
      "stateMutability": "view",
      "type": "function"
    },
    {
      "constant": true,
      "inputs": [
        {
          "name": "_groupNumber",
          "type": "uint256"
        }
      ],
      "name": "getTrustGroupDetails",
      "outputs": [
        {
          "name": "",
          "type": "address[]"
        }
      ],
      "payable": false,
      "stateMutability": "view",
      "type": "function"
    },
    {
      "constant": true,
      "inputs": [
        {
          "name": "_groupNumber",
          "type": "uint256"
        }
      ],
      "name": "getTrustAccountAddress",
      "outputs": [
        {
          "name": "",
          "type": "address"
        }
      ],
      "payable": false,
      "stateMutability": "view",
      "type": "function"
    },
    {
      "constant": false,
      "inputs": [
        {
          "name": "_toLock",
          "type": "address"
        }
      ],
      "name": "lockAddress",
      "outputs": [],
      "payable": false,
      "stateMutability": "nonpayable",
      "type": "function"
    },
    {
      "constant": false,
      "inputs": [
        {
          "name": "_toUnlock",
          "type": "address"
        }
      ],
      "name": "unlockAddress",
      "outputs": [],
      "payable": false,
      "stateMutability": "nonpayable",
      "type": "function"
    },
    {
      "constant": false,
      "inputs": [],
      "name": "createAccessAccount",
      "outputs": [
        {
          "name": "",
          "type": "address"
        }
      ],
      "payable": false,
      "stateMutability": "nonpayable",
      "type": "function"
    },
    {
      "constant": false,
      "inputs": [],
      "name": "creatingDelayAccount",
      "outputs": [
        {
          "name": "",
          "type": "address"
        }
      ],
      "payable": false,
      "stateMutability": "nonpayable",
      "type": "function"
    },
    {
      "constant": false,
      "inputs": [
        {
          "name": "_owners",
          "type": "address[]"
        }
      ],
      "name": "creatingTrustAccount",
      "outputs": [
        {
          "name": "",
          "type": "address"
        }
      ],
      "payable": false,
      "stateMutability": "nonpayable",
      "type": "function"
    },
    {
      "constant": false,
      "inputs": [
        {
          "name": "_owner",
          "type": "address"
        }
      ],
      "name": "lockAccount",
      "outputs": [],
      "payable": false,
      "stateMutability": "nonpayable",
      "type": "function"
    },
    {
      "constant": false,
      "inputs": [
        {
          "name": "_owner",
          "type": "address"
        }
      ],
      "name": "unlockAccount",
      "outputs": [],
      "payable": false,
      "stateMutability": "nonpayable",
      "type": "function"
    },
    {
      "constant": false,
      "inputs": [
        {
          "name": "_trustGroupNumber",
          "type": "uint256"
        }
      ],
      "name": "lockTrustAccount",
      "outputs": [],
      "payable": false,
      "stateMutability": "nonpayable",
      "type": "function"
    },
    {
      "constant": false,
      "inputs": [
        {
          "name": "_trustGroupNumber",
          "type": "uint256"
        }
      ],
      "name": "unlockTrustAccount",
      "outputs": [],
      "payable": false,
      "stateMutability": "nonpayable",
      "type": "function"
    },
    {
      "constant": false,
      "inputs": [
        {
          "name": "_oldAddress",
          "type": "address"
        },
        {
          "name": "_newAddress",
          "type": "address"
        }
      ],
      "name": "changeOwnership",
      "outputs": [],
      "payable": false,
      "stateMutability": "nonpayable",
      "type": "function"
    },
    {
      "constant": false,
      "inputs": [
        {
          "name": "_oldAddress",
          "type": "address"
        },
        {
          "name": "_newAddress",
          "type": "address"
        },
        {
          "name": "_groupNumber",
          "type": "uint256"
        }
      ],
      "name": "changeOwnershipTrustGroup",
      "outputs": [],
      "payable": false,
      "stateMutability": "nonpayable",
      "type": "function"
    },
    {
      "constant": false,
      "inputs": [
        {
          "name": "_newLimit",
          "type": "uint256"
        }
      ],
      "name": "newAccountLimitModifier",
      "outputs": [],
      "payable": false,
      "stateMutability": "nonpayable",
      "type": "function"
    },
    {
      "constant": false,
      "inputs": [
        {
          "name": "_account",
          "type": "address"
        },
        {
          "name": "_newLimit",
          "type": "uint256"
        }
      ],
      "name": "accountLimitModifier",
      "outputs": [],
      "payable": false,
      "stateMutability": "nonpayable",
      "type": "function"
    },
    {
      "constant": false,
      "inputs": [
        {
          "name": "_account",
          "type": "address"
        }
      ],
      "name": "dissolveAccount",
      "outputs": [],
      "payable": false,
      "stateMutability": "nonpayable",
      "type": "function"
    }
  ],
  "bytecode": "0x60806040526000600155619c4060025534801561001b57600080fd5b5060008054600160a060020a031916331790556146808061003d6000396000f300608060405260043610620000e95763ffffffff60e060020a600035041663321d25298114620000ee5780633491b681146200011757806334a90d02146200015757806347a64f4414620001575780635c46be69146200017b5780637e7afba614620001e8578063905295e314620002035780639a17f1d31462000227578063a633f1231462000254578063a85320d3146200026c578063b7eb5e0a1462000203578063bad1a14b1462000287578063bf93a8be14620002a2578063c1cd1d8b14620002cc578063d87c638d14620002e4578063df8a9aff14620002ff578063e2a5ae3a1462000357575b600080fd5b348015620000fb57600080fd5b5062000115600160a060020a03600435166024356200037b565b005b3480156200012457600080fd5b506200013b600160a060020a0360043516620004b8565b60408051600160a060020a039092168252519081900360200190f35b3480156200016457600080fd5b5062000115600160a060020a03600435166200052d565b3480156200018857600080fd5b506200019660043562000611565b60408051602080825283518183015283519192839290830191858101910280838360005b83811015620001d4578181015183820152602001620001ba565b505050509050019250505060405180910390f35b348015620001f557600080fd5b506200013b600435620006d2565b3480156200021057600080fd5b5062000115600160a060020a036004351662000744565b3480156200023457600080fd5b5062000115600160a060020a03600435811690602435166044356200080a565b3480156200026157600080fd5b506200013b62000997565b3480156200027957600080fd5b506200011560043562000ac3565b3480156200029457600080fd5b506200011560043562000b89565b348015620002af57600080fd5b5062000115600160a060020a036004358116906024351662000be0565b348015620002d957600080fd5b506200013b62000dd8565b348015620002f157600080fd5b506200011560043562000e45565b3480156200030c57600080fd5b50604080516020600480358082013583810280860185019096528085526200013b9536959394602494938501929182918501908490808284375094975062000f0b9650505050505050565b3480156200036457600080fd5b5062000115600160a060020a036004351662001014565b600080548190600160a060020a03163314620003d0576040805160e560020a62461bcd028152602060048201819052602482015260008051602062004635833981519152604482015290519081900360640190fd5b83915081600160a060020a03166312065fe06040518163ffffffff1660e060020a028152600401602060405180830381600087803b1580156200041257600080fd5b505af115801562000427573d6000803e3d6000fd5b505050506040513d60208110156200043e57600080fd5b505190508281106200044f57600080fd5b81600160a060020a03166327ea6f2b846040518263ffffffff1660e060020a02815260040180828152602001915050600060405180830381600087803b1580156200049957600080fd5b505af1158015620004ae573d6000803e3d6000fd5b5050505050505050565b60008054600160a060020a031633146200050b576040805160e560020a62461bcd028152602060048201819052602482015260008051602062004635833981519152604482015290519081900360640190fd5b50600160a060020a039081166000908152600360205260409020600101541690565b600080548190600160a060020a0316331462000582576040805160e560020a62461bcd028152602060048201819052602482015260008051602062004635833981519152604482015290519081900360640190fd5b5050600160a060020a038082166000908152600360205260408082206001015481517f62a5af3b0000000000000000000000000000000000000000000000000000000081529151931692839283926362a5af3b926004808301939282900301818387803b158015620005f357600080fd5b505af115801562000608573d6000803e3d6000fd5b50505050505050565b600054606090600160a060020a0316331462000666576040805160e560020a62461bcd028152602060048201819052602482015260008051602062004635833981519152604482015290519081900360640190fd5b60008281526004602090815260409182902080548351818402810184019094528084529091830182828015620006c657602002820191906000526020600020905b8154600160a060020a03168152600190910190602001808311620006a7575b50505050509050919050565b60008054600160a060020a0316331462000725576040805160e560020a62461bcd028152602060048201819052602482015260008051602062004635833981519152604482015290519081900360640190fd5b50600090815260046020526040902060010154600160a060020a031690565b600080548190600160a060020a0316331462000799576040805160e560020a62461bcd028152602060048201819052602482015260008051602062004635833981519152604482015290519081900360640190fd5b5050600160a060020a038082166000908152600360205260408082206001015481517ff21cdf6f00000000000000000000000000000000000000000000000000000000815291519316928392839263f21cdf6f926004808301939282900301818387803b158015620005f357600080fd5b600080548190606090600160a060020a0316331462000862576040805160e560020a62461bcd028152602060048201819052602482015260008051602062004635833981519152604482015290519081900360640190fd5b60008481526004602081905260408083206001015481517ff00d4b5d000000000000000000000000000000000000000000000000000000008152600160a060020a038b8116948201949094528984166024820152915192169550859450849263f00d4b5d9260448084019382900301818387803b158015620008e357600080fd5b505af1158015620008f8573d6000803e3d6000fd5b505050506040513d6000823e601f3d908101601f1916820160405260208110156200092257600080fd5b8101908080516401000000008111156200093b57600080fd5b820160208101848111156200094f57600080fd5b81518560208202830111640100000000821117156200096d57600080fd5b505060008881526004602090815260409091208251929650620006089550935085019150620010c6565b600080336000600254620009aa62001139565b600160a060020a038416815260208101836002811115620009c757fe5b60ff1681526020018281526020019350505050604051809103906000f080158015620009f7573d6000803e3d6000fd5b5060408051606081018252338152600160a060020a0383166020820152919250810160005b9052336000908152600360209081526040918290208351815473ffffffffffffffffffffffffffffffffffffffff19908116600160a060020a039283161783559285015160018301805490941691161780835592840151909290919074ff000000000000000000000000000000000000000019167401000000000000000000000000000000000000000083600281111562000ab357fe5b02179055509050508091505b5090565b600080548190600160a060020a0316331462000b18576040805160e560020a62461bcd028152602060048201819052602482015260008051602062004635833981519152604482015290519081900360640190fd5b505060008181526004602081905260408083206001015481517ff21cdf6f0000000000000000000000000000000000000000000000000000000081529151600160a060020a03909116938493849363f21cdf6f938183019392909182900301818387803b158015620005f357600080fd5b600054600160a060020a0316331462000bdb576040805160e560020a62461bcd028152602060048201819052602482015260008051602062004635833981519152604482015290519081900360640190fd5b600255565b600080548190600160a060020a0316331462000c35576040805160e560020a62461bcd028152602060048201819052602482015260008051602062004635833981519152604482015290519081900360640190fd5b600160a060020a038085166000818152600360205260409020549091161462000c5d57600080fd5b5050600160a060020a038083166000908152600360205260408082206001015481517fa6f9dae1000000000000000000000000000000000000000000000000000000008152858516600482015291519316928392839263a6f9dae1926024808301939282900301818387803b15801562000cd657600080fd5b505af115801562000ceb573d6000803e3d6000fd5b505050600160a060020a03808516600081815260036020526040808220805473ffffffffffffffffffffffffffffffffffffffff1990811685178255600191820180548a8816921691909117808255958b16845291832001549290915260ff74010000000000000000000000000000000000000000928390041693509174ff000000000000000000000000000000000000000019169083600281111562000d8e57fe5b0217905550505050600160a060020a03166000908152600360205260409020805473ffffffffffffffffffffffffffffffffffffffff199081168255600190910180549091169055565b6000803360025462000de96200114a565b600160a060020a0390921682526020820152604080519182900301906000f08015801562000e1b573d6000803e3d6000fd5b5060408051606081018252338152600160a060020a03831660208201529192508101600162000a1c565b600080548190600160a060020a0316331462000e9a576040805160e560020a62461bcd028152602060048201819052602482015260008051602062004635833981519152604482015290519081900360640190fd5b505060008181526004602081905260408083206001015481517f62a5af3b0000000000000000000000000000000000000000000000000000000081529151600160a060020a0390911693849384936362a5af3b938183019392909182900301818387803b158015620005f357600080fd5b6000808260025462000f1c6200115b565b60208082018390526040808352845190830152835182916060830191868201910280838360005b8381101562000f5d57818101518382015260200162000f43565b505050509050019350505050604051809103906000f08015801562000f86573d6000803e3d6000fd5b50604080518082018252858152600160a060020a03831660208083019190915260015460009081526004825292909220815180519495509193909262000fd1928492910190620010c6565b50602091909101516001918201805473ffffffffffffffffffffffffffffffffffffffff1916600160a060020a0390921691909117905580548101905592915050565b60008054600160a060020a0316331462001067576040805160e560020a62461bcd028152602060048201819052602482015260008051602062004635833981519152604482015290519081900360640190fd5b81905080600160a060020a0316633bef8a3a6040518163ffffffff1660e060020a028152600401600060405180830381600087803b158015620010a957600080fd5b505af1158015620010be573d6000803e3d6000fd5b505050505050565b8280548282559060005260206000209081019282156200112b579160200282015b828111156200112b578251825473ffffffffffffffffffffffffffffffffffffffff1916600160a060020a03909116178255602090920191600190910190620010e7565b5062000abf9291506200116c565b604051610e3d80620011a483390190565b604051610f3d8062001fe183390190565b6040516117178062002f1e83390190565b620011a091905b8082111562000abf57805473ffffffffffffffffffffffffffffffffffffffff1916815560010162001173565b905600608060405234801561001057600080fd5b50604051606080610e3d83398101604090815281516020830151919092015160018054600160a060020a038516600160a060020a03199182161790915560008054909116331790556004805483919061ff00191661010083600281111561007357fe5b021790555060038190556004805460ff1916905560408051600160a060020a038516815233602082018190527f4f1a20e20b0b2f3cdc1fcd1d7631e4cb35cadb8c1b8ea065a71a94167adf1e0f928692869181018260028111156100d357fe5b60ff168152602001935050505060405180910390a1505050610d43806100fa6000396000f3006080604052600436106100ae5763ffffffff7c010000000000000000000000000000000000000000000000000000000060003504166312065fe081146100b357806327ea6f2b146100da5780632e1a7d4d146100f45780633bef8a3a1461010c57806362a5af3b146101215780637495b35314610136578063893d20e81461015f578063a6f9dae114610190578063b295a00e146101b1578063d0e30db0146101c6578063f21cdf6f146101ce575b600080fd5b3480156100bf57600080fd5b506100c86101e3565b60408051918252519081900360200190f35b3480156100e657600080fd5b506100f26004356101e9565b005b34801561010057600080fd5b506100f2600435610250565b34801561011857600080fd5b506100f2610621565b34801561012d57600080fd5b506100f26106fe565b34801561014257600080fd5b5061014b6107ca565b604080519115158252519081900360200190f35b34801561016b57600080fd5b506101746107d3565b60408051600160a060020a039092168252519081900360200190f35b34801561019c57600080fd5b506100f2600160a060020a0360043516610858565b3480156101bd57600080fd5b506100c86109cf565b6100f2610a4b565b3480156101da57600080fd5b506100f2610bd8565b60025490565b600054600160a060020a0316331461024b576040805160e560020a62461bcd02815260206004820152601c60248201527f46756e6374696f6e206f6e6c7920757361626c652062792062616e6b00000000604482015290519081900360640190fd5b600355565b600054600160a060020a03163314806102735750600154600160a060020a031633145b15156102c4576040805160e560020a62461bcd0281526020600482015260216024820152600080516020610cf8833981519152604482015260f960020a603902606482015290519081900360840190fd5b60045460ff161561030d576040805160e560020a62461bcd0281526020600482015260116024820152600080516020610cd8833981519152604482015290519081900360640190fd5b6103156106fe565b6040805160208082526024908201527f28696e2077697468647261772920616674657220667265657a696e6720616363818301527f6f756e740000000000000000000000000000000000000000000000000000000060608201529051600080516020610cb88339815191529181900360800190a16000600454610100900460ff1660028111156103a157fe5b1461041c576040805160e560020a62461bcd02815260206004820152602e60248201527f506c65617365207573652077697468647261772066756e6374696f6e20696e2060448201527f6368696c6420636f6e7472616374000000000000000000000000000000000000606482015290519081900360840190fd5b604080516020808252602b908201527f28616674657220312072657175697265292061667465722074727573742f6465818301527f6c6179207265717569726500000000000000000000000000000000000000000060608201529051600080516020610cb88339815191529181900360800190a1600254811115610510576040805160e560020a62461bcd02815260206004820152602960248201527f43616e6e6f74207769746864726177206d6f72652066756e6473207468616e2060448201527f617661696c61626c650000000000000000000000000000000000000000000000606482015290519081900360840190fd5b604080516020808252603b908201527f286166746572203220726571756972652920616674657220616d6f756e742067818301527f65747320636865636b656420616761696e73742062616c616e6365000000000060608201529051600080516020610cb88339815191529181900360800190a1600280548290039055600154604051600160a060020a039091169082156108fc029083906000818181858888f193505050501580156105c7573d6000803e3d6000fd5b50604080516020808252601b908201527f2829206166746572207472616e73666572696e6720616d6f756e740000000000818301529051600080516020610cb88339815191529181900360600190a161061e610bd8565b50565b600054600160a060020a03163314610683576040805160e560020a62461bcd02815260206004820152601c60248201527f46756e6374696f6e206f6e6c7920757361626c652062792062616e6b00000000604482015290519081900360640190fd5b6004805460ff191660011790556040805160208082526010908201527f2861636365737329206469736f6c7665000000000000000000000000000000008183015290517f6a42c50d3ee00b78df9f99768064c629066807b2ab738674e00b018c696be3789181900360600190a1600154600160a060020a0316ff5b600054600160a060020a03163314806107215750600154600160a060020a031633145b1515610772576040805160e560020a62461bcd0281526020600482015260216024820152600080516020610cf8833981519152604482015260f960020a603902606482015290519081900360840190fd5b60045460ff16156107bb576040805160e560020a62461bcd0281526020600482015260116024820152600080516020610cd8833981519152604482015290519081900360640190fd5b6004805460ff19166001179055565b60045460ff1690565b60008054600160a060020a03163314806107f75750600154600160a060020a031633145b1515610848576040805160e560020a62461bcd0281526020600482015260216024820152600080516020610cf8833981519152604482015260f960020a603902606482015290519081900360840190fd5b50600154600160a060020a031690565b600054600160a060020a031633146108ba576040805160e560020a62461bcd02815260206004820152601c60248201527f46756e6374696f6e206f6e6c7920757361626c652062792062616e6b00000000604482015290519081900360640190fd5b60045460ff1615610903576040805160e560020a62461bcd0281526020600482015260116024820152600080516020610cd8833981519152604482015290519081900360640190fd5b61090b6106fe565b6002600454610100900460ff16600281111561092357fe5b141561099f576040805160e560020a62461bcd02815260206004820152603160248201527f506c6561736520757365206368616e67654f776e65722066756e6374696f6e2060448201527f696e20747275737420636f6e7472616374000000000000000000000000000000606482015290519081900360840190fd5b6001805473ffffffffffffffffffffffffffffffffffffffff1916600160a060020a03831617905561061e610bd8565b60008054600160a060020a03163314806109f35750600154600160a060020a031633145b1515610a44576040805160e560020a62461bcd0281526020600482015260216024820152600080516020610cf8833981519152604482015260f960020a603902606482015290519081900360840190fd5b5060035490565b60045460ff1615610a94576040805160e560020a62461bcd0281526020600482015260116024820152600080516020610cd8833981519152604482015290519081900360640190fd5b60003411610aec576040805160e560020a62461bcd02815260206004820152601860248201527f56616c75652063616e6e6f74206265206e656761746976650000000000000000604482015290519081900360640190fd5b60003460025401111515610b70576040805160e560020a62461bcd02815260206004820152602260248201527f56616c75652063616e6e6f74206d616b652062616c616e6365206e656761746960448201527f7665000000000000000000000000000000000000000000000000000000000000606482015290519081900360840190fd5b60035460025434011115610bce576040805160e560020a62461bcd02815260206004820181905260248201527f4465706f7369742074616b6573206163636f756e74206f766572206c696d6974604482015290519081900360640190fd5b6002805434019055565b600054600160a060020a0316331480610bfb5750600154600160a060020a031633145b1515610c4c576040805160e560020a62461bcd0281526020600482015260216024820152600080516020610cf8833981519152604482015260f960020a603902606482015290519081900360840190fd5b60045460ff161515600114610cab576040805160e560020a62461bcd02815260206004820152601860248201527f4163636f756e7420616c726561647920756e66726f7a656e0000000000000000604482015290519081900360640190fd5b6004805460ff191690555600b981afc16bc609765b6005bd910c0e9ef3424f3c61a05afcbbf88d11f414669d4163636f756e742069732066726f7a656e00000000000000000000000000000046756e6374696f6e206f6e6c792061636365737369626c65206279206f776e65a165627a7a72305820f36258bdc7f8eb5db244e7f628fffdb56773d226ffb20961c3146b67825c08d300296080604052600160055534801561001557600080fd5b50604051604080610f3d833981016040818152825160209384015160018054600160a060020a0319908116600160a060020a0385169081178355600080543393168317905560048054600386905560ff1961010061ff00199092169190911716905586529585019590955282840185905291519093919284929184917f4f1a20e20b0b2f3cdc1fcd1d7631e4cb35cadb8c1b8ea065a71a94167adf1e0f919081900360600190a1505060018054600160a060020a038516600160a060020a0319918216811783556000805490921633908117909255600385905560408051918252602082019290925280820192909252517fba30745a905aaced99b2fceb5b3ee14d5a7bbba87b3dfc68846c48c6a534966492509081900360600190a15050610dfa806101436000396000f3006080604052600436106100b95763ffffffff7c010000000000000000000000000000000000000000000000000000000060003504166312065fe081146100be57806327ea6f2b146100e55780632e1a7d4d146100ff5780633bef8a3a1461011757806362a5af3b1461012c5780637495b35314610141578063893d20e81461016a578063a6f9dae11461019b578063b295a00e146101bc578063ccc143b8146101d1578063d0e30db0146101f5578063f21cdf6f146101fd575b600080fd5b3480156100ca57600080fd5b506100d3610212565b60408051918252519081900360200190f35b3480156100f157600080fd5b506100fd600435610218565b005b34801561010b57600080fd5b506100fd60043561027f565b34801561012357600080fd5b506100fd610524565b34801561013857600080fd5b506100fd610601565b34801561014d57600080fd5b506101566106cd565b604080519115158252519081900360200190f35b34801561017657600080fd5b5061017f6106d6565b60408051600160a060020a039092168252519081900360200190f35b3480156101a757600080fd5b506100fd600160a060020a036004351661075b565b3480156101c857600080fd5b506100d36108d5565b3480156101dd57600080fd5b506100d3600435600160a060020a0360243516610951565b6100fd610b22565b34801561020957600080fd5b506100fd610caf565b60025490565b600054600160a060020a0316331461027a576040805160e560020a62461bcd02815260206004820152601c60248201527f46756e6374696f6e206f6e6c7920757361626c652062792062616e6b00000000604482015290519081900360640190fd5b600355565b600080548190600160a060020a03163314806102a55750600154600160a060020a031633145b15156102f6576040805160e560020a62461bcd0281526020600482015260216024820152600080516020610daf833981519152604482015260f960020a603902606482015290519081900360840190fd5b60045460ff161561033f576040805160e560020a62461bcd0281526020600482015260116024820152600080516020610d8f833981519152604482015290519081900360640190fd5b610347610601565b6005548311156103a1576040805160e560020a62461bcd02815260206004820152601660248201527f4e6f207375636820726571756573742065786973747300000000000000000000604482015290519081900360640190fd5b60008381526006602052604090205491504262278d0083011061040e576040805160e560020a62461bcd02815260206004820152601760248201527f333020646179732068617665206e6f7420706173736564000000000000000000604482015290519081900360640190fd5b60008381526006602052604090206002015474010000000000000000000000000000000000000000900460ff1615610490576040805160e560020a62461bcd02815260206004820152601d60248201527f416d6f756e7420616c7265616479206265656e2077697468647261776e000000604482015290519081900360640190fd5b5060008281526006602052604080822060028101805474ff00000000000000000000000000000000000000001916740100000000000000000000000000000000000000001790819055600191909101549151600160a060020a0390911692839280156108fc02929091818181858888f19350505050158015610516573d6000803e3d6000fd5b5061051f610caf565b505050565b600054600160a060020a03163314610586576040805160e560020a62461bcd02815260206004820152601c60248201527f46756e6374696f6e206f6e6c7920757361626c652062792062616e6b00000000604482015290519081900360640190fd5b6004805460ff191660011790556040805160208082526010908201527f2861636365737329206469736f6c7665000000000000000000000000000000008183015290517f6a42c50d3ee00b78df9f99768064c629066807b2ab738674e00b018c696be3789181900360600190a1600154600160a060020a0316ff5b600054600160a060020a03163314806106245750600154600160a060020a031633145b1515610675576040805160e560020a62461bcd0281526020600482015260216024820152600080516020610daf833981519152604482015260f960020a603902606482015290519081900360840190fd5b60045460ff16156106be576040805160e560020a62461bcd0281526020600482015260116024820152600080516020610d8f833981519152604482015290519081900360640190fd5b6004805460ff19166001179055565b60045460ff1690565b60008054600160a060020a03163314806106fa5750600154600160a060020a031633145b151561074b576040805160e560020a62461bcd0281526020600482015260216024820152600080516020610daf833981519152604482015260f960020a603902606482015290519081900360840190fd5b50600154600160a060020a031690565b600054600160a060020a031633146107bd576040805160e560020a62461bcd02815260206004820152601c60248201527f46756e6374696f6e206f6e6c7920757361626c652062792062616e6b00000000604482015290519081900360640190fd5b60045460ff1615610806576040805160e560020a62461bcd0281526020600482015260116024820152600080516020610d8f833981519152604482015290519081900360640190fd5b61080e610601565b6002600454610100900460ff16600281111561082657fe5b14156108a2576040805160e560020a62461bcd02815260206004820152603160248201527f506c6561736520757365206368616e67654f776e65722066756e6374696f6e2060448201527f696e20747275737420636f6e7472616374000000000000000000000000000000606482015290519081900360840190fd5b6001805473ffffffffffffffffffffffffffffffffffffffff1916600160a060020a0383161790556108d2610caf565b50565b60008054600160a060020a03163314806108f95750600154600160a060020a031633145b151561094a576040805160e560020a62461bcd0281526020600482015260216024820152600080516020610daf833981519152604482015260f960020a603902606482015290519081900360840190fd5b5060035490565b600080548190600160a060020a03163314806109775750600154600160a060020a031633145b15156109c8576040805160e560020a62461bcd0281526020600482015260216024820152600080516020610daf833981519152604482015260f960020a603902606482015290519081900360840190fd5b6109d0610601565b600254841115610a50576040805160e560020a62461bcd02815260206004820152602160248201527f43616e6e6f74207769746864726177206d6f7265207468616e2062616c616e6360448201527f6500000000000000000000000000000000000000000000000000000000000000606482015290519081900360840190fd5b506005805460018082018355604080516080810182524281526020808201898152600160a060020a03808a168486019081526000606086018181528982526006909552959095209351845590519483019490945591516002918201805493511515740100000000000000000000000000000000000000000274ff0000000000000000000000000000000000000000199290951673ffffffffffffffffffffffffffffffffffffffff199094169390931716929092179055918190558154859003909155610b1b610caf565b9392505050565b60045460ff1615610b6b576040805160e560020a62461bcd0281526020600482015260116024820152600080516020610d8f833981519152604482015290519081900360640190fd5b60003411610bc3576040805160e560020a62461bcd02815260206004820152601860248201527f56616c75652063616e6e6f74206265206e656761746976650000000000000000604482015290519081900360640190fd5b60003460025401111515610c47576040805160e560020a62461bcd02815260206004820152602260248201527f56616c75652063616e6e6f74206d616b652062616c616e6365206e656761746960448201527f7665000000000000000000000000000000000000000000000000000000000000606482015290519081900360840190fd5b60035460025434011115610ca5576040805160e560020a62461bcd02815260206004820181905260248201527f4465706f7369742074616b6573206163636f756e74206f766572206c696d6974604482015290519081900360640190fd5b6002805434019055565b600054600160a060020a0316331480610cd25750600154600160a060020a031633145b1515610d23576040805160e560020a62461bcd0281526020600482015260216024820152600080516020610daf833981519152604482015260f960020a603902606482015290519081900360840190fd5b60045460ff161515600114610d82576040805160e560020a62461bcd02815260206004820152601860248201527f4163636f756e7420616c726561647920756e66726f7a656e0000000000000000604482015290519081900360640190fd5b6004805460ff1916905556004163636f756e742069732066726f7a656e00000000000000000000000000000046756e6374696f6e206f6e6c792061636365737369626c65206279206f776e65a165627a7a72305820da0e5dd8fd4e21e1c17cf9276153b9f2b890a9698a87f14b4105ded2a5427a17002960806040526000600655600060075534801561001a57600080fd5b5060405161171738038061171783398101604081815282516020808501516001805433600160a060020a03199182168117909255600080549091168217815560048054600385905561ff0019166102001760ff191690558187529286018190526002858701819052945193909601959094919384939192909186917f4f1a20e20b0b2f3cdc1fcd1d7631e4cb35cadb8c1b8ea065a71a94167adf1e0f916060918190039190910190a150506001805433600160a060020a031991821681179092556000805490911690911781556003859055855193509150505b818110156101c55780600b6000868481518110151561010f57fe5b90602001906020020151600160a060020a0316600160a060020a03168152602001908152602001600020819055506040805190810160405280600115158152602001858381518110151561015f57fe5b6020908102909101810151600160a060020a039081169092526000848152600a8252604090208351815494909201519092166101000261010060a860020a031991151560ff199094169390931716919091179055600680546001908101909155016100f4565b7f3a650401d4f28871cc7011cf20e98637ced898f0c304280307332b3bfc947f67843385604051808060200184600160a060020a0316600160a060020a03168152602001838152602001828103825285818151815260200191508051906020019060200280838360005b8381101561024757818101518382015260200161022f565b5050505090500194505050505060405180910390a1505050506114a88061026f6000396000f3006080604052600436106100e55763ffffffff7c010000000000000000000000000000000000000000000000000000000060003504166312065fe081146100ea57806327ea6f2b146101115780632e1a7d4d1461012b578063397a1b28146101435780633bef8a3a1461016757806362a5af3b1461017c5780637495b35314610191578063893d20e8146101ba578063a6f9dae1146101eb578063b295a00e1461020c578063bdb5fd9914610221578063d0e30db01461023e578063e72a97e714610246578063f00d4b5d14610276578063f21cdf6f146102ed578063f9d5ee7514610302575b600080fd5b3480156100f657600080fd5b506100ff61036b565b60408051918252519081900360200190f35b34801561011d57600080fd5b50610129600435610371565b005b34801561013757600080fd5b506101296004356103d8565b34801561014f57600080fd5b506100ff600160a060020a0360043516602435610643565b34801561017357600080fd5b5061012961075d565b34801561018857600080fd5b506101296108fb565b34801561019d57600080fd5b506101a6610984565b604080519115158252519081900360200190f35b3480156101c657600080fd5b506101cf61098d565b60408051600160a060020a039092168252519081900360200190f35b3480156101f757600080fd5b50610129600160a060020a03600435166109cd565b34801561021857600080fd5b506100ff610b47565b34801561022d57600080fd5b506101296004356024351515610b7e565b610129610c62565b34801561025257600080fd5b5061012960ff60043516600160a060020a0360243581169060443516606435610def565b34801561028257600080fd5b5061029d600160a060020a03600435811690602435166110b1565b60408051602080825283518183015283519192839290830191858101910280838360005b838110156102d95781810151838201526020016102c1565b505050509050019250505060405180910390f35b3480156102f957600080fd5b50610129611374565b34801561030e57600080fd5b5061031a600435611410565b6040518087600381111561032a57fe5b60ff168152602081019690965250604080860194909452600160a060020a03928316606086015291166080840152151560a0830152519081900360c0019150f35b60025490565b600054600160a060020a031633146103d3576040805160e560020a62461bcd02815260206004820152601c60248201527f46756e6374696f6e206f6e6c7920757361626c652062792062616e6b00000000604482015290519081900360640190fd5b600355565b336000908152600b6020908152604080832054808452600a9092529091205460ff16151560011461040857600080fd5b600360008381526008602052604090206001015460ff16600381111561042a57fe5b1461047f576040805160e560020a62461bcd02815260206004820152601660248201527f496e76616c69642072657175657374206e756d62657200000000000000000000604482015290519081900360640190fd5b600082815260086020526040902060030154421161050d576040805160e560020a62461bcd02815260206004820152603160248201527f566f7465732074696d6520686173206e6f74207061737365642e20506c65617360448201527f652074727920616761696e206c61746572000000000000000000000000000000606482015290519081900360840190fd5b60008281526008602052604090206007015460ff1615610577576040805160e560020a62461bcd02815260206004820181905260248201527f57697468647261772068617320616c72656164792074616b656e20706c616365604482015290519081900360640190fd5b600254600083815260086020526040902060060154106105e1576040805160e560020a62461bcd02815260206004820152601160248201527f496e737566666963656e742066756e6473000000000000000000000000000000604482015290519081900360640190fd5b60008281526008602052604080822060078101805460ff1916600117905560048101546006909101549151600160a060020a039091169282156108fc02929190818181858888f1935050505015801561063e573d6000803e3d6000fd5b505050565b336000908152600b6020908152604080832054808452600a90925282205460ff16151560011461067257600080fd5b60025483106106cb576040805160e560020a62461bcd02815260206004820152601f60248201527f43616e6e6f74207769746864726177206d6f7265207468616e206f776e656400604482015290519081900360640190fd5b604080517fe72a97e700000000000000000000000000000000000000000000000000000000815260036004820152600160a060020a0386166024820152600060448201819052606482018690529151309263e72a97e7926084808201939182900301818387803b15801561073e57600080fd5b505af1158015610752573d6000803e3d6000fd5b505050505092915050565b600080548190600160a060020a031633146107c2576040805160e560020a62461bcd02815260206004820152601c60248201527f46756e6374696f6e206f6e6c7920757361626c652062792062616e6b00000000604482015290519081900360640190fd5b6040805160208082526012908201527f696e206469736f6c7665202874727573742900000000000000000000000000008183015290517f6a42c50d3ee00b78df9f99768064c629066807b2ab738674e00b018c696be3789181900360600190a16004805460ff1916600117905560055460025481151561083e57fe5b604080516020808252600f908201527f76616c756520706572206f776e657200000000000000000000000000000000008183015290519290910493507f6a42c50d3ee00b78df9f99768064c629066807b2ab738674e00b018c696be378919081900360600190a16040805183815290517ffcf771399d75a67a6d0e730ae98d34c40b6bfe6ebf8053b98ddf4da8c27062509181900360200190a15060005b60055481116108ed576001016108dc565b600054600160a060020a0316ff5b336000908152600b6020908152604080832054808452600a9092529091205460ff16151560011461092b57600080fd5b60045460ff1615610974576040805160e560020a62461bcd028152602060048201526011602482015260008051602061145d833981519152604482015290519081900360640190fd5b506004805460ff19166001179055565b60045460ff1690565b336000908152600b6020908152604080832054808452600a90925282205460ff1615156001146109bc57600080fd5b5050600154600160a060020a031690565b600054600160a060020a03163314610a2f576040805160e560020a62461bcd02815260206004820152601c60248201527f46756e6374696f6e206f6e6c7920757361626c652062792062616e6b00000000604482015290519081900360640190fd5b60045460ff1615610a78576040805160e560020a62461bcd028152602060048201526011602482015260008051602061145d833981519152604482015290519081900360640190fd5b610a806108fb565b6002600454610100900460ff166002811115610a9857fe5b1415610b14576040805160e560020a62461bcd02815260206004820152603160248201527f506c6561736520757365206368616e67654f776e65722066756e6374696f6e2060448201527f696e20747275737420636f6e7472616374000000000000000000000000000000606482015290519081900360840190fd5b6001805473ffffffffffffffffffffffffffffffffffffffff1916600160a060020a038316179055610b44611374565b50565b336000908152600b6020908152604080832054808452600a90925282205460ff161515600114610b7657600080fd5b505060035490565b336000908152600b6020908152604080832054808452600a9092529091205460ff161515600114610bae57600080fd5b50600082815260096020908152604080832081516060810183523381529415158584019081529185019586528054600181810183559185529290932093516002909202909301805493511515740100000000000000000000000000000000000000000274ff000000000000000000000000000000000000000019600160a060020a039390931673ffffffffffffffffffffffffffffffffffffffff1990951694909417919091169290921782559151910155565b60045460ff1615610cab576040805160e560020a62461bcd028152602060048201526011602482015260008051602061145d833981519152604482015290519081900360640190fd5b60003411610d03576040805160e560020a62461bcd02815260206004820152601860248201527f56616c75652063616e6e6f74206265206e656761746976650000000000000000604482015290519081900360640190fd5b60003460025401111515610d87576040805160e560020a62461bcd02815260206004820152602260248201527f56616c75652063616e6e6f74206d616b652062616c616e6365206e656761746960448201527f7665000000000000000000000000000000000000000000000000000000000000606482015290519081900360840190fd5b60035460025434011115610de5576040805160e560020a62461bcd02815260206004820181905260248201527f4465706f7369742074616b6573206163636f756e74206f766572206c696d6974604482015290519081900360640190fd5b6002805434019055565b336000908152600b6020908152604080832054808452600a9092529091205460ff161515600114610e1f57600080fd5b6000856003811115610e2d57fe5b1480610e4457506001856003811115610e4257fe5b145b80610e5a57506002856003811115610e5857fe5b145b15610f8757600780546001019081905560408051610100810190915290815260208101866003811115610e8957fe5b81524260208083018290526203f480909101604080840191909152600160a060020a03808916606085015287166080840152600060a0840181905260c0909301839052600754835260088252909120825181559082015160018281018054909160ff1990911690836003811115610efc57fe5b021790555060408201516002820155606082015160038201556080820151600482018054600160a060020a0392831673ffffffffffffffffffffffffffffffffffffffff199182161790915560a084015160058401805491909316911617905560c0820151600682015560e0909101516007909101805491151560ff199092169190911790556110aa565b600780546001019081905560408051610100810190915290815260208101866003811115610fb157fe5b81524260208083018290526203f480909101604080840191909152600160a060020a038816606084015260006080840181905260a0840187905260c0909301839052600754835260088252909120825181559082015160018281018054909160ff199091169083600381111561102357fe5b021790555060408201516002820155606082015160038201556080820151600482018054600160a060020a0392831673ffffffffffffffffffffffffffffffffffffffff199182161790915560a084015160058401805491909316911617905560c0820151600682015560e0909101516007909101805491151560ff199092169190911790555b5050505050565b336000908152600b6020908152604080832054808452600a90925282205460609291829160ff1615156001146110e657600080fd5b60045460ff161561112f576040805160e560020a62461bcd028152602060048201526011602482015260008051602061145d833981519152604482015290519081900360640190fd5b6111376108fb565b60065492505b6000831115611242576000838152600a6020526040902054600160a060020a03878116610100909204161415611236576000838152600a602052604090205460ff1615156001146111d8576040805160e560020a62461bcd02815260206004820152601360248201527f4f776e6572206973206e6f742061637469766500000000000000000000000000604482015290519081900360640190fd5b6000831015611231576040805160e560020a62461bcd02815260206004820152601d60248201527f46756e6374696f6e206f6e6c7920757361626c65206279206f776e6572000000604482015290519081900360640190fd5b611242565b6000199092019161113d565b60065491505b6000821115611306576000828152600a6020526040902054600160a060020a038781166101009092041614156112fa576000828152600a602052604090208054600174ffffffffffffffffffffffffffffffffffffffff0019909116610100600160a060020a038916021760ff191617905560058054869190849081106112cb57fe5b9060005260206000200160006101000a815481600160a060020a030219169083600160a060020a031602179055505b60001990910190611248565b61130e611374565b600580548060200260200160405190810160405280929190818152602001828054801561136457602002820191906000526020600020905b8154600160a060020a03168152600190910190602001808311611346575b5050505050935050505092915050565b336000908152600b6020908152604080832054808452600a9092529091205460ff1615156001146113a457600080fd5b60045460ff161515600114611403576040805160e560020a62461bcd02815260206004820152601860248201527f4163636f756e7420616c726561647920756e66726f7a656e0000000000000000604482015290519081900360640190fd5b506004805460ff19169055565b60009081526008602052604090206001810154600282015460038301546004840154600585015460079095015460ff9485169693959294600160a060020a03928316949290931692169056004163636f756e742069732066726f7a656e000000000000000000000000000000a165627a7a723058209b45ea3e09ea15dbc86d713453c59e00e799859dc75f8fe899fdd49ae4c11a84002946756e6374696f6e206f6e6c7920616363657369626c79206279206f776e6572a165627a7a72305820172f97b9705140cc740ce591ab0f6600f78da96201065d383f3ee82e68bf061e0029",
  "source": "pragma solidity ^0.4.24;\r\n\r\nimport \"./AccessAccount.sol\";\r\nimport \"./DelayAccount.sol\";\r\nimport \"./TrustAccount.sol\";\r\n\r\ncontract Bank {\r\n    address owner;\r\n    //the counter for trust groups\r\n    uint trustGroupNumbers = 0;\r\n    //the limit for all accounts\r\n    uint limit = 40000;\r\n    //the data stored for access and delay accounts\r\n    struct AccountDetails {\r\n        address owner;\r\n        address bankAccount;\r\n        AccessAccount.AccountType typeOfAccount;\r\n    }\r\n    //the data stored for trust accounts\r\n    struct TrustGroupDetails {\r\n        address[] owners;\r\n        address bankAccount;\r\n    }\r\n    //user wallets to their account details \r\n    mapping(address => AccountDetails) userWallets;\r\n    //trust group numbers to their information\r\n    mapping(uint => TrustGroupDetails) trustGroups; \r\n\r\n    /**\r\n        @param userWallet : the address of the new users wallet.\r\n        @dev Checks the account is not curently busy with a transaction. \r\n            This lock is seporate from locks placed on voting (trust accounts). \r\n    */\r\n    modifier isLocked(address userWallet) {\r\n        address usersAccountAddress = userWallets[userWallet].bankAccount;\r\n        AccessAccount usersAccount = AccessAccount(usersAccountAddress);\r\n        require(usersAccount.getFrozen() == false);\r\n        _;\r\n    }\r\n\r\n    /** \r\n      * @dev checks the address is the bank owner.\r\n      */\r\n    modifier isOwner(){\r\n        require(msg.sender == owner, \"Function only accesibly by owner\");\r\n        _;\r\n    }\r\n\r\n    constructor()\r\n        public\r\n    {\r\n        owner = msg.sender;\r\n    }\r\n\r\n    /**\r\n     * @param _userWallet : the address of the users account \r\n     * @return address : the address of the users bank account\r\n     * @dev : needs tinkering \r\n     */\r\n    function getBankAccountAddress(address _userWallet)\r\n        public\r\n        view\r\n        isOwner()\r\n        returns(address)\r\n    {\r\n        return userWallets[_userWallet].bankAccount;\r\n    }\r\n\r\n    function getTrustGroupDetails(uint _groupNumber)\r\n        public\r\n        view\r\n        isOwner()\r\n        returns(address[])\r\n    {\r\n        return trustGroups[_groupNumber].owners;\r\n    }\r\n\r\n    function getTrustAccountAddress(uint _groupNumber)\r\n        public\r\n        view\r\n        isOwner()\r\n        returns(address)\r\n    {\r\n        return trustGroups[_groupNumber].bankAccount;\r\n    }\r\n\r\n    /**\r\n        @param _toLock : The address of the user to lock.\r\n        @dev Allows the bank to lock a user durning a transaction. \r\n    */\r\n    function lockAddress(address _toLock)\r\n        public\r\n        isOwner()\r\n    {\r\n        address usersAccountAddress = userWallets[_toLock].bankAccount;\r\n        AccessAccount usersAccount = AccessAccount(usersAccountAddress);\r\n        usersAccount.freeze();\r\n    }\r\n\r\n    function unlockAddress(address _toUnlock)\r\n        public\r\n        isOwner()\r\n    {\r\n        address usersAccountAddress = userWallets[_toUnlock].bankAccount;\r\n        AccessAccount usersAccount = AccessAccount(usersAccountAddress);\r\n        usersAccount.defrost();\r\n    }\r\n\r\n    /**\r\n      * @dev the user can only have one account on the system at a time, but in a future version \r\n      *     the userWallet[] could be linked to an array of accounts instead of a single account. \r\n      *     E.G: mapping(address => AccountDetails[]) userWallets;\r\n      */\r\n    function createAccessAccount()\r\n        public\r\n        returns(address)\r\n    {   \r\n        address newAccountAddress = new AccessAccount(msg.sender, AccessAccount.AccountType.access, limit);\r\n        \r\n        userWallets[msg.sender] = AccountDetails({\r\n            owner: msg.sender,\r\n            bankAccount: newAccountAddress,\r\n            typeOfAccount: AccessAccount.AccountType.access\r\n        });\r\n\r\n        return newAccountAddress;\r\n    }\r\n\r\n    /**\r\n      * @dev if a user already has an account then the new account will override their \r\n      *     current account and it will be lost. This is for a proof of consept and\r\n      *     not an alpha, and therfore this functionality was left out. \r\n      */\r\n    function creatingDelayAccount()\r\n        public\r\n        returns(address)\r\n    {\r\n        address newDelayAccountAddress = new DelayAccount(msg.sender, limit);\r\n        userWallets[msg.sender] = AccountDetails({\r\n            owner: msg.sender,\r\n            bankAccount: newDelayAccountAddress,\r\n            typeOfAccount: AccessAccount.AccountType.delay\r\n        });\r\n\r\n        return newDelayAccountAddress;\r\n    }\r\n\r\n    /**\r\n      * @param _owners : the owners of the trust account\r\n      * @dev \r\n      */\r\n    function creatingTrustAccount(address[] _owners)\r\n        public\r\n        returns(address)\r\n    {\r\n        address newTrustAccountAddress = new TrustAccount(_owners, limit);\r\n        trustGroups[trustGroupNumbers] = TrustGroupDetails({\r\n            owners: _owners,\r\n            bankAccount: newTrustAccountAddress\r\n        });\r\n        trustGroupNumbers++;\r\n        return newTrustAccountAddress;\r\n    }\r\n\r\n    function lockAccount(address _owner)\r\n        public\r\n        isOwner()\r\n    {\r\n        address accountAddress = userWallets[_owner].bankAccount;\r\n        AccessAccount account = AccessAccount(accountAddress);\r\n        account.freeze();\r\n    }\r\n\r\n    function unlockAccount(address _owner)\r\n        public\r\n        isOwner()\r\n    {\r\n        address accountAddress = userWallets[_owner].bankAccount;\r\n        AccessAccount account = AccessAccount(accountAddress);\r\n        account.defrost();\r\n    }\r\n\r\n    function lockTrustAccount(uint _trustGroupNumber)\r\n        public\r\n        isOwner()\r\n    {\r\n        address accountAddress = trustGroups[_trustGroupNumber].bankAccount;\r\n        TrustAccount account = TrustAccount(accountAddress);\r\n        account.freeze();\r\n    }\r\n\r\n    function unlockTrustAccount(uint _trustGroupNumber)\r\n        public\r\n        isOwner()\r\n    {\r\n        address accountAddress = trustGroups[_trustGroupNumber].bankAccount;\r\n        TrustAccount account = TrustAccount(accountAddress);\r\n        account.defrost();\r\n    }\r\n\r\n    /**\r\n      * @param _oldAddress : the old user wallet address\r\n      * @param _newAddress : the address of the new user wallet\r\n      * @dev changes the ownership of access and delay accounts \r\n      */\r\n    function changeOwnership(address _oldAddress, address _newAddress)\r\n        public\r\n        isOwner()\r\n    {\r\n        require(userWallets[_oldAddress].owner == _oldAddress);\r\n\r\n        address accountAddress = userWallets[_oldAddress].bankAccount;\r\n        AccessAccount accountContract = AccessAccount(accountAddress);\r\n        accountContract.changeOwner(_newAddress);\r\n        userWallets[_newAddress].owner = _newAddress;\r\n        userWallets[_newAddress].bankAccount = accountAddress;\r\n        userWallets[_newAddress].typeOfAccount = userWallets[_oldAddress].typeOfAccount;\r\n        userWallets[_oldAddress].owner = 0x0;\r\n        userWallets[_oldAddress].bankAccount = 0x0;\r\n        userWallets[_oldAddress].typeOfAccount;\r\n    }\r\n\r\n    /**\r\n    struct AccountDetails {\r\n        address owner;\r\n        address bankAccount;\r\n        AccessAccount.AccountType typeOfAccount;\r\n    }\r\n    //the data stored for trust accounts\r\n    struct TrustGroupDetails {\r\n        address[] owners;\r\n        address bankAccount;\r\n    }\r\n     */\r\n\r\n    /**\r\n      * @param _oldAddress : the old user wallet address\r\n      * @param _newAddress : the new user wallet address\r\n      * @param _groupNumber : the trust grup number \r\n      * @dev \r\n      */\r\n    function changeOwnershipTrustGroup(address _oldAddress, address _newAddress, uint _groupNumber)\r\n        public\r\n        isOwner()\r\n    {\r\n        address accountAddress = trustGroups[_groupNumber].bankAccount;\r\n        TrustAccount accountContract = TrustAccount(accountAddress);\r\n        address[] memory newOwners = accountContract.changeOwner(_oldAddress, _newAddress);\r\n        trustGroups[_groupNumber].owners = newOwners;\r\n    }\r\n\r\n    function newAccountLimitModifier(uint _newLimit)\r\n        public \r\n        isOwner()\r\n    {\r\n        limit = _newLimit;\r\n    }\r\n\r\n    function accountLimitModifier(address _account, uint _newLimit)\r\n        public\r\n        isOwner()\r\n    {\r\n        AccessAccount account = AccessAccount(_account);\r\n        uint balance = account.getBalance();\r\n        require(balance < _newLimit);\r\n        account.setLimit(_newLimit);\r\n    }\r\n     \r\n    function dissolveAccount(address _account)\r\n        public\r\n        isOwner()\r\n    {\r\n        AccessAccount account = AccessAccount(_account);\r\n        account.dissolve();\r\n    }\r\n}",
  "sourcePath": "C:\\Users\\Veronica Coutts\\Desktop\\Desktop\\Work\\LinumLabs\\PoCBank\\pocbank\\contracts\\Bank.sol",
  "compiler": {
    "name": "solc",
    "version": "0.4.24+commit.e67f0147.Emscripten.clang"
  },
  "schemaVersion": "2.0.1",
  "updatedAt": "2018-10-03T12:52:45.318Z"
}