{
  "contractName": "Bank",
  "abi": [
    {
      "inputs": [],
      "payable": false,
      "stateMutability": "nonpayable",
      "type": "constructor"
    },
    {
      "anonymous": false,
      "inputs": [
        {
          "indexed": false,
          "name": "_point",
          "type": "string"
        }
      ],
      "name": "LogProgress",
      "type": "event"
    },
    {
      "constant": true,
      "inputs": [
        {
          "name": "_userWallet",
          "type": "address"
        }
      ],
      "name": "getBankAccountAddress",
      "outputs": [
        {
          "name": "",
          "type": "address"
        }
      ],
      "payable": false,
      "stateMutability": "view",
      "type": "function"
    },
    {
      "constant": true,
      "inputs": [
        {
          "name": "_groupNumber",
          "type": "uint256"
        }
      ],
      "name": "getTrustGroupDetails",
      "outputs": [
        {
          "name": "",
          "type": "address[]"
        }
      ],
      "payable": false,
      "stateMutability": "view",
      "type": "function"
    },
    {
      "constant": true,
      "inputs": [
        {
          "name": "_groupNumber",
          "type": "uint256"
        }
      ],
      "name": "getTrustAccountAddress",
      "outputs": [
        {
          "name": "",
          "type": "address"
        }
      ],
      "payable": false,
      "stateMutability": "view",
      "type": "function"
    },
    {
      "constant": false,
      "inputs": [
        {
          "name": "_toLock",
          "type": "address"
        }
      ],
      "name": "lockAddress",
      "outputs": [],
      "payable": false,
      "stateMutability": "nonpayable",
      "type": "function"
    },
    {
      "constant": false,
      "inputs": [
        {
          "name": "_toUnlock",
          "type": "address"
        }
      ],
      "name": "unlockAddress",
      "outputs": [],
      "payable": false,
      "stateMutability": "nonpayable",
      "type": "function"
    },
    {
      "constant": false,
      "inputs": [],
      "name": "createAccessAccount",
      "outputs": [
        {
          "name": "",
          "type": "address"
        }
      ],
      "payable": false,
      "stateMutability": "nonpayable",
      "type": "function"
    },
    {
      "constant": false,
      "inputs": [],
      "name": "creatingDelayAccount",
      "outputs": [
        {
          "name": "",
          "type": "address"
        }
      ],
      "payable": false,
      "stateMutability": "nonpayable",
      "type": "function"
    },
    {
      "constant": false,
      "inputs": [
        {
          "name": "_owners",
          "type": "address[]"
        }
      ],
      "name": "creatingTrustAccount",
      "outputs": [
        {
          "name": "",
          "type": "address"
        }
      ],
      "payable": false,
      "stateMutability": "nonpayable",
      "type": "function"
    },
    {
      "constant": false,
      "inputs": [
        {
          "name": "_owner",
          "type": "address"
        }
      ],
      "name": "lockAccount",
      "outputs": [],
      "payable": false,
      "stateMutability": "nonpayable",
      "type": "function"
    },
    {
      "constant": false,
      "inputs": [
        {
          "name": "_owner",
          "type": "address"
        }
      ],
      "name": "unlockAccount",
      "outputs": [],
      "payable": false,
      "stateMutability": "nonpayable",
      "type": "function"
    },
    {
      "constant": false,
      "inputs": [
        {
          "name": "_trustGroupNumber",
          "type": "uint256"
        }
      ],
      "name": "lockTrustAccount",
      "outputs": [],
      "payable": false,
      "stateMutability": "nonpayable",
      "type": "function"
    },
    {
      "constant": false,
      "inputs": [
        {
          "name": "_trustGroupNumber",
          "type": "uint256"
        }
      ],
      "name": "unlockTrustAccount",
      "outputs": [],
      "payable": false,
      "stateMutability": "nonpayable",
      "type": "function"
    },
    {
      "constant": false,
      "inputs": [
        {
          "name": "_oldAddress",
          "type": "address"
        },
        {
          "name": "_newAddress",
          "type": "address"
        }
      ],
      "name": "changeOwnership",
      "outputs": [],
      "payable": false,
      "stateMutability": "nonpayable",
      "type": "function"
    },
    {
      "constant": false,
      "inputs": [
        {
          "name": "_oldAddress",
          "type": "address"
        },
        {
          "name": "_newAddress",
          "type": "address"
        },
        {
          "name": "_groupNumber",
          "type": "uint256"
        }
      ],
      "name": "changeOwnershipTrustGroup",
      "outputs": [],
      "payable": false,
      "stateMutability": "nonpayable",
      "type": "function"
    }
  ],
  "bytecode": "0x608060405260018055619c4060025534801561001a57600080fd5b5060008054600160a060020a03191633179055613ce08061003c6000396000f300608060405260043610620000de5763ffffffff7c01000000000000000000000000000000000000000000000000000000006000350416633491b6818114620000e357806334a90d02146200012357806347a64f4414620001235780635c46be6914620001495780637e7afba614620001b6578063905295e314620001d15780639a17f1d314620001f5578063a633f1231462000222578063a85320d3146200023a578063b7eb5e0a14620001d1578063bf93a8be1462000255578063c1cd1d8b146200027f578063d87c638d1462000297578063df8a9aff14620002b2575b600080fd5b348015620000f057600080fd5b5062000107600160a060020a03600435166200030a565b60408051600160a060020a039092168252519081900360200190f35b3480156200013057600080fd5b5062000147600160a060020a03600435166200037f565b005b3480156200015657600080fd5b506200016460043562000463565b60408051602080825283518183015283519192839290830191858101910280838360005b83811015620001a257818101518382015260200162000188565b505050509050019250505060405180910390f35b348015620001c357600080fd5b506200010760043562000524565b348015620001de57600080fd5b5062000147600160a060020a036004351662000596565b3480156200020257600080fd5b5062000147600160a060020a03600435811690602435166044356200065c565b3480156200022f57600080fd5b5062000107620007e9565b3480156200024757600080fd5b506200014760043562000915565b3480156200026257600080fd5b5062000147600160a060020a0360043581169060243516620009db565b3480156200028c57600080fd5b506200010762000bd3565b348015620002a457600080fd5b506200014760043562000c40565b348015620002bf57600080fd5b5060408051602060048035808201358381028086018501909652808552620001079536959394602494938501929182918501908490808284375094975062000d069650505050505050565b60008054600160a060020a031633146200035d576040805160e560020a62461bcd028152602060048201819052602482015260008051602062003c95833981519152604482015290519081900360640190fd5b50600160a060020a039081166000908152600360205260409020600101541690565b600080548190600160a060020a03163314620003d4576040805160e560020a62461bcd028152602060048201819052602482015260008051602062003c95833981519152604482015290519081900360640190fd5b5050600160a060020a038082166000908152600360205260408082206001015481517f62a5af3b0000000000000000000000000000000000000000000000000000000081529151931692839283926362a5af3b926004808301939282900301818387803b1580156200044557600080fd5b505af11580156200045a573d6000803e3d6000fd5b50505050505050565b600054606090600160a060020a03163314620004b8576040805160e560020a62461bcd028152602060048201819052602482015260008051602062003c95833981519152604482015290519081900360640190fd5b600082815260046020908152604091829020805483518184028101840190945280845290918301828280156200051857602002820191906000526020600020905b8154600160a060020a03168152600190910190602001808311620004f9575b50505050509050919050565b60008054600160a060020a0316331462000577576040805160e560020a62461bcd028152602060048201819052602482015260008051602062003c95833981519152604482015290519081900360640190fd5b50600090815260046020526040902060010154600160a060020a031690565b600080548190600160a060020a03163314620005eb576040805160e560020a62461bcd028152602060048201819052602482015260008051602062003c95833981519152604482015290519081900360640190fd5b5050600160a060020a038082166000908152600360205260408082206001015481517ff21cdf6f00000000000000000000000000000000000000000000000000000000815291519316928392839263f21cdf6f926004808301939282900301818387803b1580156200044557600080fd5b600080548190606090600160a060020a03163314620006b4576040805160e560020a62461bcd028152602060048201819052602482015260008051602062003c95833981519152604482015290519081900360640190fd5b60008481526004602081905260408083206001015481517ff00d4b5d000000000000000000000000000000000000000000000000000000008152600160a060020a038b8116948201949094528984166024820152915192169550859450849263f00d4b5d9260448084019382900301818387803b1580156200073557600080fd5b505af11580156200074a573d6000803e3d6000fd5b505050506040513d6000823e601f3d908101601f1916820160405260208110156200077457600080fd5b8101908080516401000000008111156200078d57600080fd5b82016020810184811115620007a157600080fd5b8151856020820283011164010000000082111715620007bf57600080fd5b5050600088815260046020908152604090912082519296506200045a955093508501915062000e10565b600080336000600254620007fc62000e83565b600160a060020a0384168152602081018360028111156200081957fe5b60ff1681526020018281526020019350505050604051809103906000f08015801562000849573d6000803e3d6000fd5b5060408051606081018252338152600160a060020a0383166020820152919250810160005b9052336000908152600360209081526040918290208351815473ffffffffffffffffffffffffffffffffffffffff19908116600160a060020a039283161783559285015160018301805490941691161780835592840151909290919074ff00000000000000000000000000000000000000001916740100000000000000000000000000000000000000008360028111156200090557fe5b02179055509050508091505b5090565b600080548190600160a060020a031633146200096a576040805160e560020a62461bcd028152602060048201819052602482015260008051602062003c95833981519152604482015290519081900360640190fd5b505060008181526004602081905260408083206001015481517ff21cdf6f0000000000000000000000000000000000000000000000000000000081529151600160a060020a03909116938493849363f21cdf6f938183019392909182900301818387803b1580156200044557600080fd5b600080548190600160a060020a0316331462000a30576040805160e560020a62461bcd028152602060048201819052602482015260008051602062003c95833981519152604482015290519081900360640190fd5b600160a060020a038085166000818152600360205260409020549091161462000a5857600080fd5b5050600160a060020a038083166000908152600360205260408082206001015481517fa6f9dae1000000000000000000000000000000000000000000000000000000008152858516600482015291519316928392839263a6f9dae1926024808301939282900301818387803b15801562000ad157600080fd5b505af115801562000ae6573d6000803e3d6000fd5b505050600160a060020a03808516600081815260036020526040808220805473ffffffffffffffffffffffffffffffffffffffff1990811685178255600191820180548a8816921691909117808255958b16845291832001549290915260ff74010000000000000000000000000000000000000000928390041693509174ff000000000000000000000000000000000000000019169083600281111562000b8957fe5b0217905550505050600160a060020a03166000908152600360205260409020805473ffffffffffffffffffffffffffffffffffffffff199081168255600190910180549091169055565b6000803360025462000be462000e94565b600160a060020a0390921682526020820152604080519182900301906000f08015801562000c16573d6000803e3d6000fd5b5060408051606081018252338152600160a060020a0383166020820152919250810160016200086e565b600080548190600160a060020a0316331462000c95576040805160e560020a62461bcd028152602060048201819052602482015260008051602062003c95833981519152604482015290519081900360640190fd5b505060008181526004602081905260408083206001015481517f62a5af3b0000000000000000000000000000000000000000000000000000000081529151600160a060020a0390911693849384936362a5af3b938183019392909182900301818387803b1580156200044557600080fd5b6000808260025462000d1762000ea5565b60208082018390526040808352845190830152835182916060830191868201910280838360005b8381101562000d5857818101518382015260200162000d3e565b505050509050019350505050604051809103906000f08015801562000d81573d6000803e3d6000fd5b50604080518082018252858152600160a060020a0383166020808301919091526001805480820190915560009081526004825292909220815180519495509193909262000dd392849291019062000e10565b50602091909101516001909101805473ffffffffffffffffffffffffffffffffffffffff1916600160a060020a0390921691909117905592915050565b82805482825590600052602060002090810192821562000e75579160200282015b8281111562000e75578251825473ffffffffffffffffffffffffffffffffffffffff1916600160a060020a0390911617825560209092019160019091019062000e31565b506200091192915062000eb6565b604051610cb88062000eee83390190565b604051610db88062001ba683390190565b604051611337806200295e83390190565b62000eea91905b808211156200091157805473ffffffffffffffffffffffffffffffffffffffff1916815560010162000ebd565b905600608060405234801561001057600080fd5b50604051606080610cb883398101604090815281516020830151919092015160018054600160a060020a038516600160a060020a03199182161790915560008054909116331790556004805483919061ff00191661010083600281111561007357fe5b021790555060038190556004805460ff1916905560408051600160a060020a038516815233602082018190527f4f1a20e20b0b2f3cdc1fcd1d7631e4cb35cadb8c1b8ea065a71a94167adf1e0f928692869181018260028111156100d357fe5b60ff168152602001935050505060405180910390a1505050610bbe806100fa6000396000f3006080604052600436106100985763ffffffff7c010000000000000000000000000000000000000000000000000000000060003504166312065fe0811461009d5780632e1a7d4d146100c45780633bef8a3a146100de57806362a5af3b146100f35780637495b35314610108578063893d20e814610131578063a6f9dae114610162578063d0e30db014610183578063f21cdf6f1461018b575b600080fd5b3480156100a957600080fd5b506100b26101a0565b60408051918252519081900360200190f35b3480156100d057600080fd5b506100dc6004356101a6565b005b3480156100ea57600080fd5b506100dc610577565b3480156100ff57600080fd5b506100dc6105f5565b34801561011457600080fd5b5061011d6106c1565b604080519115158252519081900360200190f35b34801561013d57600080fd5b506101466106ca565b60408051600160a060020a039092168252519081900360200190f35b34801561016e57600080fd5b506100dc600160a060020a036004351661074f565b6100dc6108c6565b34801561019757600080fd5b506100dc610a53565b60025490565b600054600160a060020a03163314806101c95750600154600160a060020a031633145b151561021a576040805160e560020a62461bcd0281526020600482015260216024820152600080516020610b73833981519152604482015260f960020a603902606482015290519081900360840190fd5b60045460ff1615610263576040805160e560020a62461bcd0281526020600482015260116024820152600080516020610b53833981519152604482015290519081900360640190fd5b61026b6105f5565b6040805160208082526024908201527f28696e2077697468647261772920616674657220667265657a696e6720616363818301527f6f756e740000000000000000000000000000000000000000000000000000000060608201529051600080516020610b338339815191529181900360800190a16000600454610100900460ff1660028111156102f757fe5b14610372576040805160e560020a62461bcd02815260206004820152602e60248201527f506c65617365207573652077697468647261772066756e6374696f6e20696e2060448201527f6368696c6420636f6e7472616374000000000000000000000000000000000000606482015290519081900360840190fd5b604080516020808252602b908201527f28616674657220312072657175697265292061667465722074727573742f6465818301527f6c6179207265717569726500000000000000000000000000000000000000000060608201529051600080516020610b338339815191529181900360800190a1600254811115610466576040805160e560020a62461bcd02815260206004820152602960248201527f43616e6e6f74207769746864726177206d6f72652066756e6473207468616e2060448201527f617661696c61626c650000000000000000000000000000000000000000000000606482015290519081900360840190fd5b604080516020808252603b908201527f286166746572203220726571756972652920616674657220616d6f756e742067818301527f65747320636865636b656420616761696e73742062616c616e6365000000000060608201529051600080516020610b338339815191529181900360800190a1600280548290039055600154604051600160a060020a039091169082156108fc029083906000818181858888f1935050505015801561051d573d6000803e3d6000fd5b50604080516020808252601b908201527f2829206166746572207472616e73666572696e6720616d6f756e740000000000818301529051600080516020610b338339815191529181900360600190a1610574610a53565b50565b600054600160a060020a031633146105d9576040805160e560020a62461bcd02815260206004820152601c60248201527f46756e6374696f6e206f6e6c7920757361626c652062792062616e6b00000000604482015290519081900360640190fd5b6004805460ff1916600190811790915554600160a060020a0316ff5b600054600160a060020a03163314806106185750600154600160a060020a031633145b1515610669576040805160e560020a62461bcd0281526020600482015260216024820152600080516020610b73833981519152604482015260f960020a603902606482015290519081900360840190fd5b60045460ff16156106b2576040805160e560020a62461bcd0281526020600482015260116024820152600080516020610b53833981519152604482015290519081900360640190fd5b6004805460ff19166001179055565b60045460ff1690565b60008054600160a060020a03163314806106ee5750600154600160a060020a031633145b151561073f576040805160e560020a62461bcd0281526020600482015260216024820152600080516020610b73833981519152604482015260f960020a603902606482015290519081900360840190fd5b50600154600160a060020a031690565b600054600160a060020a031633146107b1576040805160e560020a62461bcd02815260206004820152601c60248201527f46756e6374696f6e206f6e6c7920757361626c652062792062616e6b00000000604482015290519081900360640190fd5b60045460ff16156107fa576040805160e560020a62461bcd0281526020600482015260116024820152600080516020610b53833981519152604482015290519081900360640190fd5b6108026105f5565b6002600454610100900460ff16600281111561081a57fe5b1415610896576040805160e560020a62461bcd02815260206004820152603160248201527f506c6561736520757365206368616e67654f776e65722066756e6374696f6e2060448201527f696e20747275737420636f6e7472616374000000000000000000000000000000606482015290519081900360840190fd5b6001805473ffffffffffffffffffffffffffffffffffffffff1916600160a060020a038316179055610574610a53565b60045460ff161561090f576040805160e560020a62461bcd0281526020600482015260116024820152600080516020610b53833981519152604482015290519081900360640190fd5b60003411610967576040805160e560020a62461bcd02815260206004820152601860248201527f56616c75652063616e6e6f74206265206e656761746976650000000000000000604482015290519081900360640190fd5b600034600254011115156109eb576040805160e560020a62461bcd02815260206004820152602260248201527f56616c75652063616e6e6f74206d616b652062616c616e6365206e656761746960448201527f7665000000000000000000000000000000000000000000000000000000000000606482015290519081900360840190fd5b60035460025434011115610a49576040805160e560020a62461bcd02815260206004820181905260248201527f4465706f7369742074616b6573206163636f756e74206f766572206c696d6974604482015290519081900360640190fd5b6002805434019055565b600054600160a060020a0316331480610a765750600154600160a060020a031633145b1515610ac7576040805160e560020a62461bcd0281526020600482015260216024820152600080516020610b73833981519152604482015260f960020a603902606482015290519081900360840190fd5b60045460ff161515600114610b26576040805160e560020a62461bcd02815260206004820152601860248201527f4163636f756e7420616c726561647920756e66726f7a656e0000000000000000604482015290519081900360640190fd5b6004805460ff191690555600b981afc16bc609765b6005bd910c0e9ef3424f3c61a05afcbbf88d11f414669d4163636f756e742069732066726f7a656e00000000000000000000000000000046756e6374696f6e206f6e6c792061636365737369626c65206279206f776e65a165627a7a72305820ff3c0be09e04d584a4b82b97777e1eb3e64b0798c9f8b4f7384742159986151d00296080604052600160055534801561001557600080fd5b50604051604080610db8833981016040818152825160209384015160018054600160a060020a0319908116600160a060020a0385169081178355600080543393168317905560048054600386905560ff1961010061ff00199092169190911716905586529585019590955282840185905291519093919284929184917f4f1a20e20b0b2f3cdc1fcd1d7631e4cb35cadb8c1b8ea065a71a94167adf1e0f919081900360600190a1505060018054600160a060020a038516600160a060020a0319918216811783556000805490921633908117909255600385905560408051918252602082019290925280820192909252517fba30745a905aaced99b2fceb5b3ee14d5a7bbba87b3dfc68846c48c6a534966492509081900360600190a15050610c75806101436000396000f3006080604052600436106100a35763ffffffff7c010000000000000000000000000000000000000000000000000000000060003504166312065fe081146100a85780632e1a7d4d146100cf5780633bef8a3a146100e957806362a5af3b146100fe5780637495b35314610113578063893d20e81461013c578063a6f9dae11461016d578063ccc143b81461018e578063d0e30db0146101b2578063f21cdf6f146101ba575b600080fd5b3480156100b457600080fd5b506100bd6101cf565b60408051918252519081900360200190f35b3480156100db57600080fd5b506100e76004356101d5565b005b3480156100f557600080fd5b506100e761047a565b34801561010a57600080fd5b506100e76104f8565b34801561011f57600080fd5b506101286105c4565b604080519115158252519081900360200190f35b34801561014857600080fd5b506101516105cd565b60408051600160a060020a039092168252519081900360200190f35b34801561017957600080fd5b506100e7600160a060020a0360043516610652565b34801561019a57600080fd5b506100bd600435600160a060020a03602435166107cc565b6100e761099d565b3480156101c657600080fd5b506100e7610b2a565b60025490565b600080548190600160a060020a03163314806101fb5750600154600160a060020a031633145b151561024c576040805160e560020a62461bcd0281526020600482015260216024820152600080516020610c2a833981519152604482015260f960020a603902606482015290519081900360840190fd5b60045460ff1615610295576040805160e560020a62461bcd0281526020600482015260116024820152600080516020610c0a833981519152604482015290519081900360640190fd5b61029d6104f8565b6005548311156102f7576040805160e560020a62461bcd02815260206004820152601660248201527f4e6f207375636820726571756573742065786973747300000000000000000000604482015290519081900360640190fd5b60008381526006602052604090205491504262278d00830110610364576040805160e560020a62461bcd02815260206004820152601760248201527f333020646179732068617665206e6f7420706173736564000000000000000000604482015290519081900360640190fd5b60008381526006602052604090206002015474010000000000000000000000000000000000000000900460ff16156103e6576040805160e560020a62461bcd02815260206004820152601d60248201527f416d6f756e7420616c7265616479206265656e2077697468647261776e000000604482015290519081900360640190fd5b5060008281526006602052604080822060028101805474ff00000000000000000000000000000000000000001916740100000000000000000000000000000000000000001790819055600191909101549151600160a060020a0390911692839280156108fc02929091818181858888f1935050505015801561046c573d6000803e3d6000fd5b50610475610b2a565b505050565b600054600160a060020a031633146104dc576040805160e560020a62461bcd02815260206004820152601c60248201527f46756e6374696f6e206f6e6c7920757361626c652062792062616e6b00000000604482015290519081900360640190fd5b6004805460ff1916600190811790915554600160a060020a0316ff5b600054600160a060020a031633148061051b5750600154600160a060020a031633145b151561056c576040805160e560020a62461bcd0281526020600482015260216024820152600080516020610c2a833981519152604482015260f960020a603902606482015290519081900360840190fd5b60045460ff16156105b5576040805160e560020a62461bcd0281526020600482015260116024820152600080516020610c0a833981519152604482015290519081900360640190fd5b6004805460ff19166001179055565b60045460ff1690565b60008054600160a060020a03163314806105f15750600154600160a060020a031633145b1515610642576040805160e560020a62461bcd0281526020600482015260216024820152600080516020610c2a833981519152604482015260f960020a603902606482015290519081900360840190fd5b50600154600160a060020a031690565b600054600160a060020a031633146106b4576040805160e560020a62461bcd02815260206004820152601c60248201527f46756e6374696f6e206f6e6c7920757361626c652062792062616e6b00000000604482015290519081900360640190fd5b60045460ff16156106fd576040805160e560020a62461bcd0281526020600482015260116024820152600080516020610c0a833981519152604482015290519081900360640190fd5b6107056104f8565b6002600454610100900460ff16600281111561071d57fe5b1415610799576040805160e560020a62461bcd02815260206004820152603160248201527f506c6561736520757365206368616e67654f776e65722066756e6374696f6e2060448201527f696e20747275737420636f6e7472616374000000000000000000000000000000606482015290519081900360840190fd5b6001805473ffffffffffffffffffffffffffffffffffffffff1916600160a060020a0383161790556107c9610b2a565b50565b600080548190600160a060020a03163314806107f25750600154600160a060020a031633145b1515610843576040805160e560020a62461bcd0281526020600482015260216024820152600080516020610c2a833981519152604482015260f960020a603902606482015290519081900360840190fd5b61084b6104f8565b6002548411156108cb576040805160e560020a62461bcd02815260206004820152602160248201527f43616e6e6f74207769746864726177206d6f7265207468616e2062616c616e6360448201527f6500000000000000000000000000000000000000000000000000000000000000606482015290519081900360840190fd5b506005805460018082018355604080516080810182524281526020808201898152600160a060020a03808a168486019081526000606086018181528982526006909552959095209351845590519483019490945591516002918201805493511515740100000000000000000000000000000000000000000274ff0000000000000000000000000000000000000000199290951673ffffffffffffffffffffffffffffffffffffffff199094169390931716929092179055918190558154859003909155610996610b2a565b9392505050565b60045460ff16156109e6576040805160e560020a62461bcd0281526020600482015260116024820152600080516020610c0a833981519152604482015290519081900360640190fd5b60003411610a3e576040805160e560020a62461bcd02815260206004820152601860248201527f56616c75652063616e6e6f74206265206e656761746976650000000000000000604482015290519081900360640190fd5b60003460025401111515610ac2576040805160e560020a62461bcd02815260206004820152602260248201527f56616c75652063616e6e6f74206d616b652062616c616e6365206e656761746960448201527f7665000000000000000000000000000000000000000000000000000000000000606482015290519081900360840190fd5b60035460025434011115610b20576040805160e560020a62461bcd02815260206004820181905260248201527f4465706f7369742074616b6573206163636f756e74206f766572206c696d6974604482015290519081900360640190fd5b6002805434019055565b600054600160a060020a0316331480610b4d5750600154600160a060020a031633145b1515610b9e576040805160e560020a62461bcd0281526020600482015260216024820152600080516020610c2a833981519152604482015260f960020a603902606482015290519081900360840190fd5b60045460ff161515600114610bfd576040805160e560020a62461bcd02815260206004820152601860248201527f4163636f756e7420616c726561647920756e66726f7a656e0000000000000000604482015290519081900360640190fd5b6004805460ff1916905556004163636f756e742069732066726f7a656e00000000000000000000000000000046756e6374696f6e206f6e6c792061636365737369626c65206279206f776e65a165627a7a72305820bd57f5de8b5e45a973e573d0ff7d82e38196208a3ec20d77e883cb2d8064110300296080604052600060065534801561001557600080fd5b5060405161133738038061133783398101604081815282516020808501516001805433600160a060020a03199182168117909255600080549091168217815560048054600385905561ff0019166102001760ff191690558187529286018190526002858701819052945193909601959094919384939192909186917f4f1a20e20b0b2f3cdc1fcd1d7631e4cb35cadb8c1b8ea065a71a94167adf1e0f916060918190039190910190a150506001805433600160a060020a031991821681179092556000805490911690911781556003859055855193509150505b818110156101d3576040805190810160405280600115158152602001858381518110151561011957fe5b6020908102909101810151600160a060020a0390811690925260068054600090815260078352604090208451815495909301519093166101000261010060a860020a031992151560ff19909516949094179190911692909217905580546001019055835184908290811061018957fe5b906020019060200201516005828154811015156101a257fe5b60009182526020909120018054600160a060020a031916600160a060020a03929092169190911790556001016100ef565b7f3a650401d4f28871cc7011cf20e98637ced898f0c304280307332b3bfc947f67843385604051808060200184600160a060020a0316600160a060020a03168152602001838152602001828103825285818151815260200191508051906020019060200280838360005b8381101561025557818101518382015260200161023d565b5050505090500194505050505060405180910390a1505050506110ba8061027d6000396000f3006080604052600436106100a35763ffffffff7c010000000000000000000000000000000000000000000000000000000060003504166312065fe081146100a85780632e1a7d4d146100cf5780633bef8a3a146100e957806362a5af3b146100fe5780637495b35314610113578063893d20e81461013c578063a6f9dae11461016d578063d0e30db01461018e578063f00d4b5d14610196578063f21cdf6f1461020d575b600080fd5b3480156100b457600080fd5b506100bd610222565b60408051918252519081900360200190f35b3480156100db57600080fd5b506100e7600435610228565b005b3480156100f557600080fd5b506100e761056b565b34801561010a57600080fd5b506100e76105e9565b34801561011f57600080fd5b5061012861073c565b604080519115158252519081900360200190f35b34801561014857600080fd5b50610151610745565b60408051600160a060020a039092168252519081900360200190f35b34801561017957600080fd5b506100e7600160a060020a0360043516610856565b6100e76109d0565b3480156101a257600080fd5b506101bd600160a060020a0360043581169060243516610b5d565b60408051602080825283518183015283519192839290830191858101910280838360005b838110156101f95781810151838201526020016101e1565b505050509050019250505060405180910390f35b34801561021957600080fd5b506100e7610ec8565b60025490565b60065460008054600160a060020a031633141561024457610321565b50805b6000811115610321576000818152600760205260409020546101009004600160a060020a03163314156103195760008181526007602052604090205460ff1615156001146102cd576040805160e560020a62461bcd028152602060048201526013602482015260008051602061106f833981519152604482015290519081900360640190fd5b6000811015610314576040805160e560020a62461bcd02815260206004820152601d602482015260008051602061104f833981519152604482015290519081900360640190fd5b610321565b600101610247565b60045460ff161561036a576040805160e560020a62461bcd028152602060048201526011602482015260008051602061102f833981519152604482015290519081900360640190fd5b6103726105e9565b6002600454610100900460ff16600281111561038a57fe5b1415610406576040805160e560020a62461bcd02815260206004820152602e60248201527f506c65617365207573652077697468647261772066756e6374696f6e20696e2060448201527f747275737420636f6e7472616374000000000000000000000000000000000000606482015290519081900360840190fd5b6001600454610100900460ff16600281111561041e57fe5b141561049a576040805160e560020a62461bcd02815260206004820152602e60248201527f506c65617365207573652077697468647261772066756e6374696f6e20696e2060448201527f64656c617920636f6e7472616374000000000000000000000000000000000000606482015290519081900360840190fd5b60025483111561051a576040805160e560020a62461bcd02815260206004820152602960248201527f43616e6e6f74207769746864726177206d6f72652066756e6473207468616e2060448201527f617661696c61626c650000000000000000000000000000000000000000000000606482015290519081900360840190fd5b600280548490039055600154604051600160a060020a039091169084156108fc029085906000818181858888f1935050505015801561055d573d6000803e3d6000fd5b50610566610ec8565b505050565b600054600160a060020a031633146105cd576040805160e560020a62461bcd02815260206004820152601c60248201527f46756e6374696f6e206f6e6c7920757361626c652062792062616e6b00000000604482015290519081900360640190fd5b6004805460ff1916600190811790915554600160a060020a0316ff5b60065460008054600160a060020a0316331415610605576106e2565b50805b60008111156106e2576000818152600760205260409020546101009004600160a060020a03163314156106da5760008181526007602052604090205460ff16151560011461068e576040805160e560020a62461bcd028152602060048201526013602482015260008051602061106f833981519152604482015290519081900360640190fd5b60008110156106d5576040805160e560020a62461bcd02815260206004820152601d602482015260008051602061104f833981519152604482015290519081900360640190fd5b6106e2565b600101610608565b60045460ff161561072b576040805160e560020a62461bcd028152602060048201526011602482015260008051602061102f833981519152604482015290519081900360640190fd5b50506004805460ff19166001179055565b60045460ff1690565b600654600080549091908290600160a060020a031633141561076657610843565b50805b6000811115610843576000818152600760205260409020546101009004600160a060020a031633141561083b5760008181526007602052604090205460ff1615156001146107ef576040805160e560020a62461bcd028152602060048201526013602482015260008051602061106f833981519152604482015290519081900360640190fd5b6000811015610836576040805160e560020a62461bcd02815260206004820152601d602482015260008051602061104f833981519152604482015290519081900360640190fd5b610843565b600101610769565b600154600160a060020a03169250505090565b600054600160a060020a031633146108b8576040805160e560020a62461bcd02815260206004820152601c60248201527f46756e6374696f6e206f6e6c7920757361626c652062792062616e6b00000000604482015290519081900360640190fd5b60045460ff1615610901576040805160e560020a62461bcd028152602060048201526011602482015260008051602061102f833981519152604482015290519081900360640190fd5b6109096105e9565b6002600454610100900460ff16600281111561092157fe5b141561099d576040805160e560020a62461bcd02815260206004820152603160248201527f506c6561736520757365206368616e67654f776e65722066756e6374696f6e2060448201527f696e20747275737420636f6e7472616374000000000000000000000000000000606482015290519081900360840190fd5b6001805473ffffffffffffffffffffffffffffffffffffffff1916600160a060020a0383161790556109cd610ec8565b50565b60045460ff1615610a19576040805160e560020a62461bcd028152602060048201526011602482015260008051602061102f833981519152604482015290519081900360640190fd5b60003411610a71576040805160e560020a62461bcd02815260206004820152601860248201527f56616c75652063616e6e6f74206265206e656761746976650000000000000000604482015290519081900360640190fd5b60003460025401111515610af5576040805160e560020a62461bcd02815260206004820152602260248201527f56616c75652063616e6e6f74206d616b652062616c616e6365206e656761746960448201527f7665000000000000000000000000000000000000000000000000000000000000606482015290519081900360840190fd5b60035460025434011115610b53576040805160e560020a62461bcd02815260206004820181905260248201527f4465706f7369742074616b6573206163636f756e74206f766572206c696d6974604482015290519081900360640190fd5b6002805434019055565b6006546000805460609282918290600160a060020a0316331415610b8057610c5d565b50805b6000811115610c5d576000818152600760205260409020546101009004600160a060020a0316331415610c555760008181526007602052604090205460ff161515600114610c09576040805160e560020a62461bcd028152602060048201526013602482015260008051602061106f833981519152604482015290519081900360640190fd5b6000811015610c50576040805160e560020a62461bcd02815260206004820152601d602482015260008051602061104f833981519152604482015290519081900360640190fd5b610c5d565b600101610b83565b60045460ff1615610ca6576040805160e560020a62461bcd028152602060048201526011602482015260008051602061102f833981519152604482015290519081900360640190fd5b610cae6105e9565b60065493505b6000841115610d9557600084815260076020526040902054600160a060020a03888116610100909204161415610d895760008481526007602052604090205460ff161515600114610d3d576040805160e560020a62461bcd028152602060048201526013602482015260008051602061106f833981519152604482015290519081900360640190fd5b6000841015610d84576040805160e560020a62461bcd02815260206004820152601d602482015260008051602061104f833981519152604482015290519081900360640190fd5b610d95565b60001990930192610cb4565b60065492505b6000831115610e5957600083815260076020526040902054600160a060020a03888116610100909204161415610e4d5760008381526007602052604090208054600174ffffffffffffffffffffffffffffffffffffffff0019909116610100600160a060020a038a16021760ff19161790556005805487919085908110610e1e57fe5b9060005260206000200160006101000a815481600160a060020a030219169083600160a060020a031602179055505b60001990920191610d9b565b610e61610ec8565b6005805480602002602001604051908101604052809291908181526020018280548015610eb757602002820191906000526020600020905b8154600160a060020a03168152600190910190602001808311610e99575b505050505094505050505092915050565b60065460008054600160a060020a0316331415610ee457610fc1565b50805b6000811115610fc1576000818152600760205260409020546101009004600160a060020a0316331415610fb95760008181526007602052604090205460ff161515600114610f6d576040805160e560020a62461bcd028152602060048201526013602482015260008051602061106f833981519152604482015290519081900360640190fd5b6000811015610fb4576040805160e560020a62461bcd02815260206004820152601d602482015260008051602061104f833981519152604482015290519081900360640190fd5b610fc1565b600101610ee7565b60045460ff161515600114611020576040805160e560020a62461bcd02815260206004820152601860248201527f4163636f756e7420616c726561647920756e66726f7a656e0000000000000000604482015290519081900360640190fd5b50506004805460ff1916905556004163636f756e742069732066726f7a656e00000000000000000000000000000046756e6374696f6e206f6e6c7920757361626c65206279206f776e65720000004f776e6572206973206e6f742061637469766500000000000000000000000000a165627a7a7230582084c720ae345db1feb378ef7cc02c0e025a9a06aa85da59c6c9c2900dfd2af412002946756e6374696f6e206f6e6c7920616363657369626c79206279206f776e6572a165627a7a7230582058d73a3a11a8eb7e31f9d476f48ecf90599413fe22d6af175867a88f1780b7e60029",
  "source": "pragma solidity ^0.4.24;\r\n\r\nimport \"./AccessAccount.sol\";\r\nimport \"./DelayAccount.sol\";\r\nimport \"./TrustAccount.sol\";\r\n\r\ncontract Bank {\r\n    address owner;\r\n    //the counter for trust groups\r\n    uint trustGroupNumbers = 1;\r\n    //the limit for all accounts\r\n    uint limit = 40000;\r\n    //the data stored for access and delay accounts\r\n    struct AccountDetails {\r\n        address owner;\r\n        address bankAccount;\r\n        AccessAccount.AccountType typeOfAccount;\r\n    }\r\n    //the data stored for trust accounts\r\n    struct TrustGroupDetails {\r\n        address[] owners;\r\n        address bankAccount;\r\n    }\r\n    //user wallets to their account details \r\n    mapping(address => AccountDetails) userWallets;\r\n    //trust group numbers to their information\r\n    mapping(uint => TrustGroupDetails) trustGroups; \r\n\r\n    /**\r\n        @param userWallet : the address of the new users wallet.\r\n        @dev Checks the account is not curently busy with a transaction. \r\n            This lock is seporate from locks placed on voting (trust accounts). \r\n    */\r\n    modifier isLocked(address userWallet) {\r\n        address usersAccountAddress = userWallets[userWallet].bankAccount;\r\n        AccessAccount usersAccount = AccessAccount(usersAccountAddress);\r\n        require(usersAccount.getFrozen() == false);\r\n        _;\r\n    }\r\n\r\n    /** \r\n      * @dev checks the address is the bank owner.\r\n      */\r\n    modifier isOwner(){\r\n        require(msg.sender == owner, \"Function only accesibly by owner\");\r\n        _;\r\n    }\r\n\r\n    constructor()\r\n        public\r\n    {\r\n        owner = msg.sender;\r\n    }\r\n\r\n    /**\r\n     * @param _userWallet : the address of the users account \r\n     * @return address : the address of the users bank account\r\n     * @dev : needs tinkering \r\n     */\r\n    function getBankAccountAddress(address _userWallet)\r\n        public\r\n        view\r\n        isOwner()\r\n        returns(address)\r\n    {\r\n        return userWallets[_userWallet].bankAccount;\r\n    }\r\n\r\n    function getTrustGroupDetails(uint _groupNumber)\r\n        public\r\n        view\r\n        isOwner()\r\n        returns(address[])\r\n    {\r\n        return trustGroups[_groupNumber].owners;\r\n    }\r\n\r\n    function getTrustAccountAddress(uint _groupNumber)\r\n        public\r\n        view\r\n        isOwner()\r\n        returns(address)\r\n    {\r\n        return trustGroups[_groupNumber].bankAccount;\r\n    }\r\n\r\n    /**\r\n        @param _toLock : The address of the user to lock.\r\n        @dev Allows the bank to lock a user durning a transaction. \r\n    */\r\n    function lockAddress(address _toLock)\r\n        public\r\n        isOwner()\r\n    {\r\n        address usersAccountAddress = userWallets[_toLock].bankAccount;\r\n        AccessAccount usersAccount = AccessAccount(usersAccountAddress);\r\n        usersAccount.freeze();\r\n    }\r\n\r\n    function unlockAddress(address _toUnlock)\r\n        public\r\n        isOwner()\r\n    {\r\n        address usersAccountAddress = userWallets[_toUnlock].bankAccount;\r\n        AccessAccount usersAccount = AccessAccount(usersAccountAddress);\r\n        usersAccount.defrost();\r\n    }\r\n\r\n    /**\r\n      * @dev the user can only have one account on the system at a time, but in a future version \r\n      *     the userWallet[] could be linked to an array of accounts instead of a single account. \r\n      *     E.G: mapping(address => AccountDetails[]) userWallets;\r\n      */\r\n    function createAccessAccount()\r\n        public\r\n        returns(address)\r\n    {   \r\n        address newAccountAddress = new AccessAccount(msg.sender, AccessAccount.AccountType.access, limit);\r\n        \r\n        userWallets[msg.sender] = AccountDetails({\r\n            owner: msg.sender,\r\n            bankAccount: newAccountAddress,\r\n            typeOfAccount: AccessAccount.AccountType.access\r\n        });\r\n\r\n        return newAccountAddress;\r\n    }\r\n\r\n    event LogProgress(string _point);\r\n\r\n    /**\r\n      * @dev if a user already has an account then the new account will override their \r\n      *     current account and it will be lost. This is for a proof of consept and\r\n      *     not an alpha, and therfore this functionality was left out. \r\n      */\r\n    function creatingDelayAccount()\r\n        public\r\n        returns(address)\r\n    {\r\n        address newDelayAccountAddress = new DelayAccount(msg.sender, limit);\r\n        userWallets[msg.sender] = AccountDetails({\r\n            owner: msg.sender,\r\n            bankAccount: newDelayAccountAddress,\r\n            typeOfAccount: AccessAccount.AccountType.delay\r\n        });\r\n\r\n        return newDelayAccountAddress;\r\n    }\r\n\r\n    /**\r\n      * @param _owners : the owners of the trust account\r\n      * @dev \r\n      */\r\n    function creatingTrustAccount(address[] _owners)\r\n        public\r\n        returns(address)\r\n    {\r\n        address newTrustAccountAddress = new TrustAccount(_owners, limit);\r\n        trustGroups[trustGroupNumbers++] = TrustGroupDetails({\r\n            owners: _owners,\r\n            bankAccount: newTrustAccountAddress\r\n        });\r\n\r\n        return newTrustAccountAddress;\r\n    }\r\n\r\n    function lockAccount(address _owner)\r\n        public\r\n        isOwner()\r\n    {\r\n        address accountAddress = userWallets[_owner].bankAccount;\r\n        AccessAccount account = AccessAccount(accountAddress);\r\n        account.freeze();\r\n    }\r\n\r\n    function unlockAccount(address _owner)\r\n        public\r\n        isOwner()\r\n    {\r\n        address accountAddress = userWallets[_owner].bankAccount;\r\n        AccessAccount account = AccessAccount(accountAddress);\r\n        account.defrost();\r\n    }\r\n\r\n    function lockTrustAccount(uint _trustGroupNumber)\r\n        public\r\n        isOwner()\r\n    {\r\n        address accountAddress = trustGroups[_trustGroupNumber].bankAccount;\r\n        TrustAccount account = TrustAccount(accountAddress);\r\n        account.freeze();\r\n    }\r\n\r\n    function unlockTrustAccount(uint _trustGroupNumber)\r\n        public\r\n        isOwner()\r\n    {\r\n        address accountAddress = trustGroups[_trustGroupNumber].bankAccount;\r\n        TrustAccount account = TrustAccount(accountAddress);\r\n        account.defrost();\r\n    }\r\n\r\n    /**\r\n      * @param _oldAddress : the old user wallet address\r\n      * @param _newAddress : the address of the new user wallet\r\n      * @dev changes the ownership of access and delay accounts \r\n      */\r\n    function changeOwnership(address _oldAddress, address _newAddress)\r\n        public\r\n        isOwner()\r\n    {\r\n        require(userWallets[_oldAddress].owner == _oldAddress);\r\n\r\n        address accountAddress = userWallets[_oldAddress].bankAccount;\r\n        AccessAccount accountContract = AccessAccount(accountAddress);\r\n        accountContract.changeOwner(_newAddress);\r\n        userWallets[_newAddress].owner = _newAddress;\r\n        userWallets[_newAddress].bankAccount = accountAddress;\r\n        userWallets[_newAddress].typeOfAccount = userWallets[_oldAddress].typeOfAccount;\r\n        userWallets[_oldAddress].owner = 0x0;\r\n        userWallets[_oldAddress].bankAccount = 0x0;\r\n        userWallets[_oldAddress].typeOfAccount;\r\n    }\r\n\r\n    /**\r\n    struct AccountDetails {\r\n        address owner;\r\n        address bankAccount;\r\n        AccessAccount.AccountType typeOfAccount;\r\n    }\r\n    //the data stored for trust accounts\r\n    struct TrustGroupDetails {\r\n        address[] owners;\r\n        address bankAccount;\r\n    }\r\n     */\r\n\r\n    /**\r\n      * @param _oldAddress : the old user wallet address\r\n      * @param _newAddress : the new user wallet address\r\n      * @param _groupNumber : the trust grup number \r\n      * @dev \r\n      */\r\n    function changeOwnershipTrustGroup(address _oldAddress, address _newAddress, uint _groupNumber)\r\n        public\r\n        isOwner()\r\n    {\r\n        address accountAddress = trustGroups[_groupNumber].bankAccount;\r\n        TrustAccount accountContract = TrustAccount(accountAddress);\r\n        address[] memory newOwners = accountContract.changeOwner(_oldAddress, _newAddress);\r\n        trustGroups[_groupNumber].owners = newOwners;\r\n    }\r\n\r\n    //TODO: make limit modifier \r\n}",
  "sourcePath": "C:\\Users\\Veronica Coutts\\Desktop\\Desktop\\Work\\LinumLabs\\PoCBank\\pocbank\\contracts\\Bank.sol",
  "compiler": {
    "name": "solc",
    "version": "0.4.24+commit.e67f0147.Emscripten.clang"
  },
  "schemaVersion": "2.0.1",
  "updatedAt": "2018-10-02T13:37:56.865Z"
}