{
  "contractName": "Bank",
  "abi": [
    {
      "inputs": [],
      "payable": false,
      "stateMutability": "nonpayable",
      "type": "constructor"
    },
    {
      "constant": true,
      "inputs": [
        {
          "name": "_userWallet",
          "type": "address"
        }
      ],
      "name": "getBankAccountAddress",
      "outputs": [
        {
          "name": "",
          "type": "address"
        }
      ],
      "payable": false,
      "stateMutability": "view",
      "type": "function"
    },
    {
      "constant": false,
      "inputs": [
        {
          "name": "_toLock",
          "type": "address"
        }
      ],
      "name": "lockAddress",
      "outputs": [],
      "payable": false,
      "stateMutability": "nonpayable",
      "type": "function"
    },
    {
      "constant": false,
      "inputs": [
        {
          "name": "_toUnlock",
          "type": "address"
        }
      ],
      "name": "unlockAddress",
      "outputs": [],
      "payable": false,
      "stateMutability": "nonpayable",
      "type": "function"
    },
    {
      "constant": false,
      "inputs": [
        {
          "name": "_limit",
          "type": "uint256"
        }
      ],
      "name": "createAccessAccount",
      "outputs": [
        {
          "name": "",
          "type": "address"
        }
      ],
      "payable": false,
      "stateMutability": "nonpayable",
      "type": "function"
    },
    {
      "constant": false,
      "inputs": [
        {
          "name": "_limit",
          "type": "uint256"
        }
      ],
      "name": "creatingDelayAccount",
      "outputs": [
        {
          "name": "",
          "type": "address"
        }
      ],
      "payable": false,
      "stateMutability": "nonpayable",
      "type": "function"
    },
    {
      "constant": false,
      "inputs": [
        {
          "name": "_owners",
          "type": "address[]"
        },
        {
          "name": "_limit",
          "type": "uint256"
        }
      ],
      "name": "creatingTrustAccount",
      "outputs": [
        {
          "name": "",
          "type": "address"
        }
      ],
      "payable": false,
      "stateMutability": "nonpayable",
      "type": "function"
    }
  ],
  "bytecode": "0x608060405234801561001057600080fd5b5060008054600160a060020a03191633179055613515806100326000396000f3006080604052600436106100775763ffffffff7c01000000000000000000000000000000000000000000000000000000006000350416633491b681811461007c57806334a90d02146100b95780639220b144146100dc578063aa59ce93146100f4578063b7ce4e7b1461010c578063b7eb5e0a14610163575b600080fd5b34801561008857600080fd5b5061009d600160a060020a0360043516610184565b60408051600160a060020a039092168252519081900360200190f35b3480156100c557600080fd5b506100da600160a060020a0360043516610221565b005b3480156100e857600080fd5b5061009d60043561032c565b34801561010057600080fd5b5061009d600435610499565b34801561011857600080fd5b506040805160206004803580820135838102808601850190965280855261009d9536959394602494938501929182918501908490808284375094975050933594506105269350505050565b34801561016f57600080fd5b506100da600160a060020a0360043516610687565b60008054600160a060020a031633146101fe57604080517f08c379a000000000000000000000000000000000000000000000000000000000815260206004820181905260248201527f46756e6374696f6e206f6e6c7920616363657369626c79206279206f776e6572604482015290519081900360640190fd5b50600160a060020a03908116600090815260016020819052604090912001541690565b600080548190600160a060020a0316331461029d57604080517f08c379a000000000000000000000000000000000000000000000000000000000815260206004820181905260248201527f46756e6374696f6e206f6e6c7920616363657369626c79206279206f776e6572604482015290519081900360640190fd5b5050600160a060020a0380821660009081526001602081905260408083209091015481517f62a5af3b0000000000000000000000000000000000000000000000000000000081529151931692839283926362a5af3b926004808301939282900301818387803b15801561030f57600080fd5b505af1158015610323573d6000803e3d6000fd5b50505050505050565b60008060603360008561033d610775565b600160a060020a03841681526020810183600281111561035957fe5b60ff1681526020018281526020019350505050604051809103906000f080158015610388573d6000803e3d6000fd5b509150600081600181518110151561039c57fe5b600160a060020a0392831660209182029092018101919091526040805160808101825233815292851691830191909152810160005b8152602090810183905233600090815260018083526040918290208451815473ffffffffffffffffffffffffffffffffffffffff19908116600160a060020a03928316178355948601519282018054909516921691909117808455918401519092909174ff000000000000000000000000000000000000000019167401000000000000000000000000000000000000000083600281111561046e57fe5b02179055506060820151805161048e916002840191602090910190610785565b509295945050505050565b600080606033846104a86107f7565b600160a060020a0390921682526020820152604080519182900301906000f0801580156104d9573d6000803e3d6000fd5b50915060008160018151811015156104ed57fe5b600160a060020a0392831660209182029092018101919091526040805160808101825233815292851691830191909152810160016103d1565b6000808383610533610807565b60208082018390526040808352845190830152835182916060830191868201910280838360005b8381101561057257818101518382015260200161055a565b505050509050019350505050604051809103906000f08015801561059a573d6000803e3d6000fd5b506040805160808101825260008152600160a060020a03831660208201529192508101600281526020908101869052600160a060020a03808416600090815260018084526040918290208551815490851673ffffffffffffffffffffffffffffffffffffffff1991821617825594860151918101805492909416919094161780835590840151919074ff000000000000000000000000000000000000000019167401000000000000000000000000000000000000000083600281111561065c57fe5b02179055506060820151805161067c916002840191602090910190610785565b509195945050505050565b600080548190600160a060020a0316331461070357604080517f08c379a000000000000000000000000000000000000000000000000000000000815260206004820181905260248201527f46756e6374696f6e206f6e6c7920616363657369626c79206279206f776e6572604482015290519081900360640190fd5b5050600160a060020a0380821660009081526001602081905260408083209091015481517ff21cdf6f00000000000000000000000000000000000000000000000000000000815291519316928392839263f21cdf6f926004808301939282900301818387803b15801561030f57600080fd5b604051610cb88061084c83390190565b8280548282559060005260206000209081019282156107e7579160200282015b828111156107e7578251825473ffffffffffffffffffffffffffffffffffffffff1916600160a060020a039091161782556020909201916001909101906107a5565b506107f3929150610817565b5090565b604051610db88061150483390190565b60405161122e806122bc83390190565b61084891905b808211156107f357805473ffffffffffffffffffffffffffffffffffffffff1916815560010161081d565b905600608060405234801561001057600080fd5b50604051606080610cb883398101604090815281516020830151919092015160018054600160a060020a038516600160a060020a03199182161790915560008054909116331790556004805483919061ff00191661010083600281111561007357fe5b021790555060038190556004805460ff1916905560408051600160a060020a038516815233602082018190527f4f1a20e20b0b2f3cdc1fcd1d7631e4cb35cadb8c1b8ea065a71a94167adf1e0f928692869181018260028111156100d357fe5b60ff168152602001935050505060405180910390a1505050610bbe806100fa6000396000f3006080604052600436106100985763ffffffff7c010000000000000000000000000000000000000000000000000000000060003504166312065fe0811461009d5780632e1a7d4d146100c45780633bef8a3a146100de57806362a5af3b146100f35780637495b35314610108578063893d20e814610131578063a6f9dae114610162578063d0e30db014610183578063f21cdf6f1461018b575b600080fd5b3480156100a957600080fd5b506100b26101a0565b60408051918252519081900360200190f35b3480156100d057600080fd5b506100dc6004356101a6565b005b3480156100ea57600080fd5b506100dc610577565b3480156100ff57600080fd5b506100dc6105f5565b34801561011457600080fd5b5061011d6106c1565b604080519115158252519081900360200190f35b34801561013d57600080fd5b506101466106ca565b60408051600160a060020a039092168252519081900360200190f35b34801561016e57600080fd5b506100dc600160a060020a036004351661074f565b6100dc6108c6565b34801561019757600080fd5b506100dc610a53565b60025490565b600054600160a060020a03163314806101c95750600154600160a060020a031633145b151561021a576040805160e560020a62461bcd0281526020600482015260216024820152600080516020610b73833981519152604482015260f960020a603902606482015290519081900360840190fd5b60045460ff1615610263576040805160e560020a62461bcd0281526020600482015260116024820152600080516020610b53833981519152604482015290519081900360640190fd5b61026b6105f5565b6040805160208082526024908201527f28696e2077697468647261772920616674657220667265657a696e6720616363818301527f6f756e740000000000000000000000000000000000000000000000000000000060608201529051600080516020610b338339815191529181900360800190a16000600454610100900460ff1660028111156102f757fe5b14610372576040805160e560020a62461bcd02815260206004820152602e60248201527f506c65617365207573652077697468647261772066756e6374696f6e20696e2060448201527f6368696c6420636f6e7472616374000000000000000000000000000000000000606482015290519081900360840190fd5b604080516020808252602b908201527f28616674657220312072657175697265292061667465722074727573742f6465818301527f6c6179207265717569726500000000000000000000000000000000000000000060608201529051600080516020610b338339815191529181900360800190a1600254811115610466576040805160e560020a62461bcd02815260206004820152602960248201527f43616e6e6f74207769746864726177206d6f72652066756e6473207468616e2060448201527f617661696c61626c650000000000000000000000000000000000000000000000606482015290519081900360840190fd5b604080516020808252603b908201527f286166746572203220726571756972652920616674657220616d6f756e742067818301527f65747320636865636b656420616761696e73742062616c616e6365000000000060608201529051600080516020610b338339815191529181900360800190a1600280548290039055600154604051600160a060020a039091169082156108fc029083906000818181858888f1935050505015801561051d573d6000803e3d6000fd5b50604080516020808252601b908201527f2829206166746572207472616e73666572696e6720616d6f756e740000000000818301529051600080516020610b338339815191529181900360600190a1610574610a53565b50565b600054600160a060020a031633146105d9576040805160e560020a62461bcd02815260206004820152601c60248201527f46756e6374696f6e206f6e6c7920757361626c652062792062616e6b00000000604482015290519081900360640190fd5b6004805460ff1916600190811790915554600160a060020a0316ff5b600054600160a060020a03163314806106185750600154600160a060020a031633145b1515610669576040805160e560020a62461bcd0281526020600482015260216024820152600080516020610b73833981519152604482015260f960020a603902606482015290519081900360840190fd5b60045460ff16156106b2576040805160e560020a62461bcd0281526020600482015260116024820152600080516020610b53833981519152604482015290519081900360640190fd5b6004805460ff19166001179055565b60045460ff1690565b60008054600160a060020a03163314806106ee5750600154600160a060020a031633145b151561073f576040805160e560020a62461bcd0281526020600482015260216024820152600080516020610b73833981519152604482015260f960020a603902606482015290519081900360840190fd5b50600154600160a060020a031690565b600054600160a060020a031633146107b1576040805160e560020a62461bcd02815260206004820152601c60248201527f46756e6374696f6e206f6e6c7920757361626c652062792062616e6b00000000604482015290519081900360640190fd5b60045460ff16156107fa576040805160e560020a62461bcd0281526020600482015260116024820152600080516020610b53833981519152604482015290519081900360640190fd5b6108026105f5565b6002600454610100900460ff16600281111561081a57fe5b1415610896576040805160e560020a62461bcd02815260206004820152603160248201527f506c6561736520757365206368616e67654f776e65722066756e6374696f6e2060448201527f696e20747275737420636f6e7472616374000000000000000000000000000000606482015290519081900360840190fd5b6001805473ffffffffffffffffffffffffffffffffffffffff1916600160a060020a038316179055610574610a53565b60045460ff161561090f576040805160e560020a62461bcd0281526020600482015260116024820152600080516020610b53833981519152604482015290519081900360640190fd5b60003411610967576040805160e560020a62461bcd02815260206004820152601860248201527f56616c75652063616e6e6f74206265206e656761746976650000000000000000604482015290519081900360640190fd5b600034600254011115156109eb576040805160e560020a62461bcd02815260206004820152602260248201527f56616c75652063616e6e6f74206d616b652062616c616e6365206e656761746960448201527f7665000000000000000000000000000000000000000000000000000000000000606482015290519081900360840190fd5b60035460025434011115610a49576040805160e560020a62461bcd02815260206004820181905260248201527f4465706f7369742074616b6573206163636f756e74206f766572206c696d6974604482015290519081900360640190fd5b6002805434019055565b600054600160a060020a0316331480610a765750600154600160a060020a031633145b1515610ac7576040805160e560020a62461bcd0281526020600482015260216024820152600080516020610b73833981519152604482015260f960020a603902606482015290519081900360840190fd5b60045460ff161515600114610b26576040805160e560020a62461bcd02815260206004820152601860248201527f4163636f756e7420616c726561647920756e66726f7a656e0000000000000000604482015290519081900360640190fd5b6004805460ff191690555600b981afc16bc609765b6005bd910c0e9ef3424f3c61a05afcbbf88d11f414669d4163636f756e742069732066726f7a656e00000000000000000000000000000046756e6374696f6e206f6e6c792061636365737369626c65206279206f776e65a165627a7a72305820ff3c0be09e04d584a4b82b97777e1eb3e64b0798c9f8b4f7384742159986151d00296080604052600160055534801561001557600080fd5b50604051604080610db8833981016040818152825160209384015160018054600160a060020a0319908116600160a060020a0385169081178355600080543393168317905560048054600386905560ff1961010061ff00199092169190911716905586529585019590955282840185905291519093919284929184917f4f1a20e20b0b2f3cdc1fcd1d7631e4cb35cadb8c1b8ea065a71a94167adf1e0f919081900360600190a1505060018054600160a060020a038516600160a060020a0319918216811783556000805490921633908117909255600385905560408051918252602082019290925280820192909252517fba30745a905aaced99b2fceb5b3ee14d5a7bbba87b3dfc68846c48c6a534966492509081900360600190a15050610c75806101436000396000f3006080604052600436106100a35763ffffffff7c010000000000000000000000000000000000000000000000000000000060003504166312065fe081146100a85780632e1a7d4d146100cf5780633bef8a3a146100e957806362a5af3b146100fe5780637495b35314610113578063893d20e81461013c578063a6f9dae11461016d578063ccc143b81461018e578063d0e30db0146101b2578063f21cdf6f146101ba575b600080fd5b3480156100b457600080fd5b506100bd6101cf565b60408051918252519081900360200190f35b3480156100db57600080fd5b506100e76004356101d5565b005b3480156100f557600080fd5b506100e761047a565b34801561010a57600080fd5b506100e76104f8565b34801561011f57600080fd5b506101286105c4565b604080519115158252519081900360200190f35b34801561014857600080fd5b506101516105cd565b60408051600160a060020a039092168252519081900360200190f35b34801561017957600080fd5b506100e7600160a060020a0360043516610652565b34801561019a57600080fd5b506100bd600435600160a060020a03602435166107cc565b6100e761099d565b3480156101c657600080fd5b506100e7610b2a565b60025490565b600080548190600160a060020a03163314806101fb5750600154600160a060020a031633145b151561024c576040805160e560020a62461bcd0281526020600482015260216024820152600080516020610c2a833981519152604482015260f960020a603902606482015290519081900360840190fd5b60045460ff1615610295576040805160e560020a62461bcd0281526020600482015260116024820152600080516020610c0a833981519152604482015290519081900360640190fd5b61029d6104f8565b6005548311156102f7576040805160e560020a62461bcd02815260206004820152601660248201527f4e6f207375636820726571756573742065786973747300000000000000000000604482015290519081900360640190fd5b60008381526006602052604090205491504262278d00830110610364576040805160e560020a62461bcd02815260206004820152601760248201527f333020646179732068617665206e6f7420706173736564000000000000000000604482015290519081900360640190fd5b60008381526006602052604090206002015474010000000000000000000000000000000000000000900460ff16156103e6576040805160e560020a62461bcd02815260206004820152601d60248201527f416d6f756e7420616c7265616479206265656e2077697468647261776e000000604482015290519081900360640190fd5b5060008281526006602052604080822060028101805474ff00000000000000000000000000000000000000001916740100000000000000000000000000000000000000001790819055600191909101549151600160a060020a0390911692839280156108fc02929091818181858888f1935050505015801561046c573d6000803e3d6000fd5b50610475610b2a565b505050565b600054600160a060020a031633146104dc576040805160e560020a62461bcd02815260206004820152601c60248201527f46756e6374696f6e206f6e6c7920757361626c652062792062616e6b00000000604482015290519081900360640190fd5b6004805460ff1916600190811790915554600160a060020a0316ff5b600054600160a060020a031633148061051b5750600154600160a060020a031633145b151561056c576040805160e560020a62461bcd0281526020600482015260216024820152600080516020610c2a833981519152604482015260f960020a603902606482015290519081900360840190fd5b60045460ff16156105b5576040805160e560020a62461bcd0281526020600482015260116024820152600080516020610c0a833981519152604482015290519081900360640190fd5b6004805460ff19166001179055565b60045460ff1690565b60008054600160a060020a03163314806105f15750600154600160a060020a031633145b1515610642576040805160e560020a62461bcd0281526020600482015260216024820152600080516020610c2a833981519152604482015260f960020a603902606482015290519081900360840190fd5b50600154600160a060020a031690565b600054600160a060020a031633146106b4576040805160e560020a62461bcd02815260206004820152601c60248201527f46756e6374696f6e206f6e6c7920757361626c652062792062616e6b00000000604482015290519081900360640190fd5b60045460ff16156106fd576040805160e560020a62461bcd0281526020600482015260116024820152600080516020610c0a833981519152604482015290519081900360640190fd5b6107056104f8565b6002600454610100900460ff16600281111561071d57fe5b1415610799576040805160e560020a62461bcd02815260206004820152603160248201527f506c6561736520757365206368616e67654f776e65722066756e6374696f6e2060448201527f696e20747275737420636f6e7472616374000000000000000000000000000000606482015290519081900360840190fd5b6001805473ffffffffffffffffffffffffffffffffffffffff1916600160a060020a0383161790556107c9610b2a565b50565b600080548190600160a060020a03163314806107f25750600154600160a060020a031633145b1515610843576040805160e560020a62461bcd0281526020600482015260216024820152600080516020610c2a833981519152604482015260f960020a603902606482015290519081900360840190fd5b61084b6104f8565b6002548411156108cb576040805160e560020a62461bcd02815260206004820152602160248201527f43616e6e6f74207769746864726177206d6f7265207468616e2062616c616e6360448201527f6500000000000000000000000000000000000000000000000000000000000000606482015290519081900360840190fd5b506005805460018082018355604080516080810182524281526020808201898152600160a060020a03808a168486019081526000606086018181528982526006909552959095209351845590519483019490945591516002918201805493511515740100000000000000000000000000000000000000000274ff0000000000000000000000000000000000000000199290951673ffffffffffffffffffffffffffffffffffffffff199094169390931716929092179055918190558154859003909155610996610b2a565b9392505050565b60045460ff16156109e6576040805160e560020a62461bcd0281526020600482015260116024820152600080516020610c0a833981519152604482015290519081900360640190fd5b60003411610a3e576040805160e560020a62461bcd02815260206004820152601860248201527f56616c75652063616e6e6f74206265206e656761746976650000000000000000604482015290519081900360640190fd5b60003460025401111515610ac2576040805160e560020a62461bcd02815260206004820152602260248201527f56616c75652063616e6e6f74206d616b652062616c616e6365206e656761746960448201527f7665000000000000000000000000000000000000000000000000000000000000606482015290519081900360840190fd5b60035460025434011115610b20576040805160e560020a62461bcd02815260206004820181905260248201527f4465706f7369742074616b6573206163636f756e74206f766572206c696d6974604482015290519081900360640190fd5b6002805434019055565b600054600160a060020a0316331480610b4d5750600154600160a060020a031633145b1515610b9e576040805160e560020a62461bcd0281526020600482015260216024820152600080516020610c2a833981519152604482015260f960020a603902606482015290519081900360840190fd5b60045460ff161515600114610bfd576040805160e560020a62461bcd02815260206004820152601860248201527f4163636f756e7420616c726561647920756e66726f7a656e0000000000000000604482015290519081900360640190fd5b6004805460ff1916905556004163636f756e742069732066726f7a656e00000000000000000000000000000046756e6374696f6e206f6e6c792061636365737369626c65206279206f776e65a165627a7a72305820bd57f5de8b5e45a973e573d0ff7d82e38196208a3ec20d77e883cb2d8064110300296080604052600060065534801561001557600080fd5b5060405161122e38038061122e83398101604081815282516020808501516001805433600160a060020a03199182168117909255600080549091168217815560048054600385905561ff0019166102001760ff191690558187529286018190526002858701819052945193909601959094919384939192909186917f4f1a20e20b0b2f3cdc1fcd1d7631e4cb35cadb8c1b8ea065a71a94167adf1e0f916060918190039190910190a150506001805433600160a060020a031991821681179092556000805490911690911781556003859055855193509150505b8181101561018557604080519081016040528060011515815260200185600081518110151561011a57fe5b6020908102909101810151600160a060020a0390811690925260068054600090815260078352604090208451815495909301519093166101000261010060a860020a031992151560ff19909516949094179190911692909217905580546001908101909155016100ef565b7f3a650401d4f28871cc7011cf20e98637ced898f0c304280307332b3bfc947f67843385604051808060200184600160a060020a0316600160a060020a03168152602001838152602001828103825285818151815260200191508051906020019060200280838360005b838110156102075781810151838201526020016101ef565b5050505090500194505050505060405180910390a150505050610fff8061022f6000396000f3006080604052600436106100a35763ffffffff7c010000000000000000000000000000000000000000000000000000000060003504166312065fe081146100a85780632e1a7d4d146100cf5780633bef8a3a146100e957806362a5af3b146100fe5780637495b35314610113578063893d20e81461013c578063a6f9dae11461016d578063d0e30db01461018e578063f00d4b5d14610196578063f21cdf6f146101bd575b600080fd5b3480156100b457600080fd5b506100bd6101d2565b60408051918252519081900360200190f35b3480156100db57600080fd5b506100e76004356101d8565b005b3480156100f557600080fd5b506100e761051b565b34801561010a57600080fd5b506100e7610599565b34801561011f57600080fd5b506101286106ec565b604080519115158252519081900360200190f35b34801561014857600080fd5b506101516106f5565b60408051600160a060020a039092168252519081900360200190f35b34801561017957600080fd5b506100e7600160a060020a0360043516610806565b6100e7610980565b3480156101a257600080fd5b506100e7600160a060020a0360043581169060243516610b0d565b3480156101c957600080fd5b506100e7610e0d565b60025490565b60065460008054600160a060020a03163314156101f4576102d1565b50805b60008111156102d1576000828152600760205260409020546101009004600160a060020a03163314156102c95760008281526007602052604090205460ff16151560011461027d576040805160e560020a62461bcd0281526020600482015260136024820152600080516020610fb4833981519152604482015290519081900360640190fd5b60008210156102c4576040805160e560020a62461bcd02815260206004820152601d6024820152600080516020610f94833981519152604482015290519081900360640190fd5b6102d1565b6001016101f7565b60045460ff161561031a576040805160e560020a62461bcd0281526020600482015260116024820152600080516020610f74833981519152604482015290519081900360640190fd5b610322610599565b6002600454610100900460ff16600281111561033a57fe5b14156103b6576040805160e560020a62461bcd02815260206004820152602e60248201527f506c65617365207573652077697468647261772066756e6374696f6e20696e2060448201527f747275737420636f6e7472616374000000000000000000000000000000000000606482015290519081900360840190fd5b6001600454610100900460ff1660028111156103ce57fe5b141561044a576040805160e560020a62461bcd02815260206004820152602e60248201527f506c65617365207573652077697468647261772066756e6374696f6e20696e2060448201527f64656c617920636f6e7472616374000000000000000000000000000000000000606482015290519081900360840190fd5b6002548311156104ca576040805160e560020a62461bcd02815260206004820152602960248201527f43616e6e6f74207769746864726177206d6f72652066756e6473207468616e2060448201527f617661696c61626c650000000000000000000000000000000000000000000000606482015290519081900360840190fd5b600280548490039055600154604051600160a060020a039091169084156108fc029085906000818181858888f1935050505015801561050d573d6000803e3d6000fd5b50610516610e0d565b505050565b600054600160a060020a0316331461057d576040805160e560020a62461bcd02815260206004820152601c60248201527f46756e6374696f6e206f6e6c7920757361626c652062792062616e6b00000000604482015290519081900360640190fd5b6004805460ff1916600190811790915554600160a060020a0316ff5b60065460008054600160a060020a03163314156105b557610692565b50805b6000811115610692576000828152600760205260409020546101009004600160a060020a031633141561068a5760008281526007602052604090205460ff16151560011461063e576040805160e560020a62461bcd0281526020600482015260136024820152600080516020610fb4833981519152604482015290519081900360640190fd5b6000821015610685576040805160e560020a62461bcd02815260206004820152601d6024820152600080516020610f94833981519152604482015290519081900360640190fd5b610692565b6001016105b8565b60045460ff16156106db576040805160e560020a62461bcd0281526020600482015260116024820152600080516020610f74833981519152604482015290519081900360640190fd5b50506004805460ff19166001179055565b60045460ff1690565b600654600080549091908290600160a060020a0316331415610716576107f3565b50805b60008111156107f3576000828152600760205260409020546101009004600160a060020a03163314156107eb5760008281526007602052604090205460ff16151560011461079f576040805160e560020a62461bcd0281526020600482015260136024820152600080516020610fb4833981519152604482015290519081900360640190fd5b60008210156107e6576040805160e560020a62461bcd02815260206004820152601d6024820152600080516020610f94833981519152604482015290519081900360640190fd5b6107f3565b600101610719565b600154600160a060020a03169250505090565b600054600160a060020a03163314610868576040805160e560020a62461bcd02815260206004820152601c60248201527f46756e6374696f6e206f6e6c7920757361626c652062792062616e6b00000000604482015290519081900360640190fd5b60045460ff16156108b1576040805160e560020a62461bcd0281526020600482015260116024820152600080516020610f74833981519152604482015290519081900360640190fd5b6108b9610599565b6002600454610100900460ff1660028111156108d157fe5b141561094d576040805160e560020a62461bcd02815260206004820152603160248201527f506c6561736520757365206368616e67654f776e65722066756e6374696f6e2060448201527f696e20747275737420636f6e7472616374000000000000000000000000000000606482015290519081900360840190fd5b6001805473ffffffffffffffffffffffffffffffffffffffff1916600160a060020a03831617905561097d610e0d565b50565b60045460ff16156109c9576040805160e560020a62461bcd0281526020600482015260116024820152600080516020610f74833981519152604482015290519081900360640190fd5b60003411610a21576040805160e560020a62461bcd02815260206004820152601860248201527f56616c75652063616e6e6f74206265206e656761746976650000000000000000604482015290519081900360640190fd5b60003460025401111515610aa5576040805160e560020a62461bcd02815260206004820152602260248201527f56616c75652063616e6e6f74206d616b652062616c616e6365206e656761746960448201527f7665000000000000000000000000000000000000000000000000000000000000606482015290519081900360840190fd5b60035460025434011115610b03576040805160e560020a62461bcd02815260206004820181905260248201527f4465706f7369742074616b6573206163636f756e74206f766572206c696d6974604482015290519081900360640190fd5b6002805434019055565b60065460008054909182918290600160a060020a0316331415610b2f57610c0c565b50805b6000811115610c0c576000828152600760205260409020546101009004600160a060020a0316331415610c045760008281526007602052604090205460ff161515600114610bb8576040805160e560020a62461bcd0281526020600482015260136024820152600080516020610fb4833981519152604482015290519081900360640190fd5b6000821015610bff576040805160e560020a62461bcd02815260206004820152601d6024820152600080516020610f94833981519152604482015290519081900360640190fd5b610c0c565b600101610b32565b60045460ff1615610c55576040805160e560020a62461bcd0281526020600482015260116024820152600080516020610f74833981519152604482015290519081900360640190fd5b610c5d610599565b600654600081815260076020526040902054909450600160a060020a03868116610100909204161415610d19576000848152600760205260408120805474ffffffffffffffffffffffffffffffffffffffff001916610100600160a060020a038a16021790558411610d19576040805160e560020a62461bcd02815260206004820181905260248201527f4f6c64204f776e65722041646472657373204e6f74207265636f676e69736564604482015290519081900360640190fd5b8392505b6000831115610dfd57600084815260076020526040902054600160a060020a03868116610100909204161415610df25760008481526007602052604090205460ff161515600114610da6576040805160e560020a62461bcd0281526020600482015260136024820152600080516020610fb4833981519152604482015290519081900360640190fd5b6000841015610ded576040805160e560020a62461bcd02815260206004820152601d6024820152600080516020610f94833981519152604482015290519081900360640190fd5b610dfd565b600190920191610d1d565b610e05610e0d565b505050505050565b60065460008054600160a060020a0316331415610e2957610f06565b50805b6000811115610f06576000828152600760205260409020546101009004600160a060020a0316331415610efe5760008281526007602052604090205460ff161515600114610eb2576040805160e560020a62461bcd0281526020600482015260136024820152600080516020610fb4833981519152604482015290519081900360640190fd5b6000821015610ef9576040805160e560020a62461bcd02815260206004820152601d6024820152600080516020610f94833981519152604482015290519081900360640190fd5b610f06565b600101610e2c565b60045460ff161515600114610f65576040805160e560020a62461bcd02815260206004820152601860248201527f4163636f756e7420616c726561647920756e66726f7a656e0000000000000000604482015290519081900360640190fd5b50506004805460ff1916905556004163636f756e742069732066726f7a656e00000000000000000000000000000046756e6374696f6e206f6e6c7920757361626c65206279206f776e65720000004f776e6572206973206e6f742061637469766500000000000000000000000000a165627a7a72305820695ce5f2b9402df9a0ef9cc555964e730703b84bc9340d3e3f4d65521635a1d40029a165627a7a7230582095be552c4ea76131f50d938623458fceb79ecd5678b8f62c602fb984b70ee2050029",
  "source": "pragma solidity ^0.4.24;\r\n\r\nimport \"./AccessAccount.sol\";\r\nimport \"./DelayAccount.sol\";\r\nimport \"./TrustAccount.sol\";\r\n\r\ncontract Bank {\r\n    address owner;\r\n    struct AccountDetails {\r\n        address owner;\r\n        address bankAccount;\r\n        AccessAccount.AccountType typeOfAccount;\r\n        address[] owners;\r\n    }\r\n    //user wallets to their account details \r\n    mapping(address => AccountDetails) userWallets;\r\n    // mapping(address => address[]) trustGroups; //contracts to owner details\r\n\r\n    /**\r\n        @param userWallet : the address of the new users wallet.\r\n        @dev Checks the account is not curently busy with a transaction. \r\n            This lock is seporate from locks placed on voting (trust accounts). \r\n    */\r\n    modifier isLocked(address userWallet) {\r\n        address usersAccountAddress = userWallets[userWallet].bankAccount;\r\n        AccessAccount usersAccount = AccessAccount(usersAccountAddress);\r\n        require(usersAccount.getFrozen() == false);\r\n        _;\r\n    }\r\n\r\n    /** \r\n      * @dev checks the address is the bank owner.\r\n      */\r\n    modifier isOwner(){\r\n        require(msg.sender == owner, \"Function only accesibly by owner\");\r\n        _;\r\n    }\r\n\r\n    constructor()\r\n        public\r\n    {\r\n        owner = msg.sender;\r\n    }\r\n\r\n    /**\r\n     * @param _userWallet : the address of the users account \r\n     * @return address : the address of the users bank account\r\n     * @dev : needs tinkering \r\n     */\r\n    function getBankAccountAddress(address _userWallet)\r\n        public\r\n        view\r\n        isOwner()\r\n        returns(address)\r\n    {\r\n        return userWallets[_userWallet].bankAccount;\r\n    }\r\n\r\n    /**\r\n        @param _toLock : The address of the user to lock.\r\n        @dev Allows the bank to lock a user durning a transaction. \r\n    */\r\n    function lockAddress(address _toLock)\r\n        public\r\n        isOwner()\r\n    {\r\n        address usersAccountAddress = userWallets[_toLock].bankAccount;\r\n        AccessAccount usersAccount = AccessAccount(usersAccountAddress);\r\n        usersAccount.freeze();\r\n    }\r\n\r\n    function unlockAddress(address _toUnlock)\r\n        public\r\n        isOwner()\r\n    {\r\n        address usersAccountAddress = userWallets[_toUnlock].bankAccount;\r\n        AccessAccount usersAccount = AccessAccount(usersAccountAddress);\r\n        usersAccount.defrost();\r\n    }\r\n\r\n//was going to do it like this, but as the various contracts require different \r\n//arguments it prooved more cumbersome than just creating seporate functions\r\n    // function createAccount(AccessAccount.AccountType _chosenAccountType)\r\n    //     public\r\n    //     payable \r\n    //     // isLocked(msg.sender)\r\n    //     returns(address)\r\n    // {\r\n    //     uint balance = msg.value;\r\n    //     if(_chosenAccountType == AccessAccount.AccountType.access){\r\n    //         return creatingAccessAccount(msg.sender);\r\n    //     } else if(_chosenAccountType == AccessAccount.AccountType.delay) {\r\n    //         return creatingDelayAccount(msg.sender);\r\n    //     } else if(_chosenAccountType == AccessAccount.AccountType.trust) {\r\n    //         return creatingTrustAccount(msg.sender);\r\n    //     } else {\r\n    //         return 0x0;\r\n    //     }\r\n    // }\r\n\r\n    /**\r\n      * @param _limit : the limit to how much value can be stored in the contract\r\n      * @dev the user can only have one account on the system at a time, but in a future version \r\n      *     the userWallet[] could be linked to an array of accounts instead of a single account. \r\n      *     E.G: mapping(address => AccountDetails[]) userWallets;\r\n      */\r\n    function createAccessAccount(uint _limit)\r\n        public\r\n        returns(address)\r\n    {   \r\n        address newAccountAddress = new AccessAccount(msg.sender, AccessAccount.AccountType.access, _limit);\r\n        address[] memory temp;\r\n        temp[1] = 0x0;\r\n        userWallets[msg.sender] = AccountDetails ({\r\n            owner: msg.sender,\r\n            bankAccount: newAccountAddress,\r\n            typeOfAccount: AccessAccount.AccountType.access,\r\n            owners: temp\r\n        });\r\n\r\n        return newAccountAddress;\r\n    }\r\n\r\n    /**\r\n      * @param _limit : the limit to how much value can be stored in the contract\r\n      * @dev if a user already has an account then the new account will override their \r\n      *     current account and it will be lost. This is for a proof of consept and\r\n      *     not an alpha, and therfore this functionality was left out. \r\n      */\r\n    function creatingDelayAccount(uint _limit)\r\n        public\r\n        returns(address)\r\n    {\r\n        address newDelayAccountAddress = new DelayAccount(msg.sender, _limit);\r\n        address[] memory temp;\r\n        temp[1] = 0x0;\r\n        userWallets[msg.sender] = AccountDetails ({\r\n            owner: msg.sender,\r\n            bankAccount: newDelayAccountAddress,\r\n            typeOfAccount: AccessAccount.AccountType.delay,\r\n            owners: temp\r\n        });\r\n\r\n        return newDelayAccountAddress;\r\n    }\r\n\r\n    function creatingTrustAccount(address[] _owners, uint _limit)\r\n        public\r\n        returns(address)\r\n    {\r\n        address newTrustAccountAddress = new TrustAccount(_owners, _limit);\r\n        userWallets[newTrustAccountAddress] = AccountDetails ({\r\n            owner: 0x0,\r\n            bankAccount: newTrustAccountAddress,\r\n            typeOfAccount: AccessAccount.AccountType.trust,\r\n            owners: _owners\r\n        });\r\n\r\n        return newTrustAccountAddress;\r\n    }\r\n\r\n\r\n}",
  "sourcePath": "C:\\Users\\Veronica Coutts\\Desktop\\Desktop\\Work\\LinumLabs\\PoCBank\\pocbank\\contracts\\Bank.sol",
  "compiler": {
    "name": "solc",
    "version": "0.4.24+commit.e67f0147.Emscripten.clang"
  },
  "schemaVersion": "2.0.1",
  "updatedAt": "2018-10-02T09:02:53.890Z"
}