{
  "contractName": "Bank",
  "abi": [
    {
      "inputs": [],
      "payable": false,
      "stateMutability": "nonpayable",
      "type": "constructor"
    },
    {
      "anonymous": false,
      "inputs": [
        {
          "indexed": false,
          "name": "_owners",
          "type": "address[]"
        },
        {
          "indexed": false,
          "name": "_accountType",
          "type": "uint8"
        },
        {
          "indexed": false,
          "name": "_initialBalance",
          "type": "uint256"
        }
      ],
      "name": "UserCreated",
      "type": "event"
    },
    {
      "constant": true,
      "inputs": [
        {
          "name": "_userWallet",
          "type": "address"
        }
      ],
      "name": "getBankAccountAddress",
      "outputs": [
        {
          "name": "",
          "type": "address"
        }
      ],
      "payable": false,
      "stateMutability": "view",
      "type": "function"
    },
    {
      "constant": false,
      "inputs": [
        {
          "name": "_chosenType",
          "type": "uint8"
        }
      ],
      "name": "createBankAccount",
      "outputs": [
        {
          "name": "",
          "type": "address"
        }
      ],
      "payable": true,
      "stateMutability": "payable",
      "type": "function"
    },
    {
      "constant": true,
      "inputs": [],
      "name": "isAccountFrozen",
      "outputs": [
        {
          "name": "",
          "type": "bool"
        }
      ],
      "payable": false,
      "stateMutability": "view",
      "type": "function"
    },
    {
      "constant": false,
      "inputs": [
        {
          "name": "_bankAccounts",
          "type": "address"
        }
      ],
      "name": "freezeAccount",
      "outputs": [
        {
          "name": "",
          "type": "bool"
        }
      ],
      "payable": false,
      "stateMutability": "nonpayable",
      "type": "function"
    },
    {
      "constant": false,
      "inputs": [
        {
          "name": "_bankAccount",
          "type": "address"
        }
      ],
      "name": "unfreezeAccount",
      "outputs": [
        {
          "name": "",
          "type": "bool"
        }
      ],
      "payable": false,
      "stateMutability": "nonpayable",
      "type": "function"
    },
    {
      "constant": false,
      "inputs": [
        {
          "name": "_newAddress",
          "type": "address"
        },
        {
          "name": "_oldAddress",
          "type": "address"
        }
      ],
      "name": "changeOwnership",
      "outputs": [
        {
          "name": "",
          "type": "bool"
        }
      ],
      "payable": false,
      "stateMutability": "nonpayable",
      "type": "function"
    },
    {
      "constant": false,
      "inputs": [
        {
          "name": "_fundsReciver",
          "type": "address"
        }
      ],
      "name": "dissolveAccount",
      "outputs": [
        {
          "name": "",
          "type": "bool"
        }
      ],
      "payable": false,
      "stateMutability": "nonpayable",
      "type": "function"
    }
  ],
  "bytecode": "0x608060405234801561001057600080fd5b50336000806101000a81548173ffffffffffffffffffffffffffffffffffffffff021916908373ffffffffffffffffffffffffffffffffffffffff16021790555061186d806100606000396000f300608060405260043610610083576000357c0100000000000000000000000000000000000000000000000000000000900463ffffffff1680633491b6811461008857806338ad08131461010b578063788649ea1461016e5780637c02a329146101c9578063bf93a8be146101f8578063e2a5ae3a14610273578063f26c159f146102ce575b600080fd5b34801561009457600080fd5b506100c9600480360381019080803573ffffffffffffffffffffffffffffffffffffffff169060200190929190505050610329565b604051808273ffffffffffffffffffffffffffffffffffffffff1673ffffffffffffffffffffffffffffffffffffffff16815260200191505060405180910390f35b61012c600480360381019080803560ff1690602001909291905050506103f0565b604051808273ffffffffffffffffffffffffffffffffffffffff1673ffffffffffffffffffffffffffffffffffffffff16815260200191505060405180910390f35b34801561017a57600080fd5b506101af600480360381019080803573ffffffffffffffffffffffffffffffffffffffff169060200190929190505050610866565b604051808215151515815260200191505060405180910390f35b3480156101d557600080fd5b506101de610871565b604051808215151515815260200191505060405180910390f35b34801561020457600080fd5b50610259600480360381019080803573ffffffffffffffffffffffffffffffffffffffff169060200190929190803573ffffffffffffffffffffffffffffffffffffffff1690602001909291905050506108c5565b604051808215151515815260200191505060405180910390f35b34801561027f57600080fd5b506102b4600480360381019080803573ffffffffffffffffffffffffffffffffffffffff1690602001909291905050506108d1565b604051808215151515815260200191505060405180910390f35b3480156102da57600080fd5b5061030f600480360381019080803573ffffffffffffffffffffffffffffffffffffffff169060200190929190505050610c5e565b604051808215151515815260200191505060405180910390f35b60008060009054906101000a900473ffffffffffffffffffffffffffffffffffffffff1673ffffffffffffffffffffffffffffffffffffffff163373ffffffffffffffffffffffffffffffffffffffff1614151561038657600080fd5b600160008373ffffffffffffffffffffffffffffffffffffffff1673ffffffffffffffffffffffffffffffffffffffff16815260200190815260200160002060010160009054906101000a900473ffffffffffffffffffffffffffffffffffffffff169050919050565b600080600080600060018660ff16141561083857303361040e610eb6565b808373ffffffffffffffffffffffffffffffffffffffff1673ffffffffffffffffffffffffffffffffffffffff1681526020018273ffffffffffffffffffffffffffffffffffffffff1673ffffffffffffffffffffffffffffffffffffffff16815260200192505050604051809103906000f080158015610493573d6000803e3d6000fd5b5093503492508391508173ffffffffffffffffffffffffffffffffffffffff1663b6b55f2534856040518363ffffffff167c0100000000000000000000000000000000000000000000000000000000028152600401808281526020019150506000604051808303818588803b15801561050b57600080fd5b505af115801561051f573d6000803e3d6000fd5b50505050503081600081548110151561053457fe5b9060005260206000200160006101000a81548173ffffffffffffffffffffffffffffffffffffffff021916908373ffffffffffffffffffffffffffffffffffffffff1602179055503381600181548110151561058c57fe5b9060005260206000200160006101000a81548173ffffffffffffffffffffffffffffffffffffffff021916908373ffffffffffffffffffffffffffffffffffffffff1602179055506060604051908101604052808280548060200260200160405190810160405280929190818152602001828054801561066157602002820191906000526020600020905b8160009054906101000a900473ffffffffffffffffffffffffffffffffffffffff1673ffffffffffffffffffffffffffffffffffffffff1681526020019060010190808311610617575b505050505081526020018573ffffffffffffffffffffffffffffffffffffffff1681526020016000600281111561069457fe5b815250600160003373ffffffffffffffffffffffffffffffffffffffff1673ffffffffffffffffffffffffffffffffffffffff16815260200190815260200160002060008201518160000190805190602001906106f2929190610ec6565b5060208201518160010160006101000a81548173ffffffffffffffffffffffffffffffffffffffff021916908373ffffffffffffffffffffffffffffffffffffffff16021790555060408201518160010160146101000a81548160ff0219169083600281111561075e57fe5b02179055509050507fa09a583705cb34179154e451066f65f998d9173daf727a206854ad4a0c14eb3981600085604051808060200184600281111561079f57fe5b60ff168152602001838152602001828103825285818154815260200191508054801561082057602002820191906000526020600020905b8160009054906101000a900473ffffffffffffffffffffffffffffffffffffffff1673ffffffffffffffffffffffffffffffffffffffff16815260200190600101908083116107d6575b505094505050505060405180910390a183945061085d565b60028660ff1614156108495761085c565b60038660ff16141561085a5761085b565b5b5b5b50505050919050565b600060019050919050565b6000600260003373ffffffffffffffffffffffffffffffffffffffff1673ffffffffffffffffffffffffffffffffffffffff16815260200190815260200160002060009054906101000a900460ff16905090565b60006001905092915050565b600033600060011515600260008473ffffffffffffffffffffffffffffffffffffffff1673ffffffffffffffffffffffffffffffffffffffff16815260200190815260200160002060009054906101000a900460ff1615151415151561093657600080fd5b6000600160008473ffffffffffffffffffffffffffffffffffffffff1673ffffffffffffffffffffffffffffffffffffffff16815260200190815260200160002060010160009054906101000a900473ffffffffffffffffffffffffffffffffffffffff1673ffffffffffffffffffffffffffffffffffffffff16141515610c2b57600060028111156109c557fe5b600160008473ffffffffffffffffffffffffffffffffffffffff1673ffffffffffffffffffffffffffffffffffffffff16815260200190815260200160002060010160149054906101000a900460ff166002811115610a2057fe5b1415610b4257600160008373ffffffffffffffffffffffffffffffffffffffff1673ffffffffffffffffffffffffffffffffffffffff16815260200190815260200160002060010160009054906101000a900473ffffffffffffffffffffffffffffffffffffffff169050600115158173ffffffffffffffffffffffffffffffffffffffff1663a4e2d6346040518163ffffffff167c0100000000000000000000000000000000000000000000000000000000028152600401602060405180830381600087803b158015610af357600080fd5b505af1158015610b07573d6000803e3d6000fd5b505050506040513d6020811015610b1d57600080fd5b8101908080519060200190929190505050151514151515610b3d57600080fd5b610c2a565b60016002811115610b4f57fe5b600160008473ffffffffffffffffffffffffffffffffffffffff1673ffffffffffffffffffffffffffffffffffffffff16815260200190815260200160002060010160149054906101000a900460ff166002811115610baa57fe5b1415610bb557610c29565b600280811115610bc157fe5b600160008473ffffffffffffffffffffffffffffffffffffffff1673ffffffffffffffffffffffffffffffffffffffff16815260200190815260200160002060010160149054906101000a900460ff166002811115610c1c57fe5b1415610c2757610c28565b5b5b5b5b610c3433610c69565b1515610c3f57600080fd5b610c4833610d93565b1515610c5357600080fd5b600192505050919050565b600060019050919050565b6000801515600260008473ffffffffffffffffffffffffffffffffffffffff1673ffffffffffffffffffffffffffffffffffffffff16815260200190815260200160002060009054906101000a900460ff161515141515610d32576040517f08c379a000000000000000000000000000000000000000000000000000000000815260040180806020018281038252601a8152602001807f557365722077616c6c657420616c7265616479206c6f636b656400000000000081525060200191505060405180910390fd5b6001600260008473ffffffffffffffffffffffffffffffffffffffff1673ffffffffffffffffffffffffffffffffffffffff16815260200190815260200160002060006101000a81548160ff02191690831515021790555060019050919050565b600060011515600260008473ffffffffffffffffffffffffffffffffffffffff1673ffffffffffffffffffffffffffffffffffffffff16815260200190815260200160002060009054906101000a900460ff161515141515610e5d576040517f08c379a000000000000000000000000000000000000000000000000000000000815260040180806020018281038252601b8152602001807f557365722077616c6c65742061726561647920756e6c6f636b6564000000000081525060200191505060405180910390fd5b60001515600260008473ffffffffffffffffffffffffffffffffffffffff1673ffffffffffffffffffffffffffffffffffffffff16815260200190815260200160002060009054906101000a9050505060019050919050565b6040516108ae80610f9483390190565b828054828255906000526020600020908101928215610f3f579160200282015b82811115610f3e5782518260006101000a81548173ffffffffffffffffffffffffffffffffffffffff021916908373ffffffffffffffffffffffffffffffffffffffff16021790555091602001919060010190610ee6565b5b509050610f4c9190610f50565b5090565b610f9091905b80821115610f8c57600081816101000a81549073ffffffffffffffffffffffffffffffffffffffff021916905550600101610f56565b5090565b90560060806040526000600160146101000a81548160ff02191690831515021790555034801561002b57600080fd5b506040516040806108ae83398101806040528101908080519060200190929190805190602001909291905050507f1c496c617e309952d64ad8cfc4ddc11c57213ad9137060bd7ad8494237eac3dc60013060405180806020018481526020018373ffffffffffffffffffffffffffffffffffffffff1673ffffffffffffffffffffffffffffffffffffffff168152602001828103825260148152602001807f437265617465642074686520636f6e7472616374000000000000000000000000815250602001935050505060405180910390a1806000806101000a81548173ffffffffffffffffffffffffffffffffffffffff021916908373ffffffffffffffffffffffffffffffffffffffff16021790555081600160006101000a81548173ffffffffffffffffffffffffffffffffffffffff021916908373ffffffffffffffffffffffffffffffffffffffff160217905550505061071f8061018f6000396000f30060806040526004361061006d576000357c0100000000000000000000000000000000000000000000000000000000900463ffffffff1680632e1a7d4d146100725780633ff1e05b146100aa578063a4e2d634146100d5578063b6b55f2514610104578063cfe52bdd14610124575b600080fd5b61009060048036038101908080359060200190929190505050610172565b604051808215151515815260200191505060405180910390f35b3480156100b657600080fd5b506100bf6103ad565b6040518082815260200191505060405180910390f35b3480156100e157600080fd5b506100ea610481565b604051808215151515815260200191505060405180910390f35b61012260048036038101908080359060200190929190505050610498565b005b610158600480360381019080803573ffffffffffffffffffffffffffffffffffffffff169060200190929190505050610560565b604051808215151515815260200191505060405180910390f35b60008060001515600160149054906101000a900460ff16151514151561019757600080fd5b600160009054906101000a900473ffffffffffffffffffffffffffffffffffffffff169050600015158173ffffffffffffffffffffffffffffffffffffffff16637c02a3296040518163ffffffff167c0100000000000000000000000000000000000000000000000000000000028152600401602060405180830381600087803b15801561022457600080fd5b505af1158015610238573d6000803e3d6000fd5b505050506040513d602081101561024e57600080fd5b8101908080519060200190929190505050151514151561026d57600080fd5b610275610661565b151561028057600080fd5b6002548310151561031f576040517f08c379a00000000000000000000000000000000000000000000000000000000081526004018080602001828103825260218152602001807f43616e6e6f74207769746864726177206d6f7265207468616e2062616c616e6381526020017f650000000000000000000000000000000000000000000000000000000000000081525060400191505060405180910390fd5b6000836002540311151561033257600080fd5b82600254036002819055506000809054906101000a900473ffffffffffffffffffffffffffffffffffffffff1673ffffffffffffffffffffffffffffffffffffffff166108fc849081150290604051600060405180830381858888f193505050505061039c6106aa565b15156103a757600080fd5b50919050565b6000336000809054906101000a900473ffffffffffffffffffffffffffffffffffffffff1673ffffffffffffffffffffffffffffffffffffffff168173ffffffffffffffffffffffffffffffffffffffff1614806104585750600160009054906101000a900473ffffffffffffffffffffffffffffffffffffffff1673ffffffffffffffffffffffffffffffffffffffff168173ffffffffffffffffffffffffffffffffffffffff16145b151561046357600080fd5b3073ffffffffffffffffffffffffffffffffffffffff163191505090565b6000600160149054906101000a900460ff16905090565b336000809054906101000a900473ffffffffffffffffffffffffffffffffffffffff1673ffffffffffffffffffffffffffffffffffffffff168173ffffffffffffffffffffffffffffffffffffffff1614806105415750600160009054906101000a900473ffffffffffffffffffffffffffffffffffffffff1673ffffffffffffffffffffffffffffffffffffffff168173ffffffffffffffffffffffffffffffffffffffff16145b151561054c57600080fd5b346002600082825401925050819055505050565b60008060001515600160149054906101000a900460ff16151514151561058557600080fd5b600160009054906101000a900473ffffffffffffffffffffffffffffffffffffffff169050600015158173ffffffffffffffffffffffffffffffffffffffff16637c02a3296040518163ffffffff167c0100000000000000000000000000000000000000000000000000000000028152600401602060405180830381600087803b15801561061257600080fd5b505af1158015610626573d6000803e3d6000fd5b505050506040513d602081101561063c57600080fd5b8101908080519060200190929190505050151514151561065b57600080fd5b50919050565b600060011515600160149054906101000a900460ff161515141561068857600090506106a7565b60018060146101000a81548160ff021916908315150217905550600190505b90565b6000801515600160149054906101000a900460ff16151514156106d057600090506106f0565b6000600160146101000a81548160ff021916908315150217905550600190505b905600a165627a7a72305820deebe029da77c48b72b405ab5bef134fea2983c05143172ba3138c5880d80c350029a165627a7a72305820561046085adfd989b7eed5338a45c9167064699a704c1ddea4fae46fd30ec65f0029",
  "source": "pragma solidity ^0.4.24;\r\n\r\nimport \"./AccessAccount.sol\";\r\n\r\ncontract Bank {\r\n    \r\n    address owner;\r\n    enum AccountType {access, delay, trust}\r\n    struct AccountDetails {\r\n        address[] owners;\r\n        address bankAccount;\r\n        AccountType typeOfAccount;\r\n    }\r\n    \r\n    mapping (address => AccountDetails) private userWallets;\r\n    mapping(address => bool) userWalletLocks;\r\n    \r\n    event UserCreated(address[] _owners, AccountType _accountType, uint _initialBalance);\r\n    \r\n    /**\r\n        @param userWallet : the address of the new users wallet.\r\n        @dev Checks the account is not curently busy with a transaction. \r\n            This lock is seporate from locks placed on voting (trust accounts). \r\n    */\r\n    modifier isLocked(address userWallet) {\r\n        require(userWalletLocks[userWallet] != true);\r\n        if(userWallets[userWallet].bankAccount != 0x0){\r\n            if(userWallets[userWallet].typeOfAccount == AccountType.access){\r\n                //access account \r\n                 AccessAccount isLockedAccount = AccessAccount(userWallets[userWallet].bankAccount);\r\n                 require(isLockedAccount.isLocked() != true);\r\n            } else if(userWallets[userWallet].typeOfAccount == AccountType.delay){\r\n                //delay, 30 days, account\r\n                \r\n            } else if(userWallets[userWallet].typeOfAccount == AccountType.trust){\r\n                //trust account\r\n                \r\n            } else {\r\n                //user accoutn not identified\r\n            }\r\n        }\r\n        _;\r\n    }\r\n    \r\n    constructor() \r\n        public\r\n    {\r\n        owner = msg.sender;\r\n    }\r\n    \r\n    function getBankAccountAddress(address _userWallet)\r\n        public\r\n        view\r\n        returns(address)\r\n    {\r\n        require(msg.sender == owner);\r\n        return userWallets[_userWallet].bankAccount;\r\n    }\r\n    \r\n    /**\r\n        @param _toLock : The address of the user to lock.\r\n        @dev Allows the bank to lock a user durning a transaction. \r\n    */\r\n    function lockAddress(address _toLock)\r\n        internal\r\n        returns(bool)\r\n    {\r\n        require(userWalletLocks[_toLock] == false, \"User wallet already locked\");\r\n        userWalletLocks[_toLock] = true;\r\n        return true;\r\n    }\r\n    \r\n    function unlockUser(address _toUnlock)\r\n        internal\r\n        returns(bool)\r\n    {\r\n        require(userWalletLocks[_toUnlock] == true, \"User wallet aready unlocked\");\r\n        userWalletLocks[_toUnlock] == false;\r\n        //TODO: unlock the linked bank account if it exisits\r\n        return true;\r\n    }\r\n    \r\n    /**\r\n        @param _chosenType : The type of account. \r\n                1 : access account\r\n                2 : delay, or the 30 days withdrawls account\r\n                3 : the shared access trust account\r\n        @dev This function makes the contracts for the users, with \r\n            different data reqirements. \r\n    */\r\n    function createBankAccount(uint8 _chosenType) \r\n        public\r\n        payable\r\n        // isLocked(msg.sender)\r\n        returns(address)    \r\n    {\r\n        if(_chosenType == 1){\r\n            // access account\r\n            address newAccountAddress = new AccessAccount(this, msg.sender);\r\n            uint balance = msg.value;\r\n            AccessAccount newAccount = AccessAccount(newAccountAddress);\r\n            newAccount.deposit.value(msg.value)(balance);\r\n             address[] temp;\r\n             temp[0] = this;\r\n             temp[1] = msg.sender;\r\n            userWallets[msg.sender] = AccountDetails({\r\n                owners: temp,\r\n                bankAccount: newAccountAddress,\r\n                typeOfAccount: AccountType.access\r\n            });\r\n            // userWallets[msg.sender].bankAccount = newAccountAddress;\r\n            \r\n            emit  UserCreated(temp, AccountType.access, balance);\r\n            \r\n            return newAccountAddress;\r\n            \r\n        } else if(_chosenType == 2){\r\n        //     //delay, 30 days, account \r\n            \r\n        } else if(_chosenType == 3){\r\n        //     //trust account\r\n            \r\n        } else {\r\n        //     //no account was identified\r\n            \r\n        }\r\n        // //TODO: lock users wallet in a function, and \r\n        // //TODO: create a user account with:\r\n        //     //TODO: owner == msg.sender;\r\n        //     //TODO: typeOfAccount == chosenType;\r\n        //     //TODO: add adress of contract to mapping of allBankAccounts;\r\n        //     require(unlockUser(msg.sender));\r\n        //     return 0x0;\r\n        //     LogEvent(\"Failed everthing\", 10, this);\r\n    }\r\n    \r\n    function isAccountFrozen()\r\n        public\r\n        view\r\n        returns(bool)\r\n    {\r\n        return userWalletLocks[msg.sender];\r\n    }\r\n    \r\n    function freezeAccount(address _bankAccounts)\r\n        public\r\n        returns(bool)\r\n    {\r\n        //TODO: require( _bankAccount is real);\r\n        //TODO: require( the msg.sender is an owner\r\n        //TODO: if there are multiple owners then check they have voted\r\n        //TODO: freeze the account\r\n        return true;\r\n    }\r\n    \r\n    function unfreezeAccount(address _bankAccount)\r\n        public\r\n        returns(bool)\r\n    {\r\n        //TODO: require( _bankAccount is real);\r\n        //TODO: require( the msg.sender is an owner\r\n        //TODO: unfreeze the account\r\n        return true;\r\n    }\r\n    \r\n    function changeOwnership(address _newAddress, address _oldAddress)\r\n        public\r\n        returns(bool)\r\n    {\r\n        //TODO: require( _bankAccount is real);\r\n        //TODO: require( the msg.sender is an owner\r\n        //TODO: replace the old user with the new one. \r\n        return true;\r\n    }\r\n    \r\n    //possibly here. Move to actual trust account \r\n    // function addOwner(address newOwner)\r\n    //     public \r\n    //     returns(bool)\r\n    // {\r\n    //     //TODO: if the account type is a multisig continue\r\n    //     //TODO: check the vote has been compleated (2/3 majority)\r\n    //     //TODO: add the new owner if vote majority true.\r\n    //     return true;\r\n    // }\r\n    \r\n    function dissolveAccount(address _fundsReciver) \r\n        public\r\n        isLocked(msg.sender)\r\n        returns(bool)\r\n    {\r\n        require(lockAddress(msg.sender));\r\n        //TODO: check the struct if it has multiple owners. if the number of \r\n        /**\r\n            owners is not more than 2. If it is then it requires multiple \r\n            signatures. Multiple signatues could be done by using a lock \r\n            within the vote preventing you from voting twice in the same vote,\r\n            in this case is wether or not to delete the account and send the \r\n            funds to the _fundsReciver.\r\n        */\r\n            \r\n        //TODO: save remaining funds as temporary variable and remove address \r\n            //from list\r\n        //TODO: delete account \r\n        //TODO: move remaning funds to the fundsReciver\r\n        require(unlockUser(msg.sender));\r\n        return true;\r\n    }\r\n    \r\n    //the bank calls this function if someone has frozen their account and \r\n    //wants to delete becuse the previous one depends on the msg.sender \r\n    function dissolveAccount(address _bankAccount, address _fundsReciver)\r\n            internal\r\n            isLocked(_bankAccount)\r\n            returns(bool)\r\n        {\r\n            require(lockAddress(_bankAccount));\r\n            //TODO: if there are multiple owners then \r\n                //TODO: check that the vote to delete the accout is successful\r\n            //TODO: if its just 2 then just contunue\r\n            //both must get proccessed as following:\r\n            //TODO: save funds as temp\r\n            //TODO: delete account \r\n            //TODO: send funds to address\r\n            return true;\r\n            //account gets locked forever after the account is deleted\r\n        }\r\n}",
  "sourcePath": "C:\\Users\\Veronica Coutts\\Desktop\\Desktop\\Work\\LinumLabs\\PoCBank\\pocbank\\contracts\\Bank.sol",
  "compiler": {
    "name": "solc",
    "version": "0.4.24+commit.e67f0147.Emscripten.clang"
  },
  "schemaVersion": "2.0.1",
  "updatedAt": "2018-09-29T08:33:52.489Z"
}