{
  "contractName": "DelayAccount",
  "abi": [
    {
      "constant": true,
      "inputs": [],
      "name": "getBalance",
      "outputs": [
        {
          "name": "",
          "type": "uint256"
        }
      ],
      "payable": false,
      "stateMutability": "view",
      "type": "function"
    },
    {
      "constant": false,
      "inputs": [
        {
          "name": "_newLimit",
          "type": "uint256"
        }
      ],
      "name": "setLimit",
      "outputs": [],
      "payable": false,
      "stateMutability": "nonpayable",
      "type": "function"
    },
    {
      "constant": false,
      "inputs": [],
      "name": "dissolve",
      "outputs": [],
      "payable": false,
      "stateMutability": "nonpayable",
      "type": "function"
    },
    {
      "constant": false,
      "inputs": [],
      "name": "freeze",
      "outputs": [],
      "payable": false,
      "stateMutability": "nonpayable",
      "type": "function"
    },
    {
      "constant": true,
      "inputs": [],
      "name": "getFrozen",
      "outputs": [
        {
          "name": "",
          "type": "bool"
        }
      ],
      "payable": false,
      "stateMutability": "view",
      "type": "function"
    },
    {
      "constant": true,
      "inputs": [],
      "name": "getOwner",
      "outputs": [
        {
          "name": "",
          "type": "address"
        }
      ],
      "payable": false,
      "stateMutability": "view",
      "type": "function"
    },
    {
      "constant": false,
      "inputs": [
        {
          "name": "_newOwnerAddress",
          "type": "address"
        }
      ],
      "name": "changeOwner",
      "outputs": [],
      "payable": false,
      "stateMutability": "nonpayable",
      "type": "function"
    },
    {
      "constant": true,
      "inputs": [],
      "name": "getLimit",
      "outputs": [
        {
          "name": "",
          "type": "uint256"
        }
      ],
      "payable": false,
      "stateMutability": "view",
      "type": "function"
    },
    {
      "constant": false,
      "inputs": [],
      "name": "deposit",
      "outputs": [],
      "payable": true,
      "stateMutability": "payable",
      "type": "function"
    },
    {
      "constant": false,
      "inputs": [],
      "name": "defrost",
      "outputs": [],
      "payable": false,
      "stateMutability": "nonpayable",
      "type": "function"
    },
    {
      "inputs": [
        {
          "name": "_owner",
          "type": "address"
        },
        {
          "name": "_limit",
          "type": "uint256"
        }
      ],
      "payable": false,
      "stateMutability": "nonpayable",
      "type": "constructor"
    },
    {
      "anonymous": false,
      "inputs": [
        {
          "indexed": false,
          "name": "_owner",
          "type": "address"
        },
        {
          "indexed": false,
          "name": "_bank",
          "type": "address"
        },
        {
          "indexed": false,
          "name": "_chosenAccount",
          "type": "uint8"
        }
      ],
      "name": "LogCreatedDelayAccount",
      "type": "event"
    },
    {
      "anonymous": false,
      "inputs": [
        {
          "indexed": false,
          "name": "_owner",
          "type": "address"
        },
        {
          "indexed": false,
          "name": "_bank",
          "type": "address"
        },
        {
          "indexed": false,
          "name": "_accountType",
          "type": "uint8"
        }
      ],
      "name": "LogCreatedAccessAcount",
      "type": "event"
    },
    {
      "anonymous": false,
      "inputs": [
        {
          "indexed": false,
          "name": "_where",
          "type": "string"
        }
      ],
      "name": "LogUnexpectedRevert",
      "type": "event"
    },
    {
      "anonymous": false,
      "inputs": [
        {
          "indexed": false,
          "name": "_desc",
          "type": "string"
        }
      ],
      "name": "LogProgress",
      "type": "event"
    },
    {
      "constant": false,
      "inputs": [
        {
          "name": "_amount",
          "type": "uint256"
        },
        {
          "name": "_to",
          "type": "address"
        }
      ],
      "name": "requestWithdraw",
      "outputs": [
        {
          "name": "",
          "type": "uint256"
        }
      ],
      "payable": false,
      "stateMutability": "nonpayable",
      "type": "function"
    },
    {
      "constant": false,
      "inputs": [
        {
          "name": "_requestNo",
          "type": "uint256"
        }
      ],
      "name": "withdraw",
      "outputs": [],
      "payable": false,
      "stateMutability": "nonpayable",
      "type": "function"
    }
  ],
  "bytecode": "0x6080604052600160055534801561001557600080fd5b50604051604080610f3d833981016040818152825160209384015160018054600160a060020a0319908116600160a060020a0385169081178355600080543393168317905560048054600386905560ff1961010061ff00199092169190911716905586529585019590955282840185905291519093919284929184917f4f1a20e20b0b2f3cdc1fcd1d7631e4cb35cadb8c1b8ea065a71a94167adf1e0f919081900360600190a1505060018054600160a060020a038516600160a060020a0319918216811783556000805490921633908117909255600385905560408051918252602082019290925280820192909252517fba30745a905aaced99b2fceb5b3ee14d5a7bbba87b3dfc68846c48c6a534966492509081900360600190a15050610dfa806101436000396000f3006080604052600436106100b95763ffffffff7c010000000000000000000000000000000000000000000000000000000060003504166312065fe081146100be57806327ea6f2b146100e55780632e1a7d4d146100ff5780633bef8a3a1461011757806362a5af3b1461012c5780637495b35314610141578063893d20e81461016a578063a6f9dae11461019b578063b295a00e146101bc578063ccc143b8146101d1578063d0e30db0146101f5578063f21cdf6f146101fd575b600080fd5b3480156100ca57600080fd5b506100d3610212565b60408051918252519081900360200190f35b3480156100f157600080fd5b506100fd600435610218565b005b34801561010b57600080fd5b506100fd60043561027f565b34801561012357600080fd5b506100fd610524565b34801561013857600080fd5b506100fd610601565b34801561014d57600080fd5b506101566106cd565b604080519115158252519081900360200190f35b34801561017657600080fd5b5061017f6106d6565b60408051600160a060020a039092168252519081900360200190f35b3480156101a757600080fd5b506100fd600160a060020a036004351661075b565b3480156101c857600080fd5b506100d36108d5565b3480156101dd57600080fd5b506100d3600435600160a060020a0360243516610951565b6100fd610b22565b34801561020957600080fd5b506100fd610caf565b60025490565b600054600160a060020a0316331461027a576040805160e560020a62461bcd02815260206004820152601c60248201527f46756e6374696f6e206f6e6c7920757361626c652062792062616e6b00000000604482015290519081900360640190fd5b600355565b600080548190600160a060020a03163314806102a55750600154600160a060020a031633145b15156102f6576040805160e560020a62461bcd0281526020600482015260216024820152600080516020610daf833981519152604482015260f960020a603902606482015290519081900360840190fd5b60045460ff161561033f576040805160e560020a62461bcd0281526020600482015260116024820152600080516020610d8f833981519152604482015290519081900360640190fd5b610347610601565b6005548311156103a1576040805160e560020a62461bcd02815260206004820152601660248201527f4e6f207375636820726571756573742065786973747300000000000000000000604482015290519081900360640190fd5b60008381526006602052604090205491504262278d0083011061040e576040805160e560020a62461bcd02815260206004820152601760248201527f333020646179732068617665206e6f7420706173736564000000000000000000604482015290519081900360640190fd5b60008381526006602052604090206002015474010000000000000000000000000000000000000000900460ff1615610490576040805160e560020a62461bcd02815260206004820152601d60248201527f416d6f756e7420616c7265616479206265656e2077697468647261776e000000604482015290519081900360640190fd5b5060008281526006602052604080822060028101805474ff00000000000000000000000000000000000000001916740100000000000000000000000000000000000000001790819055600191909101549151600160a060020a0390911692839280156108fc02929091818181858888f19350505050158015610516573d6000803e3d6000fd5b5061051f610caf565b505050565b600054600160a060020a03163314610586576040805160e560020a62461bcd02815260206004820152601c60248201527f46756e6374696f6e206f6e6c7920757361626c652062792062616e6b00000000604482015290519081900360640190fd5b6004805460ff191660011790556040805160208082526010908201527f2861636365737329206469736f6c7665000000000000000000000000000000008183015290517f6a42c50d3ee00b78df9f99768064c629066807b2ab738674e00b018c696be3789181900360600190a1600154600160a060020a0316ff5b600054600160a060020a03163314806106245750600154600160a060020a031633145b1515610675576040805160e560020a62461bcd0281526020600482015260216024820152600080516020610daf833981519152604482015260f960020a603902606482015290519081900360840190fd5b60045460ff16156106be576040805160e560020a62461bcd0281526020600482015260116024820152600080516020610d8f833981519152604482015290519081900360640190fd5b6004805460ff19166001179055565b60045460ff1690565b60008054600160a060020a03163314806106fa5750600154600160a060020a031633145b151561074b576040805160e560020a62461bcd0281526020600482015260216024820152600080516020610daf833981519152604482015260f960020a603902606482015290519081900360840190fd5b50600154600160a060020a031690565b600054600160a060020a031633146107bd576040805160e560020a62461bcd02815260206004820152601c60248201527f46756e6374696f6e206f6e6c7920757361626c652062792062616e6b00000000604482015290519081900360640190fd5b60045460ff1615610806576040805160e560020a62461bcd0281526020600482015260116024820152600080516020610d8f833981519152604482015290519081900360640190fd5b61080e610601565b6002600454610100900460ff16600281111561082657fe5b14156108a2576040805160e560020a62461bcd02815260206004820152603160248201527f506c6561736520757365206368616e67654f776e65722066756e6374696f6e2060448201527f696e20747275737420636f6e7472616374000000000000000000000000000000606482015290519081900360840190fd5b6001805473ffffffffffffffffffffffffffffffffffffffff1916600160a060020a0383161790556108d2610caf565b50565b60008054600160a060020a03163314806108f95750600154600160a060020a031633145b151561094a576040805160e560020a62461bcd0281526020600482015260216024820152600080516020610daf833981519152604482015260f960020a603902606482015290519081900360840190fd5b5060035490565b600080548190600160a060020a03163314806109775750600154600160a060020a031633145b15156109c8576040805160e560020a62461bcd0281526020600482015260216024820152600080516020610daf833981519152604482015260f960020a603902606482015290519081900360840190fd5b6109d0610601565b600254841115610a50576040805160e560020a62461bcd02815260206004820152602160248201527f43616e6e6f74207769746864726177206d6f7265207468616e2062616c616e6360448201527f6500000000000000000000000000000000000000000000000000000000000000606482015290519081900360840190fd5b506005805460018082018355604080516080810182524281526020808201898152600160a060020a03808a168486019081526000606086018181528982526006909552959095209351845590519483019490945591516002918201805493511515740100000000000000000000000000000000000000000274ff0000000000000000000000000000000000000000199290951673ffffffffffffffffffffffffffffffffffffffff199094169390931716929092179055918190558154859003909155610b1b610caf565b9392505050565b60045460ff1615610b6b576040805160e560020a62461bcd0281526020600482015260116024820152600080516020610d8f833981519152604482015290519081900360640190fd5b60003411610bc3576040805160e560020a62461bcd02815260206004820152601860248201527f56616c75652063616e6e6f74206265206e656761746976650000000000000000604482015290519081900360640190fd5b60003460025401111515610c47576040805160e560020a62461bcd02815260206004820152602260248201527f56616c75652063616e6e6f74206d616b652062616c616e6365206e656761746960448201527f7665000000000000000000000000000000000000000000000000000000000000606482015290519081900360840190fd5b60035460025434011115610ca5576040805160e560020a62461bcd02815260206004820181905260248201527f4465706f7369742074616b6573206163636f756e74206f766572206c696d6974604482015290519081900360640190fd5b6002805434019055565b600054600160a060020a0316331480610cd25750600154600160a060020a031633145b1515610d23576040805160e560020a62461bcd0281526020600482015260216024820152600080516020610daf833981519152604482015260f960020a603902606482015290519081900360840190fd5b60045460ff161515600114610d82576040805160e560020a62461bcd02815260206004820152601860248201527f4163636f756e7420616c726561647920756e66726f7a656e0000000000000000604482015290519081900360640190fd5b6004805460ff1916905556004163636f756e742069732066726f7a656e00000000000000000000000000000046756e6374696f6e206f6e6c792061636365737369626c65206279206f776e65a165627a7a72305820da0e5dd8fd4e21e1c17cf9276153b9f2b890a9698a87f14b4105ded2a5427a170029",
  "source": "pragma solidity ^0.4.24;\r\n\r\nimport \"./AccessAccount.sol\";\r\n\r\ncontract DelayAccount is AccessAccount {\r\n    struct WithdrawRequests {\r\n        uint timeRequested;\r\n        uint amountRequested;\r\n        address to;\r\n        bool withdrawn;\r\n    }\r\n    uint numberOfRequests = 1;\r\n    //only added to if request is possible\r\n    mapping(uint => WithdrawRequests) requests;\r\n\r\n    event LogCreatedDelayAccount(address _owner, address _bank, AccessAccount.AccountType _chosenAccount);\r\n\r\n    constructor(address _owner, uint _limit)\r\n        AccessAccount(_owner, AccessAccount.AccountType.delay, _limit)\r\n        public\r\n    {\r\n        AccessAccount.onwerAddress = _owner;\r\n        bankAddress = msg.sender;\r\n        AccessAccount.accountLimit = _limit;\r\n        emit LogCreatedDelayAccount(_owner, msg.sender, AccessAccount.AccountType.delay);\r\n    }\r\n\r\n    /**\r\n      * @param _amount : the amount they want to withdraw.\r\n      * @dev the amount is detracted from the blance here to prevent \r\n      *     the user from making multiple requests that are for more than they\r\n      *     have. \r\n      */\r\n    function requestWithdraw(uint _amount, address _to)\r\n        public\r\n        isOwner()\r\n        returns(uint)\r\n    {\r\n        AccessAccount.freeze();\r\n\r\n        require(balance >= _amount, \"Cannot withdraw more than balance\");\r\n        uint currentRequsetNo = numberOfRequests++;\r\n        requests[currentRequsetNo] = WithdrawRequests({\r\n            timeRequested: now,\r\n            amountRequested: _amount,\r\n            to: _to,\r\n            withdrawn: false\r\n        });\r\n        numberOfRequests = currentRequsetNo;\r\n        balance -= _amount;\r\n        \r\n        AccessAccount.defrost();\r\n        return currentRequsetNo;\r\n    }\r\n    \r\n    /**\r\n      * @param _requestNo : The request number of the transaction\r\n      * @dev only allows the owner(s) to withdraw. Dose not allow use if account is frozen \r\n      *     (or dissolved). Ensures the usage of witdraw in the child contracts for both delay\r\n      *     contracts and trust contracts. \r\n      *     checks that the time has passed, that the withdraw has not already happened,\r\n      *     function signature used to be function withdraw(address _to, uint _requestNo)\r\n      *     but due to a truffle error where the complier dose not pick up Overloaded functions\r\n      *     i had to change the contract to be overridden \r\n      */\r\n    function withdraw(uint _requestNo)\r\n        public\r\n        isOwner()\r\n        isFrozen()\r\n    {\r\n        AccessAccount.freeze();\r\n\r\n        require(_requestNo <= numberOfRequests, \"No such request exists\");\r\n        uint _timeRequested = requests[_requestNo].timeRequested;\r\n        //30 (days) x 24 (hours in a day) x 60 (minutes in a hour) x 60 (seconds in a minute) = 2 592 000\r\n        require(_timeRequested + 2592000 < now, \"30 days have not passed\");\r\n        require(requests[_requestNo].withdrawn == false, \"Amount already been withdrawn\");\r\n        requests[_requestNo].withdrawn = true;\r\n        address _to = requests[_requestNo].to;\r\n        _to.transfer(requests[_requestNo].amountRequested);\r\n\r\n        AccessAccount.defrost();\r\n    }\r\n}",
  "sourcePath": "C:\\Users\\Veronica Coutts\\Desktop\\Desktop\\Work\\LinumLabs\\PoCBank\\pocbank\\contracts\\DelayAccount.sol",
  "compiler": {
    "name": "solc",
    "version": "0.4.24+commit.e67f0147.Emscripten.clang"
  },
  "schemaVersion": "2.0.1",
  "updatedAt": "2018-10-03T12:52:45.287Z"
}