{
  "contractName": "DelayAccount",
  "abi": [
    {
      "constant": true,
      "inputs": [],
      "name": "getBalance",
      "outputs": [
        {
          "name": "",
          "type": "uint256"
        }
      ],
      "payable": false,
      "stateMutability": "view",
      "type": "function"
    },
    {
      "constant": false,
      "inputs": [],
      "name": "dissolve",
      "outputs": [],
      "payable": false,
      "stateMutability": "nonpayable",
      "type": "function"
    },
    {
      "constant": false,
      "inputs": [],
      "name": "freeze",
      "outputs": [],
      "payable": false,
      "stateMutability": "nonpayable",
      "type": "function"
    },
    {
      "constant": true,
      "inputs": [],
      "name": "getFrozen",
      "outputs": [
        {
          "name": "",
          "type": "bool"
        }
      ],
      "payable": false,
      "stateMutability": "view",
      "type": "function"
    },
    {
      "constant": false,
      "inputs": [
        {
          "name": "_newOwnerAddress",
          "type": "address"
        }
      ],
      "name": "changeOwner",
      "outputs": [],
      "payable": false,
      "stateMutability": "nonpayable",
      "type": "function"
    },
    {
      "constant": false,
      "inputs": [],
      "name": "deposit",
      "outputs": [],
      "payable": true,
      "stateMutability": "payable",
      "type": "function"
    },
    {
      "constant": false,
      "inputs": [],
      "name": "defrost",
      "outputs": [],
      "payable": false,
      "stateMutability": "nonpayable",
      "type": "function"
    },
    {
      "inputs": [
        {
          "name": "_owner",
          "type": "address"
        },
        {
          "name": "_limit",
          "type": "uint256"
        }
      ],
      "payable": false,
      "stateMutability": "nonpayable",
      "type": "constructor"
    },
    {
      "anonymous": false,
      "inputs": [
        {
          "indexed": false,
          "name": "_owner",
          "type": "address"
        },
        {
          "indexed": false,
          "name": "_bank",
          "type": "address"
        }
      ],
      "name": "LogCreatedDelayAccount",
      "type": "event"
    },
    {
      "anonymous": false,
      "inputs": [
        {
          "indexed": false,
          "name": "_owner",
          "type": "address"
        },
        {
          "indexed": false,
          "name": "_bank",
          "type": "address"
        }
      ],
      "name": "LogCreatedAccessAcount",
      "type": "event"
    },
    {
      "anonymous": false,
      "inputs": [
        {
          "indexed": false,
          "name": "_where",
          "type": "string"
        }
      ],
      "name": "LogUnexpectedRevert",
      "type": "event"
    },
    {
      "constant": false,
      "inputs": [
        {
          "name": "_amount",
          "type": "uint256"
        }
      ],
      "name": "requestWithdraw",
      "outputs": [
        {
          "name": "requestNo",
          "type": "uint256"
        }
      ],
      "payable": false,
      "stateMutability": "nonpayable",
      "type": "function"
    },
    {
      "constant": false,
      "inputs": [
        {
          "name": "_amount",
          "type": "uint256"
        }
      ],
      "name": "withdraw",
      "outputs": [],
      "payable": false,
      "stateMutability": "nonpayable",
      "type": "function"
    },
    {
      "constant": false,
      "inputs": [
        {
          "name": "_to",
          "type": "address"
        },
        {
          "name": "_requestNo",
          "type": "uint256"
        }
      ],
      "name": "withdraw",
      "outputs": [],
      "payable": false,
      "stateMutability": "nonpayable",
      "type": "function"
    }
  ],
  "bytecode": "0x6080604052600060055534801561001557600080fd5b50604051604080611cf183398101806040528101908080519060200190929190805190602001909291905050508160018282600160006101000a81548173ffffffffffffffffffffffffffffffffffffffff021916908373ffffffffffffffffffffffffffffffffffffffff160217905550336000806101000a81548173ffffffffffffffffffffffffffffffffffffffff021916908373ffffffffffffffffffffffffffffffffffffffff16021790555081600460026101000a81548160ff021916908360028111156100e557fe5b0217905550806003819055506000600460006101000a81548160ff0219169083151502179055506000600460016101000a81548160ff0219169083151502179055507f73b879a2222e34c9d4c25fc1d12763a471d760e232aeb8e8b3e3150f0a202cc48333604051808373ffffffffffffffffffffffffffffffffffffffff1673ffffffffffffffffffffffffffffffffffffffff1681526020018273ffffffffffffffffffffffffffffffffffffffff1673ffffffffffffffffffffffffffffffffffffffff1681526020019250505060405180910390a150505081600160006101000a81548173ffffffffffffffffffffffffffffffffffffffff021916908373ffffffffffffffffffffffffffffffffffffffff160217905550336000806101000a81548173ffffffffffffffffffffffffffffffffffffffff021916908373ffffffffffffffffffffffffffffffffffffffff160217905550806003819055507fde4fe8484bc4955e6933213a1f27b5f84ae5a44f7bfa1e6be576d9385c71110f8233604051808373ffffffffffffffffffffffffffffffffffffffff1673ffffffffffffffffffffffffffffffffffffffff1681526020018273ffffffffffffffffffffffffffffffffffffffff1673ffffffffffffffffffffffffffffffffffffffff1681526020019250505060405180910390a15050611a00806102f16000396000f3006080604052600436106100a4576000357c0100000000000000000000000000000000000000000000000000000000900463ffffffff16806312065fe0146100a95780632e1a7d4d146100d45780633bef8a3a1461010157806362a5af3b14610118578063745400c91461012f5780637495b35314610170578063a6f9dae11461019f578063d0e30db0146101e2578063f21cdf6f146101ec578063f3fef3a314610203575b600080fd5b3480156100b557600080fd5b506100be610250565b6040518082815260200191505060405180910390f35b3480156100e057600080fd5b506100ff6004803603810190808035906020019092919050505061025a565b005b34801561010d57600080fd5b506101166108cf565b005b34801561012457600080fd5b5061012d610a04565b005b34801561013b57600080fd5b5061015a60048036038101908080359060200190929190505050610c26565b6040518082815260200191505060405180910390f35b34801561017c57600080fd5b50610185610eb0565b604051808215151515815260200191505060405180910390f35b3480156101ab57600080fd5b506101e0600480360381019080803573ffffffffffffffffffffffffffffffffffffffff169060200190929190505050610ec7565b005b6101ea611146565b005b3480156101f857600080fd5b50610201611394565b005b34801561020f57600080fd5b5061024e600480360381019080803573ffffffffffffffffffffffffffffffffffffffff1690602001909291908035906020019092919050505061159d565b005b6000600254905090565b6000809054906101000a900473ffffffffffffffffffffffffffffffffffffffff1673ffffffffffffffffffffffffffffffffffffffff163373ffffffffffffffffffffffffffffffffffffffff1614806103025750600160009054906101000a900473ffffffffffffffffffffffffffffffffffffffff1673ffffffffffffffffffffffffffffffffffffffff163373ffffffffffffffffffffffffffffffffffffffff16145b151561039c576040517f08c379a00000000000000000000000000000000000000000000000000000000081526004018080602001828103825260218152602001807f46756e6374696f6e206f6e6c792061636365737369626c65206279206f776e6581526020017f720000000000000000000000000000000000000000000000000000000000000081525060400191505060405180910390fd5b60001515600460009054906101000a900460ff161515141515610427576040517f08c379a00000000000000000000000000000000000000000000000000000000081526004018080602001828103825260118152602001807f4163636f756e742069732066726f7a656e00000000000000000000000000000081525060200191505060405180910390fd5b600460019054906101000a900460ff1615151561044057fe5b610448610a04565b7fb981afc16bc609765b6005bd910c0e9ef3424f3c61a05afcbbf88d11f414669d6040518080602001828103825260248152602001807f28696e2077697468647261772920616674657220667265657a696e672061636381526020017f6f756e740000000000000000000000000000000000000000000000000000000081525060400191505060405180910390a16002808111156104e257fe5b600460029054906101000a900460ff1660028111156104fd57fe5b14151515610599576040517f08c379a000000000000000000000000000000000000000000000000000000000815260040180806020018281038252602e8152602001807f506c65617365207573652077697468647261772066756e6374696f6e20696e2081526020017f747275737420636f6e747261637400000000000000000000000000000000000081525060400191505060405180910390fd5b7fb981afc16bc609765b6005bd910c0e9ef3424f3c61a05afcbbf88d11f414669d6040518080602001828103825260258152602001807f286166746572203120726571756972652920616674657220747275737420726581526020017f717569726500000000000000000000000000000000000000000000000000000081525060400191505060405180910390a17fb981afc16bc609765b6005bd910c0e9ef3424f3c61a05afcbbf88d11f414669d6040518080602001828103825260258152602001807f28616674657220322072657175697265292061667465722064656c617920726581526020017f717569726500000000000000000000000000000000000000000000000000000081525060400191505060405180910390a16002548111151515610755576040517f08c379a00000000000000000000000000000000000000000000000000000000081526004018080602001828103825260298152602001807f43616e6e6f74207769746864726177206d6f72652066756e6473207468616e2081526020017f617661696c61626c65000000000000000000000000000000000000000000000081525060400191505060405180910390fd5b7fb981afc16bc609765b6005bd910c0e9ef3424f3c61a05afcbbf88d11f414669d60405180806020018281038252603b8152602001807f286166746572203320726571756972652920616674657220616d6f756e74206781526020017f65747320636865636b656420616761696e73742062616c616e6365000000000081525060400191505060405180910390a180600260008282540392505081905550600160009054906101000a900473ffffffffffffffffffffffffffffffffffffffff1673ffffffffffffffffffffffffffffffffffffffff166108fc829081150290604051600060405180830381858888f1935050505015801561085b573d6000803e3d6000fd5b507fb981afc16bc609765b6005bd910c0e9ef3424f3c61a05afcbbf88d11f414669d60405180806020018281038252601b8152602001807f2829206166746572207472616e73666572696e6720616d6f756e74000000000081525060200191505060405180910390a16108cc611394565b50565b6000809054906101000a900473ffffffffffffffffffffffffffffffffffffffff1673ffffffffffffffffffffffffffffffffffffffff163373ffffffffffffffffffffffffffffffffffffffff16141515610993576040517f08c379a000000000000000000000000000000000000000000000000000000000815260040180806020018281038252601c8152602001807f46756e6374696f6e206f6e6c7920757361626c652062792062616e6b0000000081525060200191505060405180910390fd5b6001600460016101000a81548160ff0219169083151502179055506001600460006101000a81548160ff021916908315150217905550600160009054906101000a900473ffffffffffffffffffffffffffffffffffffffff1673ffffffffffffffffffffffffffffffffffffffff16ff5b6000809054906101000a900473ffffffffffffffffffffffffffffffffffffffff1673ffffffffffffffffffffffffffffffffffffffff163373ffffffffffffffffffffffffffffffffffffffff161480610aac5750600160009054906101000a900473ffffffffffffffffffffffffffffffffffffffff1673ffffffffffffffffffffffffffffffffffffffff163373ffffffffffffffffffffffffffffffffffffffff16145b1515610b46576040517f08c379a00000000000000000000000000000000000000000000000000000000081526004018080602001828103825260218152602001807f46756e6374696f6e206f6e6c792061636365737369626c65206279206f776e6581526020017f720000000000000000000000000000000000000000000000000000000000000081525060400191505060405180910390fd5b60001515600460009054906101000a900460ff161515141515610bd1576040517f08c379a00000000000000000000000000000000000000000000000000000000081526004018080602001828103825260118152602001807f4163636f756e742069732066726f7a656e00000000000000000000000000000081525060200191505060405180910390fd5b600460019054906101000a900460ff16151515610bea57fe5b60001515600460019054906101000a900460ff161515141515610c0957fe5b6001600460006101000a81548160ff021916908315150217905550565b6000806000809054906101000a900473ffffffffffffffffffffffffffffffffffffffff1673ffffffffffffffffffffffffffffffffffffffff163373ffffffffffffffffffffffffffffffffffffffff161480610cd15750600160009054906101000a900473ffffffffffffffffffffffffffffffffffffffff1673ffffffffffffffffffffffffffffffffffffffff163373ffffffffffffffffffffffffffffffffffffffff16145b1515610d6b576040517f08c379a00000000000000000000000000000000000000000000000000000000081526004018080602001828103825260218152602001807f46756e6374696f6e206f6e6c792061636365737369626c65206279206f776e6581526020017f720000000000000000000000000000000000000000000000000000000000000081525060400191505060405180910390fd5b610d73610a04565b8260025410151515610e13576040517f08c379a00000000000000000000000000000000000000000000000000000000081526004018080602001828103825260218152602001807f43616e6e6f74207769746864726177206d6f7265207468616e2062616c616e6381526020017f650000000000000000000000000000000000000000000000000000000000000081525060400191505060405180910390fd5b600560008154809291906001019190505590506060604051908101604052804281526020018481526020016000151581525060066000838152602001908152602001600020600082015181600001556020820151816001015560408201518160020160006101000a81548160ff02191690831515021790555090505082600260008282540392505081905550610ea7611394565b80915050919050565b6000600460009054906101000a900460ff16905090565b6000809054906101000a900473ffffffffffffffffffffffffffffffffffffffff1673ffffffffffffffffffffffffffffffffffffffff163373ffffffffffffffffffffffffffffffffffffffff16141515610f8b576040517f08c379a000000000000000000000000000000000000000000000000000000000815260040180806020018281038252601c8152602001807f46756e6374696f6e206f6e6c7920757361626c652062792062616e6b0000000081525060200191505060405180910390fd5b60001515600460009054906101000a900460ff161515141515611016576040517f08c379a00000000000000000000000000000000000000000000000000000000081526004018080602001828103825260118152602001807f4163636f756e742069732066726f7a656e00000000000000000000000000000081525060200191505060405180910390fd5b600460019054906101000a900460ff1615151561102f57fe5b611037610a04565b60028081111561104357fe5b600460029054906101000a900460ff16600281111561105e57fe5b141515156110fa576040517f08c379a00000000000000000000000000000000000000000000000000000000081526004018080602001828103825260318152602001807f506c6561736520757365206368616e67654f776e65722066756e6374696f6e2081526020017f696e20747275737420636f6e747261637400000000000000000000000000000081525060400191505060405180910390fd5b80600160006101000a81548173ffffffffffffffffffffffffffffffffffffffff021916908373ffffffffffffffffffffffffffffffffffffffff160217905550611143611394565b50565b60001515600460009054906101000a900460ff1615151415156111d1576040517f08c379a00000000000000000000000000000000000000000000000000000000081526004018080602001828103825260118152602001807f4163636f756e742069732066726f7a656e00000000000000000000000000000081525060200191505060405180910390fd5b600460019054906101000a900460ff161515156111ea57fe5b600034111515611262576040517f08c379a00000000000000000000000000000000000000000000000000000000081526004018080602001828103825260188152602001807f56616c75652063616e6e6f74206265206e65676174697665000000000000000081525060200191505060405180910390fd5b60003460025401111515611304576040517f08c379a00000000000000000000000000000000000000000000000000000000081526004018080602001828103825260228152602001807f56616c75652063616e6e6f74206d616b652062616c616e6365206e656761746981526020017f766500000000000000000000000000000000000000000000000000000000000081525060400191505060405180910390fd5b600354346002540111151515611382576040517f08c379a00000000000000000000000000000000000000000000000000000000081526004018080602001828103825260208152602001807f4465706f7369742074616b6573206163636f756e74206f766572206c696d697481525060200191505060405180910390fd5b34600260008282540192505081905550565b6000809054906101000a900473ffffffffffffffffffffffffffffffffffffffff1673ffffffffffffffffffffffffffffffffffffffff163373ffffffffffffffffffffffffffffffffffffffff16148061143c5750600160009054906101000a900473ffffffffffffffffffffffffffffffffffffffff1673ffffffffffffffffffffffffffffffffffffffff163373ffffffffffffffffffffffffffffffffffffffff16145b15156114d6576040517f08c379a00000000000000000000000000000000000000000000000000000000081526004018080602001828103825260218152602001807f46756e6374696f6e206f6e6c792061636365737369626c65206279206f776e6581526020017f720000000000000000000000000000000000000000000000000000000000000081525060400191505060405180910390fd5b60001515600460019054906101000a900460ff1615151415156114f557fe5b60011515600460009054906101000a900460ff161515141515611580576040517f08c379a00000000000000000000000000000000000000000000000000000000081526004018080602001828103825260188152602001807f4163636f756e7420616c726561647920756e66726f7a656e000000000000000081525060200191505060405180910390fd5b6000600460006101000a81548160ff021916908315150217905550565b60008060009054906101000a900473ffffffffffffffffffffffffffffffffffffffff1673ffffffffffffffffffffffffffffffffffffffff163373ffffffffffffffffffffffffffffffffffffffff1614806116475750600160009054906101000a900473ffffffffffffffffffffffffffffffffffffffff1673ffffffffffffffffffffffffffffffffffffffff163373ffffffffffffffffffffffffffffffffffffffff16145b15156116e1576040517f08c379a00000000000000000000000000000000000000000000000000000000081526004018080602001828103825260218152602001807f46756e6374696f6e206f6e6c792061636365737369626c65206279206f776e6581526020017f720000000000000000000000000000000000000000000000000000000000000081525060400191505060405180910390fd5b60001515600460009054906101000a900460ff16151514151561176c576040517f08c379a00000000000000000000000000000000000000000000000000000000081526004018080602001828103825260118152602001807f4163636f756e742069732066726f7a656e00000000000000000000000000000081525060200191505060405180910390fd5b600460019054906101000a900460ff1615151561178557fe5b61178d610a04565b6005548211151515611807576040517f08c379a00000000000000000000000000000000000000000000000000000000081526004018080602001828103825260168152602001807f4e6f20737563682072657175657374206578697374730000000000000000000081525060200191505060405180910390fd5b600660008381526020019081526020016000206000015490504262278d00820110151561189c576040517f08c379a00000000000000000000000000000000000000000000000000000000081526004018080602001828103825260178152602001807f333020646179732068617665206e6f742070617373656400000000000000000081525060200191505060405180910390fd5b600015156006600084815260200190815260200160002060020160009054906101000a900460ff16151514151561193b576040517f08c379a000000000000000000000000000000000000000000000000000000000815260040180806020018281038252601d8152602001807f416d6f756e7420616c7265616479206265656e2077697468647261776e00000081525060200191505060405180910390fd5b60016006600084815260200190815260200160002060020160006101000a81548160ff0219169083151502179055508273ffffffffffffffffffffffffffffffffffffffff166108fc60066000858152602001908152602001600020600101549081150290604051600060405180830381858888f193505050501580156119c6573d6000803e3d6000fd5b506119cf611394565b5050505600a165627a7a723058206dd76650f1f2d260a1370f2f86955262cb309ec26ea407f8088d5fd1204026cd0029",
  "source": "pragma solidity ^0.4.24;\r\n\r\nimport \"./AccessAccount.sol\";\r\n\r\ncontract DelayAccount is AccessAccount {\r\n    struct WithdrawRequests {\r\n        uint timeRequested;\r\n        uint amountRequested;\r\n        bool withdrawn;\r\n    }\r\n    uint numberOfRequests = 0;\r\n    //only added to if request is possible\r\n    mapping(uint => WithdrawRequests) requests;\r\n\r\n    event LogCreatedDelayAccount(address _owner, address _bank);\r\n\r\n    constructor(address _owner, uint _limit)\r\n        AccessAccount(_owner, AccessAccount.AccountType.delay, _limit)\r\n        public\r\n    {\r\n        AccessAccount.onwerAddress = _owner;\r\n        bankAddress = msg.sender;\r\n        AccessAccount.accountLimit = _limit;\r\n        emit LogCreatedDelayAccount(_owner, msg.sender);\r\n    }\r\n\r\n    /**\r\n      * @param _amount : the amount they want to withdraw.\r\n      * @dev the amount is detracted from the blance here to prevent \r\n      *     the user from making multiple requests that are for more than they\r\n      *     have. \r\n      */\r\n    function requestWithdraw(uint _amount)\r\n        public\r\n        isOwner()\r\n        returns(uint requestNo)\r\n    {\r\n        AccessAccount.freeze();\r\n\r\n        require(balance >= _amount, \"Cannot withdraw more than balance\");\r\n        uint currentRequsetNo = numberOfRequests++;\r\n        requests[currentRequsetNo] = WithdrawRequests({\r\n            timeRequested: now,\r\n            amountRequested: _amount,\r\n            withdrawn: false\r\n        });\r\n        balance -= _amount;\r\n\r\n        AccessAccount.defrost();\r\n        return currentRequsetNo;\r\n    }\r\n    \r\n    /**\r\n      * @param _to : who (address) the funds must go to\r\n      * @dev only allows the owner(s) to withdraw. Dose not allow use if account is frozen \r\n      *     (or dissolved). Ensures the usage of witdraw in the child contracts for both delay\r\n      *     contracts and trust contracts. \r\n      *     checks that the time has passed, that the withdraw has not already happened,\r\n      */\r\n    function withdraw(address _to, uint _requestNo)\r\n        public\r\n        isOwner()\r\n        isFrozen()\r\n    {\r\n        AccessAccount.freeze();\r\n\r\n        require(_requestNo <= numberOfRequests, \"No such request exists\");\r\n        uint timeRequested = requests[_requestNo].timeRequested;\r\n        //30 (days) x 24 (hours in a day) x 60 (minutes in a hour) x 60 (seconds in a minute) = 2 592 000\r\n        require(timeRequested + 2592000 < now, \"30 days have not passed\");\r\n        require(requests[_requestNo].withdrawn == false, \"Amount already been withdrawn\");\r\n        requests[_requestNo].withdrawn = true;\r\n        _to.transfer(requests[_requestNo].amountRequested);\r\n\r\n        AccessAccount.defrost();\r\n    }\r\n}",
  "sourcePath": "C:\\Users\\Veronica Coutts\\Desktop\\Desktop\\Work\\LinumLabs\\PoCBank\\pocbank\\contracts\\DelayAccount.sol",
  "compiler": {
    "name": "solc",
    "version": "0.4.24+commit.e67f0147.Emscripten.clang"
  },
  "schemaVersion": "2.0.1",
  "updatedAt": "2018-09-30T17:54:55.251Z"
}