{
  "contractName": "DelayAccount",
  "abi": [
    {
      "inputs": [
        {
          "name": "_owners",
          "type": "address"
        },
        {
          "name": "_bank",
          "type": "address"
        }
      ],
      "payable": false,
      "stateMutability": "nonpayable",
      "type": "constructor"
    },
    {
      "constant": false,
      "inputs": [
        {
          "name": "_amount",
          "type": "uint256"
        }
      ],
      "name": "requestWithdraw",
      "outputs": [
        {
          "name": "",
          "type": "uint256"
        }
      ],
      "payable": false,
      "stateMutability": "nonpayable",
      "type": "function"
    },
    {
      "constant": false,
      "inputs": [
        {
          "name": "_amount",
          "type": "uint256"
        }
      ],
      "name": "withdraw",
      "outputs": [
        {
          "name": "",
          "type": "uint256"
        }
      ],
      "payable": true,
      "stateMutability": "payable",
      "type": "function"
    },
    {
      "constant": false,
      "inputs": [],
      "name": "isWithdrawPossible",
      "outputs": [
        {
          "name": "",
          "type": "bool"
        }
      ],
      "payable": false,
      "stateMutability": "nonpayable",
      "type": "function"
    },
    {
      "constant": false,
      "inputs": [
        {
          "name": "_amount",
          "type": "uint256"
        }
      ],
      "name": "deposit",
      "outputs": [],
      "payable": true,
      "stateMutability": "payable",
      "type": "function"
    }
  ],
  "bytecode": "0x60806040526000600360006101000a81548160ff02191690831515021790555034801561002b57600080fd5b5060405160408061047a8339810180604052810190808051906020019092919080519060200190929190505050816000806101000a81548173ffffffffffffffffffffffffffffffffffffffff021916908373ffffffffffffffffffffffffffffffffffffffff16021790555080600160006101000a81548173ffffffffffffffffffffffffffffffffffffffff021916908373ffffffffffffffffffffffffffffffffffffffff1602179055505050610390806100ea6000396000f300608060405260043610610062576000357c0100000000000000000000000000000000000000000000000000000000900463ffffffff1680631dcaed52146100675780632e1a7d4d14610096578063745400c9146100ca578063b6b55f251461010b575b600080fd5b34801561007357600080fd5b5061007c61012b565b604051808215151515815260200191505060405180910390f35b6100b4600480360381019080803590602001909291905050506101e9565b6040518082815260200191505060405180910390f35b3480156100d657600080fd5b506100f5600480360381019080803590602001909291905050506102a5565b6040518082815260200191505060405180910390f35b61012960048036038101908080359060200190929190505050610361565b005b6000338073ffffffffffffffffffffffffffffffffffffffff166000809054906101000a900473ffffffffffffffffffffffffffffffffffffffff1673ffffffffffffffffffffffffffffffffffffffff1614806101d657508073ffffffffffffffffffffffffffffffffffffffff16600160009054906101000a900473ffffffffffffffffffffffffffffffffffffffff1673ffffffffffffffffffffffffffffffffffffffff16145b15156101e157600080fd5b600191505090565b6000338073ffffffffffffffffffffffffffffffffffffffff166000809054906101000a900473ffffffffffffffffffffffffffffffffffffffff1673ffffffffffffffffffffffffffffffffffffffff16148061029457508073ffffffffffffffffffffffffffffffffffffffff16600160009054906101000a900473ffffffffffffffffffffffffffffffffffffffff1673ffffffffffffffffffffffffffffffffffffffff16145b151561029f57600080fd5b50919050565b6000338073ffffffffffffffffffffffffffffffffffffffff166000809054906101000a900473ffffffffffffffffffffffffffffffffffffffff1673ffffffffffffffffffffffffffffffffffffffff16148061035057508073ffffffffffffffffffffffffffffffffffffffff16600160009054906101000a900473ffffffffffffffffffffffffffffffffffffffff1673ffffffffffffffffffffffffffffffffffffffff16145b151561035b57600080fd5b50919050565b505600a165627a7a72305820804cf9b21f816ef36da04fab4e13191654f1ca36f9770eb77198c4a035ada9ab0029",
  "source": "pragma solidity ^0.4.24;\r\n\r\n//TODO: imports\r\n\r\ncontract DelayAccount {\r\n    address owner;\r\n    address bank;\r\n    uint balance;\r\n    bool lock = false;\r\n    \r\n    struct WithdrawRequest {\r\n        uint time;\r\n        bool possible;\r\n        uint amount;\r\n        bool compleatedDelay;\r\n    }\r\n    \r\n    WithdrawRequest[] allWithdrawRequests;\r\n    \r\n    //TODO: modifier isOwner\r\n    modifier isOwner(address _owner){\r\n        require(owner == _owner || bank == _owner);\r\n        _;\r\n    }\r\n    \r\n    /**\r\n     @param _owners : the addresses of the 2 owners of this contract\r\n    */\r\n    constructor(address _owners, address _bank) {\r\n        owner = _owners;\r\n        bank = _bank;\r\n    }\r\n    \r\n    function requestWithdraw(uint _amount) \r\n        public\r\n        isOwner(msg.sender)\r\n        returns(uint)\r\n    {\r\n        //TODO: balance =- _amount;\r\n        //TODO: add withdraw request to allWithdrawRequests[]\r\n        //TODO: return: the time it will be till the withdraw can be made, \r\n        //TODO: if its 1 it failed\r\n    }\r\n    \r\n    \r\n    function withdraw(uint _amount)\r\n        public\r\n        payable \r\n        isOwner(msg.sender)\r\n        returns(uint)\r\n    {\r\n        //TODO: check if the withdraw history if anywithdraw is not compelaed,\r\n        //TODO: has passed the time and is now true (check time here)\r\n        //TODO: check the withraw request passed (possible)\r\n        //TODO: call check withdraw possible\r\n    }\r\n    \r\n    function isWithdrawPossible()\r\n        public \r\n        isOwner(msg.sender)\r\n        returns(bool)\r\n    {\r\n        //TODO: check if the address can withdraw this amount \r\n        return true;\r\n    }\r\n    \r\n    function deposit(uint _amount)\r\n        public\r\n        payable \r\n    {\r\n        //TODO: lock both parties in system.\r\n        //TODO: take eth given, check it against the _amount\r\n        //TODO: change balance \r\n    }\r\n}",
  "sourcePath": "C:\\Users\\Veronica Coutts\\Desktop\\Desktop\\Work\\LinumLabs\\PoCBank\\pocbank\\contracts\\30DaysAccount.sol",
  "compiler": {
    "name": "solc",
    "version": "0.4.24+commit.e67f0147.Emscripten.clang"
  },
  "schemaVersion": "2.0.1",
  "updatedAt": "2018-09-29T08:18:29.374Z"
}