{
  "contractName": "DelayAccount",
  "abi": [
    {
      "constant": true,
      "inputs": [],
      "name": "getBalance",
      "outputs": [
        {
          "name": "",
          "type": "uint256"
        }
      ],
      "payable": false,
      "stateMutability": "view",
      "type": "function"
    },
    {
      "constant": false,
      "inputs": [],
      "name": "dissolve",
      "outputs": [],
      "payable": false,
      "stateMutability": "nonpayable",
      "type": "function"
    },
    {
      "constant": false,
      "inputs": [],
      "name": "freeze",
      "outputs": [],
      "payable": false,
      "stateMutability": "nonpayable",
      "type": "function"
    },
    {
      "constant": true,
      "inputs": [],
      "name": "getFrozen",
      "outputs": [
        {
          "name": "",
          "type": "bool"
        }
      ],
      "payable": false,
      "stateMutability": "view",
      "type": "function"
    },
    {
      "constant": true,
      "inputs": [],
      "name": "getOwner",
      "outputs": [
        {
          "name": "",
          "type": "address"
        }
      ],
      "payable": false,
      "stateMutability": "view",
      "type": "function"
    },
    {
      "constant": false,
      "inputs": [
        {
          "name": "_newOwnerAddress",
          "type": "address"
        }
      ],
      "name": "changeOwner",
      "outputs": [],
      "payable": false,
      "stateMutability": "nonpayable",
      "type": "function"
    },
    {
      "constant": false,
      "inputs": [],
      "name": "deposit",
      "outputs": [],
      "payable": true,
      "stateMutability": "payable",
      "type": "function"
    },
    {
      "constant": false,
      "inputs": [],
      "name": "defrost",
      "outputs": [],
      "payable": false,
      "stateMutability": "nonpayable",
      "type": "function"
    },
    {
      "inputs": [
        {
          "name": "_owner",
          "type": "address"
        },
        {
          "name": "_limit",
          "type": "uint256"
        }
      ],
      "payable": false,
      "stateMutability": "nonpayable",
      "type": "constructor"
    },
    {
      "anonymous": false,
      "inputs": [
        {
          "indexed": false,
          "name": "_owner",
          "type": "address"
        },
        {
          "indexed": false,
          "name": "_bank",
          "type": "address"
        },
        {
          "indexed": false,
          "name": "_chosenAccount",
          "type": "uint8"
        }
      ],
      "name": "LogCreatedDelayAccount",
      "type": "event"
    },
    {
      "anonymous": false,
      "inputs": [
        {
          "indexed": false,
          "name": "_accType",
          "type": "string"
        },
        {
          "indexed": false,
          "name": "_chosenAccount",
          "type": "uint8"
        }
      ],
      "name": "LogAccountTypes",
      "type": "event"
    },
    {
      "anonymous": false,
      "inputs": [
        {
          "indexed": false,
          "name": "_owner",
          "type": "address"
        },
        {
          "indexed": false,
          "name": "_bank",
          "type": "address"
        },
        {
          "indexed": false,
          "name": "_accountType",
          "type": "uint8"
        }
      ],
      "name": "LogCreatedAccessAcount",
      "type": "event"
    },
    {
      "anonymous": false,
      "inputs": [
        {
          "indexed": false,
          "name": "_where",
          "type": "string"
        }
      ],
      "name": "LogUnexpectedRevert",
      "type": "event"
    },
    {
      "constant": false,
      "inputs": [
        {
          "name": "_amount",
          "type": "uint256"
        },
        {
          "name": "_to",
          "type": "address"
        }
      ],
      "name": "requestWithdraw",
      "outputs": [
        {
          "name": "",
          "type": "uint256"
        }
      ],
      "payable": false,
      "stateMutability": "nonpayable",
      "type": "function"
    },
    {
      "constant": false,
      "inputs": [
        {
          "name": "_amount",
          "type": "uint256"
        }
      ],
      "name": "withdraw",
      "outputs": [],
      "payable": false,
      "stateMutability": "nonpayable",
      "type": "function"
    },
    {
      "constant": false,
      "inputs": [
        {
          "name": "_to",
          "type": "address"
        },
        {
          "name": "_requestNo",
          "type": "uint256"
        }
      ],
      "name": "withdraw",
      "outputs": [],
      "payable": false,
      "stateMutability": "nonpayable",
      "type": "function"
    }
  ],
  "bytecode": "0x6080604052600160055534801561001557600080fd5b5060405160408061206683398101806040528101908080519060200190929190805190602001909291905050508160018282600160006101000a81548173ffffffffffffffffffffffffffffffffffffffff021916908373ffffffffffffffffffffffffffffffffffffffff160217905550336000806101000a81548173ffffffffffffffffffffffffffffffffffffffff021916908373ffffffffffffffffffffffffffffffffffffffff16021790555081600460026101000a81548160ff021916908360028111156100e557fe5b0217905550806003819055506000600460006101000a81548160ff0219169083151502179055506000600460016101000a81548160ff0219169083151502179055507f4f1a20e20b0b2f3cdc1fcd1d7631e4cb35cadb8c1b8ea065a71a94167adf1e0f833384604051808473ffffffffffffffffffffffffffffffffffffffff1673ffffffffffffffffffffffffffffffffffffffff1681526020018373ffffffffffffffffffffffffffffffffffffffff1673ffffffffffffffffffffffffffffffffffffffff1681526020018260028111156101bf57fe5b60ff168152602001935050505060405180910390a150505081600160006101000a81548173ffffffffffffffffffffffffffffffffffffffff021916908373ffffffffffffffffffffffffffffffffffffffff160217905550336000806101000a81548173ffffffffffffffffffffffffffffffffffffffff021916908373ffffffffffffffffffffffffffffffffffffffff160217905550806003819055507fba30745a905aaced99b2fceb5b3ee14d5a7bbba87b3dfc68846c48c6a534966482336001604051808473ffffffffffffffffffffffffffffffffffffffff1673ffffffffffffffffffffffffffffffffffffffff1681526020018373ffffffffffffffffffffffffffffffffffffffff1673ffffffffffffffffffffffffffffffffffffffff1681526020018260028111156102f857fe5b60ff168152602001935050505060405180910390a17fbf37e80da9f7100f4e6e07114e448d420c3fd07315dfa6e3115dc6f43438bc9e6000604051808060200183600281111561034457fe5b60ff168152602001828103825260068152602001807f61636365737300000000000000000000000000000000000000000000000000008152506020019250505060405180910390a17fbf37e80da9f7100f4e6e07114e448d420c3fd07315dfa6e3115dc6f43438bc9e600160405180806020018360028111156103c357fe5b60ff168152602001828103825260058152602001807f64656c61790000000000000000000000000000000000000000000000000000008152506020019250505060405180910390a17fbf37e80da9f7100f4e6e07114e448d420c3fd07315dfa6e3115dc6f43438bc9e6002604051808060200183600281111561044257fe5b60ff168152602001828103825260058152602001807f74727573740000000000000000000000000000000000000000000000000000008152506020019250505060405180910390a15050611bcb8061049b6000396000f3006080604052600436106100af576000357c0100000000000000000000000000000000000000000000000000000000900463ffffffff16806312065fe0146100b45780632e1a7d4d146100df5780633bef8a3a1461010c57806362a5af3b146101235780637495b3531461013a578063893d20e814610169578063a6f9dae1146101c0578063ccc143b814610203578063d0e30db014610264578063f21cdf6f1461026e578063f3fef3a314610285575b600080fd5b3480156100c057600080fd5b506100c96102d2565b6040518082815260200191505060405180910390f35b3480156100eb57600080fd5b5061010a600480360381019080803590602001909291905050506102dc565b005b34801561011857600080fd5b506101216108c3565b005b34801561012f57600080fd5b506101386109f8565b005b34801561014657600080fd5b5061014f610c1a565b604051808215151515815260200191505060405180910390f35b34801561017557600080fd5b5061017e610c31565b604051808273ffffffffffffffffffffffffffffffffffffffff1673ffffffffffffffffffffffffffffffffffffffff16815260200191505060405180910390f35b3480156101cc57600080fd5b50610201600480360381019080803573ffffffffffffffffffffffffffffffffffffffff169060200190929190505050610d9d565b005b34801561020f57600080fd5b5061024e60048036038101908080359060200190929190803573ffffffffffffffffffffffffffffffffffffffff16906020019092919050505061101c565b6040518082815260200191505060405180910390f35b61026c611311565b005b34801561027a57600080fd5b5061028361155f565b005b34801561029157600080fd5b506102d0600480360381019080803573ffffffffffffffffffffffffffffffffffffffff16906020019092919080359060200190929190505050611768565b005b6000600254905090565b6000809054906101000a900473ffffffffffffffffffffffffffffffffffffffff1673ffffffffffffffffffffffffffffffffffffffff163373ffffffffffffffffffffffffffffffffffffffff1614806103845750600160009054906101000a900473ffffffffffffffffffffffffffffffffffffffff1673ffffffffffffffffffffffffffffffffffffffff163373ffffffffffffffffffffffffffffffffffffffff16145b151561041e576040517f08c379a00000000000000000000000000000000000000000000000000000000081526004018080602001828103825260218152602001807f46756e6374696f6e206f6e6c792061636365737369626c65206279206f776e6581526020017f720000000000000000000000000000000000000000000000000000000000000081525060400191505060405180910390fd5b60001515600460009054906101000a900460ff1615151415156104a9576040517f08c379a00000000000000000000000000000000000000000000000000000000081526004018080602001828103825260118152602001807f4163636f756e742069732066726f7a656e00000000000000000000000000000081525060200191505060405180910390fd5b600460019054906101000a900460ff161515156104c257fe5b6104ca6109f8565b7fb981afc16bc609765b6005bd910c0e9ef3424f3c61a05afcbbf88d11f414669d6040518080602001828103825260248152602001807f28696e2077697468647261772920616674657220667265657a696e672061636381526020017f6f756e740000000000000000000000000000000000000000000000000000000081525060400191505060405180910390a16000600281111561056557fe5b600460029054906101000a900460ff16600281111561058057fe5b14151561061b576040517f08c379a000000000000000000000000000000000000000000000000000000000815260040180806020018281038252602e8152602001807f506c65617365207573652077697468647261772066756e6374696f6e20696e2081526020017f6368696c6420636f6e747261637400000000000000000000000000000000000081525060400191505060405180910390fd5b7fb981afc16bc609765b6005bd910c0e9ef3424f3c61a05afcbbf88d11f414669d60405180806020018281038252602b8152602001807f28616674657220312072657175697265292061667465722074727573742f646581526020017f6c6179207265717569726500000000000000000000000000000000000000000081525060400191505060405180910390a16002548111151515610749576040517f08c379a00000000000000000000000000000000000000000000000000000000081526004018080602001828103825260298152602001807f43616e6e6f74207769746864726177206d6f72652066756e6473207468616e2081526020017f617661696c61626c65000000000000000000000000000000000000000000000081525060400191505060405180910390fd5b7fb981afc16bc609765b6005bd910c0e9ef3424f3c61a05afcbbf88d11f414669d60405180806020018281038252603b8152602001807f286166746572203220726571756972652920616674657220616d6f756e74206781526020017f65747320636865636b656420616761696e73742062616c616e6365000000000081525060400191505060405180910390a180600260008282540392505081905550600160009054906101000a900473ffffffffffffffffffffffffffffffffffffffff1673ffffffffffffffffffffffffffffffffffffffff166108fc829081150290604051600060405180830381858888f1935050505015801561084f573d6000803e3d6000fd5b507fb981afc16bc609765b6005bd910c0e9ef3424f3c61a05afcbbf88d11f414669d60405180806020018281038252601b8152602001807f2829206166746572207472616e73666572696e6720616d6f756e74000000000081525060200191505060405180910390a16108c061155f565b50565b6000809054906101000a900473ffffffffffffffffffffffffffffffffffffffff1673ffffffffffffffffffffffffffffffffffffffff163373ffffffffffffffffffffffffffffffffffffffff16141515610987576040517f08c379a000000000000000000000000000000000000000000000000000000000815260040180806020018281038252601c8152602001807f46756e6374696f6e206f6e6c7920757361626c652062792062616e6b0000000081525060200191505060405180910390fd5b6001600460016101000a81548160ff0219169083151502179055506001600460006101000a81548160ff021916908315150217905550600160009054906101000a900473ffffffffffffffffffffffffffffffffffffffff1673ffffffffffffffffffffffffffffffffffffffff16ff5b6000809054906101000a900473ffffffffffffffffffffffffffffffffffffffff1673ffffffffffffffffffffffffffffffffffffffff163373ffffffffffffffffffffffffffffffffffffffff161480610aa05750600160009054906101000a900473ffffffffffffffffffffffffffffffffffffffff1673ffffffffffffffffffffffffffffffffffffffff163373ffffffffffffffffffffffffffffffffffffffff16145b1515610b3a576040517f08c379a00000000000000000000000000000000000000000000000000000000081526004018080602001828103825260218152602001807f46756e6374696f6e206f6e6c792061636365737369626c65206279206f776e6581526020017f720000000000000000000000000000000000000000000000000000000000000081525060400191505060405180910390fd5b60001515600460009054906101000a900460ff161515141515610bc5576040517f08c379a00000000000000000000000000000000000000000000000000000000081526004018080602001828103825260118152602001807f4163636f756e742069732066726f7a656e00000000000000000000000000000081525060200191505060405180910390fd5b600460019054906101000a900460ff16151515610bde57fe5b60001515600460019054906101000a900460ff161515141515610bfd57fe5b6001600460006101000a81548160ff021916908315150217905550565b6000600460009054906101000a900460ff16905090565b60008060009054906101000a900473ffffffffffffffffffffffffffffffffffffffff1673ffffffffffffffffffffffffffffffffffffffff163373ffffffffffffffffffffffffffffffffffffffff161480610cdb5750600160009054906101000a900473ffffffffffffffffffffffffffffffffffffffff1673ffffffffffffffffffffffffffffffffffffffff163373ffffffffffffffffffffffffffffffffffffffff16145b1515610d75576040517f08c379a00000000000000000000000000000000000000000000000000000000081526004018080602001828103825260218152602001807f46756e6374696f6e206f6e6c792061636365737369626c65206279206f776e6581526020017f720000000000000000000000000000000000000000000000000000000000000081525060400191505060405180910390fd5b600160009054906101000a900473ffffffffffffffffffffffffffffffffffffffff16905090565b6000809054906101000a900473ffffffffffffffffffffffffffffffffffffffff1673ffffffffffffffffffffffffffffffffffffffff163373ffffffffffffffffffffffffffffffffffffffff16141515610e61576040517f08c379a000000000000000000000000000000000000000000000000000000000815260040180806020018281038252601c8152602001807f46756e6374696f6e206f6e6c7920757361626c652062792062616e6b0000000081525060200191505060405180910390fd5b60001515600460009054906101000a900460ff161515141515610eec576040517f08c379a00000000000000000000000000000000000000000000000000000000081526004018080602001828103825260118152602001807f4163636f756e742069732066726f7a656e00000000000000000000000000000081525060200191505060405180910390fd5b600460019054906101000a900460ff16151515610f0557fe5b610f0d6109f8565b600280811115610f1957fe5b600460029054906101000a900460ff166002811115610f3457fe5b14151515610fd0576040517f08c379a00000000000000000000000000000000000000000000000000000000081526004018080602001828103825260318152602001807f506c6561736520757365206368616e67654f776e65722066756e6374696f6e2081526020017f696e20747275737420636f6e747261637400000000000000000000000000000081525060400191505060405180910390fd5b80600160006101000a81548173ffffffffffffffffffffffffffffffffffffffff021916908373ffffffffffffffffffffffffffffffffffffffff16021790555061101961155f565b50565b6000806000809054906101000a900473ffffffffffffffffffffffffffffffffffffffff1673ffffffffffffffffffffffffffffffffffffffff163373ffffffffffffffffffffffffffffffffffffffff1614806110c75750600160009054906101000a900473ffffffffffffffffffffffffffffffffffffffff1673ffffffffffffffffffffffffffffffffffffffff163373ffffffffffffffffffffffffffffffffffffffff16145b1515611161576040517f08c379a00000000000000000000000000000000000000000000000000000000081526004018080602001828103825260218152602001807f46756e6374696f6e206f6e6c792061636365737369626c65206279206f776e6581526020017f720000000000000000000000000000000000000000000000000000000000000081525060400191505060405180910390fd5b6111696109f8565b8360025410151515611209576040517f08c379a00000000000000000000000000000000000000000000000000000000081526004018080602001828103825260218152602001807f43616e6e6f74207769746864726177206d6f7265207468616e2062616c616e6381526020017f650000000000000000000000000000000000000000000000000000000000000081525060400191505060405180910390fd5b600560008154809291906001019190505590506080604051908101604052804281526020018581526020018473ffffffffffffffffffffffffffffffffffffffff1681526020016000151581525060066000838152602001908152602001600020600082015181600001556020820151816001015560408201518160020160006101000a81548173ffffffffffffffffffffffffffffffffffffffff021916908373ffffffffffffffffffffffffffffffffffffffff16021790555060608201518160020160146101000a81548160ff021916908315150217905550905050806005819055508360026000828254039250508190555061130761155f565b8091505092915050565b60001515600460009054906101000a900460ff16151514151561139c576040517f08c379a00000000000000000000000000000000000000000000000000000000081526004018080602001828103825260118152602001807f4163636f756e742069732066726f7a656e00000000000000000000000000000081525060200191505060405180910390fd5b600460019054906101000a900460ff161515156113b557fe5b60003411151561142d576040517f08c379a00000000000000000000000000000000000000000000000000000000081526004018080602001828103825260188152602001807f56616c75652063616e6e6f74206265206e65676174697665000000000000000081525060200191505060405180910390fd5b600034600254011115156114cf576040517f08c379a00000000000000000000000000000000000000000000000000000000081526004018080602001828103825260228152602001807f56616c75652063616e6e6f74206d616b652062616c616e6365206e656761746981526020017f766500000000000000000000000000000000000000000000000000000000000081525060400191505060405180910390fd5b60035434600254011115151561154d576040517f08c379a00000000000000000000000000000000000000000000000000000000081526004018080602001828103825260208152602001807f4465706f7369742074616b6573206163636f756e74206f766572206c696d697481525060200191505060405180910390fd5b34600260008282540192505081905550565b6000809054906101000a900473ffffffffffffffffffffffffffffffffffffffff1673ffffffffffffffffffffffffffffffffffffffff163373ffffffffffffffffffffffffffffffffffffffff1614806116075750600160009054906101000a900473ffffffffffffffffffffffffffffffffffffffff1673ffffffffffffffffffffffffffffffffffffffff163373ffffffffffffffffffffffffffffffffffffffff16145b15156116a1576040517f08c379a00000000000000000000000000000000000000000000000000000000081526004018080602001828103825260218152602001807f46756e6374696f6e206f6e6c792061636365737369626c65206279206f776e6581526020017f720000000000000000000000000000000000000000000000000000000000000081525060400191505060405180910390fd5b60001515600460019054906101000a900460ff1615151415156116c057fe5b60011515600460009054906101000a900460ff16151514151561174b576040517f08c379a00000000000000000000000000000000000000000000000000000000081526004018080602001828103825260188152602001807f4163636f756e7420616c726561647920756e66726f7a656e000000000000000081525060200191505060405180910390fd5b6000600460006101000a81548160ff021916908315150217905550565b60008060009054906101000a900473ffffffffffffffffffffffffffffffffffffffff1673ffffffffffffffffffffffffffffffffffffffff163373ffffffffffffffffffffffffffffffffffffffff1614806118125750600160009054906101000a900473ffffffffffffffffffffffffffffffffffffffff1673ffffffffffffffffffffffffffffffffffffffff163373ffffffffffffffffffffffffffffffffffffffff16145b15156118ac576040517f08c379a00000000000000000000000000000000000000000000000000000000081526004018080602001828103825260218152602001807f46756e6374696f6e206f6e6c792061636365737369626c65206279206f776e6581526020017f720000000000000000000000000000000000000000000000000000000000000081525060400191505060405180910390fd5b60001515600460009054906101000a900460ff161515141515611937576040517f08c379a00000000000000000000000000000000000000000000000000000000081526004018080602001828103825260118152602001807f4163636f756e742069732066726f7a656e00000000000000000000000000000081525060200191505060405180910390fd5b600460019054906101000a900460ff1615151561195057fe5b6119586109f8565b60055482111515156119d2576040517f08c379a00000000000000000000000000000000000000000000000000000000081526004018080602001828103825260168152602001807f4e6f20737563682072657175657374206578697374730000000000000000000081525060200191505060405180910390fd5b600660008381526020019081526020016000206000015490504262278d008201111515611a67576040517f08c379a00000000000000000000000000000000000000000000000000000000081526004018080602001828103825260178152602001807f333020646179732068617665206e6f742070617373656400000000000000000081525060200191505060405180910390fd5b600015156006600084815260200190815260200160002060020160149054906101000a900460ff161515141515611b06576040517f08c379a000000000000000000000000000000000000000000000000000000000815260040180806020018281038252601d8152602001807f416d6f756e7420616c7265616479206265656e2077697468647261776e00000081525060200191505060405180910390fd5b60016006600084815260200190815260200160002060020160146101000a81548160ff0219169083151502179055508273ffffffffffffffffffffffffffffffffffffffff166108fc60066000858152602001908152602001600020600101549081150290604051600060405180830381858888f19350505050158015611b91573d6000803e3d6000fd5b50611b9a61155f565b5050505600a165627a7a72305820800e7306aa92bae9b1e34f2026186749ddc0346d990c997c0f92fbabc24a91ea0029",
  "source": "pragma solidity ^0.4.24;\r\n\r\nimport \"./AccessAccount.sol\";\r\n\r\ncontract DelayAccount is AccessAccount {\r\n    struct WithdrawRequests {\r\n        uint timeRequested;\r\n        uint amountRequested;\r\n        address to;\r\n        bool withdrawn;\r\n    }\r\n    uint numberOfRequests = 1;\r\n    //only added to if request is possible\r\n    mapping(uint => WithdrawRequests) requests;\r\n\r\n    event LogCreatedDelayAccount(address _owner, address _bank, AccessAccount.AccountType _chosenAccount);\r\n    event LogAccountTypes(string _accType, AccessAccount.AccountType _chosenAccount);\r\n\r\n    constructor(address _owner, uint _limit)\r\n        AccessAccount(_owner, AccessAccount.AccountType.delay, _limit)\r\n        public\r\n    {\r\n        AccessAccount.onwerAddress = _owner;\r\n        bankAddress = msg.sender;\r\n        AccessAccount.accountLimit = _limit;\r\n        emit LogCreatedDelayAccount(_owner, msg.sender, AccessAccount.AccountType.delay);\r\n        emit LogAccountTypes(\"access\", AccessAccount.AccountType.access);\r\n        emit LogAccountTypes(\"delay\", AccessAccount.AccountType.delay);\r\n        emit LogAccountTypes(\"trust\", AccessAccount.AccountType.trust);\r\n    }\r\n\r\n    /**\r\n      * @param _amount : the amount they want to withdraw.\r\n      * @dev the amount is detracted from the blance here to prevent \r\n      *     the user from making multiple requests that are for more than they\r\n      *     have. \r\n      */\r\n    function requestWithdraw(uint _amount, address _to)\r\n        public\r\n        isOwner()\r\n        returns(uint)\r\n    {\r\n        AccessAccount.freeze();\r\n\r\n        require(balance >= _amount, \"Cannot withdraw more than balance\");\r\n        uint currentRequsetNo = numberOfRequests++;\r\n        requests[currentRequsetNo] = WithdrawRequests({\r\n            timeRequested: now,\r\n            amountRequested: _amount,\r\n            to: _to,\r\n            withdrawn: false\r\n        });\r\n        numberOfRequests = currentRequsetNo;\r\n        balance -= _amount;\r\n        \r\n        AccessAccount.defrost();\r\n        return currentRequsetNo;\r\n    }\r\n    \r\n    /**\r\n      * @param _to : who (address) the funds must go to\r\n      * @dev only allows the owner(s) to withdraw. Dose not allow use if account is frozen \r\n      *     (or dissolved). Ensures the usage of witdraw in the child contracts for both delay\r\n      *     contracts and trust contracts. \r\n      *     checks that the time has passed, that the withdraw has not already happened,\r\n      *     function signature used to be function withdraw(address _to, uint _requestNo)\r\n      *     but due to a truffle error where the complier dose not pick up Overloaded functions\r\n      *     i had to change the contract to be overridden \r\n      */\r\n    function withdraw(address _to, uint _requestNo)\r\n        public\r\n        isOwner()\r\n        isFrozen()\r\n    {\r\n        AccessAccount.freeze();\r\n\r\n        require(_requestNo <= numberOfRequests, \"No such request exists\");\r\n        uint timeRequested = requests[_requestNo].timeRequested;\r\n        //30 (days) x 24 (hours in a day) x 60 (minutes in a hour) x 60 (seconds in a minute) = 2 592 000\r\n        require(timeRequested + 2592000 > now, \"30 days have not passed\");\r\n        require(requests[_requestNo].withdrawn == false, \"Amount already been withdrawn\");\r\n        requests[_requestNo].withdrawn = true;\r\n        _to.transfer(requests[_requestNo].amountRequested);\r\n\r\n        AccessAccount.defrost();\r\n    }\r\n}",
  "sourcePath": "C:\\Users\\Veronica Coutts\\Desktop\\Desktop\\Work\\LinumLabs\\PoCBank\\pocbank\\contracts\\DelayAccount.sol",
  "compiler": {
    "name": "solc",
    "version": "0.4.24+commit.e67f0147.Emscripten.clang"
  },
  "schemaVersion": "2.0.1",
  "updatedAt": "2018-10-01T08:41:48.882Z"
}