{
  "contractName": "DelayAccount",
  "abi": [
    {
      "inputs": [
        {
          "name": "_owner",
          "type": "address"
        },
        {
          "name": "_bank",
          "type": "address"
        }
      ],
      "payable": false,
      "stateMutability": "nonpayable",
      "type": "constructor"
    },
    {
      "constant": false,
      "inputs": [
        {
          "name": "_amount",
          "type": "uint256"
        }
      ],
      "name": "requestWithdraw",
      "outputs": [
        {
          "name": "",
          "type": "uint256"
        }
      ],
      "payable": false,
      "stateMutability": "nonpayable",
      "type": "function"
    },
    {
      "constant": false,
      "inputs": [
        {
          "name": "_amount",
          "type": "uint256"
        }
      ],
      "name": "withdraw",
      "outputs": [
        {
          "name": "",
          "type": "uint256"
        }
      ],
      "payable": true,
      "stateMutability": "payable",
      "type": "function"
    },
    {
      "constant": false,
      "inputs": [],
      "name": "isWithdrawPossible",
      "outputs": [
        {
          "name": "",
          "type": "bool"
        }
      ],
      "payable": false,
      "stateMutability": "nonpayable",
      "type": "function"
    },
    {
      "constant": false,
      "inputs": [
        {
          "name": "_amount",
          "type": "uint256"
        }
      ],
      "name": "deposit",
      "outputs": [],
      "payable": true,
      "stateMutability": "payable",
      "type": "function"
    },
    {
      "constant": true,
      "inputs": [],
      "name": "viewBalance",
      "outputs": [
        {
          "name": "",
          "type": "uint256"
        }
      ],
      "payable": false,
      "stateMutability": "view",
      "type": "function"
    }
  ],
  "bytecode": "0x60806040526000600360006101000a81548160ff02191690831515021790555034801561002b57600080fd5b506040516040806107238339810180604052810190808051906020019092919080519060200190929190505050816000806101000a81548173ffffffffffffffffffffffffffffffffffffffff021916908373ffffffffffffffffffffffffffffffffffffffff16021790555080600160006101000a81548173ffffffffffffffffffffffffffffffffffffffff021916908373ffffffffffffffffffffffffffffffffffffffff1602179055505050610639806100ea6000396000f30060806040526004361061006d576000357c0100000000000000000000000000000000000000000000000000000000900463ffffffff1680631dcaed52146100725780632e1a7d4d146100a15780633ff1e05b146100d5578063745400c914610100578063b6b55f2514610141575b600080fd5b34801561007e57600080fd5b50610087610161565b604051808215151515815260200191505060405180910390f35b6100bf60048036038101908080359060200190929190505050610288565b6040518082815260200191505060405180910390f35b3480156100e157600080fd5b506100ea6103ad565b6040518082815260200191505060405180910390f35b34801561010c57600080fd5b5061012b600480360381019080803590602001909291905050506104d5565b6040518082815260200191505060405180910390f35b61015f600480360381019080803590602001909291905050506105fa565b005b6000336000809054906101000a900473ffffffffffffffffffffffffffffffffffffffff1673ffffffffffffffffffffffffffffffffffffffff168173ffffffffffffffffffffffffffffffffffffffff16148061020c5750600160009054906101000a900473ffffffffffffffffffffffffffffffffffffffff1673ffffffffffffffffffffffffffffffffffffffff168173ffffffffffffffffffffffffffffffffffffffff16145b1515610280576040517f08c379a000000000000000000000000000000000000000000000000000000000815260040180806020018281038252600d8152602001807f4d757374206265206f776e65720000000000000000000000000000000000000081525060200191505060405180910390fd5b600191505090565b6000336000809054906101000a900473ffffffffffffffffffffffffffffffffffffffff1673ffffffffffffffffffffffffffffffffffffffff168173ffffffffffffffffffffffffffffffffffffffff1614806103335750600160009054906101000a900473ffffffffffffffffffffffffffffffffffffffff1673ffffffffffffffffffffffffffffffffffffffff168173ffffffffffffffffffffffffffffffffffffffff16145b15156103a7576040517f08c379a000000000000000000000000000000000000000000000000000000000815260040180806020018281038252600d8152602001807f4d757374206265206f776e65720000000000000000000000000000000000000081525060200191505060405180910390fd5b50919050565b6000336000809054906101000a900473ffffffffffffffffffffffffffffffffffffffff1673ffffffffffffffffffffffffffffffffffffffff168173ffffffffffffffffffffffffffffffffffffffff1614806104585750600160009054906101000a900473ffffffffffffffffffffffffffffffffffffffff1673ffffffffffffffffffffffffffffffffffffffff168173ffffffffffffffffffffffffffffffffffffffff16145b15156104cc576040517f08c379a000000000000000000000000000000000000000000000000000000000815260040180806020018281038252600d8152602001807f4d757374206265206f776e65720000000000000000000000000000000000000081525060200191505060405180910390fd5b60025491505090565b6000336000809054906101000a900473ffffffffffffffffffffffffffffffffffffffff1673ffffffffffffffffffffffffffffffffffffffff168173ffffffffffffffffffffffffffffffffffffffff1614806105805750600160009054906101000a900473ffffffffffffffffffffffffffffffffffffffff1673ffffffffffffffffffffffffffffffffffffffff168173ffffffffffffffffffffffffffffffffffffffff16145b15156105f4576040517f08c379a000000000000000000000000000000000000000000000000000000000815260040180806020018281038252600d8152602001807f4d757374206265206f776e65720000000000000000000000000000000000000081525060200191505060405180910390fd5b50919050565b34600260008282540192505081905550505600a165627a7a723058202b145491109f0a1e081cdd5c70b63964d470fa73d91c610160f72c6573eff1940029",
  "source": "pragma solidity ^0.4.24;\r\n\r\n//TODO: imports\r\n\r\ncontract DelayAccount {\r\n    address owner;\r\n    address bank;\r\n    uint balance;\r\n    bool lock = false;\r\n    \r\n    struct WithdrawRequest {\r\n        uint time;\r\n        bool possible;\r\n        uint amount;\r\n        bool compleatedDelay;\r\n    }\r\n    \r\n    WithdrawRequest[] allWithdrawRequests;\r\n    \r\n    //TODO: modifier isOwner\r\n    modifier onlyOwner(address isOwner){\r\n        require(isOwner == owner || isOwner == bank, \"Must be owner\");\r\n        _;\r\n    }\r\n    \r\n    /**\r\n     @param _owner : the addresses of the 2 owners of this contract\r\n    */\r\n    constructor(address _owner, address _bank) {\r\n        owner = _owner;\r\n        bank = _bank;\r\n    }\r\n    \r\n    function requestWithdraw(uint _amount) \r\n        public\r\n        onlyOwner(msg.sender)\r\n        returns(uint)\r\n    {\r\n        //TODO: balance =- _amount;\r\n        //TODO: add withdraw request to allWithdrawRequests[]\r\n        //TODO: return: the time it will be till the withdraw can be made, \r\n        //TODO: if its 1 it failed\r\n    }\r\n    \r\n    \r\n    function withdraw(uint _amount)\r\n        public\r\n        payable \r\n        onlyOwner(msg.sender)\r\n        returns(uint)\r\n    {\r\n        //TODO: check if the withdraw history if anywithdraw is not compelaed,\r\n        //TODO: has passed the time and is now true (check time here)\r\n        //TODO: check the withraw request passed (possible)\r\n        //TODO: call check withdraw possible\r\n    }\r\n    \r\n    function isWithdrawPossible()\r\n        public \r\n        onlyOwner(msg.sender)\r\n        returns(bool)\r\n    {\r\n        //TODO: check if the address can withdraw this amount \r\n        return true;\r\n    }\r\n\r\n    function deposit(uint _amount)\r\n        public \r\n        payable\r\n        //TODO: lockAccount\r\n    {\r\n        balance += msg.value;\r\n        //TODO: lockAccount();\r\n        //TODO: unlockAccount();\r\n    }\r\n\r\n    function viewBalance()\r\n        public\r\n        view\r\n        onlyOwner(msg.sender)\r\n        returns(uint)\r\n    {\r\n        return balance;\r\n    }\r\n}",
  "sourcePath": "C:\\Users\\Veronica Coutts\\Desktop\\Desktop\\Work\\LinumLabs\\PoCBank\\pocbank\\contracts\\DelayAccount.sol",
  "compiler": {
    "name": "solc",
    "version": "0.4.24+commit.e67f0147.Emscripten.clang"
  },
  "schemaVersion": "2.0.1",
  "updatedAt": "2018-09-29T13:05:00.953Z"
}