{
  "contractName": "SharedTrustAccount",
  "abi": [
    {
      "inputs": [
        {
          "name": "_owners",
          "type": "address[]"
        },
        {
          "name": "_bank",
          "type": "address"
        }
      ],
      "payable": false,
      "stateMutability": "nonpayable",
      "type": "constructor"
    },
    {
      "constant": false,
      "inputs": [
        {
          "name": "_voteType",
          "type": "uint8"
        },
        {
          "name": "_against",
          "type": "bool"
        }
      ],
      "name": "vote",
      "outputs": [
        {
          "name": "",
          "type": "bool"
        }
      ],
      "payable": false,
      "stateMutability": "nonpayable",
      "type": "function"
    }
  ],
  "bytecode": "0x608060405234801561001057600080fd5b506040516101213803806101218339810180604052810190808051820192919060200180519060200190929190505050505060d1806100506000396000f300608060405260043610603f576000357c0100000000000000000000000000000000000000000000000000000000900463ffffffff1680632808241e146044575b600080fd5b348015604f57600080fd5b50607b600480360381019080803560ff1690602001909291908035151590602001909291905050506095565b604051808215151515815260200191505060405180910390f35b60003333600192505050929150505600a165627a7a7230582093a53eac893a817fca2b06371267e67ae4541297650bd8032ac550149ddf7dc50029",
  "source": "pragma solidity ^0.4.24;\r\n\r\ncontract SharedTrustAccount {\r\n    address[] owners;\r\n    address bank;\r\n    \r\n    enum VoteTypes {dissolve, freeze, withdraw, addOwner, deleteOwner}\r\n    struct OwnerVotes {\r\n        address owner;\r\n        VoteTypes typeOfVote;\r\n        bool voted;\r\n    }\r\n    struct voteDetails{\r\n        VoteTypes vote;\r\n        address[] owners;\r\n        OwnerVotes ifVotedForTypes;\r\n        bool[] votes;\r\n        bool compleated;\r\n    }\r\n    \r\n    voteDetails[] internal historyOfVotes;\r\n    \r\n    modifier onlyOwners(address isOwner){\r\n        //TODO: if the address is an owner, dont fail\r\n        _;\r\n    }\r\n    \r\n    modifier haveNotVoted(address owner){\r\n        //TODO: if the owner has not voted on this vote, dont fail\r\n        _;\r\n    }\r\n    \r\n    constructor(address[] _owners, address _bank)\r\n    {\r\n        //TODO: \r\n        // if(owners.length  < 50){\r\n        //     owners = _owners;\r\n        //     bank = _bank;\r\n        //     //return true;\r\n        // } else {\r\n        //     //return false;\r\n        // }\r\n    }\r\n    \r\n    /**\r\n        @param _against : if they are voting yes this is true.\r\n    */\r\n    function vote(VoteTypes _voteType, bool _against)\r\n        public\r\n        onlyOwners(msg.sender)\r\n        haveNotVoted(msg.sender)\r\n        returns(bool)\r\n    {\r\n        //TODO: lock them for this specific vote type\r\n        //TODO: make their vote what they voted. \r\n        return true;\r\n    }\r\n    \r\n    function getVotes(VoteTypes _voteType)\r\n        internal\r\n        returns(bool[])\r\n    {\r\n        //TODO: get the votes of the owners\r\n        //TODO: checks that the time has passsed\r\n        //TODO: assert fail if time has not passed. \r\n        //TODO: check in the history of all the others for:\r\n            //TODO: any vote after a dissolve \r\n            //TODO: no votes during a freeze \r\n    }\r\n}",
  "sourcePath": "C:\\Users\\Veronica Coutts\\Desktop\\Desktop\\Work\\LinumLabs\\PoCBank\\pocbank\\contracts\\SharedTrustAccount.sol",
  "compiler": {
    "name": "solc",
    "version": "0.4.24+commit.e67f0147.Emscripten.clang"
  },
  "schemaVersion": "2.0.1",
  "updatedAt": "2018-09-29T08:18:29.378Z"
}