{
  "contractName": "TrustAccount",
  "abi": [
    {
      "constant": true,
      "inputs": [],
      "name": "getBalance",
      "outputs": [
        {
          "name": "",
          "type": "uint256"
        }
      ],
      "payable": false,
      "stateMutability": "view",
      "type": "function"
    },
    {
      "constant": false,
      "inputs": [],
      "name": "dissolve",
      "outputs": [],
      "payable": false,
      "stateMutability": "nonpayable",
      "type": "function"
    },
    {
      "constant": false,
      "inputs": [],
      "name": "freeze",
      "outputs": [],
      "payable": false,
      "stateMutability": "nonpayable",
      "type": "function"
    },
    {
      "constant": true,
      "inputs": [],
      "name": "getFrozen",
      "outputs": [
        {
          "name": "",
          "type": "bool"
        }
      ],
      "payable": false,
      "stateMutability": "view",
      "type": "function"
    },
    {
      "constant": true,
      "inputs": [],
      "name": "getOwner",
      "outputs": [
        {
          "name": "",
          "type": "address"
        }
      ],
      "payable": false,
      "stateMutability": "view",
      "type": "function"
    },
    {
      "constant": false,
      "inputs": [],
      "name": "deposit",
      "outputs": [],
      "payable": true,
      "stateMutability": "payable",
      "type": "function"
    },
    {
      "constant": false,
      "inputs": [],
      "name": "defrost",
      "outputs": [],
      "payable": false,
      "stateMutability": "nonpayable",
      "type": "function"
    },
    {
      "inputs": [
        {
          "name": "_owner",
          "type": "address"
        },
        {
          "name": "_owners",
          "type": "address[]"
        },
        {
          "name": "_limit",
          "type": "uint256"
        }
      ],
      "payable": false,
      "stateMutability": "nonpayable",
      "type": "constructor"
    },
    {
      "anonymous": false,
      "inputs": [
        {
          "indexed": false,
          "name": "owners",
          "type": "address[]"
        },
        {
          "indexed": false,
          "name": "_bank",
          "type": "address"
        },
        {
          "indexed": false,
          "name": "_limit",
          "type": "uint256"
        }
      ],
      "name": "LogCreatedTrustAccount",
      "type": "event"
    },
    {
      "anonymous": false,
      "inputs": [
        {
          "indexed": false,
          "name": "_owner",
          "type": "address"
        },
        {
          "indexed": false,
          "name": "_bank",
          "type": "address"
        },
        {
          "indexed": false,
          "name": "_accountType",
          "type": "uint8"
        }
      ],
      "name": "LogCreatedAccessAcount",
      "type": "event"
    },
    {
      "anonymous": false,
      "inputs": [
        {
          "indexed": false,
          "name": "_where",
          "type": "string"
        }
      ],
      "name": "LogUnexpectedRevert",
      "type": "event"
    },
    {
      "constant": false,
      "inputs": [
        {
          "name": "_newOwnerAddress",
          "type": "address"
        }
      ],
      "name": "changeOwner",
      "outputs": [],
      "payable": false,
      "stateMutability": "nonpayable",
      "type": "function"
    },
    {
      "constant": false,
      "inputs": [
        {
          "name": "_newOwnerAddress",
          "type": "address"
        },
        {
          "name": "_oldOwnerAddress",
          "type": "address"
        }
      ],
      "name": "changeOwner",
      "outputs": [],
      "payable": false,
      "stateMutability": "nonpayable",
      "type": "function"
    },
    {
      "constant": false,
      "inputs": [
        {
          "name": "_amount",
          "type": "uint256"
        }
      ],
      "name": "withdraw",
      "outputs": [],
      "payable": false,
      "stateMutability": "nonpayable",
      "type": "function"
    }
  ],
  "bytecode": "0x6080604052600060065534801561001557600080fd5b5060405162001fdb38038062001fdb8339810180604052810190808051906020019092919080518201929190602001805190602001909291905050506000808460028482600160006101000a81548173ffffffffffffffffffffffffffffffffffffffff021916908373ffffffffffffffffffffffffffffffffffffffff160217905550336000806101000a81548173ffffffffffffffffffffffffffffffffffffffff021916908373ffffffffffffffffffffffffffffffffffffffff16021790555081600460026101000a81548160ff021916908360028111156100f757fe5b0217905550806003819055506000600460006101000a81548160ff0219169083151502179055506000600460016101000a81548160ff0219169083151502179055507f4f1a20e20b0b2f3cdc1fcd1d7631e4cb35cadb8c1b8ea065a71a94167adf1e0f833384604051808473ffffffffffffffffffffffffffffffffffffffff1673ffffffffffffffffffffffffffffffffffffffff1681526020018373ffffffffffffffffffffffffffffffffffffffff1673ffffffffffffffffffffffffffffffffffffffff1681526020018260028111156101d157fe5b60ff168152602001935050505060405180910390a150505084600160006101000a81548173ffffffffffffffffffffffffffffffffffffffff021916908373ffffffffffffffffffffffffffffffffffffffff160217905550336000806101000a81548173ffffffffffffffffffffffffffffffffffffffff021916908373ffffffffffffffffffffffffffffffffffffffff1602179055508260038190555083519150600090505b818110156103665760408051908101604052806001151581526020018560008151811015156102a557fe5b9060200190602002015173ffffffffffffffffffffffffffffffffffffffff1681525060076000600654815260200190815260200160002060008201518160000160006101000a81548160ff02191690831515021790555060208201518160000160016101000a81548173ffffffffffffffffffffffffffffffffffffffff021916908373ffffffffffffffffffffffffffffffffffffffff160217905550905050600660008154809291906001019190505550808060010191505061027a565b7f3a650401d4f28871cc7011cf20e98637ced898f0c304280307332b3bfc947f6784338560405180806020018473ffffffffffffffffffffffffffffffffffffffff1673ffffffffffffffffffffffffffffffffffffffff168152602001838152602001828103825285818151815260200191508051906020019060200280838360005b838110156104055780820151818401526020810190506103ea565b5050505090500194505050505060405180910390a15050505050611bac806200042f6000396000f3006080604052600436106100a4576000357c0100000000000000000000000000000000000000000000000000000000900463ffffffff16806312065fe0146100a95780632e1a7d4d146100d45780633bef8a3a1461010157806362a5af3b146101185780637495b3531461012f578063893d20e81461015e578063a6f9dae1146101b5578063d0e30db0146101f8578063f00d4b5d14610202578063f21cdf6f14610265575b600080fd5b3480156100b557600080fd5b506100be61027c565b6040518082815260200191505060405180910390f35b3480156100e057600080fd5b506100ff60048036038101908080359060200190929190505050610286565b005b34801561010d57600080fd5b506101166107e3565b005b34801561012457600080fd5b5061012d610918565b005b34801561013b57600080fd5b50610144610bfe565b604051808215151515815260200191505060405180910390f35b34801561016a57600080fd5b50610173610c15565b604051808273ffffffffffffffffffffffffffffffffffffffff1673ffffffffffffffffffffffffffffffffffffffff16815260200191505060405180910390f35b3480156101c157600080fd5b506101f6600480360381019080803573ffffffffffffffffffffffffffffffffffffffff169060200190929190505050610e45565b005b6102006110c4565b005b34801561020e57600080fd5b50610263600480360381019080803573ffffffffffffffffffffffffffffffffffffffff169060200190929190803573ffffffffffffffffffffffffffffffffffffffff169060200190929190505050611312565b005b34801561027157600080fd5b5061027a6118b3565b005b6000600254905090565b60008060065491506000809054906101000a900473ffffffffffffffffffffffffffffffffffffffff1673ffffffffffffffffffffffffffffffffffffffff163373ffffffffffffffffffffffffffffffffffffffff1614156102e85761048a565b8190505b6000811115610489573373ffffffffffffffffffffffffffffffffffffffff166007600084815260200190815260200160002060000160019054906101000a900473ffffffffffffffffffffffffffffffffffffffff1673ffffffffffffffffffffffffffffffffffffffff16141561047c57600115156007600084815260200190815260200160002060000160009054906101000a900460ff1615151415156103fe576040517f08c379a00000000000000000000000000000000000000000000000000000000081526004018080602001828103825260138152602001807f4f776e6572206973206e6f74206163746976650000000000000000000000000081525060200191505060405180910390fd5b60008210151515610477576040517f08c379a000000000000000000000000000000000000000000000000000000000815260040180806020018281038252601d8152602001807f46756e6374696f6e206f6e6c7920757361626c65206279206f776e657200000081525060200191505060405180910390fd5b610489565b80806001019150506102ec565b5b60001515600460009054906101000a900460ff161515141515610515576040517f08c379a00000000000000000000000000000000000000000000000000000000081526004018080602001828103825260118152602001807f4163636f756e742069732066726f7a656e00000000000000000000000000000081525060200191505060405180910390fd5b600460019054906101000a900460ff1615151561052e57fe5b610536610918565b60028081111561054257fe5b600460029054906101000a900460ff16600281111561055d57fe5b141515156105f9576040517f08c379a000000000000000000000000000000000000000000000000000000000815260040180806020018281038252602e8152602001807f506c65617365207573652077697468647261772066756e6374696f6e20696e2081526020017f747275737420636f6e747261637400000000000000000000000000000000000081525060400191505060405180910390fd5b6001600281111561060657fe5b600460029054906101000a900460ff16600281111561062157fe5b141515156106bd576040517f08c379a000000000000000000000000000000000000000000000000000000000815260040180806020018281038252602e8152602001807f506c65617365207573652077697468647261772066756e6374696f6e20696e2081526020017f64656c617920636f6e747261637400000000000000000000000000000000000081525060400191505060405180910390fd5b600254831115151561075d576040517f08c379a00000000000000000000000000000000000000000000000000000000081526004018080602001828103825260298152602001807f43616e6e6f74207769746864726177206d6f72652066756e6473207468616e2081526020017f617661696c61626c65000000000000000000000000000000000000000000000081525060400191505060405180910390fd5b82600260008282540392505081905550600160009054906101000a900473ffffffffffffffffffffffffffffffffffffffff1673ffffffffffffffffffffffffffffffffffffffff166108fc849081150290604051600060405180830381858888f193505050501580156107d5573d6000803e3d6000fd5b506107de6118b3565b505050565b6000809054906101000a900473ffffffffffffffffffffffffffffffffffffffff1673ffffffffffffffffffffffffffffffffffffffff163373ffffffffffffffffffffffffffffffffffffffff161415156108a7576040517f08c379a000000000000000000000000000000000000000000000000000000000815260040180806020018281038252601c8152602001807f46756e6374696f6e206f6e6c7920757361626c652062792062616e6b0000000081525060200191505060405180910390fd5b6001600460016101000a81548160ff0219169083151502179055506001600460006101000a81548160ff021916908315150217905550600160009054906101000a900473ffffffffffffffffffffffffffffffffffffffff1673ffffffffffffffffffffffffffffffffffffffff16ff5b60008060065491506000809054906101000a900473ffffffffffffffffffffffffffffffffffffffff1673ffffffffffffffffffffffffffffffffffffffff163373ffffffffffffffffffffffffffffffffffffffff16141561097a57610b1c565b8190505b6000811115610b1b573373ffffffffffffffffffffffffffffffffffffffff166007600084815260200190815260200160002060000160019054906101000a900473ffffffffffffffffffffffffffffffffffffffff1673ffffffffffffffffffffffffffffffffffffffff161415610b0e57600115156007600084815260200190815260200160002060000160009054906101000a900460ff161515141515610a90576040517f08c379a00000000000000000000000000000000000000000000000000000000081526004018080602001828103825260138152602001807f4f776e6572206973206e6f74206163746976650000000000000000000000000081525060200191505060405180910390fd5b60008210151515610b09576040517f08c379a000000000000000000000000000000000000000000000000000000000815260040180806020018281038252601d8152602001807f46756e6374696f6e206f6e6c7920757361626c65206279206f776e657200000081525060200191505060405180910390fd5b610b1b565b808060010191505061097e565b5b60001515600460009054906101000a900460ff161515141515610ba7576040517f08c379a00000000000000000000000000000000000000000000000000000000081526004018080602001828103825260118152602001807f4163636f756e742069732066726f7a656e00000000000000000000000000000081525060200191505060405180910390fd5b600460019054906101000a900460ff16151515610bc057fe5b60001515600460019054906101000a900460ff161515141515610bdf57fe5b6001600460006101000a81548160ff0219169083151502179055505050565b6000600460009054906101000a900460ff16905090565b600080600060065491506000809054906101000a900473ffffffffffffffffffffffffffffffffffffffff1673ffffffffffffffffffffffffffffffffffffffff163373ffffffffffffffffffffffffffffffffffffffff161415610c7957610e1b565b8190505b6000811115610e1a573373ffffffffffffffffffffffffffffffffffffffff166007600084815260200190815260200160002060000160019054906101000a900473ffffffffffffffffffffffffffffffffffffffff1673ffffffffffffffffffffffffffffffffffffffff161415610e0d57600115156007600084815260200190815260200160002060000160009054906101000a900460ff161515141515610d8f576040517f08c379a00000000000000000000000000000000000000000000000000000000081526004018080602001828103825260138152602001807f4f776e6572206973206e6f74206163746976650000000000000000000000000081525060200191505060405180910390fd5b60008210151515610e08576040517f08c379a000000000000000000000000000000000000000000000000000000000815260040180806020018281038252601d8152602001807f46756e6374696f6e206f6e6c7920757361626c65206279206f776e657200000081525060200191505060405180910390fd5b610e1a565b8080600101915050610c7d565b5b600160009054906101000a900473ffffffffffffffffffffffffffffffffffffffff169250505090565b6000809054906101000a900473ffffffffffffffffffffffffffffffffffffffff1673ffffffffffffffffffffffffffffffffffffffff163373ffffffffffffffffffffffffffffffffffffffff16141515610f09576040517f08c379a000000000000000000000000000000000000000000000000000000000815260040180806020018281038252601c8152602001807f46756e6374696f6e206f6e6c7920757361626c652062792062616e6b0000000081525060200191505060405180910390fd5b60001515600460009054906101000a900460ff161515141515610f94576040517f08c379a00000000000000000000000000000000000000000000000000000000081526004018080602001828103825260118152602001807f4163636f756e742069732066726f7a656e00000000000000000000000000000081525060200191505060405180910390fd5b600460019054906101000a900460ff16151515610fad57fe5b610fb5610918565b600280811115610fc157fe5b600460029054906101000a900460ff166002811115610fdc57fe5b14151515611078576040517f08c379a00000000000000000000000000000000000000000000000000000000081526004018080602001828103825260318152602001807f506c6561736520757365206368616e67654f776e65722066756e6374696f6e2081526020017f696e20747275737420636f6e747261637400000000000000000000000000000081525060400191505060405180910390fd5b80600160006101000a81548173ffffffffffffffffffffffffffffffffffffffff021916908373ffffffffffffffffffffffffffffffffffffffff1602179055506110c16118b3565b50565b60001515600460009054906101000a900460ff16151514151561114f576040517f08c379a00000000000000000000000000000000000000000000000000000000081526004018080602001828103825260118152602001807f4163636f756e742069732066726f7a656e00000000000000000000000000000081525060200191505060405180910390fd5b600460019054906101000a900460ff1615151561116857fe5b6000341115156111e0576040517f08c379a00000000000000000000000000000000000000000000000000000000081526004018080602001828103825260188152602001807f56616c75652063616e6e6f74206265206e65676174697665000000000000000081525060200191505060405180910390fd5b60003460025401111515611282576040517f08c379a00000000000000000000000000000000000000000000000000000000081526004018080602001828103825260228152602001807f56616c75652063616e6e6f74206d616b652062616c616e6365206e656761746981526020017f766500000000000000000000000000000000000000000000000000000000000081525060400191505060405180910390fd5b600354346002540111151515611300576040517f08c379a00000000000000000000000000000000000000000000000000000000081526004018080602001828103825260208152602001807f4465706f7369742074616b6573206163636f756e74206f766572206c696d697481525060200191505060405180910390fd5b34600260008282540192505081905550565b60008060008060065491506000809054906101000a900473ffffffffffffffffffffffffffffffffffffffff1673ffffffffffffffffffffffffffffffffffffffff163373ffffffffffffffffffffffffffffffffffffffff16141561137757611519565b8190505b6000811115611518573373ffffffffffffffffffffffffffffffffffffffff166007600084815260200190815260200160002060000160019054906101000a900473ffffffffffffffffffffffffffffffffffffffff1673ffffffffffffffffffffffffffffffffffffffff16141561150b57600115156007600084815260200190815260200160002060000160009054906101000a900460ff16151514151561148d576040517f08c379a00000000000000000000000000000000000000000000000000000000081526004018080602001828103825260138152602001807f4f776e6572206973206e6f74206163746976650000000000000000000000000081525060200191505060405180910390fd5b60008210151515611506576040517f08c379a000000000000000000000000000000000000000000000000000000000815260040180806020018281038252601d8152602001807f46756e6374696f6e206f6e6c7920757361626c65206279206f776e657200000081525060200191505060405180910390fd5b611518565b808060010191505061137b565b5b60001515600460009054906101000a900460ff1615151415156115a4576040517f08c379a00000000000000000000000000000000000000000000000000000000081526004018080602001828103825260118152602001807f4163636f756e742069732066726f7a656e00000000000000000000000000000081525060200191505060405180910390fd5b600460019054906101000a900460ff161515156115bd57fe5b6115c5610918565b60065493508473ffffffffffffffffffffffffffffffffffffffff166007600086815260200190815260200160002060000160019054906101000a900473ffffffffffffffffffffffffffffffffffffffff1673ffffffffffffffffffffffffffffffffffffffff16141561170257856007600086815260200190815260200160002060000160016101000a81548173ffffffffffffffffffffffffffffffffffffffff021916908373ffffffffffffffffffffffffffffffffffffffff160217905550600084111515611701576040517f08c379a00000000000000000000000000000000000000000000000000000000081526004018080602001828103825260208152602001807f4f6c64204f776e65722041646472657373204e6f74207265636f676e6973656481525060200191505060405180910390fd5b5b8392505b60008311156118a3578473ffffffffffffffffffffffffffffffffffffffff166007600086815260200190815260200160002060000160019054906101000a900473ffffffffffffffffffffffffffffffffffffffff1673ffffffffffffffffffffffffffffffffffffffff16141561189657600115156007600086815260200190815260200160002060000160009054906101000a900460ff161515141515611818576040517f08c379a00000000000000000000000000000000000000000000000000000000081526004018080602001828103825260138152602001807f4f776e6572206973206e6f74206163746976650000000000000000000000000081525060200191505060405180910390fd5b60008410151515611891576040517f08c379a000000000000000000000000000000000000000000000000000000000815260040180806020018281038252601d8152602001807f46756e6374696f6e206f6e6c7920757361626c65206279206f776e657200000081525060200191505060405180910390fd5b6118a3565b8280600101935050611706565b6118ab6118b3565b505050505050565b60008060065491506000809054906101000a900473ffffffffffffffffffffffffffffffffffffffff1673ffffffffffffffffffffffffffffffffffffffff163373ffffffffffffffffffffffffffffffffffffffff16141561191557611ab7565b8190505b6000811115611ab6573373ffffffffffffffffffffffffffffffffffffffff166007600084815260200190815260200160002060000160019054906101000a900473ffffffffffffffffffffffffffffffffffffffff1673ffffffffffffffffffffffffffffffffffffffff161415611aa957600115156007600084815260200190815260200160002060000160009054906101000a900460ff161515141515611a2b576040517f08c379a00000000000000000000000000000000000000000000000000000000081526004018080602001828103825260138152602001807f4f776e6572206973206e6f74206163746976650000000000000000000000000081525060200191505060405180910390fd5b60008210151515611aa4576040517f08c379a000000000000000000000000000000000000000000000000000000000815260040180806020018281038252601d8152602001807f46756e6374696f6e206f6e6c7920757361626c65206279206f776e657200000081525060200191505060405180910390fd5b611ab6565b8080600101915050611919565b5b60001515600460019054906101000a900460ff161515141515611ad657fe5b60011515600460009054906101000a900460ff161515141515611b61576040517f08c379a00000000000000000000000000000000000000000000000000000000081526004018080602001828103825260188152602001807f4163636f756e7420616c726561647920756e66726f7a656e000000000000000081525060200191505060405180910390fd5b6000600460006101000a81548160ff02191690831515021790555050505600a165627a7a723058208c54fa7b2e62dd7e29a5d66e1432564ea75cea9b9eba80c25f9b0a632afa61cb0029",
  "source": "pragma solidity ^0.4.24;\r\n\r\nimport \"./AccessAccount.sol\";\r\n\r\ncontract TrustAccount is AccessAccount {\r\n    address[] owners;\r\n    uint noOfOwners = 0;\r\n    struct OwnerDetails {\r\n        bool isOwner;\r\n        address ownerWallet;\r\n    }\r\n    mapping(uint => OwnerDetails) allOwners;\r\n\r\n    event LogCreatedTrustAccount(address[] owners, address _bank, uint _limit);\r\n\r\n    modifier isOwner() {\r\n        uint temp = noOfOwners;\r\n        if(msg.sender == AccessAccount.bankAddress){\r\n            //checks the msg.sender is the bank, if it is it skipps the next check\r\n        } else {\r\n            //checks the user is not one of the other owners, fails if it runs out of \r\n            //owners tocheck.\r\n            for(uint i = temp; i > 0; i++){\r\n                if(allOwners[temp].ownerWallet == msg.sender){\r\n                    require(allOwners[temp].isOwner == true, \"Owner is not active\");\r\n                    require(temp >= 0, \"Function only usable by owner\");\r\n                    break;\r\n                }\r\n            }\r\n        }\r\n        _;\r\n    }\r\n\r\n    constructor(address _owner, address[] _owners, uint _limit)\r\n        AccessAccount(_owner, AccessAccount.AccountType.trust, _limit)\r\n        public\r\n    {\r\n        AccessAccount.onwerAddress = _owner;\r\n        bankAddress = msg.sender;\r\n        AccessAccount.accountLimit = _limit;\r\n        uint noOfOwnersInArray = _owners.length;\r\n        for(uint i = 0; i < noOfOwnersInArray; i++){\r\n            allOwners[noOfOwners] = OwnerDetails({\r\n                isOwner: true,\r\n                ownerWallet: _owners[0]\r\n            });\r\n            noOfOwners++;\r\n        }\r\n        emit LogCreatedTrustAccount(_owners, msg.sender, _limit);\r\n    }\r\n\r\n    /**\r\n      * @param _newOwnerAddress : the address of the new owner.\r\n      * @dev allows the user to change the wallet assosiated with the account. \r\n      *     The require ensures that this function cannot be called on the trust account\r\n      *     from the parent function (this function).\r\n      */\r\n    function changeOwner(address _newOwnerAddress, address _oldOwnerAddress)\r\n        public\r\n        isOwner()\r\n        isFrozen()\r\n    {\r\n        AccessAccount.freeze();\r\n\r\n        uint temp = noOfOwners;\r\n        if(allOwners[temp].ownerWallet == _oldOwnerAddress){\r\n            allOwners[temp].ownerWallet = _newOwnerAddress;\r\n            require(temp > 0, \"Old Owner Address Not recognised\");\r\n        }\r\n        for(uint i = temp; i > 0; i++){\r\n                if(allOwners[temp].ownerWallet == _oldOwnerAddress){\r\n                    require(allOwners[temp].isOwner == true, \"Owner is not active\");\r\n                    require(temp >= 0, \"Function only usable by owner\");\r\n                    break;\r\n                }\r\n            }\r\n\r\n        AccessAccount.defrost();\r\n    }\r\n\r\n    /**\r\n      * @param _amount : the amount to be withdrawn \r\n      * @dev only allows the owner(s) to withdraw. Dose not allow use if account is frozen \r\n      *     (or dissolved). Ensures the usage of witdraw in the child contracts for both delay\r\n      *     contracts and trust contracts. \r\n      */\r\n    function withdraw(uint _amount)\r\n        public\r\n        isOwner()\r\n        isFrozen()\r\n    {\r\n        AccessAccount.freeze();\r\n\r\n        require(thisAccountType != AccountType.trust, \"Please use withdraw function in trust contract\");\r\n        require(thisAccountType != AccountType.delay, \"Please use withdraw function in delay contract\");\r\n        require(_amount <= balance, \"Cannot withdraw more funds than available\");\r\n        balance -= _amount;\r\n        onwerAddress.transfer(_amount);\r\n\r\n        AccessAccount.defrost();\r\n    }\r\n}",
  "sourcePath": "C:\\Users\\Veronica Coutts\\Desktop\\Desktop\\Work\\LinumLabs\\PoCBank\\pocbank\\contracts\\TrustAccount.sol",
  "compiler": {
    "name": "solc",
    "version": "0.4.24+commit.e67f0147.Emscripten.clang"
  },
  "schemaVersion": "2.0.1",
  "updatedAt": "2018-10-01T08:41:48.884Z"
}