{
  "contractName": "TrustAccount",
  "abi": [
    {
      "constant": true,
      "inputs": [],
      "name": "getBalance",
      "outputs": [
        {
          "name": "",
          "type": "uint256"
        }
      ],
      "payable": false,
      "stateMutability": "view",
      "type": "function"
    },
    {
      "constant": false,
      "inputs": [
        {
          "name": "_newLimit",
          "type": "uint256"
        }
      ],
      "name": "setLimit",
      "outputs": [],
      "payable": false,
      "stateMutability": "nonpayable",
      "type": "function"
    },
    {
      "constant": false,
      "inputs": [],
      "name": "freeze",
      "outputs": [],
      "payable": false,
      "stateMutability": "nonpayable",
      "type": "function"
    },
    {
      "constant": true,
      "inputs": [],
      "name": "getFrozen",
      "outputs": [
        {
          "name": "",
          "type": "bool"
        }
      ],
      "payable": false,
      "stateMutability": "view",
      "type": "function"
    },
    {
      "constant": true,
      "inputs": [],
      "name": "getOwner",
      "outputs": [
        {
          "name": "",
          "type": "address"
        }
      ],
      "payable": false,
      "stateMutability": "view",
      "type": "function"
    },
    {
      "constant": true,
      "inputs": [],
      "name": "getLimit",
      "outputs": [
        {
          "name": "",
          "type": "uint256"
        }
      ],
      "payable": false,
      "stateMutability": "view",
      "type": "function"
    },
    {
      "constant": false,
      "inputs": [],
      "name": "deposit",
      "outputs": [],
      "payable": true,
      "stateMutability": "payable",
      "type": "function"
    },
    {
      "constant": false,
      "inputs": [],
      "name": "defrost",
      "outputs": [],
      "payable": false,
      "stateMutability": "nonpayable",
      "type": "function"
    },
    {
      "inputs": [
        {
          "name": "_owners",
          "type": "address[]"
        },
        {
          "name": "_limit",
          "type": "uint256"
        }
      ],
      "payable": false,
      "stateMutability": "nonpayable",
      "type": "constructor"
    },
    {
      "anonymous": false,
      "inputs": [
        {
          "indexed": false,
          "name": "owners",
          "type": "address[]"
        },
        {
          "indexed": false,
          "name": "_bank",
          "type": "address"
        },
        {
          "indexed": false,
          "name": "_limit",
          "type": "uint256"
        }
      ],
      "name": "LogCreatedTrustAccount",
      "type": "event"
    },
    {
      "anonymous": false,
      "inputs": [
        {
          "indexed": false,
          "name": "_desc",
          "type": "string"
        }
      ],
      "name": "LogProgress",
      "type": "event"
    },
    {
      "anonymous": false,
      "inputs": [
        {
          "indexed": false,
          "name": "_value",
          "type": "uint256"
        }
      ],
      "name": "LogValue",
      "type": "event"
    },
    {
      "anonymous": false,
      "inputs": [
        {
          "indexed": false,
          "name": "_owner",
          "type": "address"
        },
        {
          "indexed": false,
          "name": "_bank",
          "type": "address"
        },
        {
          "indexed": false,
          "name": "_accountType",
          "type": "uint8"
        }
      ],
      "name": "LogCreatedAccessAcount",
      "type": "event"
    },
    {
      "anonymous": false,
      "inputs": [
        {
          "indexed": false,
          "name": "_where",
          "type": "string"
        }
      ],
      "name": "LogUnexpectedRevert",
      "type": "event"
    },
    {
      "constant": false,
      "inputs": [
        {
          "name": "_voteType",
          "type": "uint8"
        },
        {
          "name": "_current",
          "type": "address"
        },
        {
          "name": "_new",
          "type": "address"
        },
        {
          "name": "_amount",
          "type": "uint256"
        }
      ],
      "name": "createVote",
      "outputs": [],
      "payable": false,
      "stateMutability": "nonpayable",
      "type": "function"
    },
    {
      "constant": true,
      "inputs": [
        {
          "name": "_ballotID",
          "type": "uint256"
        }
      ],
      "name": "getBallot",
      "outputs": [
        {
          "name": "typeOfVote",
          "type": "uint8"
        },
        {
          "name": "startTime",
          "type": "uint256"
        },
        {
          "name": "endTime",
          "type": "uint256"
        },
        {
          "name": "currentAddress",
          "type": "address"
        },
        {
          "name": "newAddress",
          "type": "address"
        },
        {
          "name": "actedOn",
          "type": "bool"
        }
      ],
      "payable": false,
      "stateMutability": "view",
      "type": "function"
    },
    {
      "constant": false,
      "inputs": [
        {
          "name": "_ballotID",
          "type": "uint256"
        },
        {
          "name": "_vote",
          "type": "bool"
        }
      ],
      "name": "voteFor",
      "outputs": [],
      "payable": false,
      "stateMutability": "nonpayable",
      "type": "function"
    },
    {
      "constant": true,
      "inputs": [
        {
          "name": "_chosenType",
          "type": "uint8"
        }
      ],
      "name": "requestOwner",
      "outputs": [],
      "payable": false,
      "stateMutability": "view",
      "type": "function"
    },
    {
      "constant": false,
      "inputs": [
        {
          "name": "_newOwnerAddress",
          "type": "address"
        }
      ],
      "name": "changeOwner",
      "outputs": [],
      "payable": false,
      "stateMutability": "nonpayable",
      "type": "function"
    },
    {
      "constant": false,
      "inputs": [
        {
          "name": "_oldOwnerAddress",
          "type": "address"
        },
        {
          "name": "_newOwnerAddress",
          "type": "address"
        }
      ],
      "name": "changeOwner",
      "outputs": [
        {
          "name": "",
          "type": "address[]"
        }
      ],
      "payable": false,
      "stateMutability": "nonpayable",
      "type": "function"
    },
    {
      "constant": false,
      "inputs": [
        {
          "name": "_to",
          "type": "address"
        },
        {
          "name": "_amount",
          "type": "uint256"
        }
      ],
      "name": "requestWithdraw",
      "outputs": [
        {
          "name": "",
          "type": "uint256"
        }
      ],
      "payable": false,
      "stateMutability": "nonpayable",
      "type": "function"
    },
    {
      "constant": false,
      "inputs": [
        {
          "name": "_requstNo",
          "type": "uint256"
        }
      ],
      "name": "withdraw",
      "outputs": [],
      "payable": false,
      "stateMutability": "nonpayable",
      "type": "function"
    },
    {
      "constant": false,
      "inputs": [],
      "name": "dissolve",
      "outputs": [],
      "payable": false,
      "stateMutability": "nonpayable",
      "type": "function"
    }
  ],
  "bytecode": "0x60806040526000600655600060075534801561001a57600080fd5b5060405161177e38038061177e83398101604081815282516020808501516001805433600160a060020a03199182168117909255600080549091168217815560048054600385905561ff0019166102001760ff191690558187529286018190526002858701819052945193909601959094919384939192909186917f4f1a20e20b0b2f3cdc1fcd1d7631e4cb35cadb8c1b8ea065a71a94167adf1e0f916060918190039190910190a150506001805433600160a060020a031991821681179092556000805490911690911781556003859055855193509150505b818110156101c55780600b6000868481518110151561010f57fe5b90602001906020020151600160a060020a0316600160a060020a03168152602001908152602001600020819055506040805190810160405280600115158152602001858381518110151561015f57fe5b6020908102909101810151600160a060020a039081169092526000848152600a8252604090208351815494909201519092166101000261010060a860020a031991151560ff199094169390931716919091179055600680546001908101909155016100f4565b7f3a650401d4f28871cc7011cf20e98637ced898f0c304280307332b3bfc947f67843385604051808060200184600160a060020a0316600160a060020a03168152602001838152602001828103825285818151815260200191508051906020019060200280838360005b8381101561024757818101518382015260200161022f565b5050505090500194505050505060405180910390a15050505061150f8061026f6000396000f3006080604052600436106100f05763ffffffff7c01000000000000000000000000000000000000000000000000000000006000350416630f0b56d481146100f557806312065fe01461011257806327ea6f2b146101395780632e1a7d4d14610151578063397a1b28146101695780633bef8a3a1461018d57806362a5af3b146101a25780637495b353146101b7578063893d20e8146101e0578063a6f9dae114610211578063b295a00e14610232578063bdb5fd9914610247578063d0e30db014610264578063e72a97e71461026c578063f00d4b5d1461029c578063f21cdf6f14610313578063f9d5ee7514610328575b600080fd5b34801561010157600080fd5b5061011060ff60043516610391565b005b34801561011e57600080fd5b506101276103ad565b60408051918252519081900360200190f35b34801561014557600080fd5b506101106004356103b3565b34801561015d57600080fd5b5061011060043561041a565b34801561017557600080fd5b50610127600160a060020a0360043516602435610685565b34801561019957600080fd5b5061011061079f565b3480156101ae57600080fd5b5061011061093d565b3480156101c357600080fd5b506101cc6109d8565b604080519115158252519081900360200190f35b3480156101ec57600080fd5b506101f56109e1565b60408051600160a060020a039092168252519081900360200190f35b34801561021d57600080fd5b50610110600160a060020a0360043516610a21565b34801561023e57600080fd5b50610127610baa565b34801561025357600080fd5b506101106004356024351515610be1565b610110610cc5565b34801561027857600080fd5b5061011060ff60043516600160a060020a0360243581169060443516606435610e64565b3480156102a857600080fd5b506102c3600160a060020a0360043581169060243516611126565b60408051602080825283518183015283519192839290830191858101910280838360005b838110156102ff5781810151838201526020016102e7565b505050509050019250505060405180910390f35b34801561031f57600080fd5b506101106113fb565b34801561033457600080fd5b50610340600435611497565b6040518087600381111561035057fe5b60ff168152602081019690965250604080860194909452600160a060020a03928316606086015291166080840152151560a0830152519081900360c0019150f35b600381600381111561039f57fe5b14156103aa57600080fd5b50565b60025490565b600054600160a060020a03163314610415576040805160e560020a62461bcd02815260206004820152601c60248201527f46756e6374696f6e206f6e6c7920757361626c652062792062616e6b00000000604482015290519081900360640190fd5b600355565b336000908152600b6020908152604080832054808452600a9092529091205460ff16151560011461044a57600080fd5b600360008381526008602052604090206001015460ff16600381111561046c57fe5b146104c1576040805160e560020a62461bcd02815260206004820152601660248201527f496e76616c69642072657175657374206e756d62657200000000000000000000604482015290519081900360640190fd5b600082815260086020526040902060030154421161054f576040805160e560020a62461bcd02815260206004820152603160248201527f566f7465732074696d6520686173206e6f74207061737365642e20506c65617360448201527f652074727920616761696e206c61746572000000000000000000000000000000606482015290519081900360840190fd5b60008281526008602052604090206007015460ff16156105b9576040805160e560020a62461bcd02815260206004820181905260248201527f57697468647261772068617320616c72656164792074616b656e20706c616365604482015290519081900360640190fd5b60025460008381526008602052604090206006015410610623576040805160e560020a62461bcd02815260206004820152601160248201527f496e737566666963656e742066756e6473000000000000000000000000000000604482015290519081900360640190fd5b60008281526008602052604080822060078101805460ff1916600117905560048101546006909101549151600160a060020a039091169282156108fc02929190818181858888f19350505050158015610680573d6000803e3d6000fd5b505050565b336000908152600b6020908152604080832054808452600a90925282205460ff1615156001146106b457600080fd5b600254831061070d576040805160e560020a62461bcd02815260206004820152601f60248201527f43616e6e6f74207769746864726177206d6f7265207468616e206f776e656400604482015290519081900360640190fd5b604080517fe72a97e700000000000000000000000000000000000000000000000000000000815260036004820152600160a060020a0386166024820152600060448201819052606482018690529151309263e72a97e7926084808201939182900301818387803b15801561078057600080fd5b505af1158015610794573d6000803e3d6000fd5b505050505092915050565b600080548190600160a060020a03163314610804576040805160e560020a62461bcd02815260206004820152601c60248201527f46756e6374696f6e206f6e6c7920757361626c652062792062616e6b00000000604482015290519081900360640190fd5b6040805160208082526012908201527f696e206469736f6c7665202874727573742900000000000000000000000000008183015290517f6a42c50d3ee00b78df9f99768064c629066807b2ab738674e00b018c696be3789181900360600190a16004805460ff1916600117905560055460025481151561088057fe5b604080516020808252600f908201527f76616c756520706572206f776e657200000000000000000000000000000000008183015290519290910493507f6a42c50d3ee00b78df9f99768064c629066807b2ab738674e00b018c696be378919081900360600190a16040805183815290517ffcf771399d75a67a6d0e730ae98d34c40b6bfe6ebf8053b98ddf4da8c27062509181900360200190a15060005b600554811161092f5760010161091e565b600054600160a060020a0316ff5b336000908152600b6020908152604080832054808452600a9092529091205460ff16151560011461096d57600080fd5b60045460ff16156109c8576040805160e560020a62461bcd02815260206004820152601160248201527f4163636f756e742069732066726f7a656e000000000000000000000000000000604482015290519081900360640190fd5b506004805460ff19166001179055565b60045460ff1690565b336000908152600b6020908152604080832054808452600a90925282205460ff161515600114610a1057600080fd5b5050600154600160a060020a031690565b600054600160a060020a03163314610a83576040805160e560020a62461bcd02815260206004820152601c60248201527f46756e6374696f6e206f6e6c7920757361626c652062792062616e6b00000000604482015290519081900360640190fd5b60045460ff1615610ade576040805160e560020a62461bcd02815260206004820152601160248201527f4163636f756e742069732066726f7a656e000000000000000000000000000000604482015290519081900360640190fd5b610ae661093d565b6002600454610100900460ff166002811115610afe57fe5b1415610b7a576040805160e560020a62461bcd02815260206004820152603160248201527f506c6561736520757365206368616e67654f776e65722066756e6374696f6e2060448201527f696e20747275737420636f6e7472616374000000000000000000000000000000606482015290519081900360840190fd5b6001805473ffffffffffffffffffffffffffffffffffffffff1916600160a060020a0383161790556103aa6113fb565b336000908152600b6020908152604080832054808452600a90925282205460ff161515600114610bd957600080fd5b505060035490565b336000908152600b6020908152604080832054808452600a9092529091205460ff161515600114610c1157600080fd5b50600082815260096020908152604080832081516060810183523381529415158584019081529185019586528054600181810183559185529290932093516002909202909301805493511515740100000000000000000000000000000000000000000274ff000000000000000000000000000000000000000019600160a060020a039390931673ffffffffffffffffffffffffffffffffffffffff1990951694909417919091169290921782559151910155565b60045460ff1615610d20576040805160e560020a62461bcd02815260206004820152601160248201527f4163636f756e742069732066726f7a656e000000000000000000000000000000604482015290519081900360640190fd5b60003411610d78576040805160e560020a62461bcd02815260206004820152601860248201527f56616c75652063616e6e6f74206265206e656761746976650000000000000000604482015290519081900360640190fd5b60003460025401111515610dfc576040805160e560020a62461bcd02815260206004820152602260248201527f56616c75652063616e6e6f74206d616b652062616c616e6365206e656761746960448201527f7665000000000000000000000000000000000000000000000000000000000000606482015290519081900360840190fd5b60035460025434011115610e5a576040805160e560020a62461bcd02815260206004820181905260248201527f4465706f7369742074616b6573206163636f756e74206f766572206c696d6974604482015290519081900360640190fd5b6002805434019055565b336000908152600b6020908152604080832054808452600a9092529091205460ff161515600114610e9457600080fd5b6000856003811115610ea257fe5b1480610eb957506001856003811115610eb757fe5b145b80610ecf57506002856003811115610ecd57fe5b145b15610ffc57600780546001019081905560408051610100810190915290815260208101866003811115610efe57fe5b81524260208083018290526203f480909101604080840191909152600160a060020a03808916606085015287166080840152600060a0840181905260c0909301839052600754835260088252909120825181559082015160018281018054909160ff1990911690836003811115610f7157fe5b021790555060408201516002820155606082015160038201556080820151600482018054600160a060020a0392831673ffffffffffffffffffffffffffffffffffffffff199182161790915560a084015160058401805491909316911617905560c0820151600682015560e0909101516007909101805491151560ff1990921691909117905561111f565b60078054600101908190556040805161010081019091529081526020810186600381111561102657fe5b81524260208083018290526203f480909101604080840191909152600160a060020a038816606084015260006080840181905260a0840187905260c0909301839052600754835260088252909120825181559082015160018281018054909160ff199091169083600381111561109857fe5b021790555060408201516002820155606082015160038201556080820151600482018054600160a060020a0392831673ffffffffffffffffffffffffffffffffffffffff199182161790915560a084015160058401805491909316911617905560c0820151600682015560e0909101516007909101805491151560ff199092169190911790555b5050505050565b336000908152600b6020908152604080832054808452600a90925282205460609291829160ff16151560011461115b57600080fd5b60045460ff16156111b6576040805160e560020a62461bcd02815260206004820152601160248201527f4163636f756e742069732066726f7a656e000000000000000000000000000000604482015290519081900360640190fd5b6111be61093d565b60065492505b60008311156112c9576000838152600a6020526040902054600160a060020a038781166101009092041614156112bd576000838152600a602052604090205460ff16151560011461125f576040805160e560020a62461bcd02815260206004820152601360248201527f4f776e6572206973206e6f742061637469766500000000000000000000000000604482015290519081900360640190fd5b60008310156112b8576040805160e560020a62461bcd02815260206004820152601d60248201527f46756e6374696f6e206f6e6c7920757361626c65206279206f776e6572000000604482015290519081900360640190fd5b6112c9565b600019909201916111c4565b60065491505b600082111561138d576000828152600a6020526040902054600160a060020a03878116610100909204161415611381576000828152600a602052604090208054600174ffffffffffffffffffffffffffffffffffffffff0019909116610100600160a060020a038916021760ff1916179055600580548691908490811061135257fe5b9060005260206000200160006101000a815481600160a060020a030219169083600160a060020a031602179055505b600019909101906112cf565b6113956113fb565b60058054806020026020016040519081016040528092919081815260200182805480156113eb57602002820191906000526020600020905b8154600160a060020a031681526001909101906020018083116113cd575b5050505050935050505092915050565b336000908152600b6020908152604080832054808452600a9092529091205460ff16151560011461142b57600080fd5b60045460ff16151560011461148a576040805160e560020a62461bcd02815260206004820152601860248201527f4163636f756e7420616c726561647920756e66726f7a656e0000000000000000604482015290519081900360640190fd5b506004805460ff19169055565b60009081526008602052604090206001810154600282015460038301546004840154600585015460079095015460ff9485169693959294600160a060020a0392831694929093169216905600a165627a7a72305820832f2acf6bbfbc18201d30ec4c05f094e4910e95b78f74ad68312baf6ece68b70029",
  "source": "pragma solidity ^0.4.24;\r\n\r\nimport \"./AccessAccount.sol\";\r\n\r\ncontract TrustAccount is AccessAccount {\r\n    //array of all the owner addresses\r\n    address[] owners;\r\n    //counter of all owners\r\n    uint noOfOwners = 0;\r\n    //ballot counter\r\n    uint ballotIDs = 0;\r\n    //the different types of votes\r\n    enum VoteType {removeOwner, addOwner, changeOwner, withdrawRequest}\r\n    //votes, containingthe voter, their vote and the ballot ID\r\n    struct Votes {\r\n        address voter;\r\n        bool vote;\r\n        uint ballotID;\r\n    }\r\n    //the owners, containing if they are active and all their votes\r\n    struct OwnerDetails {\r\n        bool isOwner;\r\n        address ownerWallet;\r\n        // Votes[] allVotes;\r\n    }\r\n    //the ballots, containing the votes specific details and an ID\r\n    struct Ballot {\r\n        uint ballotID;\r\n        VoteType typeOfVote;\r\n        uint startTime;\r\n        uint endTime;\r\n        address currentAddress;\r\n        address newAddress;\r\n        uint amount;\r\n        bool actedOn;\r\n    }\r\n    //ballots to their ids\r\n    mapping(uint => Ballot) allBallots;\r\n    //all votes for the ballot\r\n    mapping(uint => Votes[]) allVotesForBallot;\r\n    //user keys to their details\r\n    mapping(uint => OwnerDetails) allOwners;\r\n    //user addresses to keys\r\n    mapping(address => uint) ownersKeys;\r\n\r\n    /**\r\n      * @param _voteType : the type of vote it is\r\n      * @param _current : if it is removing / changing / adding an owner:\r\n      *     if removing, _new will be empy.\r\n      *     if changing, _current is their current address, _new is the address\r\n      *         to replace them with\r\n      *     if adding an owner, current will be blank and _new will contain their address\r\n      *     if withdraw requset the current is the address the funds would go to\r\n      * @param _new :if changing / adding an owner: \r\n      *     if changing, this will be their new address, and current will be their old one\r\n      *     if adding, the _current will be blank and _new will contain the new address\r\n      *     if withdraw request then this is blank\r\n      * @dev if the vote type is rejecting a withdraw requset then both addresses are empty\r\n      */\r\n    function createVote(VoteType _voteType, address _current, address _new, uint _amount)\r\n        public\r\n        isOwner()\r\n    {\r\n        if(\r\n            _voteType == VoteType.removeOwner || \r\n            _voteType == VoteType.addOwner || \r\n            _voteType == VoteType.changeOwner\r\n        ){\r\n            //vote is changing owners\r\n            ballotIDs++;\r\n            allBallots[ballotIDs] = Ballot({\r\n                ballotID: ballotIDs,\r\n                typeOfVote: _voteType,\r\n                startTime: now,\r\n                //3 (days) x 24 (hours) x 60 (minutes) x 60 (secounds) = 259 200\r\n                endTime: now + 259200,\r\n                currentAddress: _current,\r\n                newAddress: _new,\r\n                amount: 0,\r\n                actedOn: false\r\n            });\r\n        } else {\r\n            //vote is rejecting withdraw.\r\n            ballotIDs++;\r\n            allBallots[ballotIDs] = Ballot({\r\n                ballotID: ballotIDs,\r\n                typeOfVote: _voteType,\r\n                startTime: now,\r\n                endTime: now + 259200,\r\n                currentAddress: _current,\r\n                newAddress: 0x0,\r\n                amount: _amount,\r\n                actedOn: false\r\n            });\r\n        }\r\n    }\r\n\r\n    // /**\r\n    //   * @param _ballotID : the ballot ID\r\n    //   */\r\n    // function actOnVote(uint _ballotID)\r\n    //     public\r\n    //     isOwner()\r\n    // {\r\n    //     require(allBallots[_ballotID].endTime < now, \"Vote end time has not been reached yet\");\r\n    //     allBallots[_ballotID].actedOn = false;\r\n    //     uint votesTrue = 0;\r\n    //     uint votesFalse = 0;\r\n    //     uint numberOfVotes = allVotesForBallot[_ballotID].length;\r\n    //     for(uint i = 0; i < numberOfVotes; i++){\r\n    //         bool temp = allVotesForBallot[_ballotID][i].vote;\r\n    //         if(temp)\r\n    //             votesTrue++;\r\n    //         else \r\n    //             votesFalse++;\r\n    //     }\r\n    //     if(votesTrue > votesFalse){\r\n    //         //do the thing\r\n    //         if(allBallots[_ballotID].typeOfVote == VoteType.removeOwner){\r\n    //             allOwners[ownersKeys[allBallots[_ballotID].currentAddress]]\r\n    //         }\r\n    //         if(allBallots[_ballotID].typeOfVote == VoteType.addOwner){\r\n\r\n    //         }\r\n    //         if(allBallots[_ballotID].typeOfVote == VoteType.changeOwner){\r\n\r\n    //         }\r\n    //         if(allBallots[_ballotID].typeOfVote == VoteType.withdrawRequest){\r\n\r\n    //         }\r\n    //     } else {\r\n    //         //dont do the thing\r\n    //     }\r\n    // }\r\n\r\n    \r\n\r\n    event LogCreatedTrustAccount(address[] owners, address _bank, uint _limit);\r\n\r\n    /** \r\n      * @dev modifier checks that only the owner may call the function\r\n      */\r\n    modifier isOwner() {\r\n        uint key = ownersKeys[msg.sender];\r\n        require(allOwners[key].isOwner == true);\r\n        _;\r\n    }\r\n\r\n    /**\r\n      * @dev the constructor sets the owner in the access account to the bank as \r\n      *     all the owners need equal status and replacability. \r\n      */\r\n    constructor(address[] _owners, uint _limit)\r\n        AccessAccount(msg.sender, AccessAccount.AccountType.trust, _limit)\r\n        public\r\n    {\r\n        AccessAccount.onwerAddress = msg.sender;\r\n        bankAddress = msg.sender;\r\n        AccessAccount.accountLimit = _limit;\r\n        uint noOfOwnersInArray = _owners.length;\r\n        for(uint i = 0; i < noOfOwnersInArray; i++){\r\n            ownersKeys[_owners[i]] = i;\r\n            allOwners[i] = OwnerDetails({\r\n                isOwner: true,\r\n                ownerWallet: _owners[i]\r\n            });\r\n            noOfOwners++;\r\n        }\r\n        emit LogCreatedTrustAccount(_owners, msg.sender, _limit);\r\n    }\r\n\r\n    /**\r\n      * @param _ballotID : the ballots ID\r\n      * @dev returns the details fo a single ballot\r\n      */\r\n    function getBallot(uint _ballotID)\r\n        public\r\n        view\r\n        returns(\r\n            VoteType typeOfVote, \r\n            uint startTime, \r\n            uint endTime, \r\n            address currentAddress, \r\n            address newAddress,\r\n            bool actedOn\r\n        )\r\n    {\r\n        typeOfVote = allBallots[_ballotID].typeOfVote;\r\n        startTime = allBallots[_ballotID].startTime;\r\n        endTime = allBallots[_ballotID].endTime;\r\n        currentAddress = allBallots[_ballotID].currentAddress;\r\n        newAddress = allBallots[_ballotID].newAddress;\r\n        actedOn = allBallots[_ballotID].actedOn;\r\n    }\r\n\r\n    /**\r\n      * @param _ballotID : the ballot ID\r\n      * @param _vote : their vote for the ballot\r\n      */\r\n    function voteFor(uint _ballotID, bool _vote)\r\n        public\r\n        isOwner()\r\n    {\r\n        allVotesForBallot[_ballotID].push(Votes ({\r\n            voter: msg.sender,\r\n            vote: _vote,\r\n            ballotID: _ballotID\r\n        }));\r\n    }\r\n\r\n    function requestOwner(VoteType _chosenType)\r\n        public\r\n        view\r\n    {\r\n        if(_chosenType == VoteType.withdrawRequest){\r\n            require(false);\r\n        }\r\n        //set individual variables depending on type of account\r\n        //eg\r\n        //if its remove owner, make new address 0x0 and use\r\n        //request changing of owership\r\n    }\r\n\r\n    /**\r\n      * @param _newOwnerAddress : the address of the new owner.\r\n      * @dev allows the user to change the wallet assosiated with the account. \r\n      *     The require ensures that this function cannot be called on the trust account\r\n      *     from the parent function (this function).\r\n      */\r\n    function changeOwner(address _oldOwnerAddress, address _newOwnerAddress)\r\n        public\r\n        isOwner()\r\n        isFrozen()\r\n        returns(address[])\r\n    {\r\n        AccessAccount.freeze();\r\n\r\n        //struct OwnerDetails {\r\n        //     bool isOwner;\r\n        //     address ownerWallet;\r\n        // }\r\n        // uint memory temp = noOfOwners;\r\n        // if(allOwners[temp].ownerWallet == _oldOwnerAddress){\r\n        //     allOwners[temp].ownerWallet = _newOwnerAddress;\r\n        //     require(temp > 0, \"Old Owner Address Not recognised\");\r\n        // }\r\n        for(uint i = noOfOwners; i > 0; i--){\r\n            if(allOwners[i].ownerWallet == _oldOwnerAddress){\r\n                require(allOwners[i].isOwner == true, \"Owner is not active\");\r\n                require(i >= 0, \"Function only usable by owner\");\r\n                break;\r\n            }\r\n        }\r\n        for(uint b = noOfOwners; b > 0; b--){\r\n            if(allOwners[b].ownerWallet == _oldOwnerAddress){\r\n                allOwners[b].ownerWallet = _newOwnerAddress;\r\n                allOwners[b].isOwner = true;\r\n                owners[b] = _newOwnerAddress;\r\n            }\r\n        }\r\n\r\n        AccessAccount.defrost();\r\n        return owners;\r\n    }\r\n\r\n    function requestWithdraw(address _to, uint _amount)\r\n        public\r\n        isOwner()\r\n        returns(uint)\r\n    {\r\n        require(_amount < balance, \"Cannot withdraw more than owned\");\r\n        this.createVote(VoteType.withdrawRequest, _to, 0x0, _amount);\r\n    }\r\n\r\n    function withdraw(uint _requstNo)\r\n        public\r\n        isOwner()\r\n    {\r\n        require(allBallots[_requstNo].typeOfVote == VoteType.withdrawRequest, \"Invalid request number\");\r\n        require(allBallots[_requstNo].endTime < now, \"Votes time has not passed. Please try again later\");\r\n        require(allBallots[_requstNo].actedOn == false, \"Withdraw has already taken place\");\r\n        require(allBallots[_requstNo].amount < balance, \"Insufficent funds\");\r\n\r\n        allBallots[_requstNo].actedOn = true;\r\n        allBallots[_requstNo].currentAddress.transfer(allBallots[_requstNo].amount);\r\n    }\r\n\r\n    // /**\r\n    //   * @param _amount : the amount to be withdrawn \r\n    //   * @dev only allows the owner(s) to withdraw. Dose not allow use if account is frozen \r\n    //   *     (or dissolved). Ensures the usage of witdraw in the child contracts for both delay\r\n    //   *     contracts and trust contracts. \r\n    //   */\r\n    // function withdraw(uint _amount)\r\n    //     public\r\n    //     isOwner()\r\n    //     isFrozen()\r\n    // {\r\n    //     AccessAccount.freeze();\r\n\r\n    //     require(thisAccountType != AccountType.trust, \"Please use withdraw function in trust contract\");\r\n    //     require(thisAccountType != AccountType.delay, \"Please use withdraw function in delay contract\");\r\n    //     require(_amount <= balance, \"Cannot withdraw more funds than available\");\r\n    //     balance -= _amount;\r\n    //     onwerAddress.transfer(_amount);\r\n\r\n    //     AccessAccount.defrost();\r\n    // }\r\n\r\n    event LogProgress(string _desc);\r\n    event LogValue(uint _value);\r\n\r\n    function dissolve()\r\n        public\r\n        isBank()\r\n    {\r\n        emit LogProgress(\"in disolve (trust)\");\r\n        frozen =  true;\r\n        uint valuePerOwner = balance / owners.length;\r\n        emit LogProgress(\"value per owner\");\r\n        emit LogValue(valuePerOwner);\r\n        for(uint i = 0; i <= owners.length; i++){\r\n            // owners[i].transfer(valuePerOwner);\r\n        }\r\n        // for(uint i = 0; i <= noOfOwners; i++){\r\n        //     emit LogProgress(\"in for loop\");\r\n        //     emit LogValue(i);\r\n        //     uint key = ownersKeys[owners[i]];\r\n        //     if(allOwners[key].isOwner == true){\r\n        //         owners[i].transfer(valuePerOwner);\r\n        //     }\r\n        // }\r\n        selfdestruct(bankAddress);\r\n    }\r\n}",
  "sourcePath": "C:\\Users\\Veronica Coutts\\Desktop\\Desktop\\Work\\LinumLabs\\PoCBank\\pocbank\\contracts\\TrustAccount.sol",
  "compiler": {
    "name": "solc",
    "version": "0.4.24+commit.e67f0147.Emscripten.clang"
  },
  "schemaVersion": "2.0.1",
  "updatedAt": "2018-10-03T15:04:14.612Z"
}