{
  "contractName": "TrustAccount",
  "abi": [
    {
      "inputs": [
        {
          "name": "_initialOwners",
          "type": "address"
        },
        {
          "name": "_bank",
          "type": "address"
        }
      ],
      "payable": false,
      "stateMutability": "nonpayable",
      "type": "constructor"
    },
    {
      "constant": false,
      "inputs": [
        {
          "name": "_voteType",
          "type": "uint8"
        },
        {
          "name": "_against",
          "type": "bool"
        }
      ],
      "name": "vote",
      "outputs": [
        {
          "name": "",
          "type": "bool"
        }
      ],
      "payable": false,
      "stateMutability": "nonpayable",
      "type": "function"
    },
    {
      "constant": false,
      "inputs": [
        {
          "name": "_amount",
          "type": "uint256"
        }
      ],
      "name": "deposit",
      "outputs": [],
      "payable": true,
      "stateMutability": "payable",
      "type": "function"
    },
    {
      "constant": true,
      "inputs": [],
      "name": "viewBalance",
      "outputs": [
        {
          "name": "",
          "type": "uint256"
        }
      ],
      "payable": false,
      "stateMutability": "view",
      "type": "function"
    }
  ],
  "bytecode": "0x608060405234801561001057600080fd5b5060405160408061047a833981018060405281019080805190602001909291908051906020019092919050505060016000808473ffffffffffffffffffffffffffffffffffffffff1673ffffffffffffffffffffffffffffffffffffffff16815260200190815260200160002060006101000a81548160ff02191690831515021790555080600160006101000a81548173ffffffffffffffffffffffffffffffffffffffff021916908373ffffffffffffffffffffffffffffffffffffffff1602179055505050610394806100e66000396000f300608060405260043610610057576000357c0100000000000000000000000000000000000000000000000000000000900463ffffffff1680632808241e1461005c5780633ff1e05b146100b0578063b6b55f25146100db575b600080fd5b34801561006857600080fd5b50610096600480360381019080803560ff1690602001909291908035151590602001909291905050506100fb565b604051808215151515815260200191505060405180910390f35b3480156100bc57600080fd5b506100c561022a565b6040518082815260200191505060405180910390f35b6100f960048036038101908080359060200190929190505050610355565b005b600033600160009054906101000a900473ffffffffffffffffffffffffffffffffffffffff1673ffffffffffffffffffffffffffffffffffffffff168173ffffffffffffffffffffffffffffffffffffffff1614806101a95750600115156000808373ffffffffffffffffffffffffffffffffffffffff1673ffffffffffffffffffffffffffffffffffffffff16815260200190815260200160002060009054906101000a900460ff161515145b151561021d576040517f08c379a000000000000000000000000000000000000000000000000000000000815260040180806020018281038252600d8152602001807f4d757374206265206f776e65720000000000000000000000000000000000000081525060200191505060405180910390fd5b3360019250505092915050565b600033600160009054906101000a900473ffffffffffffffffffffffffffffffffffffffff1673ffffffffffffffffffffffffffffffffffffffff168173ffffffffffffffffffffffffffffffffffffffff1614806102d85750600115156000808373ffffffffffffffffffffffffffffffffffffffff1673ffffffffffffffffffffffffffffffffffffffff16815260200190815260200160002060009054906101000a900460ff161515145b151561034c576040517f08c379a000000000000000000000000000000000000000000000000000000000815260040180806020018281038252600d8152602001807f4d757374206265206f776e65720000000000000000000000000000000000000081525060200191505060405180910390fd5b60025491505090565b34600260008282540192505081905550505600a165627a7a7230582007f581a8d5b4d932167e74bef3df8ccd19cfc9c651fdbd2cc3296811aa87a8660029",
  "source": "pragma solidity ^0.4.24;\r\n\r\ncontract TrustAccount {\r\n    mapping (address => bool) accountOwners;\r\n    address bank;\r\n    uint balance;\r\n    \r\n    enum VoteTypes {dissolve, freeze, withdraw, addOwner, deleteOwner}\r\n    struct OwnerVotes {\r\n        address owner;\r\n        VoteTypes typeOfVote;\r\n        bool voted;\r\n    }\r\n    struct voteDetails{\r\n        VoteTypes vote;\r\n        mapping (address => bool) owners;\r\n        OwnerVotes ifVotedForTypes;\r\n        bool[] votes;\r\n        bool compleated;\r\n    }\r\n    \r\n    voteDetails[] internal historyOfVotes;\r\n    \r\n    modifier onlyOwner(address isOwner){\r\n        require(isOwner == bank || accountOwners[isOwner] == true, \"Must be owner\");\r\n        _;\r\n    }\r\n    \r\n    modifier haveNotVoted(address owner){\r\n        //TODO: if the owner has not voted on this vote, dont fail\r\n        _;\r\n    }\r\n    \r\n    constructor(address _initialOwners, address _bank)\r\n    {\r\n        //TODO: \r\n        // accountOwners = _owners;\r\n        accountOwners[_initialOwners] = true;\r\n        bank = _bank;\r\n    }\r\n    \r\n    /**\r\n        @param _against : if they are voting yes this is true.\r\n    */\r\n    function vote(VoteTypes _voteType, bool _against)\r\n        public\r\n        onlyOwner(msg.sender)\r\n        haveNotVoted(msg.sender)\r\n        returns(bool)\r\n    {\r\n        //TODO: lock them for this specific vote type\r\n        //TODO: make their vote what they voted. \r\n        return true;\r\n    }\r\n    \r\n    function getVotes(VoteTypes _voteType)\r\n        internal\r\n        returns(bool[])\r\n    {\r\n        //TODO: get the votes of the owners\r\n        //TODO: checks that the time has passsed\r\n        //TODO: assert fail if time has not passed. \r\n        //TODO: check in the history of all the others for:\r\n            //TODO: any vote after a dissolve \r\n            //TODO: no votes during a freeze \r\n    }\r\n\r\n    function deposit(uint _amount)\r\n        public \r\n        payable\r\n        //TODO: lockAccount\r\n    {\r\n        balance += msg.value;\r\n        //TODO: lockAccount();\r\n        //TODO: unlockAccount();\r\n    }\r\n    \r\n    function viewBalance()\r\n        public\r\n        view\r\n        onlyOwner(msg.sender)\r\n        returns(uint)\r\n    {\r\n        return balance;\r\n    }\r\n}",
  "sourcePath": "C:\\Users\\Veronica Coutts\\Desktop\\Desktop\\Work\\LinumLabs\\PoCBank\\pocbank\\contracts\\TrustAccount.sol",
  "compiler": {
    "name": "solc",
    "version": "0.4.24+commit.e67f0147.Emscripten.clang"
  },
  "schemaVersion": "2.0.1",
  "updatedAt": "2018-09-29T13:05:00.958Z"
}