{
  "contractName": "TrustAccount",
  "abi": [
    {
      "constant": true,
      "inputs": [],
      "name": "getBalance",
      "outputs": [
        {
          "name": "",
          "type": "uint256"
        }
      ],
      "payable": false,
      "stateMutability": "view",
      "type": "function"
    },
    {
      "constant": false,
      "inputs": [],
      "name": "dissolve",
      "outputs": [],
      "payable": false,
      "stateMutability": "nonpayable",
      "type": "function"
    },
    {
      "constant": false,
      "inputs": [],
      "name": "freeze",
      "outputs": [],
      "payable": false,
      "stateMutability": "nonpayable",
      "type": "function"
    },
    {
      "constant": true,
      "inputs": [],
      "name": "getFrozen",
      "outputs": [
        {
          "name": "",
          "type": "bool"
        }
      ],
      "payable": false,
      "stateMutability": "view",
      "type": "function"
    },
    {
      "constant": false,
      "inputs": [],
      "name": "deposit",
      "outputs": [],
      "payable": true,
      "stateMutability": "payable",
      "type": "function"
    },
    {
      "constant": false,
      "inputs": [],
      "name": "defrost",
      "outputs": [],
      "payable": false,
      "stateMutability": "nonpayable",
      "type": "function"
    },
    {
      "inputs": [
        {
          "name": "_owner",
          "type": "address"
        },
        {
          "name": "_owners",
          "type": "address[]"
        },
        {
          "name": "_limit",
          "type": "uint256"
        }
      ],
      "payable": false,
      "stateMutability": "nonpayable",
      "type": "constructor"
    },
    {
      "anonymous": false,
      "inputs": [
        {
          "indexed": false,
          "name": "owners",
          "type": "address[]"
        },
        {
          "indexed": false,
          "name": "_bank",
          "type": "address"
        },
        {
          "indexed": false,
          "name": "_limit",
          "type": "uint256"
        }
      ],
      "name": "LogCreatedTrustAccount",
      "type": "event"
    },
    {
      "anonymous": false,
      "inputs": [
        {
          "indexed": false,
          "name": "_owner",
          "type": "address"
        },
        {
          "indexed": false,
          "name": "_bank",
          "type": "address"
        }
      ],
      "name": "LogCreatedAccessAcount",
      "type": "event"
    },
    {
      "anonymous": false,
      "inputs": [
        {
          "indexed": false,
          "name": "_where",
          "type": "string"
        }
      ],
      "name": "LogUnexpectedRevert",
      "type": "event"
    },
    {
      "constant": false,
      "inputs": [
        {
          "name": "_newOwnerAddress",
          "type": "address"
        }
      ],
      "name": "changeOwner",
      "outputs": [],
      "payable": false,
      "stateMutability": "nonpayable",
      "type": "function"
    },
    {
      "constant": false,
      "inputs": [
        {
          "name": "_newOwnerAddress",
          "type": "address"
        },
        {
          "name": "_oldOwnerAddress",
          "type": "address"
        }
      ],
      "name": "changeOwner",
      "outputs": [],
      "payable": false,
      "stateMutability": "nonpayable",
      "type": "function"
    },
    {
      "constant": false,
      "inputs": [
        {
          "name": "_amount",
          "type": "uint256"
        }
      ],
      "name": "withdraw",
      "outputs": [],
      "payable": false,
      "stateMutability": "nonpayable",
      "type": "function"
    }
  ],
  "bytecode": "0x6080604052600060065534801561001557600080fd5b50604051611d30380380611d308339810180604052810190808051906020019092919080518201929190602001805190602001909291905050506000808460028482600160006101000a81548173ffffffffffffffffffffffffffffffffffffffff021916908373ffffffffffffffffffffffffffffffffffffffff160217905550336000806101000a81548173ffffffffffffffffffffffffffffffffffffffff021916908373ffffffffffffffffffffffffffffffffffffffff16021790555081600460026101000a81548160ff021916908360028111156100f557fe5b0217905550806003819055506000600460006101000a81548160ff0219169083151502179055506000600460016101000a81548160ff0219169083151502179055507f73b879a2222e34c9d4c25fc1d12763a471d760e232aeb8e8b3e3150f0a202cc48333604051808373ffffffffffffffffffffffffffffffffffffffff1673ffffffffffffffffffffffffffffffffffffffff1681526020018273ffffffffffffffffffffffffffffffffffffffff1673ffffffffffffffffffffffffffffffffffffffff1681526020019250505060405180910390a150505084600160006101000a81548173ffffffffffffffffffffffffffffffffffffffff021916908373ffffffffffffffffffffffffffffffffffffffff160217905550336000806101000a81548173ffffffffffffffffffffffffffffffffffffffff021916908373ffffffffffffffffffffffffffffffffffffffff1602179055508260038190555083519150600090505b8181101561034e57604080519081016040528060011515815260200185600081518110151561028d57fe5b9060200190602002015173ffffffffffffffffffffffffffffffffffffffff1681525060076000600654815260200190815260200160002060008201518160000160006101000a81548160ff02191690831515021790555060208201518160000160016101000a81548173ffffffffffffffffffffffffffffffffffffffff021916908373ffffffffffffffffffffffffffffffffffffffff1602179055509050506006600081548092919060010191905055508080600101915050610262565b7f3a650401d4f28871cc7011cf20e98637ced898f0c304280307332b3bfc947f6784338560405180806020018473ffffffffffffffffffffffffffffffffffffffff1673ffffffffffffffffffffffffffffffffffffffff168152602001838152602001828103825285818151815260200191508051906020019060200280838360005b838110156103ed5780820151818401526020810190506103d2565b5050505090500194505050505060405180910390a1505050505061191a806104166000396000f300608060405260043610610099576000357c0100000000000000000000000000000000000000000000000000000000900463ffffffff16806312065fe01461009e5780632e1a7d4d146100c95780633bef8a3a146100f657806362a5af3b1461010d5780637495b35314610124578063a6f9dae114610153578063d0e30db014610196578063f00d4b5d146101a0578063f21cdf6f14610203575b600080fd5b3480156100aa57600080fd5b506100b361021a565b6040518082815260200191505060405180910390f35b3480156100d557600080fd5b506100f460048036038101908080359060200190929190505050610224565b005b34801561010257600080fd5b5061010b610781565b005b34801561011957600080fd5b506101226108b6565b005b34801561013057600080fd5b50610139610b9c565b604051808215151515815260200191505060405180910390f35b34801561015f57600080fd5b50610194600480360381019080803573ffffffffffffffffffffffffffffffffffffffff169060200190929190505050610bb3565b005b61019e610e32565b005b3480156101ac57600080fd5b50610201600480360381019080803573ffffffffffffffffffffffffffffffffffffffff169060200190929190803573ffffffffffffffffffffffffffffffffffffffff169060200190929190505050611080565b005b34801561020f57600080fd5b50610218611621565b005b6000600254905090565b60008060065491506000809054906101000a900473ffffffffffffffffffffffffffffffffffffffff1673ffffffffffffffffffffffffffffffffffffffff163373ffffffffffffffffffffffffffffffffffffffff16141561028657610428565b8190505b6000811115610427573373ffffffffffffffffffffffffffffffffffffffff166007600084815260200190815260200160002060000160019054906101000a900473ffffffffffffffffffffffffffffffffffffffff1673ffffffffffffffffffffffffffffffffffffffff16141561041a57600115156007600084815260200190815260200160002060000160009054906101000a900460ff16151514151561039c576040517f08c379a00000000000000000000000000000000000000000000000000000000081526004018080602001828103825260138152602001807f4f776e6572206973206e6f74206163746976650000000000000000000000000081525060200191505060405180910390fd5b60008210151515610415576040517f08c379a000000000000000000000000000000000000000000000000000000000815260040180806020018281038252601d8152602001807f46756e6374696f6e206f6e6c7920757361626c65206279206f776e657200000081525060200191505060405180910390fd5b610427565b808060010191505061028a565b5b60001515600460009054906101000a900460ff1615151415156104b3576040517f08c379a00000000000000000000000000000000000000000000000000000000081526004018080602001828103825260118152602001807f4163636f756e742069732066726f7a656e00000000000000000000000000000081525060200191505060405180910390fd5b600460019054906101000a900460ff161515156104cc57fe5b6104d46108b6565b6002808111156104e057fe5b600460029054906101000a900460ff1660028111156104fb57fe5b14151515610597576040517f08c379a000000000000000000000000000000000000000000000000000000000815260040180806020018281038252602e8152602001807f506c65617365207573652077697468647261772066756e6374696f6e20696e2081526020017f747275737420636f6e747261637400000000000000000000000000000000000081525060400191505060405180910390fd5b600160028111156105a457fe5b600460029054906101000a900460ff1660028111156105bf57fe5b1415151561065b576040517f08c379a000000000000000000000000000000000000000000000000000000000815260040180806020018281038252602e8152602001807f506c65617365207573652077697468647261772066756e6374696f6e20696e2081526020017f64656c617920636f6e747261637400000000000000000000000000000000000081525060400191505060405180910390fd5b60025483111515156106fb576040517f08c379a00000000000000000000000000000000000000000000000000000000081526004018080602001828103825260298152602001807f43616e6e6f74207769746864726177206d6f72652066756e6473207468616e2081526020017f617661696c61626c65000000000000000000000000000000000000000000000081525060400191505060405180910390fd5b82600260008282540392505081905550600160009054906101000a900473ffffffffffffffffffffffffffffffffffffffff1673ffffffffffffffffffffffffffffffffffffffff166108fc849081150290604051600060405180830381858888f19350505050158015610773573d6000803e3d6000fd5b5061077c611621565b505050565b6000809054906101000a900473ffffffffffffffffffffffffffffffffffffffff1673ffffffffffffffffffffffffffffffffffffffff163373ffffffffffffffffffffffffffffffffffffffff16141515610845576040517f08c379a000000000000000000000000000000000000000000000000000000000815260040180806020018281038252601c8152602001807f46756e6374696f6e206f6e6c7920757361626c652062792062616e6b0000000081525060200191505060405180910390fd5b6001600460016101000a81548160ff0219169083151502179055506001600460006101000a81548160ff021916908315150217905550600160009054906101000a900473ffffffffffffffffffffffffffffffffffffffff1673ffffffffffffffffffffffffffffffffffffffff16ff5b60008060065491506000809054906101000a900473ffffffffffffffffffffffffffffffffffffffff1673ffffffffffffffffffffffffffffffffffffffff163373ffffffffffffffffffffffffffffffffffffffff16141561091857610aba565b8190505b6000811115610ab9573373ffffffffffffffffffffffffffffffffffffffff166007600084815260200190815260200160002060000160019054906101000a900473ffffffffffffffffffffffffffffffffffffffff1673ffffffffffffffffffffffffffffffffffffffff161415610aac57600115156007600084815260200190815260200160002060000160009054906101000a900460ff161515141515610a2e576040517f08c379a00000000000000000000000000000000000000000000000000000000081526004018080602001828103825260138152602001807f4f776e6572206973206e6f74206163746976650000000000000000000000000081525060200191505060405180910390fd5b60008210151515610aa7576040517f08c379a000000000000000000000000000000000000000000000000000000000815260040180806020018281038252601d8152602001807f46756e6374696f6e206f6e6c7920757361626c65206279206f776e657200000081525060200191505060405180910390fd5b610ab9565b808060010191505061091c565b5b60001515600460009054906101000a900460ff161515141515610b45576040517f08c379a00000000000000000000000000000000000000000000000000000000081526004018080602001828103825260118152602001807f4163636f756e742069732066726f7a656e00000000000000000000000000000081525060200191505060405180910390fd5b600460019054906101000a900460ff16151515610b5e57fe5b60001515600460019054906101000a900460ff161515141515610b7d57fe5b6001600460006101000a81548160ff0219169083151502179055505050565b6000600460009054906101000a900460ff16905090565b6000809054906101000a900473ffffffffffffffffffffffffffffffffffffffff1673ffffffffffffffffffffffffffffffffffffffff163373ffffffffffffffffffffffffffffffffffffffff16141515610c77576040517f08c379a000000000000000000000000000000000000000000000000000000000815260040180806020018281038252601c8152602001807f46756e6374696f6e206f6e6c7920757361626c652062792062616e6b0000000081525060200191505060405180910390fd5b60001515600460009054906101000a900460ff161515141515610d02576040517f08c379a00000000000000000000000000000000000000000000000000000000081526004018080602001828103825260118152602001807f4163636f756e742069732066726f7a656e00000000000000000000000000000081525060200191505060405180910390fd5b600460019054906101000a900460ff16151515610d1b57fe5b610d236108b6565b600280811115610d2f57fe5b600460029054906101000a900460ff166002811115610d4a57fe5b14151515610de6576040517f08c379a00000000000000000000000000000000000000000000000000000000081526004018080602001828103825260318152602001807f506c6561736520757365206368616e67654f776e65722066756e6374696f6e2081526020017f696e20747275737420636f6e747261637400000000000000000000000000000081525060400191505060405180910390fd5b80600160006101000a81548173ffffffffffffffffffffffffffffffffffffffff021916908373ffffffffffffffffffffffffffffffffffffffff160217905550610e2f611621565b50565b60001515600460009054906101000a900460ff161515141515610ebd576040517f08c379a00000000000000000000000000000000000000000000000000000000081526004018080602001828103825260118152602001807f4163636f756e742069732066726f7a656e00000000000000000000000000000081525060200191505060405180910390fd5b600460019054906101000a900460ff16151515610ed657fe5b600034111515610f4e576040517f08c379a00000000000000000000000000000000000000000000000000000000081526004018080602001828103825260188152602001807f56616c75652063616e6e6f74206265206e65676174697665000000000000000081525060200191505060405180910390fd5b60003460025401111515610ff0576040517f08c379a00000000000000000000000000000000000000000000000000000000081526004018080602001828103825260228152602001807f56616c75652063616e6e6f74206d616b652062616c616e6365206e656761746981526020017f766500000000000000000000000000000000000000000000000000000000000081525060400191505060405180910390fd5b60035434600254011115151561106e576040517f08c379a00000000000000000000000000000000000000000000000000000000081526004018080602001828103825260208152602001807f4465706f7369742074616b6573206163636f756e74206f766572206c696d697481525060200191505060405180910390fd5b34600260008282540192505081905550565b60008060008060065491506000809054906101000a900473ffffffffffffffffffffffffffffffffffffffff1673ffffffffffffffffffffffffffffffffffffffff163373ffffffffffffffffffffffffffffffffffffffff1614156110e557611287565b8190505b6000811115611286573373ffffffffffffffffffffffffffffffffffffffff166007600084815260200190815260200160002060000160019054906101000a900473ffffffffffffffffffffffffffffffffffffffff1673ffffffffffffffffffffffffffffffffffffffff16141561127957600115156007600084815260200190815260200160002060000160009054906101000a900460ff1615151415156111fb576040517f08c379a00000000000000000000000000000000000000000000000000000000081526004018080602001828103825260138152602001807f4f776e6572206973206e6f74206163746976650000000000000000000000000081525060200191505060405180910390fd5b60008210151515611274576040517f08c379a000000000000000000000000000000000000000000000000000000000815260040180806020018281038252601d8152602001807f46756e6374696f6e206f6e6c7920757361626c65206279206f776e657200000081525060200191505060405180910390fd5b611286565b80806001019150506110e9565b5b60001515600460009054906101000a900460ff161515141515611312576040517f08c379a00000000000000000000000000000000000000000000000000000000081526004018080602001828103825260118152602001807f4163636f756e742069732066726f7a656e00000000000000000000000000000081525060200191505060405180910390fd5b600460019054906101000a900460ff1615151561132b57fe5b6113336108b6565b60065493508473ffffffffffffffffffffffffffffffffffffffff166007600086815260200190815260200160002060000160019054906101000a900473ffffffffffffffffffffffffffffffffffffffff1673ffffffffffffffffffffffffffffffffffffffff16141561147057856007600086815260200190815260200160002060000160016101000a81548173ffffffffffffffffffffffffffffffffffffffff021916908373ffffffffffffffffffffffffffffffffffffffff16021790555060008411151561146f576040517f08c379a00000000000000000000000000000000000000000000000000000000081526004018080602001828103825260208152602001807f4f6c64204f776e65722041646472657373204e6f74207265636f676e6973656481525060200191505060405180910390fd5b5b8392505b6000831115611611578473ffffffffffffffffffffffffffffffffffffffff166007600086815260200190815260200160002060000160019054906101000a900473ffffffffffffffffffffffffffffffffffffffff1673ffffffffffffffffffffffffffffffffffffffff16141561160457600115156007600086815260200190815260200160002060000160009054906101000a900460ff161515141515611586576040517f08c379a00000000000000000000000000000000000000000000000000000000081526004018080602001828103825260138152602001807f4f776e6572206973206e6f74206163746976650000000000000000000000000081525060200191505060405180910390fd5b600084101515156115ff576040517f08c379a000000000000000000000000000000000000000000000000000000000815260040180806020018281038252601d8152602001807f46756e6374696f6e206f6e6c7920757361626c65206279206f776e657200000081525060200191505060405180910390fd5b611611565b8280600101935050611474565b611619611621565b505050505050565b60008060065491506000809054906101000a900473ffffffffffffffffffffffffffffffffffffffff1673ffffffffffffffffffffffffffffffffffffffff163373ffffffffffffffffffffffffffffffffffffffff16141561168357611825565b8190505b6000811115611824573373ffffffffffffffffffffffffffffffffffffffff166007600084815260200190815260200160002060000160019054906101000a900473ffffffffffffffffffffffffffffffffffffffff1673ffffffffffffffffffffffffffffffffffffffff16141561181757600115156007600084815260200190815260200160002060000160009054906101000a900460ff161515141515611799576040517f08c379a00000000000000000000000000000000000000000000000000000000081526004018080602001828103825260138152602001807f4f776e6572206973206e6f74206163746976650000000000000000000000000081525060200191505060405180910390fd5b60008210151515611812576040517f08c379a000000000000000000000000000000000000000000000000000000000815260040180806020018281038252601d8152602001807f46756e6374696f6e206f6e6c7920757361626c65206279206f776e657200000081525060200191505060405180910390fd5b611824565b8080600101915050611687565b5b60001515600460019054906101000a900460ff16151514151561184457fe5b60011515600460009054906101000a900460ff1615151415156118cf576040517f08c379a00000000000000000000000000000000000000000000000000000000081526004018080602001828103825260188152602001807f4163636f756e7420616c726561647920756e66726f7a656e000000000000000081525060200191505060405180910390fd5b6000600460006101000a81548160ff02191690831515021790555050505600a165627a7a72305820cc84e57d497348298a2d1fc5500eb225ac13ba380b226c4bfc4cb8c2611cb8df0029",
  "source": "pragma solidity ^0.4.24;\r\n\r\nimport \"./AccessAccount.sol\";\r\n\r\ncontract TrustAccount is AccessAccount {\r\n    address[] owners;\r\n    uint noOfOwners = 0;\r\n    struct OwnerDetails {\r\n        bool isOwner;\r\n        address ownerWallet;\r\n    }\r\n    mapping(uint => OwnerDetails) allOwners;\r\n\r\n    event LogCreatedTrustAccount(address[] owners, address _bank, uint _limit);\r\n\r\n    modifier isOwner() {\r\n        uint temp = noOfOwners;\r\n        if(msg.sender == AccessAccount.bankAddress){\r\n            //checks the msg.sender is the bank, if it is it skipps the next check\r\n        } else {\r\n            //checks the user is not one of the other owners, fails if it runs out of \r\n            //owners tocheck.\r\n            for(uint i = temp; i > 0; i++){\r\n                if(allOwners[temp].ownerWallet == msg.sender){\r\n                    require(allOwners[temp].isOwner == true, \"Owner is not active\");\r\n                    require(temp >= 0, \"Function only usable by owner\");\r\n                    break;\r\n                }\r\n            }\r\n        }\r\n        _;\r\n    }\r\n\r\n    constructor(address _owner, address[] _owners, uint _limit)\r\n        AccessAccount(_owner, AccessAccount.AccountType.trust, _limit)\r\n        public\r\n    {\r\n        AccessAccount.onwerAddress = _owner;\r\n        bankAddress = msg.sender;\r\n        AccessAccount.accountLimit = _limit;\r\n        uint noOfOwnersInArray = _owners.length;\r\n        for(uint i = 0; i < noOfOwnersInArray; i++){\r\n            allOwners[noOfOwners] = OwnerDetails({\r\n                isOwner: true,\r\n                ownerWallet: _owners[0]\r\n            });\r\n            noOfOwners++;\r\n        }\r\n        emit LogCreatedTrustAccount(_owners, msg.sender, _limit);\r\n    }\r\n\r\n    /**\r\n      * @param _newOwnerAddress : the address of the new owner.\r\n      * @dev allows the user to change the wallet assosiated with the account. \r\n      *     The require ensures that this function cannot be called on the trust account\r\n      *     from the parent function (this function).\r\n      */\r\n    function changeOwner(address _newOwnerAddress, address _oldOwnerAddress)\r\n        public\r\n        isOwner()\r\n        isFrozen()\r\n    {\r\n        AccessAccount.freeze();\r\n\r\n        uint temp = noOfOwners;\r\n        if(allOwners[temp].ownerWallet == _oldOwnerAddress){\r\n            allOwners[temp].ownerWallet = _newOwnerAddress;\r\n            require(temp > 0, \"Old Owner Address Not recognised\");\r\n        }\r\n        for(uint i = temp; i > 0; i++){\r\n                if(allOwners[temp].ownerWallet == _oldOwnerAddress){\r\n                    require(allOwners[temp].isOwner == true, \"Owner is not active\");\r\n                    require(temp >= 0, \"Function only usable by owner\");\r\n                    break;\r\n                }\r\n            }\r\n\r\n        AccessAccount.defrost();\r\n    }\r\n\r\n    /**\r\n      * @param _amount : the amount to be withdrawn \r\n      * @dev only allows the owner(s) to withdraw. Dose not allow use if account is frozen \r\n      *     (or dissolved). Ensures the usage of witdraw in the child contracts for both delay\r\n      *     contracts and trust contracts. \r\n      */\r\n    function withdraw(uint _amount)\r\n        public\r\n        isOwner()\r\n        isFrozen()\r\n    {\r\n        AccessAccount.freeze();\r\n\r\n        require(thisAccountType != AccountType.trust, \"Please use withdraw function in trust contract\");\r\n        require(thisAccountType != AccountType.delay, \"Please use withdraw function in delay contract\");\r\n        require(_amount <= balance, \"Cannot withdraw more funds than available\");\r\n        balance -= _amount;\r\n        onwerAddress.transfer(_amount);\r\n\r\n        AccessAccount.defrost();\r\n    }\r\n}",
  "sourcePath": "C:\\Users\\Veronica Coutts\\Desktop\\Desktop\\Work\\LinumLabs\\PoCBank\\pocbank\\contracts\\TrustAccount.sol",
  "compiler": {
    "name": "solc",
    "version": "0.4.24+commit.e67f0147.Emscripten.clang"
  },
  "schemaVersion": "2.0.1",
  "updatedAt": "2018-09-30T17:54:55.253Z"
}